:04000000FEEF3FF0E0
:100800000000000000003E5149453E00427F40008C
:1008100042615149462141454B311814127F10273E
:10082000454545393C4A4949300171090503364976
:10083000494936064949291E7E1111117E7F4949D1
:1008400049363E414141227F4141221C7F4949496D
:10085000417F090909013E4149497A7F0808087F1B
:1008600000417F41002040413F017F081422417F29
:10087000404040407F020C027F7F0408107F3E41D1
:1008800041413E7F090909063E4151215E7F091918
:100890002946464949493101017F01013F40404015
:1008A0003F1F2040201F3F4038403F63140814631F
:1008B0000708700807615149454300005F000000C8
:1008C000060909060000080000494E494349414E07
:1008D000444F0048202564252500542025642043EA
:1008E0000041202564004C20256400001250800B3C
:1008F0001B6E12501224216E11AE81EF04F083EFB3
:1009000004F084EF04F021802150D8B48AEF04F081
:100910008CEF04F09FEF04F02128D8A492EF04F0AC
:1009200094EF04F09CEF04F0000E0F6E000E106EBA
:10093000000E116E000E126E118EA7EF04F0000E65
:100940000F6E000E106E000E116E000E126E16501D
:10095000800B1B1A16501624206E15AEB2EF04F051
:10096000B4EF04F0B5EF04F020802050D8B4BBEF12
:1009700004F0BDEF04F0D0EF04F02028D8A4C3EFBA
:1009800004F0C5EF04F0CDEF04F0000E136E000E7E
:10099000146E000E156E000E166E158ED8EF04F054
:1009A000000E136E000E146E000E156E000E166E05
:1009B0002050D8B4DEEF04F0E0EF04F0E8EF04F0EC
:1009C0002150D8A4E6EF04F0E8EF04F0F2EF04F0D1
:1009D000000E0F6E000E106E000E116E000E126EE5
:1009E00088EF06F015500F02F3CF26F0F4CF27F072
:1009F00026501C6E1D6A1E6A1F6A2750226E236ACB
:100A0000246A256A14501002F3CF26F0F4CF27F0A1
:100A100026501C26000E1D221E221F222750222691
:100A2000000E23222422252213501102F3CF26F098
:100A3000F4CF27F026501C26000E1D221E221F2256
:100A400027502226000E2322242225221EC01FF01A
:100A50001DC01EF01CC01DF01C6A13501002F3CF05
:100A600026F0F4CF27F026501C2627501D22000E1A
:100A70001E22000E1F2214500F02F3CF26F0F4CFD7
:100A800027F026501C2627501D22000E1E22000E85
:100A90001F221EC01FF01DC01EF01CC01DF01C6ACE
:100AA00013500F02F3CF26F0F4CF27F026501C2668
:100AB00027501D22000E1E22000E1F22155010026C
:100AC000F3CF26F0F4CF27F02650222627502322FA
:100AD000000E2422000E252214501102F3CF26F01E
:100AE000F4CF27F02650222627502322000E24225E
:100AF000000E252215501102F3CF26F0F4CF27F077
:100B00002650176E2750186E196A1A6A19C01AF003
:100B100018C019F017C018F0176A1750222618507D
:100B20002322195024221A5025221CC017F01DC060
:100B300018F01EC019F01FC01AF0190EA5EF05F02D
:100B4000D8901A32193218321732E82EA0EF05F079
:100B50001750222618502322195024221A502522D9
:100B60001EC01FF01DC01EF01CC01DF01C6A2050CE
:100B700021C017F0186A1726000E1822820E1724BB
:100B8000266EFF0E1820276EDBEF05F0D890223678
:100B90002336243625361FAED0EF05F0D2EF05F010
:100BA000D3EF05F02280D8901C361D361E361F3636
:100BB0002606D8A0270624AEE0EF05F0E2EF05F008
:100BC000C6EF05F0206A1FAEE8EF05F0EAEF05F08A
:100BD0000EEF06F0FF0E1C14176EFF0E1D14186E9C
:100BE000FF0E1E14196E7F0E1F141A6E1750181068
:100BF00019101A10D8B4FFEF05F001EF06F005EF59
:100C000006F0010E206E0EEF06F022A00AEF06F0AD
:100C10000CEF06F00EEF06F001EF06F02050D8B40E
:100C200014EF06F016EF06F03AEF06F0010E22265A
:100C3000000E23222422252225A021EF06F023EFF7
:100C400006F03AEF06F022C017F023C018F024C0D7
:100C500019F025C01AF01A341A3219321832173224
:100C600017C022F018C023F019C024F01AC025F0D4
:100C7000264A272A27BE45EF06F0275008E12628F6
:100C8000D8A045EF06F047EF06F051EF06F0000E52
:100C9000226E000E236E800E246E7F0E256E7EEF78
:100CA00006F027BE5EEF06F0275006E12604D8B016
:100CB0005CEF06F05EEF06F069EF06F0000E226EC4
:100CC000000E236E000E246E000E256E1B6A7EEF52
:100CD00006F026C021F0FF0E2216FF0E23167F0E0F
:100CE0002416000E251621A078EF06F07AEF06F004
:100CF0007BEF06F0248ED8902130256E1B502512F4
:100D000022C00FF023C010F024C011F025C012F053
:100D100012002B50800B386E2B502B243F6E2AAEC6
:100D200094EF06F096EF06F097EF06F03F803F5005
:100D3000D8B49DEF06F09FEF06F0B3EF06F03F2822
:100D4000D8A4A5EF06F0A7EF06F0AFEF06F0000E6F
:100D5000286E000E296E000E2A6E000E2B6E2A8E53
:100D60002B6ABBEF06F0000E286E000E296E000EF7
:100D70002A6E000E2B6E2F50800B381A2F502F2406
:100D8000406E2EAEC6EF06F0C8EF06F0C9EF06F0D3
:100D900040804050D8B4CFEF06F0D1EF06F0E5EF39
:100DA00006F04028D8A4D7EF06F0D9EF06F0E1EF1F
:100DB00006F0000E2C6E000E2D6E000E2E6E000E34
:100DC0002F6E2E8E2F6AEDEF06F0000E2C6E000EA9
:100DD0002D6E000E2E6E000E2F6E2C502D102E102C
:100DE0002F10D8A4F6EF06F0F8EF06F010EF07F09A
:100DF000000E286E000E296E000E2A6E000E2B6E5D
:100E0000800E2A127F0E2B1238502B1228C028F089
:100E100029C029F02AC02AF02BC02BF04FEF08F090
:100E20003F50D8A416EF07F018EF07F022EF07F0B5
:100E3000000E286E000E296E000E2A6E000E2B6E1C
:100E40004FEF08F040503FC030F0316A305E000E86
:100E5000315A7F0E3024396E000E31203A6E28C090
:100E600034F029C035F02AC036F02BC037F0000E20
:100E7000286E000E296E000E2A6E000E2B6E000EDC
:100E80003B6E000E3C6E000E3D6E000E3E6E406AE4
:100E900082EF07F04050D8B450EF07F052EF07F060
:100EA00069EF07F0D8903436353636363736D89075
:100EB000283629362A362B363EAE61EF07F063EF2F
:100EC00007F064EF07F02880D8903B363C363D367B
:100ED0003E362C50345C2D5035582E5036582F50FD
:100EE0003758D8A076EF07F078EF07F081EF07F0DA
:100EF0003E8C2C50345E2D50355A2E50365A2F5081
:100F0000375A402A190E406488EF07F08AEF07F03D
:100F10004AEF07F03450351036103710D8B493EF3D
:100F200007F095EF07F0ADEF07F03B80ADEF07F06E
:100F3000D890283629362A362B363EAEA2EF07F057
:100F4000A4EF07F0A5EF07F02880D8903B363C3699
:100F50003D363E363906D8A03A062AAEB2EF07F043
:100F6000B4EF07F098EF07F0406A3EAEBAEF07F033
:100F7000BCEF07F0E0EF07F0FF0E3B14306EFF0E02
:100F80003C14316EFF0E3D14326E7F0E3E14336EF4
:100F90003050311032103310D8B4D1EF07F0D3EF06
:100FA00007F0D7EF07F0010E406EE0EF07F028A042
:100FB000DCEF07F0DEEF07F0E0EF07F0D3EF07F02C
:100FC0004050D8B4E6EF07F0E8EF07F00CEF08F078
:100FD000010E2826000E29222A222B222BA0F3EF15
:100FE00007F0F5EF07F00CEF08F028C030F029C04B
:100FF00031F02AC032F02BC033F033343332323286
:101000003132303230C028F031C029F032C02AF0FD
:1010100033C02BF0394A3A2A3ABE17EF08F03A505B
:1010200008E13928D8A017EF08F019EF08F024EFED
:1010300008F0000E3A6E3968000E286E000E296E18
:10104000000E2A6E000E2B6E3ABE31EF08F03A50B9
:1010500006E13904D8B02FEF08F031EF08F03DEF8A
:1010600008F03A6A000E396E000E286E000E296EE6
:10107000000E2A6E000E2B6E386A39C03FF03FA07A
:1010800044EF08F046EF08F049EF08F02A8E4AEFE7
:1010900008F02A9ED8903F302B6E04EF07F0120024
:1010A000C4EC12F0060E506E130E4F6EAE0EE82E0C
:1010B000FED74F2EFCD7502EFAD7D3EC12F0AFEC60
:1010C00012F0CCEC12F053EC0DF0E5EC10F0C6ECA5
:1010D00011F04BEC12F0000E056E000E6FEC12F0EA
:1010E000C90E096E0950D8A4080E0A6EB6EC10F0AD
:1010F0000B0E506E260E4F6E5E0EE82EFED74F2E54
:10110000FCD7502EFAD7E5EC10F0F8EC0FF041C008
:101110008EF042C08FF043C090F044C091F0BAEC22
:1011200012F005C09AF006C09BF027EC0BF041C00E
:1011300092F042C093F043C094F044C095F061EC4B
:101140000FF041C096F042C097F043C098F044C001
:1011500099F08EC00DF08FC00EF090C00FF091C0CE
:1011600010F0C3EC0EF096C00DF097C00EF098C0D2
:101170000FF099C010F012EC0FF09AC005F09BC070
:1011800006F011EC11F092C00DF093C00EF094C077
:101190000FF095C010F03AEC10F0000E62EC11F078
:1011A000000E056E000E6FEC12F0800E1A6EDA0E55
:1011B0001B6E8EC001F08FC002F090C003F091C092
:1011C00004F04EEC0CF001C01CF002C01DF01DEC50
:1011D00012F0800E096E0A6AB6EC10F0020E62EC94
:1011E00011F0020E056E000E6FEC12F0800E1A6EFA
:1011F000D30E1B6E92C001F093C002F094C003F0B6
:1012000095C004F04EEC0CF001C01CF002C01DF0C3
:101210001DEC12F0800E096E0A6AB6EC10F0040E96
:1012200062EC11F0040E056E000E6FEC12F0800EF1
:101230001A6EE10E1B6E9AC01CF09BC01DF01DECD7
:1012400012F0800E096E0A6AB6EC10F0060E62EC1F
:1012500011F0060E056E000E6FEC12F0800E1A6E85
:10126000E60E1B6E96C001F097C002F098C003F026
:1012700099C004F04EEC0CF001C01CF002C01DF04F
:101280001DEC12F0800E096E0A6AB6EC10F00B0E1F
:10129000506E260E4F6E5E0EE82EFED74F2EFCD7F8
:1012A000502EFAD785EF08F0FEEF3FF00C50D96EC4
:1012B000DA6ADFCFF6FF080EF76E0800F550250A50
:1012C000D8A465EF09F067EF09F03BEF0AF00C5086
:1012D000D96EDA6ADF2A526A000E516E51C05BF095
:1012E000536854680C50D96EDA6ADF50106E10C023
:1012F000F6FF080EF76E0800F550640AD8B483EFC5
:1013000009F085EF09F093EF09F010C0F6FF080E21
:10131000F76E0800F550690AD8A491EF09F093EF31
:1013200009F017EF0AF00D50D96EDA6A020EDF26C7
:10133000DF5CD96EDA6ADECF11F0DECF12F00C502E
:10134000D96EDA6A1028DF6E200E156E12BEABEF72
:1013500009F0AEEF09F0010EAFEF09F0000E0F6ECD
:1013600015061550600FD96EDA6A11C001F012C06F
:1013700002F0046A0A0E036E17EC0EF001C007F0CB
:1013800002C008F003EC12F00750300FDF6E11C0FE
:1013900001F012C002F0046A0A0E036EB7EC0DF001
:1013A00001C011F002C012F011501210D8B4DBEFDE
:1013B00009F0DDEF09F0E5EF09F01550D8A4E3EFEF
:1013C00009F0E5EF09F0B0EF09F01550D8B4EBEFF4
:1013D00009F0EDEF09F00CEF0AF00F50D8B4F3EF7D
:1013E00009F0F5EF09F00CEF0AF015061550600F43
:1013F000D96EDA6A2D0EDF6E0CEF0AF01550600F11
:10140000D96EDA6ADF500E6E0E50016E026A0BC0A2
:1014100003F06EEC0EF0152A200E1518D8A413EF69
:101420000AF015EF0AF0FEEF09F04CEF0AF00C504D
:10143000D96EDA6ADFCFF6FF080EF76E0800F550B6
:10144000250AD8A426EF0AF028EF0AF035EF0AF0B3
:101450000C50D96EDA6ADF2A026A250E016E0BC0C3
:1014600003F06EEC0EF04CEF0AF00C50D96EDA6A15
:10147000DF2A4CEF0AF00C50D96EDA6ADFCFF6FFA4
:10148000080EF76E0800F550016E026A0BC003F0FB
:101490006EEC0EF035EF0AF01200096E0950D8B468
:1014A00054EF0AF056EF0AF078EF0AF004BE5DEF51
:1014B0000AF05BEF0AF078EF0AF001C005F002C015
:1014C00006F003C007F004C008F0051E061E071E44
:1014D000081E052A000E06220722082205C00BF06E
:1014E00006C00CF007C00DF008C00EF080EF0AF047
:1014F00001C00BF002C00CF003C00DF004C00EF0F0
:101500000150021003100410D8A489EF0AF08BEFE9
:101510000AF095EF0AF0000E016E000E026E000E4A
:10152000036E000E046E26EF0BF0960E0A6E9FEF10
:101530000AF00A2AD8900E320D320C320B32000E0D
:101540000B14056E000E0C14066E000E0D14076EC3
:10155000FE0E0E14086E0550061007100810D8A4D1
:10156000B4EF0AF0B6EF0AF099EF0AF0C4EF0AF010
:101570000A2A010E0B26000E0C220D220E22D890F4
:101580000E320D320C320B32000E0B14056E000EB3
:101590000C14066E000E0D14076EFF0E0E14086E6E
:1015A0000550061007100810D8A4D9EF0AF0DBEF99
:1015B0000AF0B8EF0AF0E3EF0AF00A06D8900B360B
:1015C0000C360D360E360DBEE8EF0AF0EAEF0AF0E3
:1015D000F2EF0AF0020E0A60F0EF0AF0F2EF0AF002
:1015E000DDEF0AF00AB0F7EF0AF0F9EF0AF0FAEFD0
:1015F0000AF00D9ED8900A320AC005F0066A076A02
:10160000086A05C008F0076A066A056A05500B12E9
:1016100006500C1207500D1208500E120950D8B483
:1016200014EF0BF016EF0BF01EEF0BF004BE1DEFE6
:101630000BF01BEF0BF01EEF0BF00E8E0BC001F04A
:101640000CC002F00DC003F00EC004F01200010E39
:10165000046EF20EA0EC12F0250E046EF40EA0EC57
:1016600012F01A0E456EF80EE82EFED7452EFCD766
:1016700000D0FA0EA6EC11F0FB0EA6EC11F0FC0E59
:10168000A6EC11F0FD0EA6EC11F0496EFE0EA6ECD4
:1016900011F04A6E4950456E4A50476E45C048F0B9
:1016A000000E136E000E146EC80E156E420E166EEE
:1016B00047C001F048C002F0036A046A000E4DEC16
:1016C0000AF001C00FF002C010F003C011F004C016
:1016D00012F076EC04F00FC028F010C029F011C011
:1016E0002AF012C02BF0000E2C6EFF0E2D6E7F0E16
:1016F0002E6E470E2F6E89EC06F028C04BF029C0E5
:101700004CF02AC04DF02BC04EF0000E016E000EC2
:10171000026EC80E036E420E046E4BC005F04CC044
:1017200006F04DC007F04EC008F0D1EC0CF0D8B078
:101730009CEF0BF09EEF0BF0A6EF0BF0000E4B6E44
:10174000000E4C6EC80E4D6E420E4E6E4EBEADEF8C
:101750000BF0ABEF0BF0B5EF0BF0000E4B6E000E85
:101760004C6E000E4D6E000E4E6E4BC041F04CC0E4
:1017700042F04DC043F04EC044F01200086E066ABD
:10178000000E056E200E0818D8A4C9EF0BF0CBEFA1
:101790000BF0D0EF0BF0066A000E056E28EF0CF090
:1017A0002F0E0864D6EF0BF0D8EF0BF0E8EF0BF03C
:1017B0003A0E0860DEEF0BF0E0EF0BF0E8EF0BF015
:1017C000D10E0824056E066AFF0E062228EF0CF0E3
:1017D000400E0864EEEF0BF0F0EF0BF000EF0CF0B2
:1017E0005B0E0860F6EF0BF0F8EF0BF000EF0CF07B
:1017F000CA0E0824056E066AFF0E062228EF0CF0BA
:101800003A0E0818D8A407EF0CF009EF0CF00EEF11
:101810000CF0066A250E056E28EF0CF0250E081850
:10182000D8A415EF0CF017EF0CF01CEF0CF0066AC3
:10183000260E056E28EF0CF02E0E0818D8A423EF04
:101840000CF025EF0CF028EF0CF0066A270E056E61
:1018500035EC12F0780E7AEC10F0400E7AEC10F0C5
:10186000076A0550050DF350010F0724046E04C0EC
:10187000F6FF080EF76E0800F5507AEC10F0072A14
:10188000040E076446EF0CF048EF0CF031EF0CF05B
:10189000000E7AEC10F080EC12F0120003340434E5
:1018A0000A6E0A50D8A457EF0CF059EF0CF063EF12
:1018B0000CF0000E016E000E026E000E036E000EA4
:1018C000046ED0EF0CF001C005F002C006F003C0BA
:1018D00007F004C008F0200E73EF0CF0D890083227
:1018E000073206320532E82E6EEF0CF00550096E15
:1018F000038EFF0E0116FF0E0216FF0E0316000EDA
:101900000416960E0A5E0ABE8AEF0CF088EF0CF001
:10191000A0EF0CF00A50800A970FD8B092EF0CF0AD
:1019200094EF0CF096EF0CF059EF0CF0D8900432D5
:101930000332023201320A3E96EF0CF0B8EF0CF09F
:101940001F0E0A64A6EF0CF0A8EF0CF0B0EF0CF03D
:1019500059EF0CF0D89001360236033604360A06E9
:101960000A50D8A4B6EF0CF0B8EF0CF0AAEF0CF0C8
:101970000950D8B4BEEF0CF0C0EF0CF0C8EF0CF07B
:10198000041E031E021E016C000E0222032204220A
:1019900001C001F002C002F003C003F004C004F073
:1019A0001200000E0114096E000E02140A6E800E61
:1019B00003140B6E7F0E04140C6E09500A100B10EA
:1019C0000C10D8A4E6EF0CF0E8EF0CF0F0EF0CF000
:1019D000000E016E000E026E000E036E000E046E0D
:1019E000000E0514096E000E06140A6E800E071410
:1019F0000B6E7F0E08140C6E09500A100B100C10A1
:101A0000D8A405EF0DF007EF0DF00FEF0DF0000E6D
:101A1000056E000E066E000E076E000E086E04AE18
:101A200014EF0DF016EF0DF01FEF0DF0016C021E1C
:101A3000D8B0022A031ED8B0032A800E045608AE7E
:101A400024EF0DF026EF0DF02FEF0DF0056C061EC4
:101A5000D8B0062A071ED8B0072A800E0856000EF6
:101A6000011A000E021A000E031A800E041A000E4C
:101A7000051A000E061A000E071A800E081A0550E5
:101A8000015C065002580750035808500458D8B05B
:101A90004CEF0DF04EEF0DF051EF0DF0D89052EFEE
:101AA0000DF0D8801200030E066E080E056E770E3C
:101AB000E82EFED7052EFCD7062EFAD70000AE0E74
:101AC00091EC12F0D50E91EC12F0F00E91EC12F0B8
:101AD000A80E91EC12F03F0E91EC12F0D30E91ECA7
:101AE00012F0000E91EC12F0400E91EC12F08D0EFF
:101AF00091EC12F0140E91EC12F0200E91EC12F019
:101B0000020E91EC12F0A10E91EC12F0C80E91ECC5
:101B100012F0DA0E91EC12F0120E91EC12F0810E2E
:101B200091EC12F0FF0E91EC12F0D90E91EC12F044
:101B3000F10E91EC12F0DB0E91EC12F0400E91ECF4
:101B400012F0A40E91EC12F0A60E91EC12F0AF0E72
:101B500091EC12F0020E066E040E056EBA0EE82E1F
:101B6000FED7052EFCD7062EFAD700D01200066A43
:101B700004BEBFEF0DF0BDEF0DF0C5EF0DF0036C2F
:101B8000041ED8B0042A010E066E02BECCEF0DF082
:101B9000CAEF0DF0D2EF0DF0016C021ED8B0022A90
:101BA000010E061A086A000E076E03500410D8B41E
:101BB000DCEF0DF0DEEF0DF006EF0EF0010E056E1E
:101BC000E6EF0DF0D89003360436052A04AEEBEFAD
:101BD0000DF0EDEF0DF0E2EF0DF0D890073608367E
:101BE0000350015C04500258D8A0F9EF0DF0FBEF50
:101BF0000DF000EF0EF00350015E0450025A078012
:101C0000D89004320332052EEDEF0DF00650D8B413
:101C10000CEF0EF00EEF0EF012EF0EF0076C081E38
:101C2000D8B0082A07C001F008C002F01200066A06
:101C300002BE1FEF0EF01DEF0EF025EF0EF0016C4F
:101C4000021ED8B0022A010E066E04BE2CEF0EF062
:101C50002AEF0EF030EF0EF0036C041ED8B0042A09
:101C600003500410D8B437EF0EF039EF0EF05DEFEB
:101C70000EF0010E056E41EF0EF0D89003360436DB
:101C8000052A04AE46EF0EF048EF0EF03DEF0EF0E1
:101C90000350015C04500258D8A051EF0EF053EFEE
:101CA0000EF057EF0EF00350015E0450025AD89028
:101CB00004320332052E48EF0EF00650D8B463EF1D
:101CC0000EF065EF0EF069EF0EF0016C021ED8B059
:101CD000022A01C001F002C002F012000350D8B481
:101CE00074EF0EF076EF0EF07EEF0EF00350D8A4F6
:101CF0007CEF0EF07EEF0EF083EF0EF00150D9EC8A
:101D000012F0C2EF0EF00350D96EDA6A090ED9262E
:101D1000DE50DE10D8B48FEF0EF091EF0EF0AAEF88
:101D20000EF00350D96EDA6A090ED9260350E16E1F
:101D3000E26A020EE126DE50E65CE650800A086E9A
:101D4000DE50800A0858D8B0A8EF0EF0AAEF0EF0C7
:101D5000C2EF0EF00350D96EDA6A020ED926DF50B8
:101D6000046E0350D96EDA6ADF500424D96EDA6A41
:101D700001C0DFFF0350D96EDA6A020ED926DE2ACF
:101D8000000EDD22120057505810D8A4CAEF0EF0F2
:101D9000CCEF0EF0EBEF0EF00DC001F00EC002F034
:101DA0000FC003F010C004F0000E056E000E066EAA
:101DB000A00E076E410E086ED1EC0CF0D8B0E3EF28
:101DC0000EF0E5EF0EF0EBEF0EF08C80586A010E8E
:101DD000576E11EF0FF057505810D8B4F2EF0EF0C5
:101DE000F4EF0EF011EF0FF0000E016E000E026E18
:101DF000C00E036E410E046E0DC005F00EC006F05D
:101E00000FC007F010C008F0D1EC0CF0D8B00BEF09
:101E10000FF00DEF0FF011EF0FF08C90586A000EDD
:101E2000576E120055505610D8A419EF0FF01BEF43
:101E30000FF03AEF0FF00DC001F00EC002F00FC02E
:101E400003F010C004F0000E056E000E066EE10EE9
:101E5000076E430E086ED1EC0CF0D8B032EF0FF0E5
:101E600034EF0FF03AEF0FF08C84566A010E556E86
:101E700060EF0FF055505610D8B441EF0FF043EF1C
:101E80000FF060EF0FF0000E016E800E026E090E73
:101E9000036E440E046E0DC005F00EC006F00FC0B8
:101EA00007F010C008F0D1EC0CF0D8B05AEF0FF0EA
:101EB0005CEF0FF060EF0FF08C94566A000E556ED9
:101EC000120035EC12F0460E7AEC10F0100E7AEC9F
:101ED00010F080EC12F0020E466ED40E456E850EA8
:101EE000E82EFED7452EFCD7462EFAD7000035EC5B
:101EF00012F0470E7AEC10F0010EB0EC0FF0496EC4
:101F0000000EB0EC0FF04A6E80EC12F04950456EB6
:101F10004A50476E45C048F047C001F048C002F043
:101F2000036A046A000E4DEC0AF001C028F002C0FA
:101F300029F003C02AF004C02BF09A0E2C6E990EE3
:101F40002D6E990E2E6E3F0E2F6E89EC06F028C076
:101F500041F029C042F02AC043F02BC044F01200E7
:101F6000026E036A9382046AD8900336030EE82E49
:101F7000FED700008A80030EE82EFED7000081A263
:101F8000C4EF0FF0C6EF0FF0C7EF0FF003808A9099
:101F9000030EE82EFED70000042A070E0464D3EFD8
:101FA0000FF0D5EF0FF0B4EF0FF093920250D8B4CA
:101FB000DCEF0FF0E0EF0FF0016A012AE1EF0FF024
:101FC000016A01468A500118FD0B01188A6E030E42
:101FD000E82EFED700008A80030EE82EFED7000010
:101FE0008A908A82030EE82EFED70000035012006A
:101FF000026A000E016E85EC11F001C045F002C0CE
:1020000046F0380E136E670E146E9C0E156E400E61
:10201000166E45C001F046C002F0000E02BEFF0E73
:10202000036E046E010E4DEC0AF001C00FF002C009
:1020300010F003C011F004C012F076EC04F00FC0F1
:1020400028F010C029F011C02AF012C02BF0000EA9
:102050002C6E000E2D6E200E2E6E410E2F6E89EC12
:1020600006F028C041F029C042F02AC043F02BC03E
:1020700044F012000DC001F00EC002F00FC003F0DA
:1020800010C004F0000E056E000E066E200E076EE6
:10209000420E086ED1EC0CF0D8B051EF10F053EFB7
:1020A00010F05AEF10F0026AC80E016E3CEC11F00D
:1020B00079EF10F0000E016E000E026E700E036ECE
:1020C000420E046E0DC005F00EC006F00FC007F002
:1020D00010C008F0D1EC0CF0D8B071EF10F073EF35
:1020E00010F079EF10F0030E026E840E016E3CECDE
:1020F00011F01200026E036A02BE81EF10F085EF4C
:1021000010F0016A012A86EF10F0016A01468A5038
:102110000118FD0B01188A6ED8900236030EE82EC6
:10212000FED700008A80030EE82EFED700008A90BA
:10213000030EE82EFED70000032A070E0364A3EF68
:1021400010F0A5EF10F07CEF10F09382030EE82E54
:10215000FED700008A80030EE82EFED700008A908A
:102160009392030EE82EFED700001200CCEF10F081
:1021700009C0F6FF0AC0F7FFF86A070EF76403D03C
:102180000800F55005D0F6CFE1FFF7CFE2FFE750AA
:10219000BEEC0BF0094A0A2A09C0F6FF0AC0F7FF95
:1021A000F86A070EF76403D00800F55005D0F6CFA3
:1021B000E1FFF7CFE2FFE7500009D8A4E2EF10F00B
:1021C000E4EF10F0B8EF10F01200066A0650B00FFE
:1021D00091EC12F0000E91EC12F0100E91EC12F056
:1021E00035EC12F0780E7AEC10F0400E7AEC10F02C
:1021F000056A000E7AEC10F0052A7F0E056403EFE5
:1022000011F005EF11F0F9EF10F080EC12F0062A52
:10221000070E06640EEF11F010EF11F0E6EF10F06C
:10222000120006BE1DEF11F02D0E055C010E0658C2
:10223000D8A01DEF11F01FEF11F037EF11F0594A40
:102240005A2A030E026E01683CEC11F05ABE32EFBE
:1022500011F05A5009E10B0E595CD8A032EF11F081
:1022600034EF11F03BEF11F08C863BEF11F05A6A1E
:10227000000E596E8C96120002BE46EF11F0040E4D
:10228000025CD8A046EF11F048EF11F04BEF11F0CF
:10229000030E026E016801C003F002C004F00434B2
:1022A000043203320434043203320350BE6E01C0E0
:1022B00003F0030E0316033ABD500318CF0B0318A7
:1022C000BD6E1200056E0550B00F91EC12F0020EBB
:1022D00091EC12F0100E91EC12F035EC12F0780E39
:1022E0007AEC10F0400E7AEC10F0066A000E7AECF0
:1022F00010F0062A7F0E066480EF11F082EF11F0D5
:1023000076EF11F080EC12F0120001C003F00346EA
:102310000346C2500318C30B0318C26E0D0EE82EFD
:10232000FED70000C282C2B298EF11F09AEF11F00E
:1023300093EF11F0C350C4CF03F0046A03C004F05C
:10234000036A0310016E0450026E1200056E35EC34
:1023500012F0EC0E7AEC10F005507AEC10F080ECF4
:1023600012F0210EE82EFED7000035EC12F0ED0E33
:102370007AEC10F0000EB0EC0FF0066E80EC12F06C
:10238000210EE82EFED7000006501200020E076E46
:10239000040E066EBA0EE82EFED7062EFCD7072EC8
:1023A000FAD700D0010E046EF20EA0EC12F0A00ECF
:1023B000046EF50EA0EC12F01A0E066EF80EE82E62
:1023C000FED7062EFCD700D0120017C019F0F1EF8F
:1023D00011F016C00BF0190E0C6E18C00DF056EC73
:1023E00009F019C0F6FF080EF76E0800F550000955
:1023F000D8A4FDEF11F0FFEF11F0E9EF11F0176A2B
:10240000000E166E120008BE08EF12F00AEF12F06E
:1024100010EF12F007C007F008C008F01CEF12F030
:1024200007C009F008C00AF0091E0A1E094A0A2A54
:1024300009C007F00AC008F012001C0E1E6E1AC078
:102440001FF0226A000E216E296A000E286E1F0EF0
:10245000166E1BC017F01E0E186EE5EC11F01A5028
:102460002124D96EDA6ADF6A120093928A82030EFF
:10247000E82EFED700008A80030EE82EFED700006B
:102480008A92030EE82EFED700008A90030EE82EF3
:10249000FED70000120035EC12F0460E7AEC10F078
:1024A000010E7AEC10F080EC12F01A0E046EF80EA9
:1024B000E82EFED7042EFCD700D0120000EE60F00C
:1024C000200EEE6AE806FDE100EE51F00B0EEE6A1A
:1024D000E806FDE1000EF86E000150EF08F0066E10
:1024E000020E06260550B00F91EC12F006500F0BAD
:1024F00091EC12F006380F0B100991EC12F012005B
:1025000093928A92030EE82EFED700008A80030E73
:10251000E82EFED700008A82030EE82EFED70000C8
:102520001200046E35EC12F0780E7AEC10F0000E0A
:102530007AEC10F004507AEC10F080EC12F01200FB
:10254000056E35EC12F0EC0E7AEC10F005507AECDA
:1025500010F004507AEC10F080EC12F012000D0E26
:10256000C16EAA0EC06E010EC26E210EE82EFED7FD
:1025700000001200026A020E016E85EC11F001C02B
:1025800005F002C006F01200720ED36E9268936AD4
:10259000956A946A8C6A12009494CB680C0EBD6E96
:1025A000040ECA6E1200939093928A808A82F18EF2
:0425B0001200120003
:047FFC005EEF12F032
:020000040030CA
:0800000000081F1EFF8181FFB3
:00000001FF
