:04000000FEEF3FF0E0
:100800000000000000003E5149453E00427F40008C
:1008100042615149462141454B311814127F10273E
:10082000454545393C4A4949300171090503364976
:10083000494936064949291E7E1111117E7F4949D1
:1008400049363E414141227F4141221C7F4949496D
:10085000417F090909013E4149497A7F0808087F1B
:1008600000417F41002040413F017F081422417F29
:10087000404040407F020C027F7F0408107F3E41D1
:1008800041413E7F090909063E4151215E7F091918
:100890002946464949493101017F01013F40404015
:1008A0003F1F2040201F3F4038403F63140814631F
:1008B0000708700807615149454300005F000000C8
:1008C000060909060000080000494E494349414E07
:1008D000444F0048202564252500542025642043EA
:1008E0000041202564004C20256600696E66006E7C
:1008F000616E00000001816B56C082F057C083F02A
:1009000058C084F059C085F085BF8BEF04F089EFA3
:1009100004F09FEF04F0010E816F82C001F083C0EC
:1009200002F084C003F085C004F0D7EC1BF001C0D6
:1009300082F002C083F003C084F004C085F000019F
:10094000876B000E866FD0C071F0D1C072F08151FC
:10095000D8B4ADEF04F0AFEF04F0C1EF04F0815173
:10096000D8A4B5EF04F0B7EF04F0BCEF04F0676B68
:100970002B0E666FBFEF04F0676B2D0E666F66C0BF
:1009800081F082C001F083C002F084C003F085C012
:1009900004F0A6EC15F001040210D8A4D2EF04F084
:1009A000D4EF04F002EF05F000018151D8B4DBEF81
:1009B00004F0DDEF04F0E5EF04F081C000F1710711
:1009C000D8A07207876B010E866F000E8625016E18
:1009D000010E8721026EEB0E036EBAEC1BF00001D4
:1009E000FD0E7127FF0E722355C00FF0000E106E22
:1009F000010E116E71C012F072C013F010EC1AF0FB
:100A00005EEF09F082C001F083C002F084C003F001
:100A100085C004F0A6EC15F001500210D8A413EF25
:100A200005F015EF05F032EF05F000018151D8B463
:100A30001CEF05F01EEF05F026EF05F081C000F178
:100A40007107D8A07207876B010E866F000E86258E
:100A5000016E010E8721026EEF0E036EBAEC1BF0E1
:100A6000EFEF04F0000E0001886F000E896F800E1A
:100A70008A6F3F0E8B6F706B000E6F6F82C001F03C
:100A800083C002F084C003F085C004F0000E056E40
:100A9000000E066E000E076E000E086E92EC17F048
:100AA000D8B055EF05F057EF05F036EF06F064EFDC
:100AB00005F073C088F074C089F075C08AF076C004
:100AC0008BF000016F4B702B88C00FF089C010F0C5
:100AD0008AC011F08BC012F0000E136E000E146E5F
:100AE000200E156E410E166EBAEC0BF00FC073F0AF
:100AF00010C074F011C075F012C076F0000173518F
:100B0000825D016E74518359026E75518459036E72
:100B100076518559046E9DEC1AF004BE9BEF05F0EA
:100B200004500310021009E1020E015CD8A09BEFF3
:100B300005F09DEF05F059EF05F073C028F074C083
:100B400029F075C02AF076C02BF082C02CF083C04B
:100B50002DF084C02EF085C02FF024EC15F0D8A025
:100B6000B4EF05F0B6EF05F059EF05F0000188513C
:100B7000825D016E89518359026E8A518459036ED8
:100B80008B518559046E9DEC1AF004BED5EF05F02B
:100B900004500310021007E1020E015CD8B0D3EF3D
:100BA00005F0D5EF05F01DEF06F088C082F089C092
:100BB00083F08AC084F08BC085F036EF06F088C0E1
:100BC00028F089C029F08AC02AF08BC02BF0000ED3
:100BD0002C6E000E2D6E200E2E6E410E2F6ECDEC63
:100BE0000DF028C088F029C089F02AC08AF02BC0F7
:100BF0008BF000016F07D8A070078851825D016EED
:100C000089518359026E8A518459036E8B518559DB
:100C1000046E9DEC1AF004BE1BEF06F004500310A6
:100C2000021007E1020E015CD8B019EF06F01BEFCD
:100C300006F01DEF06F0D5EF05F082C028F083C066
:100C400029F084C02AF085C02BF088C02CF089C020
:100C50002DF08AC02EF08BC02FF024EC15F0D8A018
:100C600034EF06F036EF06F0DFEF05F05AC069F01A
:100C700069C06AF00001D3BF40EF06F042EF06F012
:100C800048EF06F0D2C062F0D3C063F04BEF06F03D
:100C9000636B060E626F62C06DF063C06EF06D4BE9
:100CA0006E2B660E6A19D8A458EF06F05AEF06F0BC
:100CB00079EF06F070BF61EF06F05FEF06F06CEFC2
:100CC00006F0000E886F000E896F800E8A6F3F0E4F
:100CD0008B6F706B000E6F6F670E6919D8B473EF6E
:100CE00006F075EF06F079EF06F06F516D27705141
:100CF0006E23786B000E776F82C079F083C07AF034
:100D000084C07BF085C07CF088C073F089C074F02B
:100D10008AC075F08BC076F009EF07F079C028F033
:100D20007AC029F07BC02AF07CC02BF088C02CF060
:100D300089C02DF08AC02EF08BC02FF0CDEC0DF0C5
:100D400028C041F029C042F02AC043F02BC044F033
:100D500038EC12F041C07DF042C07EF043C07FF01D
:100D600044C080F07DC001F07EC002F07FC003F07F
:100D700080C004F0A1EC14F001C06BF002C06CF074
:100D800079C028F07AC029F07BC02AF07CC02BF013
:100D90007DC013F07EC014F07FC015F080C016F047
:100DA00088C00FF089C010F08AC011F08BC012F01B
:100DB000BAEC0BF00FC02CF010C02DF011C02EF0CB
:100DC00012C02FF03AEC1BF028C079F029C07AF05D
:100DD0002AC07BF02BC07CF088C028F089C029F0A5
:100DE0008AC02AF08BC02BF0000E2C6E000E2D6EE8
:100DF000200E2E6E410E2F6ECDEC0DF028C088F027
:100E000029C089F02AC08AF02BC08BF00001774BF3
:100E1000782B6D51775D7851800A5B6E6E51800A38
:100E20005B58D8A016EF07F018EF07F08EEF06F02A
:100E300088C00FF089C010F08AC011F08BC012F08A
:100E4000000E136E000E146EA00E156E400E166E80
:100E5000BAEC0BF00FC07DF010C07EF011C07FF037
:100E600012C080F079C028F07AC029F07BC02AF047
:100E70007CC02BF07DC02CF07EC02DF07FC02EF00A
:100E800080C02FF024EC15F0D8B049EF07F04BEFFD
:100E900007F056EF07F0000E00017D6F000E7E6F29
:100EA000000E7F6F000E806F7FEF07F079C001F0BA
:100EB0007AC002F07BC003F07CC004F07DC005F076
:100EC0007EC006F07FC007F080C008F092EC17F0FB
:100ED000D8A06DEF07F06FEF07F07FEF07F000018C
:100EE0006BB175EF07F077EF07F07FEF07F0000EBB
:100EF0007D6F000E7E6F000E7F6F000E806F82C0D0
:100F000001F083C002F084C003F085C004F07DC00E
:100F100005F07EC006F07FC007F080C008F05FECEF
:100F200009F001C079F002C07AF003C07BF004C080
:100F30007CF079C028F07AC029F07BC02AF07CC010
:100F40002BF0000E136E000E146E200E156E410E67
:100F5000166E73C00FF074C010F075C011F076C03B
:100F600012F0BAEC0BF00FC02CF010C02DF011C035
:100F70002EF012C02FF024EC15F0D8A0C2EF07F02D
:100F8000C4EF07F0EDEF07F000016F4B702B73C05B
:100F90000FF074C010F075C011F076C012F0000EA2
:100FA000136E000E146E200E156E410E166EBAEC06
:100FB0000BF00FC073F010C074F011C075F012C0C8
:100FC00076F0660E00016A19D8A4E9EF07F0EBEF9E
:100FD00007F0EDEF07F06D4B6E2B73C088F074C017
:100FE00089F075C08AF076C08BF06FC060F070C079
:100FF00061F00001686B656B000E646F786B000E2A
:10100000776FE7EF08F079C028F07AC029F07BC04D
:101010002AF07CC02BF088C02CF089C02DF08AC04B
:101020002EF08BC02FF0CDEC0DF028C041F029C080
:1010300042F02AC043F02BC044F038EC12F041C01B
:101040007DF042C07EF043C07FF044C080F07DC0A0
:1010500001F07EC002F07FC003F080C004F0A1EC7C
:1010600014F002BE3FEF08F0025007E10A0E015CE7
:10107000D8B03DEF08F03FEF08F04FEF08F07DC02B
:1010800001F07EC002F07FC003F080C004F0A1EC4C
:1010900014F001C06BF002C06CF053EF08F00001D7
:1010A0006C6B090E6B6F00016851D8A45AEF08F001
:1010B0005CEF08F084EF08F061BF63EF08F061EFC8
:1010C00008F084EF08F0000E8625D96E010E872106
:1010D000DA6E2E0EDF6E864B872B7107D8A0720753
:1010E000010E686F84EF08F0000E8625D96E010EA0
:1010F0008721DA6E300EDF6E864B872B7107D8A002
:1011000072076407D8A0650764516511D8A48BEFF6
:1011100008F08DEF08F074EF08F0000E8625D96E08
:10112000010E8721DA6E6B51300FDF6E864B872BF5
:101130007107D8A0720779C028F07AC029F07BC067
:101140002AF07CC02BF07DC013F07EC014F07FC06D
:1011500015F080C016F088C00FF089C010F08AC06A
:1011600011F08BC012F0BAEC0BF00FC02CF010C0D5
:101170002DF011C02EF012C02FF03AEC1BF028C059
:1011800079F029C07AF02AC07BF02BC07CF088C0AF
:1011900028F089C029F08AC02AF08BC02BF0000EFD
:1011A0002C6E000E2D6E200E2E6E410E2F6ECDEC8D
:1011B0000DF028C088F029C089F02AC08AF02BC021
:1011C0008BF000016007D8A06107774B782B6D5139
:1011D000775D7851800A5B6E6E51800A5B58D8B09B
:1011E000F4EF08F0F6EF08F004EF09F087BF02EF24
:1011F00009F0875109E14B0E865DD8A002EF09F096
:1012000004EF09F003EF08F0786B4F0E776F000ED4
:101210007725D96E010E7821DA6EDF6A000E5B6EDB
:10122000010E5C6E86515B5E87515C5A77515B2480
:10123000016E78515C20026E000E036E010E046E8A
:1012400086C005F087C006F0C8EC1AF00001865190
:10125000775D866F87517859876F8151D8A433EFB6
:1012600009F036EF09F0010E37EF09F0000E776F45
:10127000786B8151D8B43FEF09F041EF09F04CEFA2
:1012800009F08607D8A08707000E8625D96E010EC3
:101290008721DA6E81C0DFFF7751715F7851725B11
:1012A00055C00FF0000E8625106E010E8721116EBD
:1012B00071C012F072C013F010EC1AF0120004505A
:1012C000800B0D6E045004240F6E03AE6AEF09F01C
:1012D0006CEF09F06DEF09F00F800F50D8B473EF89
:1012E00009F075EF09F089EF09F00F28D8A47BEF1A
:1012F00009F07DEF09F085EF09F0000E016E000E98
:10130000026E000E036E000E046E038E046A91EFEF
:1013100009F0000E016E000E026E000E036E000E4C
:10132000046E0850800B0E6E0D500E18D8B49BEF53
:1013300009F09DEF09F09EEF09F00D8C085008248C
:101340000E6E07AEA6EF09F0A8EF09F0A9EF09F0BD
:101350000E800E50D8B4AFEF09F0B1EF09F0C5EF31
:1013600009F00E28D8A4B7EF09F0B9EF09F0C1EFE2
:1013700009F0000E056E000E066E000E076E000EE0
:10138000086E078E086ACDEF09F0000E056E000E9C
:10139000066E000E076E000E086E0F500E5CD8B081
:1013A000D4EF09F0D6EF09F0FDEF09F00DACDBEF5B
:1013B00009F0DDEF09F0DFEF09F0800E0D1A0FC024
:1013C00010F00EC00FF010C00EF001C010F005C0FC
:1013D00001F010C005F002C010F006C002F010C00D
:1013E00006F003C010F007C003F010C007F004C0FF
:1013F00010F008C004F010C008F0106A0F500EC0C2
:1014000009F00A6A095E000E0A5A0ABE11EF0AF0D4
:101410000A5009E11A0E095CD8A011EF0AF013EF87
:101420000AF04AEF0AF00150021003100410D8A489
:101430001CEF0AF01FEF0AF0010E20EF0AF0000E79
:10144000106E000E016E000E026E000E036E000E96
:10145000046E0EC00FF053EF0AF010A032EF0AF046
:1014600034EF0AF03AEF0AF0D89010300109106E0C
:101470003CEF0AF0D890103201A041EF0AF043EFA0
:101480000AF044EF0AF0108E0434043203320232C0
:1014900001320F2A0E500F5CD8A051EF0AF053EF23
:1014A0000AF02DEF0AF00DBC58EF0AF05AEF0AF0DF
:1014B0009AEF0AF00F50D8A460EF0AF062EF0AF03A
:1014C0006CEF0AF0000E016E000E026E000E036E4D
:1014D000000E046EB9EF0BF00550012606500222F3
:1014E000075003220850042204A079EF0AF07BEF92
:1014F0000AF027EF0BF010A080EF0AF082EF0AF05D
:1015000088EF0AF0D89010300109106E8AEF0AF0C7
:10151000D890103201A08FEF0AF091EF0AF092EF0D
:101520000AF0108E043404320332023201320F2AE0
:1015300027EF0BF00550015C065002580750035886
:101540000450800A096E0850800A0958D8B0ABEFE1
:101550000AF0ADEF0AF0D8EF0AF00150055C096E11
:10156000025006580A6E035007580B6E0450085874
:101570000C6EFF0E0924016EFF0E0A20026EFF0E94
:101580000B20036EFF0E0C20046E800E0D1A106CE3
:101590001050D8A4CEEF0AF0D0EF0AF0E0EF0AF036
:1015A000010E0126000E022203220422E0EF0AF0BF
:1015B0000550015E0650025A0750035A0850045A5B
:1015C0000150021003100410D8A4E9EF0AF0EBEF69
:1015D0000AF020EF0BF01050D8A4F1EF0AF0F3EF6F
:1015E0000AF020EF0BF0000E016E000E026E000EEE
:1015F000036E000E046EB9EF0BF0D8900136023680
:101600000336043610AE07EF0BF009EF0BF00AEFCC
:101610000BF0018010A00FEF0BF011EF0BF015EFA6
:101620000BF0D880103617EF0BF0D89010360F5013
:10163000D8B41DEF0BF01FEF0BF020EF0BF00F06EF
:1016400003AE25EF0BF027EF0BF0FDEF0AF00E6A6B
:1016500010AE2DEF0BF02FEF0BF047EF0BF010C09B
:1016600009F07F0E0916D8B438EF0BF03AEF0BF003
:101670003EEF0BF0010E0E6E47EF0BF001A043EFB3
:101680000BF045EF0BF047EF0BF03AEF0BF00E507D
:10169000D8B44DEF0BF04FEF0BF07AEF0BF0010EDB
:1016A0000126000E02220322042204A05AEF0BF0AE
:1016B0005CEF0BF07AEF0BF001C009F002C00AF00A
:1016C00003C00BF004C00CF00C340C320B320A32A5
:1016D000093209C001F00AC002F00BC003F00CC0CF
:1016E00004F00F28D8B477EF0BF079EF0BF07AEF16
:1016F0000BF00F2A0F28D8B480EF0BF082EF0BF01D
:101700008AEF0BF00F50D8A488EF0BF08AEF0BF0A4
:101710009BEF0BF0000E016E000E026E000E036ECA
:10172000000E046E0F50D8A498EF0BF09AEF0BF058
:101730009BEF0BF00D6A0FA0A0EF0BF0A2EF0BF0E8
:10174000A5EF0BF0038EA6EF0BF0039ED8900F30A1
:10175000046E0DAEAEEF0BF0B0EF0BF0B1EF0BF08F
:10176000048E01C001F002C002F003C003F004C007
:1017700004F012001250800B1B6E12501224216EC6
:1017800011AEC5EF0BF0C7EF0BF0C8EF0BF02180E7
:101790002150D8B4CEEF0BF0D0EF0BF0E3EF0BF00D
:1017A0002128D8A4D6EF0BF0D8EF0BF0E0EF0BF028
:1017B000000E0F6E000E106E000E116E000E126EF7
:1017C000118EEBEF0BF0000E0F6E000E106E000E80
:1017D000116E000E126E1650800B1B1A1650162436
:1017E000206E15AEF6EF0BF0F8EF0BF0F9EF0BF003
:1017F00020802050D8B4FFEF0BF001EF0CF014EF75
:101800000CF02028D8A407EF0CF009EF0CF011EF32
:101810000CF0000E136E000E146E000E156E000E0E
:10182000166E158E1CEF0CF0000E136E000E146E6B
:10183000000E156E000E166E2050D8B422EF0CF07C
:1018400024EF0CF02CEF0CF02150D8A42AEF0CF070
:101850002CEF0CF036EF0CF0000E0F6E000E106E39
:10186000000E116E000E126ECCEF0DF015500F022F
:10187000F3CF26F0F4CF27F026501C6E1D6A1E6AA7
:101880001F6A2750226E236A246A256A14501002A8
:10189000F3CF26F0F4CF27F026501C26000E1D2291
:1018A0001E221F2227502226000E23222422252218
:1018B00013501102F3CF26F0F4CF27F026501C2648
:1018C000000E1D221E221F2227502226000E232238
:1018D000242225221EC01FF01DC01EF01CC01DF0BA
:1018E0001C6A13501002F3CF26F0F4CF27F02650D5
:1018F0001C2627501D22000E1E22000E1F221450EF
:101900000F02F3CF26F0F4CF27F026501C262750E5
:101910001D22000E1E22000E1F221EC01FF01DC021
:101920001EF01CC01DF01C6A13500F02F3CF26F0EE
:10193000F4CF27F026501C2627501D22000E1E2211
:10194000000E1F2215501002F3CF26F0F4CF27F01F
:101950002650222627502322000E2422000E252264
:1019600014501102F3CF26F0F4CF27F02650222690
:1019700027502322000E2422000E2522155011028A
:10198000F3CF26F0F4CF27F02650176E2750186EAD
:10199000196A1A6A19C01AF018C019F017C018F09D
:1019A000176A1750222618502322195024221A5041
:1019B00025221CC017F01DC018F01EC019F01FC052
:1019C0001AF0190EE9EF0CF0D8901A3219321832C9
:1019D0001732E82EE4EF0CF017502226185023227D
:1019E000195024221A5025221EC01FF01DC01EF0BF
:1019F0001CC01DF01C6A205021C017F0186A172661
:101A0000000E1822820E1724266EFF0E1820276E55
:101A10001FEF0DF0D89022362336243625361FAE20
:101A200014EF0DF016EF0DF017EF0DF02280D890A7
:101A30001C361D361E361F362606D8A0270624AEB5
:101A400024EF0DF026EF0DF00AEF0DF0206A1FAE27
:101A50002CEF0DF02EEF0DF052EF0DF0FF0E1C14D9
:101A6000176EFF0E1D14186EFF0E1E14196E7F0EDA
:101A70001F141A6E1750181019101A10D8B443EF0B
:101A80000DF045EF0DF049EF0DF0010E206E52EF15
:101A90000DF022A04EEF0DF050EF0DF052EF0DF0D3
:101AA00045EF0DF02050D8B458EF0DF05AEF0DF07F
:101AB0007EEF0DF0010E2226000E23222422252285
:101AC00025A065EF0DF067EF0DF07EEF0DF022C061
:101AD00017F023C018F024C019F025C01AF01A34EA
:101AE0001A3219321832173217C022F018C023F0F8
:101AF00019C024F01AC025F0264A272A27BE89EFEC
:101B00000DF0275008E12628D8A089EF0DF08BEFC3
:101B10000DF095EF0DF0000E226E000E236E800E7C
:101B2000246E7F0E256EC2EF0DF027BEA2EF0DF0E2
:101B3000275006E12604D8B0A0EF0DF0A2EF0DF07B
:101B4000ADEF0DF0000E226E000E236E000E246E1F
:101B5000000E256E1B6AC2EF0DF026C021F0FF0EAD
:101B60002216FF0E23167F0E2416000E251621A026
:101B7000BCEF0DF0BEEF0DF0BFEF0DF0248ED8904E
:101B80002130256E1B50251222C00FF023C010F00B
:101B900024C011F025C012F012002B50800B386EBB
:101BA0002B502B243F6E2AAED8EF0DF0DAEF0DF05C
:101BB000DBEF0DF03F803F50D8B4E1EF0DF0E3EFE5
:101BC0000DF0F7EF0DF03F28D8A4E9EF0DF0EBEFA3
:101BD0000DF0F3EF0DF0000E286E000E296E000ED2
:101BE0002A6E000E2B6E2A8E2B6AFFEF0DF0000E70
:101BF000286E000E296E000E2A6E000E2B6E2F50DE
:101C0000800B381A2F502F24406E2EAE0AEF0EF0A4
:101C10000CEF0EF00DEF0EF040804050D8B413EFF3
:101C20000EF015EF0EF029EF0EF04028D8A41BEFB0
:101C30000EF01DEF0EF025EF0EF0000E2C6E000ED4
:101C40002D6E000E2E6E000E2F6E2E8E2F6A31EF2F
:101C50000EF0000E2C6E000E2D6E000E2E6E000E7D
:101C60002F6E2C502D102E102F10D8A43AEF0EF0FE
:101C70003CEF0EF054EF0EF0000E286E000E296EB1
:101C8000000E2A6E000E2B6E800E2A127F0E2B1273
:101C900038502B1228C028F029C029F02AC02AF079
:101CA0002BC02BF093EF0FF03F50D8A45AEF0EF05B
:101CB0005CEF0EF066EF0EF0000E286E000E296E3F
:101CC000000E2A6E000E2B6E93EF0FF040503FC0B7
:101CD00030F0316A305E000E315A7F0E3024396E9A
:101CE000000E31203A6E28C034F029C035F02AC0E9
:101CF00036F02BC037F0000E286E000E296E000E55
:101D00002A6E000E2B6E000E3B6E000E3C6E000E17
:101D10003D6E000E3E6E406AC6EF0EF04050D8B4E5
:101D200094EF0EF096EF0EF0ADEF0EF0D890343643
:101D3000353636363736D890283629362A362B3679
:101D40003EAEA5EF0EF0A7EF0EF0A8EF0EF0288044
:101D5000D8903B363C363D363E362C50345C2D50C8
:101D600035582E5036582F503758D8A0BAEF0EF0AD
:101D7000BCEF0EF0C5EF0EF03E8C2C50345E2D50B3
:101D8000355A2E50365A2F50375A402A190E406471
:101D9000CCEF0EF0CEEF0EF08EEF0EF0345035108B
:101DA00036103710D8B4D7EF0EF0D9EF0EF0F1EFB0
:101DB0000EF03B80F1EF0EF0D890283629362A3607
:101DC0002B363EAEE6EF0EF0E8EF0EF0E9EF0EF048
:101DD0002880D8903B363C363D363E363906D8A072
:101DE0003A062AAEF6EF0EF0F8EF0EF0DCEF0EF04A
:101DF000406A3EAEFEEF0EF000EF0FF024EF0FF062
:101E0000FF0E3B14306EFF0E3C14316EFF0E3D147E
:101E1000326E7F0E3E14336E30503110321033105C
:101E2000D8B415EF0FF017EF0FF01BEF0FF0010E06
:101E3000406E24EF0FF028A020EF0FF022EF0FF0FC
:101E400024EF0FF017EF0FF04050D8B42AEF0FF047
:101E50002CEF0FF050EF0FF0010E2826000E292274
:101E60002A222B222BA037EF0FF039EF0FF050EF83
:101E70000FF028C030F029C031F02AC032F02BC05A
:101E800033F03334333232323132303230C028F032
:101E900031C029F032C02AF033C02BF0394A3A2A37
:101EA0003ABE5BEF0FF03A5008E13928D8A05BEF5B
:101EB0000FF05DEF0FF068EF0FF0000E3A6E39682B
:101EC000000E286E000E296E000E2A6E000E2B6E7C
:101ED0003ABE75EF0FF03A5006E13904D8B073EF0F
:101EE0000FF075EF0FF081EF0FF03A6A000E396EC8
:101EF000000E286E000E296E000E2A6E000E2B6E4C
:101F0000386A39C03FF03FA088EF0FF08AEF0FF03A
:101F10008DEF0FF02A8E8EEF0FF02A9ED8903F3073
:101F20002B6E48EF0EF012005E50D96EDA6ADFCFEA
:101F3000F6FF080EF76E0800F550250AD8A4A3EFA7
:101F40000FF0A5EF0FF014EF11F05E50D96EDA6AC2
:101F5000DF2A0001D16B000ED06FD0C0DAF0D26959
:101F6000D3695E50D96EDA6ADF50926F92C0F6FF85
:101F7000080EF76E0800F550640AD8B4C2EF0FF0EF
:101F8000C4EF0FF0D2EF0FF092C0F6FF080EF76E1D
:101F90000800F550690AD8A4D0EF0FF0D2EF0FF087
:101FA0005EEF10F05F50D96EDA6A020EDF26DF5C5A
:101FB000D96EDA6ADECF8EF0DECF8FF05E50D96E4A
:101FC000DA6A9229DF6E500E936F8FBFEAEF0FF03F
:101FD000EDEF0FF0010EEEEF0FF0000E8D6F930797
:101FE000000E9325D96EDA6A010EDA228EC001F056
:101FF0008FC002F0046A0A0E036EE6EC16F001C010
:1020000007F002C008F029EC1CF00750300FDF6E1B
:102010008EC001F08FC002F0046A0A0E036E86ECD7
:1020200016F001C08EF002C08FF000018E518F11AA
:10203000D8B41DEF10F01FEF10F027EF10F0935100
:10204000D8A425EF10F027EF10F0EFEF0FF0935129
:10205000D8B42DEF10F02FEF10F053EF10F08D519A
:10206000D8B435EF10F037EF10F053EF10F09307BE
:10207000000E9325D96EDA6A010EDA222D0EDF6E7C
:1020800053EF10F0000E9325D96EDA6A010EDA22B2
:10209000DF508C6F8C51016E026A5DC003F03DEC25
:1020A00017F00001932B500E9319D8A45AEF10F09B
:1020B0005CEF10F042EF10F025EF11F05E50D96E9A
:1020C000DA6ADF50926F92C0F6FF080EF76E0800D2
:1020D000F5CF93F076EF10F0922B85EF10F06C0EA9
:1020E000936F85EF10F0936B85EF10F093514C0ACE
:1020F000D8B46CEF10F02A0AD8B46FEF10F00A0AC7
:10210000D8B46CEF10F073EF10F092C0F6FF080E29
:10211000F76E0800F550660AD8A491EF10F093EF1F
:1021200010F0F0EF10F0BDEF10F05F50D96EDA6AEA
:10213000DFCF8CF0040EDF268C51D96EDA6ADECF49
:102140008EF0DECF8FF0DECF90F0DECF91F0C8EFD3
:1021500010F05F50D96EDA6ADFCF8CF0040EDF2604
:102160008C51D96EDA6ADECF8EF0DECF8FF0DECF03
:1021700090F0DECF91F0C8EF10F093514C0AD8B434
:10218000A9EF10F0200AD8B495EF10F0C8EF10F0C6
:102190005E50D96EDA6A9229DF6EE4EF10F05DC00E
:1021A00055F08EC056F08FC057F090C058F091C0D7
:1021B00059F092C0F6FF080EF76E0800F5CF5AF0FE
:1021C0007AEC04F025EF11F092C0F6FF080EF76EDE
:1021D0000800F550660AD8B4CFEF10F0F0EF10F019
:1021E0005E50D96EDA6ADFCFF6FF080EF76E080090
:1021F000F550250AD8A4FFEF10F001EF11F00EEF13
:1022000011F05E50D96EDA6ADF2A026A250E016E7D
:102210005DC003F03DEC17F025EF11F05E50D96E74
:10222000DA6ADF2A25EF11F05E50D96EDA6ADFCF65
:10223000F6FF080EF76E0800F550016E026A5DC0E9
:1022400003F03DEC17F00EEF11F01200FCEC1CF067
:10225000060E0001AB6F130EAA6FAD0EE82EFED76F
:10226000AA2FFCD7AB2FFAD700D012EC1DF00BEC45
:102270001DF004EC1DF022EC16F016EC1BF0A6ECA1
:102280001CF043EC1CF0000E056E000EB6EC1CF0CA
:10229000C90E0A6E0A50D8A4080E0B6E40EC1AF054
:1022A0000B0E0001AB6F260EAA6F5D0EE82EFED757
:1022B000AA2FFCD7AB2FFAD700D016EC1BF019ECE5
:1022C00019F041C0B8F042C0B9F043C0BAF044C000
:1022D000BBF0F2EC1CF005C0C4F006C0C5F0D5ECB4
:1022E00018F041C0BCF042C0BDF043C0BEF044C0D5
:1022F000BFF0D7EC19F041C0C0F042C0C1F043C0FC
:10230000C2F044C0C3F0B8C034F0B9C035F0BAC0B0
:1023100036F0BBC037F0E7EC17F0C0C034F0C1C0F6
:1023200035F0C2C036F0C3C037F03AEC18F0C4C084
:1023300005F0C5C006F06FEC1AF0BCC034F0BDC0AB
:1023400035F0BEC036F0BFC037F05BEC19F0000EC0
:1023500070EC1CF0000E056E000EB6EC1CF0B8C060
:1023600001F0B9C002F0BAC003F0BBC004F0A1ECA8
:1023700014F001C0C6F002C0C7F0AC0E0001986FA7
:10238000DA0E996FC6C09AF0C7C09BF00FEC1CF034
:10239000AC0E0A6E0B6A40EC1AF0020E70EC1CF0E8
:1023A000020E056E000EB6EC1CF0BCC001F0BDC004
:1023B00002F0BEC003F0BFC004F0A1EC14F001C0F5
:1023C000C6F002C0C7F0AC0E0001986FD30E996F33
:1023D000C6C09AF0C7C09BF00FEC1CF0AC0E0A6EA2
:1023E0000B6A40EC1AF0040E70EC1CF0040E056E43
:1023F000000EB6EC1CF0AC0E0001986FE10E996F68
:10240000C4C09AF0C5C09BF00FEC1CF0AC0E0A6E75
:102410000B6A40EC1AF0060E70EC1CF0060E056E0E
:10242000000EB6EC1CF0AC0E0001986FE60E996F32
:10243000C0C09AF0C1C09BF0C2C09CF0C3C09DF068
:102440000FEC1CF0AC0E0A6E0B6A40EC1AF00B0E8F
:102450000001AB6F260EAA6F5D0EE82EFED7AA2FE5
:10246000FCD7AB2FFAD700D05FEF11F0FEEF3FF0B3
:10247000C8C051F0C9C052F0CAC053F0CBC054F02C
:1024800041C051F042C052F043C053F044C054F038
:10249000810E456EFF0E466E51C047F052C048F0A7
:1024A00053C049F054C04AF0180E5CEF12F0D890B7
:1024B0004A32493248324732E82E57EF12F047503D
:1024C00045244F6E000E4620506E50BE71EF12F044
:1024D000505009E1170E4F5CD8A071EF12F073EF66
:1024E00012F07DEF12F041C041F042C042F043C013
:1024F00043F044C044F040EF13F050BE82EF12F0BE
:1025000084EF12F0F4EF12F04FC045F0FF0E466E6C
:10251000FF0E476E7F0E486E000E496E456693EFC4
:1025200012F09BEF12F049344932483247324632BA
:10253000452E8EEF12F046C04BF047C04CF048C01D
:102540004DF049C04EF04B505114456E4C50521452
:10255000466E4D505314476E4E505414486E4550BD
:10256000461047104810D8A4B8EF12F0BAEF12F096
:10257000BCEF12F073EF12F051C045F052C046F0BC
:1025800053C047F054C048F0200ECCEF12F0D89062
:102590004832473246324532E82EC7EF12F04550F6
:1025A000461047104810D8B4D8EF12F0DAEF12F006
:1025B000E2EF12F04B5051264C5052224D50532214
:1025C0004E5054224B1C456E4C1C466E4D1C476EA3
:1025D0004E1C486E455051164650521647505316E1
:1025E0004850541638EF13F051C045F052C046F031
:1025F00053C047F054C048F0200E04EF13F0D890B9
:102600004832473246324532E82EFFEF12F045504D
:10261000461047104810D8A410EF13F012EF13F033
:102620001CEF13F0000E516E000E526E000E536E32
:10263000000E546E38EF13F0D8905134456E52347A
:10264000466E5334476E5434486E4550461047101A
:102650004810D8B42EEF13F030EF13F038EF13F02A
:10266000000E516E000E526E800E536EBF0E546EF1
:1026700051C041F052C042F053C043F054C044F046
:102680001200096E0950D8B448EF13F04AEF13F066
:102690006CEF13F004BE51EF13F04FEF13F06CEF3B
:1026A00013F001C005F002C006F003C007F004C03B
:1026B00008F0051E061E071E081E052A000E06222B
:1026C0000722082205C00BF006C00CF007C00DF071
:1026D00008C00EF074EF13F001C00BF002C00CF054
:1026E00003C00DF004C00EF00150021003100410DE
:1026F000D8A47DEF13F07FEF13F089EF13F0000EF5
:10270000016E000E026E000E036E000E046E1AEFD4
:1027100014F0960E0A6E93EF13F00A2AD8900E3238
:102720000D320C320B32000E0B14056E000E0C1421
:10273000066E000E0D14076EFE0E0E14086E055088
:10274000061007100810D8A4A8EF13F0AAEF13F092
:102750008DEF13F0B8EF13F00A2A010E0B26000ECE
:102760000C220D220E22D8900E320D320C320B327A
:10277000000E0B14056E000E0C14066E000E0D14E8
:10278000076EFF0E0E14086E055006100710081095
:10279000D8A4CDEF13F0CFEF13F0ACEF13F0D7EFD9
:1027A00013F00A06D8900B360C360D360E360DBED9
:1027B000DCEF13F0DEEF13F0E6EF13F0020E0A6029
:1027C000E4EF13F0E6EF13F0D1EF13F00AB0EBEF04
:1027D00013F0EDEF13F0EEEF13F00D9ED8900A32E8
:1027E0000AC005F0066A076A086A05C008F0076AA9
:1027F000066A056A05500B1206500C1207500D129E
:1028000008500E120950D8B408EF14F00AEF14F073
:1028100012EF14F004BE11EF14F00FEF14F012EFEA
:1028200014F00E8E0BC001F00CC002F00DC003F0CE
:102830000EC004F01200096E076A000E066E200E2C
:102840000918D8A426EF14F028EF14F02DEF14F097
:10285000076A000E066E85EF14F02F0E096433EF41
:1028600014F035EF14F045EF14F03A0E09603BEF29
:1028700014F03DEF14F045EF14F0D10E0924066E6C
:10288000076AFF0E072285EF14F0400E09644BEF34
:1028900014F04DEF14F05DEF14F05B0E096053EF90
:1028A00014F055EF14F05DEF14F0CA0E0924066E13
:1028B000076AFF0E072285EF14F03A0E0918D8A414
:1028C00064EF14F066EF14F06BEF14F0076A250E56
:1028D000066E85EF14F0250E0918D8A472EF14F0D7
:1028E00074EF14F079EF14F0076A260E066E85EF88
:1028F00014F02E0E0918D8A480EF14F082EF14F013
:1029000085EF14F0076A270E066E086A0650050D5B
:10291000F350010F0824056E05C0F6FF080EF76E90
:102920000800F550C5EC1CF0082A040E08649BEF63
:1029300014F09DEF14F086EF14F0000EC5EC1CF0BF
:102940001200033404340A6E0A50D8A4AAEF14F01B
:10295000ACEF14F0B6EF14F0000E016E000E026E34
:10296000000E036E000E046E23EF15F001C005F09B
:1029700002C006F003C007F004C008F0200EC6EF46
:1029800014F0D8900832073206320532E82EC1EF33
:1029900014F00550096E038EFF0E0116FF0E02168D
:1029A000FF0E0316000E0416960E0A5E0ABEDDEF39
:1029B00014F0DBEF14F0F3EF14F00A50800A970FD5
:1029C000D8B0E5EF14F0E7EF14F0E9EF14F0ACEF56
:1029D00014F0D89004320332023201320A3EE9EF99
:1029E00014F00BEF15F01F0E0A64F9EF14F0FBEF73
:1029F00014F003EF15F0ACEF14F0D8900136023666
:102A0000033604360A060A50D8A409EF15F00BEF76
:102A100015F0FDEF14F00950D8B411EF15F013EFD5
:102A200015F01BEF15F0041E031E021E016C000EB4
:102A300002220322042201C001F002C002F003C0FE
:102A400003F004C004F01200000E2814306E000ED3
:102A50002914316E800E2A14326E7F0E2B14336EC1
:102A60003050311032103310D8A439EF15F03BEF4D
:102A700015F043EF15F0000E286E000E296E000EC3
:102A80002A6E000E2B6E000E2C14306E000E2D14CC
:102A9000316E800E2E14326E7F0E2F14336E305036
:102AA000311032103310D8A458EF15F05AEF15F04A
:102AB00062EF15F0000E2C6E000E2D6E000E2E6EC5
:102AC000000E2F6E2BAE67EF15F069EF15F072EF69
:102AD00015F0286C291ED8B0292A2A1ED8B02A2A17
:102AE000800E2B562FAE77EF15F079EF15F082EFB1
:102AF00015F02C6C2D1ED8B02D2A2E1ED8B02E2AE3
:102B0000800E2F56000E281A000E291A000E2A1ABF
:102B1000800E2B1A000E2C1A000E2D1A000E2E1AE3
:102B2000800E2F1A2C50285C2D5029582E502A58D0
:102B30002F502B58D8B09FEF15F0A1EF15F0A4EF50
:102B400015F0D890A5EF15F0D8801200CCC00BF08E
:102B5000CDC00CF0CEC00DF0CFC00EF001C00BF018
:102B600002C00CF003C00DF004C00EF00BC005F065
:102B70000CC006F00DC007F00EC008F0180EC6EF2E
:102B800015F0D8900832073206320532E82EC1EF30
:102B900015F00550096E0A6A09500A10D8A4D3EF3F
:102BA00015F0D5EF15F0F3EF15F0D8900B34056E56
:102BB0000C34066E0D34076E0E34086E0550061088
:102BC00007100810D8A4E7EF15F0E9EF15F0EEEFC5
:102BD00015F0026A020E016E21EF16F0026A030E72
:102BE000016E21EF16F009280A10D8A4FAEF15F0AB
:102BF000FCEF15F01EEF16F00BC005F00CC006F050
:102C00000DC007F00EC008F0090ED8900536063644
:102C100007360836E82E05EF16F0055006100710A7
:102C20000810D8B416EF16F019EF16F0010E1AEFCF
:102C300016F0000E016E026A21EF16F0026A040E11
:102C4000016E1200030E066E080E056E770EE82E5A
:102C5000FED7052EFCD7062EFAD70000AE0ED4EC18
:102C60001CF0D50ED4EC1CF0F00ED4EC1CF0A80E29
:102C7000D4EC1CF03F0ED4EC1CF0D30ED4EC1CF0C2
:102C8000000ED4EC1CF0400ED4EC1CF08D0ED4ECF5
:102C90001CF0140ED4EC1CF0200ED4EC1CF0000E32
:102CA000D4EC1CF0A10ED4EC1CF0C80ED4EC1CF03B
:102CB000DA0ED4EC1CF0120ED4EC1CF0810ED4EC25
:102CC0001CF0FF0ED4EC1CF0D90ED4EC1CF0F10E6D
:102CD000D4EC1CF0DB0ED4EC1CF0400ED4EC1CF059
:102CE000A40ED4EC1CF0A60ED4EC1CF0AF0ED4EC69
:102CF0001CF0020E066E040E056EBA0EE82EFED70C
:102D0000052EFCD7062EFAD700D01200066A04BEA4
:102D10008EEF16F08CEF16F094EF16F0036C041E95
:102D2000D8B0042A010E066E02BE9BEF16F099EF92
:102D300016F0A1EF16F0016C021ED8B0022A010EA7
:102D4000061A086A000E076E03500410D8B4ABEFE1
:102D500016F0ADEF16F0D5EF16F0010E056EB5EFDB
:102D600016F0D89003360436052A04AEBAEF16F0F2
:102D7000BCEF16F0B1EF16F0D890073608360350C6
:102D8000015C04500258D8A0C8EF16F0CAEF16F044
:102D9000CFEF16F00350015E0450025A0780D8901E
:102DA00004320332052EBCEF16F00650D8B4DBEF28
:102DB00016F0DDEF16F0E1EF16F0076C081ED8B044
:102DC000082A07C001F008C002F01200066A02BE1D
:102DD000EEEF16F0ECEF16F0F4EF16F0016C021EB9
:102DE000D8B0022A010E066E04BEFBEF16F0F9EF12
:102DF00016F0FFEF16F0036C041ED8B0042A03503F
:102E00000410D8B406EF17F008EF17F02CEF17F006
:102E1000010E056E10EF17F0D89003360436052A20
:102E200004AE15EF17F017EF17F00CEF17F0035083
:102E3000015C04500258D8A020EF17F022EF17F0E1
:102E400026EF17F00350015E0450025AD890043266
:102E50000332052E17EF17F00650D8B432EF17F0F3
:102E600034EF17F038EF17F0016C021ED8B0022AC9
:102E700001C001F002C002F012000350D8B443EFC9
:102E800017F045EF17F04DEF17F00350D8A44BEFB4
:102E900017F04DEF17F052EF17F0015018EC1DF03E
:102EA00091EF17F00350D96EDA6A090ED926DE5079
:102EB000DE10D8B45EEF17F060EF17F079EF17F07F
:102EC0000350D96EDA6A090ED9260350E16EE26A20
:102ED000020EE126DE50E65CE650800A086EDE5007
:102EE000800A0858D8B077EF17F079EF17F091EF14
:102EF00017F00350D96EDA6A020ED926DF50046E3D
:102F00000350D96EDA6ADF500424D96EDA6A01C040
:102F1000DFFF0350D96EDA6A020ED926DE2A000ED0
:102F2000DD221200000E0114096E000E02140A6E5A
:102F3000800E03140B6E7F0E04140C6E09500A10E1
:102F40000B100C10D8A4A7EF17F0A9EF17F0B1EFF2
:102F500017F0000E016E000E026E000E036E000EE2
:102F6000046E000E0514096E000E06140A6E800E23
:102F700007140B6E7F0E08140C6E09500A100B100C
:102F80000C10D8A4C6EF17F0C8EF17F0D0EF17F069
:102F9000000E056E000E066E000E076E000E086E27
:102FA000055001180FE1065002180CE107500318F4
:102FB00009E108500418D8B4E0EF17F0E2EF17F079
:102FC000E5EF17F0D890E6EF17F0D8801200000177
:102FD000D651D711D8A4EFEF17F0F1EF17F011EF9A
:102FE00018F034C028F035C029F036C02AF037C0B8
:102FF0002BF0000E2C6E000E2D6EA00E2E6E410ECC
:103000002F6E24EC15F0D8B008EF18F00AEF18F086
:1030100011EF18F08C800001D76B010ED66F39EFDD
:1030200018F00001D651D711D8B419EF18F01BEFE2
:1030300018F039EF18F0000E286E000E296EC00E41
:103040002A6E410E2B6E34C02CF035C02DF036C0E8
:103050002EF037C02FF024EC15F0D8B032EF18F076
:1030600034EF18F039EF18F08C900001D76B000E98
:10307000D66F12000001D451D511D8A442EF18F038
:1030800044EF18F064EF18F034C028F035C029F090
:1030900036C02AF037C02BF0000E2C6E000E2D6EBD
:1030A000E10E2E6E430E2F6E24EC15F0D8B05BEFC0
:1030B00018F05DEF18F064EF18F08C840001D56B08
:1030C000010ED46F8CEF18F00001D451D511D8B493
:1030D0006CEF18F06EEF18F08CEF18F0000E286E01
:1030E000800E296E090E2A6E440E2B6E34C02CF011
:1030F00035C02DF036C02EF037C02FF024EC15F07F
:10310000D8B085EF18F087EF18F08CEF18F08C949A
:103110000001D56B000ED46F1200026E036A938219
:10312000046AD8900336030EE82EFED700008A808A
:10313000030EE82EFED7000081A2A1EF18F0A3EF46
:1031400018F0A4EF18F003808A90030EE82EFED743
:103150000000042A070E0464B0EF18F0B2EF18F074
:1031600091EF18F093920250D8B4B9EF18F0BDEF78
:1031700018F0016A012ABEEF18F0016A01468A5070
:103180000118FD0B01188A6E030EE82EFED7000011
:103190008A80030EE82EFED700008A908A82030EF2
:1031A000E82EFED7000003501200FD0EF3EC1BF0DA
:1031B000496EFE0EF3EC1BF04A6E4950456E4A50C4
:1031C000476E45C048F0000E136E000E146EC80E18
:1031D000156E420E166E47C001F048C002F0036A39
:1031E000046A000E41EC13F001C00FF002C010F0B1
:1031F00003C011F004C012F0BAEC0BF00FC028F0BD
:1032000010C029F011C02AF012C02BF0000E2C6E55
:10321000FF0E2D6E7F0E2E6E470E2F6ECDEC0DF035
:1032200028C041F029C042F02AC043F02BC044F02E
:103230001200026A000E016E9BEC1BF001C045F00B
:1032400002C046F0000E136E000E146EFA0E156EDC
:10325000430E166E45C001F046C002F0000E02BEDD
:10326000FF0E036E046E010E41EC13F001C00FF06F
:1032700002C010F003C011F004C012F0BAEC0BF061
:103280000FC028F010C029F011C02AF012C02BF096
:10329000000E2C6EC00E2D6E7F0E2E6E440E2F6E05
:1032A000CDEC0DF028C041F029C042F02AC043F017
:1032B0002BC044F0120034C028F035C029F036C0CD
:1032C0002AF037C02BF0000E2C6E000E2D6E200E53
:1032D0002E6E420E2F6E24EC15F0D8B072EF19F05E
:1032E00074EF19F07BEF19F0026AC80E016EF0EC72
:1032F0001AF09AEF19F0000E286E000E296E700E6B
:103300002A6E420E2B6E34C02CF035C02DF036C024
:103310002EF037C02FF024EC15F0D8B092EF19F052
:1033200094EF19F09AEF19F0030E026E840E016EFD
:10333000F0EC1AF01200026E036A02BEA2EF19F05E
:10334000A6EF19F0016A012AA7EF19F0016A0146F8
:103350008A500118FD0B01188A6ED8900236030EB0
:10336000E82EFED700008A80030EE82EFED700006C
:103370008A90030EE82EFED70000032A070E03648E
:10338000C4EF19F0C6EF19F09DEF19F09382030E08
:10339000E82EFED700008A80030EE82EFED700003C
:1033A0008A909392030EE82EFED7000012005AEC8A
:1033B0001CF0470E9BEC19F0010E8DEC18F0496ED5
:1033C000000E8DEC18F04A6E95EC1CF04950456EDD
:1033D0004A50476E45C048F047C001F048C002F06F
:1033E000036A046A000E41EC13F001C028F002C029
:1033F00029F003C02AF004C02BF09A0E2C6E990E0F
:103400002D6E990E2E6E3F0E2F6ECDEC0DF028C056
:1034100041F029C042F02AC043F02BC044F0120012
:1034200013BE17EF1AF015EF1AF01AEF1AF0136A1D
:10343000000E126E166A000E156E28EF1AF0026A60
:10344000200E016E0FC003F03DEC17F0154A162A4E
:103450001250155C1650800A146E1350800A1458CE
:10346000D8A035EF1AF037EF1AF01FEF1AF010C09E
:1034700009F011C00AF00FC00BF07CEC1BF0120039
:1034800056EF1AF00AC0F6FF0BC0F7FFF86A070EF6
:10349000F76403D00800F55005D0F6CFE1FFF7CF71
:1034A000E2FFE7501BEC14F00A4A0B2A0AC0F6FFB1
:1034B0000BC0F7FFF86A070EF76403D00800F55059
:1034C00005D0F6CFE1FFF7CFE2FFE7500009D8A41F
:1034D0006CEF1AF06EEF1AF042EF1AF0120006BE0F
:1034E0007BEF1AF02D0E055C010E0658D8A07BEF7D
:1034F0001AF07DEF1AF097EF1AF00001D84BD92B94
:10350000030E026E0168F0EC1AF00001D9BF92EFD1
:103510001AF0D95109E10B0ED85DD8A092EF1AF03C
:1035200094EF1AF09CEF1AF08C869CEF1AF00001D1
:10353000D96B000ED86F8C96120004BEA2EF1AF061
:10354000A4EF1AF0AEEF1AF001C001F002C002F0D1
:1035500003C003F004C004F0C7EF1AF001C005F087
:1035600002C006F003C007F004C008F0051E061EE6
:10357000071E081E052A000E06220722082205C083
:1035800001F006C002F007C003F008C004F012000A
:1035900003C00AF004C00BF001C008F002C009F03B
:1035A000E2EF1AF00AC0D9FF0BC0DAFFDF50076E56
:1035B0000A4A0B2A08C0D9FF09C0DAFF07C0DFFF9B
:1035C000084A092A0506D8A00606052806E10628A5
:1035D000D8A4EDEF1AF0EFEF1AF0D2EF1AF01200C4
:1035E00002BEFAEF1AF0040E025CD8A0FAEF1AF04D
:1035F000FCEF1AF0FFEF1AF0030E026E016801C033
:1036000003F002C004F00434043203320434043200
:1036100003320350BE6E01C003F0030E0316033ADB
:10362000BD500318CF0B0318BD6E1200210ED4EC51
:103630001CF0000ED4EC1CF07F0ED4EC1CF0220E1B
:10364000D4EC1CF0000ED4EC1CF0070ED4EC1CF0F3
:10365000066A000E056E000EC5EC1CF0054A062A2F
:10366000040E065CD8A037EF1BF039EF1BF02BEFF0
:103670001BF01200000E2C1A000E2D1A000E2E1A2E
:10368000800E2F1A28C001F029C002F02AC003F0D2
:103690002BC004F02CC005F02DC006F02EC007F0A2
:1036A0002FC008F05FEC09F001C028F002C029F03B
:1036B00003C02AF004C02BF0120095C097F069EF08
:1036C0001BF094C05DF0970E5E6E96C05FF094ECB8
:1036D0000FF097C0F6FF080EF76E0800F5500009CE
:1036E000D8A475EF1BF077EF1BF061EF1BF0000122
:1036F000956B000E946F12000E6A000E0D6E8AEF2D
:103700001BF00CC001F0026A0BC003F03DEC17F097
:103710000D4A0E2A0D500924D96E0E500A20DA6E79
:10372000DF500C6E0C50D8A498EF1BF09AEF1BF0F2
:1037300081EF1BF0120001C003F003460346C250A4
:103740000318C30B0318C26E0D0EE82EFED700003F
:10375000C282C2B2AEEF1BF0B0EF1BF0A9EF1BF0BC
:10376000C450046E036AC3500324016E000E04208B
:10377000026E120001C005F002C006F0032A030425
:10378000046E04C0F6FF080EF76E05C0D9FF06C030
:10379000DAFF054A062A0800F5CFDFFFDF50D8A47C
:1037A000D4EF1BF0D6EF1BF0BEEF1BF01200015060
:1037B000021003100410D8B4E0EF1BF0E2EF1BF08E
:1037C000EAEF1BF0000E011A000E021A000E031A97
:1037D000800E041A01C001F002C002F003C003F021
:1037E00004C004F01200056E5AEC1CF0EC0E9BECC9
:1037F00019F005509BEC19F095EC1CF0060EE82E24
:10380000FED700D05AEC1CF0ED0E9BEC19F0000E28
:103810008DEC18F0066E95EC1CF0065012009A0E16
:1038200000019E6F98C09FF0A26B000EA16FA96B64
:10383000000EA86F9F0E946F99C095F09E0E966F24
:103840005DEC1BF000019851A125D96EDA6ADF6AA0
:10385000120008BE2EEF1CF030EF1CF036EF1CF00B
:1038600007C007F008C008F042EF1CF007C009F0DD
:1038700008C00AF0091E0A1E094A0A2A09C007F0F0
:103880000AC008F012005AEC1CF0460E9BEC19F02E
:10389000100E9BEC19F095EC1CF0020E056ED40E88
:1038A000046E850EE82EFED7042EFCD7052EFAD71F
:1038B0000000120093928A82030EE82EFED70000C9
:1038C0008A80030EE82EFED700008A92030EE82EAF
:1038D000FED700008A90030EE82EFED700001200EB
:1038E000076E07C005F0000EB6EC1CF0086A000E6B
:1038F000C5EC1CF0082A7F0E086481EF1CF083EFF2
:103900001CF077EF1CF0120001EE00F0500EEE6A92
:10391000E806FDE100EEC8F0130EEE6AE806FDE1F0
:10392000000EF86E000126EF11F093928A92030EBA
:10393000E82EFED700008A80030EE82EFED7000096
:103940008A82030EE82EFED700001200010E046EDC
:10395000F20EE3EC1CF0270E046EF40EE3EC1CF008
:10396000A00E046EF50EE3EC1CF01200066E05507E
:10397000B00FD4EC1CF006500F0BD4EC1CF0063842
:103980000F0B1009D4EC1CF01200046E5AEC1CF062
:10399000780E9BEC19F0400E9BEC19F004509BEC58
:1039A00019F095EC1CF01200046E5AEC1CF0780E25
:1039B0009BEC19F0000E9BEC19F004509BEC19F0F5
:1039C00095EC1CF01200056E5AEC1CF0EC0E9BEC12
:1039D00019F005509BEC19F004509BEC19F095EC94
:1039E0001CF01200026A020E016E9BEC1BF001C07B
:1039F00005F002C006F01200720ED36E9268936A50
:103A0000956A946A8C6A12009494CB680C0EBD6E11
:103A1000040ECA6E1200090EC16EAA0EC06E010E0F
:103A2000C26E1200939093928A808A82F18E120065
:023A3000120082
:047FFC0084EF1CF002
:020000040030CA
:0800000000081F1EFF8181FFB3
:00000001FF
