:04000000FEEF3FF0E0
:100800000000000000003E5149453E00427F40008C
:1008100042615149462141454B311814127F10273E
:10082000454545393C4A4949300171090503364976
:10083000494936064949291E7E1111117E7F4949D1
:1008400049363E414141227F4141221C7F4949496D
:10085000417F090909013E4149497A7F0808087F1B
:1008600000417F41002040413F017F081422417F29
:10087000404040407F020C027F7F0408107F3E41D1
:1008800041413E7F090909063E4151215E7F091918
:100890002946464949493101017F01013F40404015
:1008A0003F1F2040201F3F4038403F63140814631F
:1008B0000708700807615149454300005F000000C8
:1008C00006090906000008000048202564252500C7
:1008D0005420256420430041202564004C202564D9
:1008E00000001250800B1B6E12501224216E11AEAC
:1008F0007CEF04F07EEF04F07FEF04F021802150C4
:10090000D8B485EF04F087EF04F09AEF04F02128C3
:10091000D8A48DEF04F08FEF04F097EF04F0000EF1
:100920000F6E000E106E000E116E000E126E118E04
:10093000A2EF04F0000E0F6E000E106E000E116E8E
:10094000000E126E1650800B1B1A16501624206EC5
:1009500015AEADEF04F0AFEF04F0B0EF04F020807F
:100960002050D8B4B6EF04F0B8EF04F0CBEF04F0A9
:100970002028D8A4BEEF04F0C0EF04F0C8EF04F0C4
:10098000000E136E000E146E000E156E000E166E25
:10099000158ED3EF04F0000E136E000E146E000ED1
:1009A000156E000E166E2050D8B4D9EF04F0DBEFB0
:1009B00004F0E3EF04F02150D8A4E1EF04F0E3EFFA
:1009C00004F0EDEF04F0000E0F6E000E106E000E3E
:1009D000116E000E126E83EF06F015500F02F3CF6A
:1009E00026F0F4CF27F026501C6E1D6A1E6A1F6A7F
:1009F0002750226E236A246A256A14501002F3CF0E
:100A000026F0F4CF27F026501C26000E1D221E22B1
:100A10001F2227502226000E232224222522135093
:100A20001102F3CF26F0F4CF27F026501C26000E3B
:100A30001D221E221F2227502226000E232224229E
:100A400025221EC01FF01DC01EF01CC01DF01C6A18
:100A500013501002F3CF26F0F4CF27F026501C26B7
:100A600027501D22000E1E22000E1F2214500F02BE
:100A7000F3CF26F0F4CF27F026501C2627501D2256
:100A8000000E1E22000E1F221EC01FF01DC01EF0F1
:100A90001CC01DF01C6A13500F02F3CF26F0F4CFD8
:100AA00027F026501C2627501D22000E1E22000E65
:100AB0001F2215501002F3CF26F0F4CF27F0265056
:100AC000222627502322000E2422000E2522145015
:100AD0001102F3CF26F0F4CF27F02650222627501C
:100AE0002322000E2422000E252215501102F3CFDE
:100AF00026F0F4CF27F02650176E2750186E196A8B
:100B00001A6A19C01AF018C019F017C018F0176A3D
:100B10001750222618502322195024221A50252219
:100B20001CC017F01DC018F01EC019F01FC01AF02D
:100B3000190EA0EF05F0D8901A3219321832173278
:100B4000E82E9BEF05F0175022261850232219504B
:100B500024221A5025221EC01FF01DC01EF01CC0EA
:100B60001DF01C6A205021C017F0186A1726000ECD
:100B70001822820E1724266EFF0E1820276ED6EF3D
:100B800005F0D89022362336243625361FAECBEF1B
:100B900005F0CDEF05F0CEEF05F02280D8901C36A1
:100BA0001D361E361F362606D8A0270624AEDBEFDC
:100BB00005F0DDEF05F0C1EF05F0206A1FAEE3EFB1
:100BC00005F0E5EF05F009EF06F0FF0E1C14176EB7
:100BD000FF0E1D14186EFF0E1E14196E7F0E1F14CB
:100BE0001A6E1750181019101A10D8B4FAEF05F031
:100BF000FCEF05F000EF06F0010E206E09EF06F0A5
:100C000022A005EF06F007EF06F009EF06F0FCEF73
:100C100005F02050D8B40FEF06F011EF06F035EFD5
:100C200006F0010E2226000E23222422252225A0D2
:100C30001CEF06F01EEF06F035EF06F022C017F0AD
:100C400023C018F024C019F025C01AF01A341A3243
:100C500019321832173217C022F018C023F019C009
:100C600024F01AC025F0264A272A27BE40EF06F0B6
:100C7000275008E12628D8A040EF06F042EF06F002
:100C80004CEF06F0000E226E000E236E800E246ED6
:100C90007F0E256E79EF06F027BE59EF06F027503C
:100CA00006E12604D8B057EF06F059EF06F064EFDE
:100CB00006F0000E226E000E236E000E246E000E53
:100CC000256E1B6A79EF06F026C021F0FF0E221672
:100CD000FF0E23167F0E2416000E251621A073EF9B
:100CE00006F075EF06F076EF06F0248ED8902130EE
:100CF000256E1B50251222C00FF023C010F024C017
:100D000011F025C012F012002B50800B386E2B50C2
:100D10002B243F6E2AAE8FEF06F091EF06F092EF94
:100D200006F03F803F50D8B498EF06F09AEF06F0F7
:100D3000AEEF06F03F28D8A4A0EF06F0A2EF06F031
:100D4000AAEF06F0000E286E000E296E000E2A6E25
:100D5000000E2B6E2A8E2B6AB6EF06F0000E286E60
:100D6000000E296E000E2A6E000E2B6E2F50800B87
:100D7000381A2F502F24406E2EAEC1EF06F0C3EF6D
:100D800006F0C4EF06F040804050D8B4CAEF06F039
:100D9000CCEF06F0E0EF06F04028D8A4D2EF06F042
:100DA000D4EF06F0DCEF06F0000E2C6E000E2D6E78
:100DB000000E2E6E000E2F6E2E8E2F6AE8EF06F0BC
:100DC000000E2C6E000E2D6E000E2E6E000E2F6E7D
:100DD0002C502D102E102F10D8A4F1EF06F0F3EFA9
:100DE00006F00BEF07F0000E286E000E296E000EC5
:100DF0002A6E000E2B6E800E2A127F0E2B12385098
:100E00002B1228C028F029C029F02AC02AF02BC0B4
:100E10002BF04AEF08F03F50D8A411EF07F013EF82
:100E200007F01DEF07F0000E286E000E296E000E71
:100E30002A6E000E2B6E4AEF08F040503FC030F093
:100E4000316A305E000E315A7F0E3024396E000E4A
:100E500031203A6E28C034F029C035F02AC036F06F
:100E60002BC037F0000E286E000E296E000E2A6E81
:100E7000000E2B6E000E3B6E000E3C6E000E3D6EA3
:100E8000000E3E6E406A7DEF07F04050D8B44BEF45
:100E900007F04DEF07F064EF07F0D89034363536A1
:100EA00036363736D890283629362A362B363EAE97
:100EB0005CEF07F05EEF07F05FEF07F02880D89057
:100EC0003B363C363D363E362C50345C2D50355842
:100ED0002E5036582F503758D8A071EF07F073EFC7
:100EE00007F07CEF07F03E8C2C50345E2D50355AC5
:100EF0002E50365A2F50375A402A190E406483EF2D
:100F000007F085EF07F045EF07F034503510361045
:100F10003710D8B48EEF07F090EF07F0A8EF07F086
:100F20003B80A8EF07F0D890283629362A362B3692
:100F30003EAE9DEF07F09FEF07F0A0EF07F028808F
:100F4000D8903B363C363D363E363906D8A03A0678
:100F50002AAEADEF07F0AFEF07F093EF07F0406A6E
:100F60003EAEB5EF07F0B7EF07F0DBEF07F0FF0E8F
:100F70003B14306EFF0E3C14316EFF0E3D14326E8A
:100F80007F0E3E14336E3050311032103310D8B40F
:100F9000CCEF07F0CEEF07F0D2EF07F0010E406E76
:100FA000DBEF07F028A0D7EF07F0D9EF07F0DBEF72
:100FB00007F0CEEF07F04050D8B4E1EF07F0E3EFD1
:100FC00007F007EF08F0010E2826000E29222A223A
:100FD0002B222BA0EEEF07F0F0EF07F007EF08F061
:100FE00028C030F029C031F02AC032F02BC033F0D5
:100FF0003334333232323132303230C028F031C003
:1010000029F032C02AF033C02BF0394A3A2A3ABECE
:1010100012EF08F03A5008E13928D8A012EF08F092
:1010200014EF08F01FEF08F0000E3A6E3968000E5A
:10103000286E000E296E000E2A6E000E2B6E3ABE30
:101040002CEF08F03A5006E13904D8B02AEF08F046
:101050002CEF08F038EF08F03A6A000E396E000EF7
:10106000286E000E296E000E2A6E000E2B6E386A56
:1010700039C03FF03FA03FEF08F041EF08F044EFE8
:1010800008F02A8E45EF08F02A9ED8903F302B6E4C
:10109000FFEF06F012000C50D96EDA6ADFCFF6FFD0
:1010A0000800F550250AD8A458EF08F05AEF08F0C8
:1010B00028EF09F00C50D96EDA6ADF2A4E6A000E6A
:1010C0004D6E4DC057F04F6850680C50D96EDA6ABB
:1010D000DF50106E10C0F6FF0800F550640AD8B457
:1010E00074EF08F076EF08F082EF08F010C0F6FF1A
:1010F0000800F550690AD8A480EF08F082EF08F0E4
:1011000006EF09F00D50D96EDA6A020EDF26DF5CB9
:10111000D96EDA6ADECF11F0DECF12F00C50D96E44
:10112000DA6A1028DF6E200E156E12BE9AEF08F0F4
:101130009DEF08F0010E9EEF08F0000E0F6E1506F1
:101140001550600FD96EDA6A11C001F012C002F0BA
:10115000046A0A0E036E33EC0DF001C007F002C002
:1011600008F067EC10F00750300FDF6E11C001F08F
:1011700012C002F0046A0A0E036ED3EC0CF001C038
:1011800011F002C012F011501210D8B4CAEF08F0DA
:10119000CCEF08F0D4EF08F01550D8A4D2EF08F047
:1011A000D4EF08F09FEF08F01550D8B4DAEF08F04C
:1011B000DCEF08F0FBEF08F00F50D8B4E2EF08F0D6
:1011C000E4EF08F0FBEF08F015061550600FD96E3C
:1011D000DA6A2D0EDF6EFBEF08F01550600FD96E46
:1011E000DA6ADF500E6E0E50016E026A0BC003F019
:1011F0008AEC0DF0152A200E1518D8A402EF09F07C
:1012000004EF09F0EDEF08F037EF09F00C50D96E5C
:10121000DA6ADFCFF6FF0800F550250AD8A413EFED
:1012200009F015EF09F022EF09F00C50D96EDA6AD7
:10123000DF2A026A250E016E0BC003F08AEC0DF066
:1012400037EF09F00C50D96EDA6ADF2A37EF09F070
:101250000C50D96EDA6ADFCFF6FF0800F550016E48
:10126000026A0BC003F08AEC0DF022EF09F01200C5
:10127000096E0950D8B43FEF09F041EF09F063EF70
:1012800009F004BE48EF09F046EF09F063EF09F0FA
:1012900001C005F002C006F003C007F004C008F06A
:1012A000051E061E071E081E052A000E062207221E
:1012B000082205C00BF006C00CF007C00DF008C0F6
:1012C0000EF06BEF09F001C00BF002C00CF003C090
:1012D0000DF004C00EF00150021003100410D8A449
:1012E00074EF09F076EF09F080EF09F0000E016E5F
:1012F000000E026E000E036E000E046E11EF0AF077
:10130000960E0A6E8AEF09F00A2AD8900E320D3234
:101310000C320B32000E0B14056E000E0C14066E10
:10132000000E0D14076EFE0E0E14086E055006100A
:1013300007100810D8A49FEF09F0A1EF09F084EF7F
:1013400009F0AFEF09F00A2A010E0B26000E0C225D
:101350000D220E22D8900E320D320C320B32000EBE
:101360000B14056E000E0C14066E000E0D14076EA5
:10137000FF0E0E14086E0550061007100810D8A4B2
:10138000C4EF09F0C6EF09F0A3EF09F0CEEF09F0C2
:101390000A06D8900B360C360D360E360DBED3EF3E
:1013A00009F0D5EF09F0DDEF09F0020E0A60DBEF7E
:1013B00009F0DDEF09F0C8EF09F00AB0E2EF09F03B
:1013C000E4EF09F0E5EF09F00D9ED8900A320AC06B
:1013D00005F0066A076A086A05C008F0076A066A27
:1013E000056A05500B1206500C1207500D120850DA
:1013F0000E120950D8B4FFEF09F001EF0AF009EF1F
:101400000AF004BE08EF0AF006EF0AF009EF0AF04E
:101410000E8E0BC001F00CC002F00DC003F00EC028
:1014200004F012006DEC11F0060E4C6E130E4B6EB4
:10143000AE0EE82EFED74B2EFCD74C2EFAD77DEC05
:1014400011F06FEC0CF008EC10F04EEC11F083ECA6
:1014500011F076EC11F0BAEC0EF041C08CF042C005
:101460008DF043C08EF044C08FF059EC11F005C0F0
:1014700094F006C095F063EC11F005C096F006C03C
:1014800097F076EC0EF041C090F042C091F043C06E
:1014900092F044C093F08CC00DF08DC00EF08EC061
:1014A0000FF08FC010F0DFEC0DF094C001F095C08C
:1014B00002F078EC0FF096C005F097C006F0B1ECA2
:1014C0000FF090C00DF091C00EF092C00FF093C0DD
:1014D00010F0FCEC0EF0000EDAEC10F0000E056ED1
:1014E000000E12EC11F0800E1A6ED00E1B6E8CC026
:1014F00001F08DC002F08EC003F08FC004F06AECE2
:101500000BF001C01CF002C01DF081EC10F0800E49
:101510000A6EC5EC10F0020EDAEC10F0020E056E49
:10152000000E12EC11F0800E1A6EC90E1B6E90C0E8
:1015300001F091C002F092C003F093C004F06AEC95
:101540000BF001C01CF002C01DF081EC10F0800E09
:101550000A6EC5EC10F0040EDAEC10F0040E056E05
:10156000000E12EC11F0800E1A6ED70E1B6E96C094
:101570001CF097C01DF081EC10F0800E0A6EC5ECD7
:1015800010F0060EDAEC10F0060E056E000E12ECEE
:1015900011F0800E1A6EDC0E1B6E94C01CF095C00C
:1015A0001DF081EC10F0800E0A6EC5EC10F00B0EF1
:1015B0004C6E260E4B6E5E0EE82EFED74B2EFCD7E1
:1015C0004C2EFAD72BEF0AF0FEEF3FF0096E076AB8
:1015D000000E066E200E0918D8A4F1EF0AF0F3EF02
:1015E0000AF0F8EF0AF0076A000E066E50EF0BF0F3
:1015F0002F0E0964FEEF0AF000EF0BF010EF0BF076
:101600003A0E096006EF0BF008EF0BF010EF0BF04D
:10161000D10E0924066E076AFF0E072250EF0BF069
:10162000400E096416EF0BF018EF0BF028EF0BF0EB
:101630005B0E09601EEF0BF020EF0BF028EF0BF0B4
:10164000CA0E0924066E076AFF0E072250EF0BF040
:101650003A0E0918D8A42FEF0BF031EF0BF036EF4C
:101660000BF0076A250E066E50EF0BF0250E0918D9
:10167000D8A43DEF0BF03FEF0BF044EF0BF0076AFF
:10168000260E066E50EF0BF02E0E0918D8A44BEF65
:101690000BF04DEF0BF050EF0BF0076A270E066EC4
:1016A000086A0650050DF350010F0824056E05C0A9
:1016B000F6FF0800F55021EC11F0082A040E08642A
:1016C00064EF0BF066EF0BF051EF0BF0000E21EC26
:1016D00011F01200033404340A6E0A50D8A473EFD8
:1016E0000BF075EF0BF07FEF0BF0000E016E000EAC
:1016F000026E000E036E000E046EECEF0BF001C0E4
:1017000005F002C006F003C007F004C008F0200E88
:101710008FEF0BF0D8900832073206320532E82EF0
:101720008AEF0BF00550096E038EFF0E0116FF0EB7
:101730000216FF0E0316000E0416960E0A5E0ABE6F
:10174000A6EF0BF0A4EF0BF0BCEF0BF00A50800AF1
:10175000970FD8B0AEEF0BF0B0EF0BF0B2EF0BF08D
:1017600075EF0BF0D89004320332023201320A3E98
:10177000B2EF0BF0D4EF0BF01F0E0A64C2EF0BF0C8
:10178000C4EF0BF0CCEF0BF075EF0BF0D8900136F7
:101790000236033604360A060A50D8A4D2EF0BF0FC
:1017A000D4EF0BF0C6EF0BF00950D8B4DAEF0BF022
:1017B000DCEF0BF0E4EF0BF0041E031E021E016CC5
:1017C000000E02220322042201C001F002C002F036
:1017D00003C003F004C004F01200000E0114096EEF
:1017E000000E02140A6E800E03140B6E7F0E04149A
:1017F0000C6E09500A100B100C10D8A402EF0CF05C
:1018000004EF0CF00CEF0CF0000E016E000E026EF7
:10181000000E036E000E046E000E0514096E000E1D
:1018200006140A6E800E07140B6E7F0E08140C6EE1
:1018300009500A100B100C10D8A421EF0CF023EF64
:101840000CF02BEF0CF0000E056E000E066E000E75
:10185000076E000E086E04AE30EF0CF032EF0CF0A5
:101860003BEF0CF0016C021ED8B0022A031ED8B068
:10187000032A800E045608AE40EF0CF042EF0CF045
:101880004BEF0CF0056C061ED8B0062A071ED8B028
:10189000072A800E0856000E011A000E021A000ECA
:1018A000031A800E041A000E051A000E061A000E06
:1018B000071A800E081A0550015C0650025807509E
:1018C000035808500458D8B068EF0CF06AEF0CF0D9
:1018D0006DEF0CF0D8906EEF0CF0D8801200030E74
:1018E000066E080E056E770EE82EFED7052EFCD785
:1018F000062EFAD70000AE0E30EC11F0D50E30EC0B
:1019000011F0F00E30EC11F0A80E30EC11F03F0E9B
:1019100030EC11F0D30E30EC11F0000E30EC11F081
:10192000400E30EC11F08D0E30EC11F0140E30EC56
:1019300011F0200E30EC11F0000E30EC11F0A10E81
:1019400030EC11F0C80E30EC11F0DA0E30EC11F082
:10195000120E30EC11F0810E30EC11F0FF0E30EC75
:1019600011F0D90E30EC11F0F10E30EC11F0DB0E6D
:1019700030EC11F0400E30EC11F0A40E30EC11F010
:10198000A60E30EC11F0AF0E30EC11F0020E066E28
:10199000040E056EBA0EE82EFED7052EFCD7062ED5
:1019A000FAD700D01200066A04BEDBEF0CF0D9EFC4
:1019B0000CF0E1EF0CF0036C041ED8B0042A010E09
:1019C000066E02BEE8EF0CF0E6EF0CF0EEEF0CF066
:1019D000016C021ED8B0022A010E061A086A000E17
:1019E000076E03500410D8B4F8EF0CF0FAEF0CF0C7
:1019F00022EF0DF0010E056E02EF0DF0D8900336C8
:101A00000436052A04AE07EF0DF009EF0DF0FEEFE6
:101A10000CF0D890073608360350015C0450025889
:101A2000D8A015EF0DF017EF0DF01CEF0DF00350DF
:101A3000015E0450025A0780D89004320332052E0A
:101A400009EF0DF00650D8B428EF0DF02AEF0DF095
:101A50002EEF0DF0076C081ED8B0082A07C001F061
:101A600008C002F01200066A02BE3BEF0DF039EF2B
:101A70000DF041EF0DF0016C021ED8B0022A010EEC
:101A8000066E04BE48EF0DF046EF0DF04CEF0DF082
:101A9000036C041ED8B0042A03500410D8B453EFCA
:101AA0000DF055EF0DF079EF0DF0010E056E5DEFC5
:101AB0000DF0D89003360436052A04AE62EF0DF01F
:101AC00064EF0DF059EF0DF00350015C0450025823
:101AD000D8A06DEF0DF06FEF0DF073EF0DF0035028
:101AE000015E0450025AD89004320332052E64EF8E
:101AF0000DF00650D8B47FEF0DF081EF0DF085EFBB
:101B00000DF0016C021ED8B0022A01C001F002C023
:101B100002F012000350D8B490EF0DF092EF0DF0E8
:101B20009AEF0DF00350D8A498EF0DF09AEF0DF056
:101B30009FEF0DF0015088EC11F0DEEF0DF0035037
:101B4000D96EDA6A090ED926DE50DE10D8B4ABEFB2
:101B50000DF0ADEF0DF0C6EF0DF00350D96EDA6A5F
:101B6000090ED9260350E16EE26A020EE126DE502C
:101B7000E65CE650800A086EDE50800A0858D8B04D
:101B8000C4EF0DF0C6EF0DF0DEEF0DF00350D96E8F
:101B9000DA6A020ED926DF50046E0350D96EDA6A73
:101BA000DF500424D96EDA6A01C0DFFF0350D96E1A
:101BB000DA6A020ED926DE2A000EDD221200535008
:101BC0005410D8A4E6EF0DF0E8EF0DF007EF0EF09B
:101BD0000DC001F00EC002F00FC003F010C004F001
:101BE000000E056E000E066EA00E076E410E086E0A
:101BF000EDEC0BF0D8B0FFEF0DF001EF0EF007EFBA
:101C00000EF08C80546A010E536E2DEF0EF053507F
:101C10005410D8B40EEF0EF010EF0EF02DEF0EF0C2
:101C2000000E016E000E026EC00E036E410E046EB9
:101C30000DC005F00EC006F00FC007F010C008F090
:101C4000EDEC0BF0D8B027EF0EF029EF0EF02DEFF2
:101C50000EF08C90546A000E536E1200026E036AEE
:101C60009382046AD8900336030EE82EFED7000054
:101C70008A80030EE82EFED7000081A242EF0EF00C
:101C800044EF0EF045EF0EF003808A90030EE82E2D
:101C9000FED70000042A070E046451EF0EF053EF44
:101CA0000EF032EF0EF093920250D8B45AEF0EF0CD
:101CB0005EEF0EF0016A012A5FEF0EF0016A014645
:101CC0008A500118FD0B01188A6E030EE82EFED70C
:101CD00000008A80030EE82EFED700008A908A82D8
:101CE000030EE82EFED7000003501200FD0E99EC03
:101CF00010F0496EFE0E99EC10F04A6E4950456E98
:101D00004A50476E45C048F0000E136E000E146E28
:101D1000C80E156E420E166E47C001F048C002F0A4
:101D2000036A046A000E38EC09F001C00FF002C02B
:101D300010F003C011F004C012F071EC04F00FC0F9
:101D400028F010C029F011C02AF012C02BF0000EAC
:101D50002C6EFF0E2D6E7F0E2E6E470E2F6E84ECB6
:101D600006F028C041F029C042F02AC043F02BC041
:101D700044F01200026A000E016E2CEC10F001C05B
:101D800045F002C046F0000E136E000E146EFA0EFF
:101D9000156E430E166E45C001F046C002F0000EEF
:101DA00002BEFF0E036E046E010E38EC09F001C096
:101DB0000FF002C010F003C011F004C012F071EC7B
:101DC00004F00FC028F010C029F011C02AF012C092
:101DD0002BF0000E2C6EC00E2D6E7F0E2E6E440E5C
:101DE0002F6E84EC06F028C041F029C042F02AC0D2
:101DF00043F02BC044F012000DC001F00EC002F001
:101E00000FC003F010C004F0000E056E000E066E49
:101E1000200E076E420E086EEDEC0BF0D8B013EFFB
:101E20000FF015EF0FF01CEF0FF0026AC80E016EF5
:101E3000E2EC0FF03BEF0FF0000E016E000E026EB1
:101E4000700E036E420E046E0DC005F00EC006F05B
:101E50000FC007F010C008F0EDEC0BF0D8B033EF76
:101E60000FF035EF0FF03BEF0FF0030E026E840E14
:101E7000016EE2EC0FF01200026E036A02BE43EF45
:101E80000FF047EF0FF0016A012A48EF0FF0016AE7
:101E900001468A500118FD0B01188A6ED89002364F
:101EA000030EE82EFED700008A80030EE82EFED730
:101EB00000008A90030EE82EFED70000032A070ECA
:101EC000036465EF0FF067EF0FF03EEF0FF09382C2
:101ED000030EE82EFED700008A80030EE82EFED700
:101EE00000008A909392030EE82EFED700001200A5
:101EF00051505210D8A47FEF0FF081EF0FF095EF03
:101F00000FF002BE8FEF0FF0C20E015C010E0258FF
:101F1000D8B08DEF0FF08FEF0FF095EF0FF08C84AE
:101F2000526A010E516EB0EF0FF051505210D8B4FA
:101F30009CEF0FF09EEF0FF0B0EF0FF002BEAAEF94
:101F40000FF0270E015C020E0258D8A0AAEF0FF086
:101F5000ACEF0FF0B0EF0FF08C94526A000E516EA0
:101F6000120006BEBDEF0FF02D0E055C010E0658E7
:101F7000D8A0BDEF0FF0BFEF0FF0D7EF0FF0554A2D
:101F8000562A030E026E0168E2EC0FF056BED2EF45
:101F90000FF0565009E10B0E555CD8A0D2EF0FF0B0
:101FA000D4EF0FF0E1EF0FF08C86E1EF0FF0566AFF
:101FB000000E556E8C96010E026E2C0E016EE2EC38
:101FC0000FF0120002BEECEF0FF0040E025CD8A07E
:101FD000ECEF0FF0EEEF0FF0F1EF0FF0030E026EEB
:101FE000016801C003F002C004F00434043203327B
:101FF0000434043203320350BE6E01C003F0030EFA
:102000000316033ABD500318CF0B0318BD6E120020
:10201000210E30EC11F0000E30EC11F07F0E30ECA0
:1020200011F0220E30EC11F0000E30EC11F0070E22
:1020300030EC11F0066A000E056E000E21EC11F076
:10204000054A062A040E065CD8A029EF10F02BEFF3
:1020500010F01DEF10F0120001C003F0034603461C
:10206000C2500318C30B0318C26E060EE82EFED72B
:1020700000D0C282C2B23FEF10F041EF10F03AEF51
:1020800010F0C450046E036AC3500324016E000EA6
:102090000420026E120017C019F057EF10F016C09E
:1020A0000BF0190E0C6E18C00DF04BEC08F019C0B7
:1020B000F6FF0800F5500009D8A461EF10F063EFB7
:1020C00010F04FEF10F0176A000E166E120008BEE7
:1020D0006CEF10F06EEF10F074EF10F007C007F027
:1020E00008C008F080EF10F007C009F008C00AF03F
:1020F000091E0A1E094A0A2A09C007F00AC008F088
:1021000012001C0E1E6E1AC01FF0226A000E216EF5
:10211000296A000E286E1F0E166E1BC017F01E0EC9
:10212000186E4BEC10F01A502124D96EDA6ADF6A6F
:102130001200056EAFEC10F0EC0E3CEC0FF0055009
:102140003CEC0FF0AFEC10F0ED0E3CEC0FF0000E9D
:102150002EEC0EF0066E01EC11F006501200939278
:102160008A82030EE82EFED700008A80030EE82E36
:10217000FED700008A92030EE82EFED700008A9058
:10218000030EE82EFED700001200CEEF10F00A502A
:10219000D96EDA6ADF50E6EC0AF00A2A0A50D96EE4
:1021A000DA6ADF50D8A4D7EF10F0D9EF10F0C7EFFC
:1021B00010F01200076E07C005F0000E12EC11F0CF
:1021C000086A000E21EC11F0082A7F0E0864EBEF7C
:1021D00010F0EDEF10F0E1EF10F0120000EE60F003
:1021E000200EEE6AE806FDE100EE4DF00B0EEE6A01
:1021F000E806FDE1000EF86E080EF76E000112EF22
:102200000AF093928A92030EE82EFED700008A808D
:10221000030EE82EFED700008A82030EE82EFED7BA
:1022200000001200066E0550B00F30EC11F00650A1
:102230000F0B30EC11F006380F0B100930EC11F0D9
:102240001200046EAFEC10F0780E3CEC0FF0400E74
:102250003CEC0FF004503CEC0FF001EC11F01200DC
:10226000046EAFEC10F0780E3CEC0FF0000E3CEC7E
:102270000FF004503CEC0FF001EC11F01200056E71
:10228000AFEC10F0EC0E3CEC0FF005503CEC0FF016
:1022900004503CEC0FF001EC11F01200010E046E42
:1022A000F20E3FEC11F0270E046EF40E3FEC11F02D
:1022B0001200026A010E016E2CEC10F001C005F054
:1022C00002C006F01200026A020E016E2CEC10F041
:1022D00001C005F002C006F01200720ED36E9268C3
:1022E000936A956A8C6A0E0EC16E12009494CB6844
:1022F0000C0EBD6E040ECA6E1200939093928A80EB
:102300008A82F18E1200010EC26EA90EC06E1200FA
:022310001200B9
:047FFC00EEEF10F0A4
:020000040030CA
:0800000000081F1EFF8181FFB3
:00000001FF
