:04000000FEEF3FF0E0
:1032FE000101B16BB06B000EF86E000117EF1DF0FF
:10330E00C580C5B08DEF19F08FEF19F088EF19F069
:10331E001200C584C5B496EF19F098EF19F091EF2D
:10332E0019F0120093829380280EC66EC56A130E92
:10333E00C86E800EC76E9E961200016E9E9601C0DC
:10334E00C9FF9EA6ADEF19F0AFEF19F0A8EF19F077
:10335E009E96C5501200026E87EC19F0780EA4EC02
:10336E0019F0400EA4EC19F00250A4EC19F090ECF8
:10337E0019F01200026E87EC19F0780EA4EC19F019
:10338E00000EA4EC19F00250A4EC19F090EC19F018
:10339E001200046E0450B00FC1EC19F003500F0B65
:1033AE00C1EC19F003380F0B100FC1EC19F012001D
:1033BE006D6A080E6F6E92800E0EC16EBE0EC06EDE
:1033CE00010EC26E340E016EF20EE82EFED7012EE5
:1033DE00FCD71200100EE82EFED700D0C282C2B269
:1033EE00FBEF19F0FDEF19F0F6EF19F0C450036E74
:1033FE00C350016E03C002F0120001500210031000
:10340E000410D8B40DEF1AF00FEF1AF017EF1AF0F0
:10341E00000E011A000E021A000E031A800E041A74
:10342E0001C001F002C002F003C003F004C004F0BA
:10343E001200066A000E036E0650D0EC19F0056AF3
:10344E00000EB2EC19F0052A7F0E056431EF1AF06A
:10345E0033EF1AF027EF1AF0062A070E06643AEF3A
:10346E001AF03CEF1AF021EF1AF0120092820D0EB4
:10347E00C16EBE0EC06E050EC26E020E026E040E40
:10348E00016EBA0EE82EFED7012EFCD7022EFAD709
:10349E0000D01F0E026E710E016E1E0EE82EFED7AC
:1034AE00012EFCD7022EFAD700D01200000E201AE1
:1034BE00000E211A000E221A800E231A1CC001F0D3
:1034CE001DC002F01EC003F01FC004F020C005F0A6
:1034DE0021C006F022C007F023C008F003EC2AF04A
:1034EE0001C01CF002C01DF003C01EF004C01FF08E
:1034FE00120003500410D8B487EF1AF089EF1AF0B7
:10350E00ADEF1AF0010E056E91EF1AF0D89003365A
:10351E000436052A04AE96EF1AF098EF1AF08DEFE6
:10352E001AF00350015C04500258D8A0A1EF1AF013
:10353E00A3EF1AF0A7EF1AF00350015E0450025ADF
:10354E00D89004320332052E98EF1AF001C001F024
:10355E0002C002F012000C6E09C003F00C50D0EC49
:10356E0019F0CEEF1AF00AC0F6FF0BC0F7FFF86A9B
:10357E00070EF76403D00800F55005D0F6CFD9FF3B
:10358E00F7CFDAFFDF5020EC1BF00A4A0B2A0AC0F5
:10359E00F6FF0BC0F7FFF86A070EF76403D00800BA
:1035AE00F55005D0F6CFD9FFF7CFDAFFDF5000097F
:1035BE00D8A4E4EF1AF0E6EF1AF0BAEF1AF0120000
:1035CE000B6A000E0A6E08500910D8B4F1EF1AF00B
:1035DE00F3EF1AF01BEF1BF0010E0C6EFBEF1AF05F
:1035EE00D890083609360C2A09AE00EF1BF002EF10
:1035FE001BF0F7EF1AF0D8900A360B360850065C1F
:10360E0009500758D8A00EEF1BF010EF1BF015EF66
:10361E001BF00850065E0950075A0A80D8900932EE
:10362E0008320C2E02EF1BF00AC006F00BC007F09A
:10363E001200076E1F0E076427EF1BF029EF1BF019
:10364E0031EF1BF07E0E07642FEF1BF031EF1BF0F6
:10365E0033EF1BF0200E076E086A0750050D5D0E46
:10366E00F324036E7D0EF420046E08500326000E24
:10367E000422600E0324056EFF0E0420066E05C0A4
:10368E00F6FF06C0F7FF0800F550B2EC19F0082A55
:10369E00040E086455EF1BF057EF1BF034EF1BF0D0
:1036AE00000EB2EC19F01200000E096E000E0A6E3A
:1036BE00000E0B6E000E0C6E055006100710081053
:1036CE00D8B46CEF1BF06EEF1BF0A4EF1BF0010EE5
:1036DE000D6E78EF1BF0D890053606360736083695
:1036EE000D2A08AE7DEF1BF07FEF1BF072EF1BF083
:1036FE00D89009360A360B360C360550015C06504A
:10370E0002580750035808500458D8A091EF1BF0E8
:10371E0093EF1BF09CEF1BF00550015E0650025A12
:10372E000750035A0850045A0980D89008320732BD
:10373E00063205320D2E7FEF1BF009C001F00AC0D4
:10374E0002F00BC003F00CC004F01200066A02BEB9
:10375E00B5EF1BF0B3EF1BF0BBEF1BF0016C021EBD
:10376E00D8B0022A010E066E04BEC2EF1BF0C0EFE7
:10377E001BF0C6EF1BF0036C041ED8B0042A0350D6
:10378E000410D8B4CDEF1BF0CFEF1BF0F3EF1BF00E
:10379E00010E056ED7EF1BF0D89003360436052ABE
:1037AE0004AEDCEF1BF0DEEF1BF0D3EF1BF003508B
:1037BE00015C04500258D8A0E7EF1BF0E9EF1BF0B4
:1037CE00EDEF1BF00350015E0450025AD890043204
:1037DE000332052EDEEF1BF00650D8B4F9EF1BF0C6
:1037EE00FBEF1BF0FFEF1BF0016C021ED8B0022A9C
:1037FE0001C001F002C002F01200000E226E000E97
:10380E00236E000E246E000E256E050EC26E100E77
:10381E00E82EFED700D0266AC282C2B219EF1CF083
:10382E001BEF1CF014EF1CF0C450216EC350206E21
:10383E002050222621502322000E2422000E252263
:10384E000D0E206EFC0EE82EFED7202EFCD7262A5B
:10385E00090E266435EF1CF037EF1CF013EF1CF049
:10386E000A0E056E000E066E000E076E000E086E36
:10387E0022C001F023C002F024C003F025C004F0E2
:10388E005BEC1BF001C00EF002C00FF003C010F095
:10389E0004C011F0000E69EC21F00EC01CF00FC038
:1038AE001DF010C01EF011C01FF01200030E086EA6
:1038BE00080E076E770EE82EFED7072EFCD7082EC1
:1038CE00FAD70000AE0EC1EC19F0D50EC1EC19F00E
:1038DE00800EC1EC19F0A80EC1EC19F03F0EC1EC30
:1038EE0019F0D30EC1EC19F0000EC1EC19F0400E18
:1038FE00C1EC19F08D0EC1EC19F0140EC1EC19F0DB
:10390E00200EC1EC19F0000EC1EC19F0A10EC1ECA5
:10391E0019F0C80EC1EC19F0DA0EC1EC19F0120E46
:10392E00C1EC19F0810EC1EC19F0FF0EC1EC19F0CB
:10393E00D90EC1EC19F0F10EC1EC19F0DB0EC1EC91
:10394E0019F0400EC1EC19F0A40EC1EC19F0A60E40
:10395E00C1EC19F0AF0EC1EC19F020EC1AF0120008
:10396E00066A04BEBFEF1CF0BDEF1CF0C5EF1CF0E5
:10397E00036C041ED8B0042A010E066E02BECCEFF4
:10398E001CF0CAEF1CF0D2EF1CF0016C021ED8B076
:10399E00022A010E061A086A000E076E0350041062
:1039AE00D8B4DCEF1CF0DEEF1CF006EF1DF0010EBC
:1039BE00056EE6EF1CF0D89003360436052A04AEE9
:1039CE00EBEF1CF0EDEF1CF0E2EF1CF0D890073699
:1039DE0008360350015C04500258D8A0F9EF1CF0D1
:1039EE00FBEF1CF000EF1DF00350015E0450025A75
:1039FE000780D89004320332052EEDEF1CF00650EE
:103A0E00D8B40CEF1DF00EEF1DF012EF1DF0076C89
:103A1E00081ED8B0082A07C001F008C002F0120034
:103A2E00720ED36ED3A41EEF1DF020EF1DF019EF12
:103A3E001DF0030E00017E6F080E7D6F770EE82ECF
:103A4E00FED77D2FFCD77E2FFAD7070EB46EDFEC94
:103A5E0019F03DEC1AF099EC19F05DEC1CF00A0E21
:103A6E00096EA80E0A6E7F0E0B6E000EB2EC1AF0E7
:103A7E000A0E096EE60E0A6E7F0E0B6E020EB2EC89
:103A8E001AF00A0E096EE00E0A6E7F0E0B6E040E11
:103A9E00B2EC1AF00A0E096EEC0E0A6E7F0E0B6E69
:103AAE00060EB2EC1AF007EC20F05AC09BF05BC089
:103ABE009CF05CC09DF05DC09EF09BC047F09CC02A
:103ACE0048F09DC049F09EC04AF0890E4B6E630EC1
:103ADE004C6E9AEC20F00A0E096EF10E0A6E7F0EF5
:103AEE000B6E040EB2EC1AF01E0E096E890E0A6EE3
:103AFE000B6A040EB2EC1AF083EF1DF0FEEF3FF0EE
:103B0E004A6A49504A24D96EDA6A200EDF6E4A2A72
:103B1E00070E4A6495EF1DF097EF1DF088EF1DF02C
:103B2E004950D96EDA6A47C006F048C007F0030E56
:103B3E00096EE80E086EE7EC1AF00650300FDF6ED5
:103B4E004950D96EDA6A010ED926030E046EE80EBC
:103B5E00036E47C001F048C002F080EC1AF001C0BD
:103B6E0006F002C007F0096A640E086EE7EC1AF060
:103B7E000650300FDF6E4950D96EDA6A020ED92622
:103B8E00046A640E036E47C001F048C002F080EC78
:103B9E001AF001C006F002C007F0096A0A0E086E9C
:103BAE00E7EC1AF00650300FDF6E4950D96EDA6A24
:103BBE00030ED92647C001F048C002F0046A0A0E6F
:103BCE00036E80EC1AF00150300FDF6E4950D96E43
:103BDE00DA6A040ED926200EDF6E4950D96EDA6AE3
:103BEE00050ED926DF6A1200000E24142C6E000E6C
:103BFE0025142D6E800E26142E6E7F0E27142F6E1A
:103C0E002C502D102E102F10D8A410EF1EF012EFE6
:103C1E001EF01AEF1EF0000E246E000E256E000E22
:103C2E00266E000E276E000E28142C6E000E291420
:103C3E002D6E800E2A142E6E7F0E2B142F6E2C508E
:103C4E002D102E102F10D8A42FEF1EF031EF1EF0D6
:103C5E0039EF1EF0000E286E000E296E000E2A6E31
:103C6E00000E2B6E27AE3EEF1EF040EF1EF049EF1A
:103C7E001EF0246C251ED8B0252A261ED8B0262A62
:103C8E00800E27562BAE4EEF1EF050EF1EF059EF62
:103C9E001EF0286C291ED8B0292A2A1ED8B02A2A2E
:103CAE00800E2B56000E241A000E251A000E261A10
:103CBE00800E271A000E281A000E291A000E2A1A34
:103CCE00800E2B1A2850245C295025582A5026582D
:103CDE002B502758D8B076EF1EF078EF1EF07BEF02
:103CEE001EF0D8907CEF1EF0D880120056C024F043
:103CFE0057C025F058C026F059C027F0000E286E88
:103D0E00400E296E9C0E2A6E400E2B6EF0EC27F0A4
:103D1E0024C064F025C065F026C066F027C067F0A9
:103D2E00000E246E000E256E000E266E000E276EFF
:103D3E0064C028F065C029F066C02AF067C02BF079
:103D4E00FBEC1DF0D8A0AEEF1EF0B0EF1EF0B9EFF9
:103D5E001EF06F0E0001646F120E656F830E666F9C
:103D6E003A0E676F000E286E000E296E800E2A6EB8
:103D7E003F0E2B6E64C020F065C021F066C022F0AD
:103D8E0067C023F0000E1C6E400E1D6E9C0E1E6E44
:103D9E00450E1F6E5DEC1AF01CC024F01DC025F000
:103DAE001EC026F01FC027F0F0EC27F024C03DF017
:103DBE0025C03EF026C03FF027C040F064C041F061
:103DCE0065C042F066C043F067C044F03BEC24F09F
:103DDE003DC060F03EC061F03FC062F040C063F095
:103DEE0060C056F061C057F062C058F063C059F021
:103DFE0012003F344034466E4650D8A409EF1FF0EF
:103E0E000BEF1FF015EF1FF0000E3D6E000E3E6E15
:103E1E00000E3F6E000E406E82EF1FF03DC041F06F
:103E2E003EC042F03FC043F040C044F0200E25EFAC
:103E3E001FF0D8904432433242324132E82E20EF06
:103E4E001FF04150456E3F8EFF0E3D16FF0E3E1683
:103E5E00FF0E3F16000E4016960E465E46BE3CEF17
:103E6E001FF03AEF1FF052EF1FF04650800A970FE7
:103E7E00D8B044EF1FF046EF1FF048EF1FF00BEFE6
:103E8E001FF0D89040323F323E323D32463E48EF30
:103E9E001FF06AEF1FF01F0E466458EF1FF05AEF27
:103EAE001FF062EF1FF00BEF1FF0D8903D363E363D
:103EBE003F36403646064650D8A468EF1FF06AEFEC
:103ECE001FF05CEF1FF04550D8B470EF1FF072EF8B
:103EDE001FF07AEF1FF0401E3F1E3E1E3D6C000E7F
:103EEE003E223F2240223DC03DF03EC03EF03FC04C
:103EFE003FF040C040F01200000E00016A6F000E4D
:103F0E006B6F000E6C6F000E6D6F6E6BF1EC19F037
:103F1E00015000016A2702506B23000E6C23000E25
:103F2E006D23060E5A6E300EE82EFED75A2EFCD793
:103F3E0000D000016E2B070E6E65A8EF1FF0AAEFE2
:103F4E001FF08DEF1FF06AC05AF06BC05BF06CC0B3
:103F5E005CF06DC05DF0040EBAEF1FF0D8905D32CC
:103F6E005C325B325A32E82EB5EF1FF05AC068F061
:103F7E005BC069F068C00EF069C00FF0106A116A7C
:103F8E00000E69EC21F00EC024F00FC025F010C019
:103F9E0026F011C027F0E60E286E3F0E296E9C0EFD
:103FAE002A6E400E2B6EF0EC27F024C060F025C078
:103FBE0061F026C062F027C063F060C03DF061C0C2
:103FCE003EF062C03FF063C040F0000E416E000E46
:103FDE00426E200E436E410E446E3BEC24F03DC00B
:103FEE0064F03EC065F03FC066F040C067F064C04C
:103FFE0056F065C057F066C058F067C059F0120011
:10400E00000E0001746F000E756F000E766F000EBD
:10401E00776F786B04EC1CF01CC068F01DC069F063
:10402E001EC06AF01FC06BF068C056F069C057F032
:10403E006AC058F06BC059F07DEC1EF056C070F09F
:10404E0057C071F058C072F059C073F074C001F0CF
:10405E0075C002F076C003F077C004F070C005F0B2
:10406E0071C006F072C007F073C008F003EC2AF0BE
:10407E0001C074F002C075F003C076F004C077F092
:10408E00020E5F6E040E5E6EBA0EE82EFED75E2E28
:10409E00FCD75F2EFAD700D00001782B310E786551
:1040AE005BEF20F05DEF20F011EF20F074C03DF0DB
:1040BE0075C03EF076C03FF077C040F0000E416E06
:1040CE00000E426E480E436E420E446E3BEC24F0E0
:1040DE003DC070F03EC071F03FC072F040C073F052
:1040EE0070C03DF071C03EF072C03FF073C040F042
:1040FE00660E416E660E426E660E436E400E446E46
:10410E003BEC24F03DC06CF03EC06DF03FC06EF055
:10411E0040C06FF06CC05AF06DC05BF06EC05CF0CA
:10412E006FC05DF012004F6A4B504F24D96EDA6AA1
:10413E00200EDF6E4F2A090E4F64A8EF20F0AAEF73
:10414E0020F09BEF20F04ABEB1EF20F0AFEF20F051
:10415E00B9EF20F0000E476E000E486E000E496E4D
:10416E00000E4A6E4C500E6E0F6A106A116A000EE7
:10417E0069EC21F00EC024F00FC025F010C026F01F
:10418E0011C027F047C028F048C029F049C02AF0D6
:10419E004AC02BF0FBEC1DF0D8B0D8EF20F0DAEFD0
:1041AE0020F0EAEF20F04C500E6E0F6A106A116A82
:1041BE00000E69EC21F00EC047F00FC048F010C0A1
:1041CE0049F011C04AF047C03DF048C03EF049C02A
:1041DE003FF04AC040F000EC1FF03D504E6E000E16
:1041EE00286E000E296E200E2A6E410E2B6E4E503A
:1041FE000E6E0F6A106A116A000E69EC21F00EC085
:10420E0020F00FC021F010C022F011C023F047C0E3
:10421E001CF048C01DF049C01EF04AC01FF05DECF6
:10422E001AF01CC024F01DC025F01EC026F01FC0C1
:10423E0027F0F0EC27F024C03DF025C03EF026C05C
:10424E003FF027C040F000EC1FF03D504D6E4B503C
:10425E00D96EDA6A4EC001F0026A046A0A0E036E63
:10426E00B7EC1CF00150300FDF6E4B50D96EDA6A8E
:10427E00010ED9264EC001F0026A046A0A0E036EC0
:10428E00ADEC1BF00150300FDF6E4B50D96EDA6A79
:10429E00020ED9262E0EDF6E4B50D96EDA6A030E41
:1042AE00D9264D50300FDF6E4B50D96EDA6A040EA0
:1042BE00D926200EDF6E4B50D96EDA6A050ED9263E
:1042CE00DF6A1200166E1650D8B470EF21F072EF3E
:1042DE0021F094EF21F011BE79EF21F077EF21F06C
:1042EE0094EF21F00EC012F00FC013F010C014F0B6
:1042FE0011C015F0121E131E141E151E122A000ECA
:10430E0013221422152212C018F013C019F014C073
:10431E001AF015C01BF09CEF21F00EC018F00FC064
:10432E0019F010C01AF011C01BF00E500F10101023
:10433E001110D8A4A5EF21F0A7EF21F0B1EF21F0D5
:10434E00000E0E6E000E0F6E000E106E000E116E31
:10435E0042EF22F0960E176EBBEF21F0172AD8907F
:10436E001B321A3219321832000E1814126E000E49
:10437E001914136E000E1A14146EFE0E1B14156E05
:10438E001250131014101510D8A4D0EF21F0D2EF44
:10439E0021F0B5EF21F0E0EF21F0172A010E1826DB
:1043AE00000E19221A221B22D8901B321A321932F1
:1043BE001832000E1814126E000E1914136E000E21
:1043CE001A14146EFF0E1B14156E125013101410C7
:1043DE001510D8A4F5EF21F0F7EF21F0D4EF21F06E
:1043EE00FFEF21F01706D890183619361A361B36FD
:1043FE001ABE04EF22F006EF22F00EEF22F0020EAC
:10440E0017600CEF22F00EEF22F0F9EF21F017B04B
:10441E0013EF22F015EF22F016EF22F01A9ED8902D
:10442E00173217C012F0136A146A156A12C015F00B
:10443E00146A136A126A1250181213501912145079
:10444E001A1215501B121650D8B430EF22F032EF5C
:10445E0022F03AEF22F011BE39EF22F037EF22F0C0
:10446E003AEF22F01B8E18C00EF019C00FF01AC0D2
:10447E0010F01BC011F01200000E246E000E256EFF
:10448E00000E266E000E276E6DC028F06EC029F04D
:10449E006FC02AF070C02BF0FBEC1DF0D8A05AEFC5
:1044AE0022F05CEF22F065EF22F0000E00016D6F3E
:1044BE00000E6E6F200E6F6F410E706F69C03DF073
:1044CE006AC03EF06BC03FF06CC040F06DC041F072
:1044DE006EC042F06FC043F070C044F03BEC24F06D
:1044EE003DC075F03EC076F03FC077F040C078F02A
:1044FE00000E246E000E256E000E266E000E276E28
:10450E0075C028F076C029F077C02AF078C02BF05D
:10451E00FBEC1DF0D8A096EF22F098EF22F0A1EF61
:10452E0022F06F0E0001756F120E766F830E776F8D
:10453E003A0E786FDE0E5A6E370E5B6E310E5C6E73
:10454E00C00E5D6E75C056F076C057F077C058F04D
:10455E0078C059F05EEC2CF056C071F057C072F076
:10456E0058C073F059C074F071C024F072C025F0B9
:10457E0073C026F074C027F0420E286E340E296EDA
:10458E00E90E2A6E420E2B6EF0EC27F024C079F065
:10459E0025C07AF026C07BF027C07CF079C024F0CD
:1045AE007AC025F07BC026F07CC027F0000E286E66
:1045BE00000E296E200E2A6E410E2B6EFBEC1DF0A6
:1045CE00D8B0ECEF22F0EEEF22F0F7EF22F0000E73
:1045DE000001796F000E7A6F200E7B6F410E7C6F9B
:1045EE00000E246E400E256E1C0E266E460E276E95
:1045FE0079C028F07AC029F07BC02AF07CC02BF05D
:10460E00FBEC1DF0D8B00EEF23F010EF23F019EFF6
:10461E0023F0000E0001796F400E7A6F1C0E7B6F37
:10462E00460E7C6F79C069F07AC06AF07BC06BF081
:10463E007CC06CF012003DC04BF03EC04CF03FC051
:10464E004DF040C04EF042BE36EF23F0425009E12D
:10465E00800E415CD8A036EF23F038EF23F095EFB3
:10466E0023F04BC024F04CC025F04DC026F04EC0B8
:10467E0027F0000E286E000E296E000E2A6E7F0E99
:10468E002B6EF0EC27F024C04BF025C04CF026C06A
:10469E004DF027C04EF0810E4126FF0E422242BE43
:1046AE0062EF23F0425009E1800E415CD8A062EF28
:1046BE0023F064EF23F0FFEF23F04BC024F04CC047
:1046CE0025F04DC026F04EC027F0000E286E000ECD
:1046DE00296E000E2A6E7F0E2B6EF0EC27F024C092
:1046EE004BF025C04CF026C04DF027C04EF0810E89
:1046FE004126FF0E422242BE8EEF23F0425009E1C8
:10470E00800E415CD8A08EEF23F090EF23F0FFEFE8
:10471E0023F0426A7F0E416EFFEF23F042AEA1EF0F
:10472E0023F0820E415CFF0E4258D8B0A1EF23F069
:10473E00A3EF23F0FFEF23F04BC024F04CC025F085
:10474E004DC026F04EC027F0000E286E000E296ECA
:10475E00800E2A6E0C0E2B6EF0EC27F024C04BF060
:10476E0025C04CF026C04DF027C04EF0660E4126F7
:10477E00000E422242AECDEF23F0820E415CFF0EC0
:10478E004258D8B0CDEF23F0CFEF23F0FFEF23F058
:10479E004BC024F04CC025F04DC026F04EC027F083
:1047AE00000E286E000E296E800E2A6E0C0E2B6ED9
:1047BE00F0EC27F024C04BF025C04CF026C04DF095
:1047CE0027C04EF0660E4126000E422242AEF9EF91
:1047DE0023F0820E415CFF0E4258D8B0F9EF23F061
:1047EE00FBEF23F0FFEF23F0FF0E426E820E416EC1
:1047FE007F0E4124436E000E4220446E456A466A87
:10480E00170ED8904336443645364636E82E08EF16
:10481E0024F043C047F044C048F045C049F046C0BC
:10482E004AF047C024F048C025F049C026F04AC0DF
:10483E0027F04BC028F04CC029F04DC02AF04EC0D6
:10484E002BF0F0EC27F024C03DF025C03EF026C042
:10485E003FF027C040F03DC03DF03EC03EF03FC0AF
:10486E003FF040C040F012004050800B4D6E405063
:10487E004024546E3FAE46EF24F048EF24F049EF4B
:10488E0024F054805450D8B44FEF24F051EF24F05C
:10489E0065EF24F05428D8A457EF24F059EF24F0F4
:1048AE0061EF24F0000E3D6E000E3E6E000E3F6E68
:1048BE00000E406E3F8E406A6DEF24F0000E3D6E8E
:1048CE00000E3E6E000E3F6E000E406E4450800B8A
:1048DE004D1A44504424556E43AE78EF24F07AEFCF
:1048EE0024F07BEF24F055805550D8B481EF24F09E
:1048FE0083EF24F097EF24F05528D8A489EF24F005
:10490E008BEF24F093EF24F0000E416E000E426EFA
:10491E00000E436E000E446E438E446A9FEF24F0E9
:10492E00000E416E000E426E000E436E000E446E7F
:10493E004150421043104410D8A4A8EF24F0AAEF1F
:10494E0024F0C2EF24F0000E3D6E000E3E6E000EFF
:10495E003F6E000E406E800E3F127F0E40124D5085
:10496E0040123DC03DF03EC03EF03FC03FF040C063
:10497E0040F001EF26F05450D8A4C8EF24F0CAEF4F
:10498E0024F0D4EF24F0000E3D6E000E3E6E000EAD
:10499E003F6E000E406E01EF26F0555054C045F0AC
:1049AE00466A455E000E465A7F0E45244E6E000E38
:1049BE0046204F6E3DC049F03EC04AF03FC04BF01E
:1049CE0040C04CF0000E3D6E000E3E6E000E3F6E6F
:1049DE00000E406E000E506E000E516E000E526EA6
:1049EE00000E536E556A34EF25F05550D8B402EFD1
:1049FE0025F004EF25F01BEF25F0D89049364A3606
:104A0E004B364C36D8903D363E363F36403653AE5A
:104A1E0013EF25F015EF25F016EF25F03D80D89019
:104A2E0050365136523653364150495C42504A58F0
:104A3E0043504B5844504C58D8A028EF25F02AEF3D
:104A4E0025F033EF25F0538C4150495E42504A5ABF
:104A5E0043504B5A44504C5A552A190E55643AEF4E
:104A6E0025F03CEF25F0FCEF24F049504A104B1096
:104A7E004C10D8B445EF25F047EF25F05FEF25F049
:104A8E0050805FEF25F0D8903D363E363F364036AB
:104A9E0053AE54EF25F056EF25F057EF25F03D803D
:104AAE00D89050365136523653364E06D8A04F0651
:104ABE003FAE64EF25F066EF25F04AEF25F0556A1C
:104ACE0053AE6CEF25F06EEF25F092EF25F0FF0E52
:104ADE005014456EFF0E5114466EFF0E5214476E63
:104AEE007F0E5314486E4550461047104810D8B4E8
:104AFE0083EF25F085EF25F089EF25F0010E556E39
:104B0E0092EF25F03DA08EEF25F090EF25F092EF7D
:104B1E0025F085EF25F05550D8B498EF25F09AEF93
:104B2E0025F0BEEF25F0010E3D26000E3E223F225F
:104B3E00402240A0A5EF25F0A7EF25F0BEEF25F00F
:104B4E003DC045F03EC046F03FC047F040C048F083
:104B5E004834483247324632453245C03DF046C0B1
:104B6E003EF047C03FF048C040F04E4A4F2A4FBE7D
:104B7E00C9EF25F04F5008E14E28D8A0C9EF25F017
:104B8E00CBEF25F0D6EF25F0000E4F6E4E68000EDF
:104B9E003D6E000E3E6E000E3F6E000E406E4FBE1E
:104BAE00E3EF25F04F5006E14E04D8B0E1EF25F0CB
:104BBE00E3EF25F0EFEF25F04F6A000E4E6E000E7C
:104BCE003D6E000E3E6E000E3F6E000E406E4D6A44
:104BDE004EC054F054A0F6EF25F0F8EF25F0FBEFA1
:104BEE0025F03F8EFCEF25F03F9ED8905430406E5E
:104BFE00B6EF24F0120001C022F002C023F003C071
:104C0E0024F004C025F0000E2214056E000E2314AD
:104C1E00066E800E2414076E7F0E2514086E800E0D
:104C2E00071809E17F0E081805100610D8A422EF08
:104C3E0026F024EF26F054EF26F0FF0E2214056E18
:104C4E00FF0E2314066E7F0E2414076E000E25141D
:104C5E00086E0550061007100810D8A439EF26F07C
:104C6E003BEF26F042EF26F025BE42EF26F040EF56
:104C7E0026F04AEF26F0FF0E2212FF0E23127F0EB1
:104C8E002412000E251222C001F023C002F024C00F
:104C9E0003F025C004F0EFEF27F025BE63EF26F0FA
:104CAE0025502410231006E12204D8B061EF26F01F
:104CBE0063EF26F099EF26F0FF0E2214056EFF0E1D
:104CCE002314066EFF0E2414076E7F0E2514086E35
:104CDE000550061007100810D8A478EF26F07AEFCA
:104CEE0026F084EF26F0000E016E000E026E000E0E
:104CFE00036E000E046EEFEF27F025BE8BEF26F04D
:104D0E0089EF26F099EF26F00101B16B210EB06FFD
:104D1E00FF0E226EFF0E236EFF0E246E7F0E256E8B
:104D2E004AEF26F0170E056E22C006F023C007F0DC
:104D3E0024C008F025C009F00566A8EF26F0B0EFF4
:104D4E0026F009340932083207320632052EA3EF57
:104D5E0026F006C01AF007C01BF008C01CF009C0F0
:104D6E001DF01A501B101C101D10D8A4C1EF26F0F8
:104D7E00C3EF26F0F3EF26F0000E0E6E000E0F6E50
:104D8E00000E106E000E116ED8EF26F0D89022365F
:104D9E00233624362536010E0E26000E0F22102243
:104DAE00112224AEDDEF26F0DFEF26F0CDEF26F058
:104DBE00FF0E0E24056EFF0E0F20066EFF0E102046
:104DCE00076EFF0E1120086E05501A5E06501B5A14
:104DDE0007501C5A08501D5A810E1A26FF0E1B2210
:104DEE00FF0E1C22FF0E1D22FF0E2214056EFF0E5B
:104DFE002314066E7F0E2414076E000E2514086E03
:104E0E00000E0510226E000E0610236E800E071087
:104E1E00246E000E0810256E1AA018EF27F01AEF58
:104E2E0027F022EF27F0225022262350232224504F
:104E3E002422255025221D341D321C321B321A32DB
:104E4E00225022262350232224502422255025226C
:104E5E00000E0A6E000E0B6E000E0C6E000E0D6E26
:104E6E000AC012F00BC013F00CC014F00DC015F0F8
:104E7E00000E1E6E000E1F6E000E206E010E216EB5
:104E8E0091EF27F00A501E24166E0B501F20176E3E
:104E9E000C502020186E0D502120196E1650225CD9
:104EAE0017502358185024582550800A056E195053
:104EBE00800A0558D8A066EF27F068EF27F084EF38
:104ECE0027F016501E240A6E17501F200B6E185016
:104EDE0020200C6E195021200D6E1650225E175098
:104EEE00235A1850245A1950255A1E5012261F5054
:104EFE0013222050142221501522225022262350F4
:104F0E0023222450242225502522D89021322032CB
:104F1E001F321E321E501F1020102110D8A49AEFDF
:104F2E0027F09CEF27F049EF27F022502310241092
:104F3E002510D8B4A5EF27F0A7EF27F0BBEF27F089
:104F4E00010E1214056E000E1314066E000E1414CC
:104F5E00076E000E1514086E055012260650132209
:104F6E00075014220850152212C005F013C006F087
:104F7E0014C007F015C008F00834083207320632A4
:104F8E000532000E0524226E000E0620236E000E42
:104F9E000720246E3F0E0820256E1AC005F01BC098
:104FAE0006F01CC007F01DC008F0170ED89005368D
:104FBE00063607360836E82EDDEF27F00550222696
:104FCE000650232207502422085025224AEF26F0AD
:104FDE0012002750800B306E27502724366E26AED7
:104FEE00FBEF27F0FDEF27F0FEEF27F0368036506F
:104FFE00D8B404EF28F006EF28F019EF28F0362881
:10500E00D8A40CEF28F00EEF28F016EF28F0000EC3
:10501E00246E000E256E000E266E000E276E268E56
:10502E0021EF28F0000E246E000E256E000E266E67
:10503E00000E276E2B50800B301A2B502B24316E06
:10504E002AAE2CEF28F02EEF28F02FEF28F031802B
:10505E003150D8B435EF28F037EF28F04AEF28F06A
:10506E003128D8A43DEF28F03FEF28F047EF28F085
:10507E00000E286E000E296E000E2A6E000E2B6E8C
:10508E002A8E52EF28F0000E286E000E296E000EAA
:10509E002A6E000E2B6E3150D8B458EF28F05AEF0E
:1050AE0028F062EF28F03650D8A460EF28F062EFB7
:1050BE0028F06CEF28F0000E246E000E256E000E08
:1050CE00266E000E276E02EF2AF02A502402F3CF2E
:1050DE003BF0F4CF3CF03B50326E336A346A356AA3
:1050EE003C50376E386A396A3A6A29502502F3CF36
:1050FE003BF0F4CF3CF03B503226000E33223422EC
:10510E0035223C503726000E382239223A222850BA
:10511E002602F3CF3BF0F4CF3CF03B503226000E8C
:10512E003322342235223C503726000E38223922C3
:10513E003A2234C035F033C034F032C033F0326A24
:10514E0028502502F3CF3BF0F4CF3CF03B503226F3
:10515E003C503322000E3422000E352229502402F8
:10516E00F3CF3BF0F4CF3CF03B5032263C50332291
:10517E00000E3422000E352234C035F033C034F028
:10518E0032C033F0326A28502402F3CF3BF0F4CF12
:10519E003CF03B5032263C503322000E3422000E9F
:1051AE0035222A502502F3CF3BF0F4CF3CF03B5092
:1051BE0037263C503822000E3922000E3A22295052
:1051CE002602F3CF3BF0F4CF3CF03B5037263C5059
:1051DE003822000E3922000E3A222A502602F3CF30
:1051EE003BF0F4CF3CF03B502C6E3C502D6E2E6AB3
:1051FE002F6A2EC02FF02DC02EF02CC02DF02C6A51
:10520E002C5037262D5038222E5039222F503A222C
:10521E0032C02CF033C02DF034C02EF035C02FF03C
:10522E00190E1FEF29F0D8902F322E322D322C323C
:10523E00E82E1AEF29F02C5037262D5038222E50FA
:10524E0039222F503A2234C035F033C034F032C0F8
:10525E0033F0326A315036C02CF02D6A2C26000EF7
:10526E002D22820E2C243B6EFF0E2D203C6E55EF10
:10527E0029F0D8903736383639363A3635AE4AEFC9
:10528E0029F04CEF29F04DEF29F03780D8903236C7
:10529E003336343635363B06D8A03C0639AE5AEF97
:1052AE0029F05CEF29F040EF29F0316A35AE62EF5C
:1052BE0029F064EF29F088EF29F0FF0E32142C6EDE
:1052CE00FF0E33142D6EFF0E34142E6E7F0E35141A
:1052DE002F6E2C502D102E102F10D8B479EF29F0E0
:1052EE007BEF29F07FEF29F0010E316E88EF29F068
:1052FE0037A084EF29F086EF29F088EF29F07BEFB5
:10530E0029F03150D8B48EEF29F090EF29F0B4EF98
:10531E0029F0010E3726000E382239223A223AA001
:10532E009BEF29F09DEF29F0B4EF29F037C02CF058
:10533E0038C02DF039C02EF03AC02FF02F342F3256
:10534E002E322D322C322CC037F02DC038F02EC01C
:10535E0039F02FC03AF03B4A3C2A3CBEBFEF29F051
:10536E003C5008E13B28D8A0BFEF29F0C1EF29F04F
:10537E00CBEF29F0000E376E000E386E800E396EB0
:10538E007F0E3A6EF8EF29F03CBED8EF29F03C5074
:10539E0006E13B04D8B0D6EF29F0D8EF29F0E3EFC1
:1053AE0029F0000E376E000E386E000E396E000EAC
:1053BE003A6E306AF8EF29F03BC036F0FF0E371622
:1053CE00FF0E38167F0E3916000E3A1636A0F2EF83
:1053DE0029F0F4EF29F0F5EF29F0398ED890363018
:1053EE003A6E30503A1237C024F038C025F039C02A
:1053FE0026F03AC027F012000450800B0D6E0450B8
:10540E0004240F6E03AE0EEF2AF010EF2AF011EF08
:10541E002AF00F800F50D8B417EF2AF019EF2AF0A8
:10542E002DEF2AF00F28D8A41FEF2AF021EF2AF033
:10543E0029EF2AF0000E016E000E026E000E036EB2
:10544E00000E046E038E046A35EF2AF0000E016E14
:10545E00000E026E000E036E000E046E0850800BDE
:10546E000E6E0D500E18D8B43FEF2AF041EF2AF011
:10547E0042EF2AF00D8C085008240E6E07AE4AEF4C
:10548E002AF04CEF2AF04DEF2AF00E800E50D8B4D1
:10549E0053EF2AF055EF2AF069EF2AF00E28D8A420
:1054AE005BEF2AF05DEF2AF065EF2AF0000E056E35
:1054BE00000E066E000E076E000E086E078E086A4E
:1054CE0071EF2AF0000E056E000E066E000E076ECE
:1054DE00000E086E0F500E5CD8B078EF2AF07AEFFF
:1054EE002AF0A1EF2AF00DAC7FEF2AF081EF2AF01F
:1054FE0083EF2AF0800E0D1A0FC010F00EC00FF0C1
:10550E0010C00EF001C010F005C001F010C005F083
:10551E0002C010F006C002F010C006F003C010F07A
:10552E0007C003F010C007F004C010F008C004F06C
:10553E0010C008F0106A0F500EC009F00A6A095E1A
:10554E00000E0A5A0ABEB5EF2AF00A5009E11A0EE9
:10555E00095CD8A0B5EF2AF0B7EF2AF0EEEF2AF0EB
:10556E000150021003100410D8A4C0EF2AF0C3EFAC
:10557E002AF0010EC4EF2AF0000E106E000E016E1E
:10558E00000E026E000E036E000E046E0EC00FF0C3
:10559E00F7EF2AF010A0D6EF2AF0D8EF2AF0DEEFC0
:1055AE002AF0D89010300109106EE0EF2AF0D89052
:1055BE00103201A0E5EF2AF0E7EF2AF0E8EF2AF02B
:1055CE00108E043404320332023201320F2A0E508E
:1055DE000F5CD8A0F5EF2AF0F7EF2AF0D1EF2AF002
:1055EE000DBCFCEF2AF0FEEF2AF03EEF2BF00F5031
:1055FE00D8A404EF2BF006EF2BF010EF2BF0000EDB
:10560E00016E000E026E000E036E000E046E5DEF54
:10561E002CF0055001260650022207500322085096
:10562E00042204A01DEF2BF01FEF2BF0CBEF2BF07D
:10563E0010A024EF2BF026EF2BF02CEF2BF0D890B0
:10564E0010300109106E2EEF2BF0D890103201A001
:10565E0033EF2BF035EF2BF036EF2BF0108E0434AA
:10566E0004320332023201320F2ACBEF2BF00550F7
:10567E00015C06500258075003580450800A096E08
:10568E000850800A0958D8B04FEF2BF051EF2BF08D
:10569E007CEF2BF00150055C096E025006580A6E25
:1056AE00035007580B6E045008580C6EFF0E092459
:1056BE00016EFF0E0A20026EFF0E0B20036EFF0E10
:1056CE000C20046E800E0D1A106C1050D8A472EFC0
:1056DE002BF074EF2BF084EF2BF0010E0126000E51
:1056EE0002220322042284EF2BF00550015E0650A5
:1056FE00025A0750035A0850045A01500210031060
:10570E000410D8A48DEF2BF08FEF2BF0C4EF2BF0FD
:10571E001050D8A495EF2BF097EF2BF0C4EF2BF091
:10572E00000E016E000E026E000E036E000E046E71
:10573E005DEF2CF0D890013602360336043610AEEB
:10574E00ABEF2BF0ADEF2BF0AEEF2BF0018010A0F6
:10575E00B3EF2BF0B5EF2BF0B9EF2BF0D88010365E
:10576E00BBEF2BF0D89010360F50D8B4C1EF2BF002
:10577E00C3EF2BF0C4EF2BF00F0603AEC9EF2BF0E7
:10578E00CBEF2BF0A1EF2BF00E6A10AED1EF2BF07A
:10579E00D3EF2BF0EBEF2BF010C009F07F0E0916B4
:1057AE00D8B4DCEF2BF0DEEF2BF0E2EF2BF0010E96
:1057BE000E6EEBEF2BF001A0E7EF2BF0E9EF2BF0E5
:1057CE00EBEF2BF0DEEF2BF00E50D8B4F1EF2BF009
:1057DE00F3EF2BF01EEF2CF0010E0126000E02222D
:1057EE000322042204A0FEEF2BF000EF2CF01EEF9C
:1057FE002CF001C009F002C00AF003C00BF004C087
:10580E000CF00C340C320B320A32093209C001F0A2
:10581E000AC002F00BC003F00CC004F00F28D8B47D
:10582E001BEF2CF01DEF2CF01EEF2CF00F2A0F2883
:10583E00D8B424EF2CF026EF2CF02EEF2CF00F50D6
:10584E00D8A42CEF2CF02EEF2CF03FEF2CF0000E06
:10585E00016E000E026E000E036E000E046E0F50EF
:10586E00D8A43CEF2CF03EEF2CF03FEF2CF00D6A5D
:10587E000FA044EF2CF046EF2CF049EF2CF0038EE6
:10588E004AEF2CF0039ED8900F30046E0DAE52EFFF
:10589E002CF054EF2CF055EF2CF0048E01C001F0DB
:1058AE0002C002F003C003F004C004F0120056C0A0
:1058BE0060F157C061F158C062F159C063F15AC02E
:1058CE007CF15BC07DF15CC07EF15DC07FF1FF0EAF
:1058DE0001016015A46FFF0E6115A56FFF0E621515
:1058EE00A66F7F0E6315A76FFF0E7C158C6FFF0ED4
:1058FE007D158D6FFF0E7E158E6F7F0E7F158F6F50
:10590E008C518D118E118F11D8A490EF2CF092EF37
:10591E002CF09CEF2CF0000E566E000E576E800E83
:10592E00586E3F0E596EADEF3EF0800E621909E1D2
:10593E003F0E631960116111D8A4A8EF2CF0AAEFE5
:10594E002CF0B4EF2CF0000E566E000E576E800E3B
:10595E00586E3F0E596EADEF3EF0A7BFC5EF2CF05F
:10596E00A405000EA559800EA6597F0EA759D8B0D2
:10597E00C3EF2CF0C5EF2CF0D6EF2CF08FBFD4EF89
:10598E002CF08C05000E8D59800E8E597F0E8F597E
:10599E00D8A0D4EF2CF0D6EF2CF0F2EF2CF056C0AE
:1059AE0001F057C002F058C003F059C004F05AC0BD
:1059BE0005F05BC006F05CC007F05DC008F003ECBC
:1059CE002AF001C056F002C057F003C058F004C0D0
:1059DE0059F0ADEF3EF0000E4C6F000E4D6F000E05
:1059EE004E6F000E4F6F63BF01EF2DF0FFEF2CF0E7
:1059FE00CDEF2DF08FBF0DEF2DF0800E8E5D4B0E87
:105A0E008F59D8A00DEF2DF00FEF2DF019EF2DF0CF
:105A1E00020E4C6F000E4D6F000E4E6F000E4F6F4C
:105A2E00CDEF2DF08FBF25EF2DF0800E8E5D3F0E4A
:105A3E008F59D8A025EF2DF027EF2DF0CDEF2DF0BB
:105A4E00170E0001606F8CC161F08DC162F08EC1C6
:105A5E0063F08FC164F0606737EF2DF03FEF2DF0EC
:105A6E0064356433633362336133602F32EF2DF06C
:105A7E00810E0001612501019C6FFF0E0001622164
:105A8E0001019D6FFF0E0001632101019E6FFF0E4C
:105A9E000001642101019F6F9C5117080001606F86
:105AAE008CC161F08DC162F08EC163F08FC164F064
:105ABE00606764EF2DF06CEF2DF064356433633363
:105ACE0062336133602F5FEF2DF061C0A0F162C0D1
:105ADE00A1F163C0A2F164C0A3F101019C511708AA
:105AEE000001606FA0C161F0A1C162F0A2C163F0BC
:105AFE00A3C164F0602B89EF2DF0D8906137623727
:105B0E0063376437602F84EF2DF001018C51000153
:105B1E00611913E101018D51000162190EE10101BC
:105B2E008E510001631909E101018F5100016419C1
:105B3E00D8A4A4EF2DF0A6EF2DF0CDEF2DF0010E91
:105B4E000101A0150001606F000E0101A1150001F9
:105B5E00616F000E0101A2150001626F000E0101BE
:105B6E00A3150001636F6051020801014C6F000E16
:105B7E000001615501014D6F000E000162550101DA
:105B8E004E6F000E0001635501014F6F800E010133
:105B9E008E1909E17F0E8F198C118D11D8A4DAEFB1
:105BAE002DF0DCEF2DF045EF2EF0800EA61909E159
:105BBE003F0EA719A411A511D8A4E8EF2DF0EAEF16
:105BCE002DF0F4EF2DF0000E566E000E576E800E77
:105BDE00586E3F0E596EADEF3EF0A7BF03EF2EF09D
:105BEE00A405000EA559800EA6593F0EA759D8A0A0
:105BFE0003EF2EF005EF2EF020EF2EF07FBF0CEF0F
:105C0E002EF00AEF2EF016EF2EF0000E566E000E4E
:105C1E00576E000E586E000E596EADEF3EF05AC024
:105C2E0056F05BC057F05CC058F05DC059F0ADEF58
:105C3E003EF07FBF27EF2EF025EF2EF03BEF2EF03C
:105C4E005AC001F05BC002F05CC003F05DC004F00E
:105C5E0004EC1AF001C056F002C057F003C058F021
:105C6E0004C059F0ADEF3EF0000E566E000E576EAA
:105C7E00000E586E000E596EADEF3EF0800E8E196E
:105C8E0009E13F0E8F198C118D11D8A451EF2EF012
:105C9E0053EF2EF080EF2EF07FBF5AEF2EF058EF1D
:105CAE002EF076EF2EF0000E3D6E000E3E6E800E44
:105CBE003F6E3F0E406E56C041F057C042F058C086
:105CCE0043F059C044F03BEC24F03DC056F03EC0CA
:105CDE0057F03FC058F040C059F0ADEF3EF056C0FF
:105CEE0056F057C057F058C058F059C059F0ADEFA4
:105CFE003EF0400E7F197C117D117E11D8A48AEFE3
:105D0E002EF08CEF2EF0A8EF2EF056C024F057C0D8
:105D1E0025F058C026F059C027F056C028F057C0BD
:105D2E0029F058C02AF059C02BF0F0EC27F024C00F
:105D3E0056F025C057F026C058F027C059F0ADEFE9
:105D4E003EF03F0E7F197C117D117E11D8A4B2EF6B
:105D5E002EF0B4EF2EF0CFEF2EF063BFB9EF2EF092
:105D6E00BBEF2EF0CFEF2EF056C001F057C002F071
:105D7E0058C003F059C004F002EC26F001C056F0F2
:105D8E0002C057F003C058F004C059F0ADEF3EF01A
:105D9E00A4C170F1A5C171F1A6C172F1A7C173F1D1
:105DAE00800EA6190BE17F0EA719A411A511D8B468
:105DBE00E3EF2EF0E5EF2EF0FEEF2EF0A451A5113D
:105DCE00A611A711D8B4EEEF2EF0F0EF2EF0FEEFE5
:105DDE002EF0800EA61909E13F0EA719A411A511E8
:105DEE00D8A4FCEF2EF0FEEF2EF097EF2FF070C13F
:105DFE00ACF171C1ADF172C1AEF173C1AFF17FBF44
:105E0E000DEF2FF00BEF2FF027EF2FF0000E3D6E62
:105E1E00000E3E6E800E3F6E3F0E406EACC141F0E6
:105E2E00ADC142F0AEC143F0AFC144F03BEC24F043
:105E3E003DC0ACF13EC0ADF13FC0AEF140C0AFF1E0
:105E4E00010163BF2FEF2FF02DEF2FF08DEF2FF00D
:105E5E00000EA4250001606F000E0101A5210001B6
:105E6E00616F800E0101A6210001626FC00E01015B
:105E7E00A7210001636F01014C5100016011646F95
:105E8E0001014D5100016111656F01014E5100017B
:105E9E006211666F01014F5100016311676F64510A
:105EAE00651166116711D8A45FEF2FF061EF2FF027
:105EBE006FEF2FF00101B16B210EB06FFF0EAC6FC3
:105ECE00FF0EAD6FFF0EAE6F7F0EAF6F8DEF2FF02B
:105EDE0001014C054D114E114F11D8A479EF2FF041
:105EEE007BEF2FF08DEF2FF0ACC101F0ADC102F0C2
:105EFE00AEC103F0AFC104F004EC1AF001C0ACF176
:105F0E0002C0ADF103C0AEF104C0AFF1ACC156F0AA
:105F1E00ADC157F0AEC158F0AFC159F0ADEF3EF084
:105F2E00000E5C6F000E5D6F000E5E6F000E5F6FF9
:105F3E0063BFA6EF2FF0A4EF2FF0C6EF2FF04C515A
:105F4E004D114E114F11D8A4AFEF2FF0B1EF2FF02E
:105F5E00B3EF2FF061EF2FF04C054D114E114F1195
:105F6E00D8A4BCEF2FF0BEEF2FF0C6EF2FF0000E2F
:105F7E005C6F000E5D6F000E5E6F800E5F6F8FBFE9
:105F8E00D5EF2FF08C05000E8D59000E8E594D0E4B
:105F9E008F59D8A0D5EF2FF0D7EF2FF099EF31F022
:105FAE00A7BFE9EF2FF0F80EA45DFF0EA5597F0EE7
:105FBE00A6593F0EA759D8B0E7EF2FF0E9EF2FF013
:105FCE0009EF30F07FBFF0EF2FF0EEEF2FF0FFEF85
:105FDE002FF0000E01015C11AC6F000E5D11AD6F64
:105FEE00800E5E11AE6F7F0E5F11AF6F8DEF2FF0D3
:105FFE00000E566E000E576E000E586E000E596E45
:10600E00ADEF3EF0A7BF19EF30F0080EA45D000E05
:10601E00A559800EA6593F0EA759D8A019EF30F0FA
:10602E001BEF30F036EF30F07FBF28EF30F07F51AE
:10603E007E117D1108E17C05D8A028EF30F02AEF03
:10604E0030F02CEF30F0F0EF2FF0000E566E000E09
:10605E00576E000E586E000E596EADEF3EF070C1C9
:10606E0001F071C102F072C103F073C104F0000EB1
:10607E00056E000E066E800E076EBF0E086E03ECE8
:10608E002AF001C0A8F102C0A9F103C0AAF104C010
:10609E00ABF1000E286E000E296E800E2A6E3E0E9B
:1060AE002B6EA8C124F0A9C125F0AAC126F0ABC160
:1060BE0027F0F0EC27F024C020F025C021F026C0F8
:1060CE0022F027C023F0AB0E1C6EAA0E1D6EAA0E78
:1060DE001E6E3E0E1F6E5DEC1AF01CC040F11DC010
:1060EE0041F11EC042F11FC043F1A8C128F0A9C161
:1060FE0029F0AAC12AF0ABC12BF0A8C124F0A9C186
:10610E0025F0AAC126F0ABC127F0F0EC27F024C091
:10611E0050F125C051F126C052F127C053F1A8C14C
:10612E0028F0A9C129F0AAC12AF0ABC12BF040C1B9
:10613E0024F041C125F042C126F043C127F0F0EC16
:10614E0027F024C020F025C021F026C022F027C061
:10615E0023F0000E1C6E000E1D6E000E1E6E3F0E06
:10616E001F6E5DEC1AF01CC044F11DC045F11EC03F
:10617E0046F11FC047F150C124F051C125F052C164
:10618E0026F053C127F044C128F045C129F046C17D
:10619E002AF047C12BF0F0EC27F024C038F125C0CF
:1061AE0039F126C03AF127C03BF1A8C124F0A9C1AC
:1061BE0025F0AAC126F0ABC127F0000E286EAA0E5C
:1061CE00296EB80E2A6E3F0E2B6EF0EC27F024C00F
:1061DE0074F125C075F126C076F127C077F1700EE7
:1061EE00286EA50E296EEC0E2A6E360E2B6EA8C1E9
:1061FE0024F0A9C125F0AAC126F0ABC127F0F0EC1E
:10620E0027F024C01CF025C01DF026C01EF027C0AC
:10621E001FF03B0E286EAA0E296EB80E2A6E3F0E88
:10622E002B6E38C124F039C125F03AC126F03BC19E
:10623E0027F0F0EC27F024C020F025C021F026C076
:10624E0022F027C023F05DEC1AF01CC078F11DC0BF
:10625E0079F11EC07AF11FC07BF174C101F075C1D6
:10626E0002F076C103F077C104F078C105F079C170
:10627E0006F07AC107F07BC108F003EC2AF001C0EA
:10628E0084F102C085F103C086F104C087F184C198
:10629E0090F185C191F186C192F187C193F1000E03
:1062AE0001019015846FF00E9115856FFF0E9215FA
:1062BE00866FFF0E9315876F74C120F075C121F0A4
:1062CE0076C122F077C123F084C11CF085C11DF088
:1062DE0086C11EF087C11FF05DEC1AF01CC094F150
:1062EE001DC095F11EC096F11FC097F178C11CF02C
:1062FE0079C11DF07AC11EF07BC11FF094C120F050
:10630E0095C121F096C122F097C123F05DEC1AF0F1
:10631E001CC010F11DC011F11EC012F11FC013F1EF
:10632E00A7EF38F0000E806F000E816F000E826FA7
:10633E00000E836FA7BFAFEF31F0A75107E1800EBC
:10634E00A65DD8B0ADEF31F0AFEF31F0DAEF31F04E
:10635E0070C124F071C125F072C126F073C127F00F
:10636E00000E286E000E296E800E2A6E4B0E2B6EBE
:10637E00F0EC27F024C070F125C071F126C072F147
:10638E0027C073F1E80E01018027FF0E8123FF0E57
:10639E008223FF0E832370C1A4F171C1A5F172C1D6
:1063AE00A6F173C1A7F1170E0001606FA4C161F0D1
:1063BE00A5C162F0A6C163F0A7C164F06067EAEF01
:1063CE0031F0F2EF31F064356433633362336133AD
:1063DE00602FE5EF31F0810E00016125656FFF0E34
:1063EE006221666FFF0E6321676FFF0E6421686F77
:1063FE0065510101802700016651010181230001D1
:10640E006751010182230001685101018323FF0EB0
:10641E00A415A06FFF0EA515A16F7F0EA615A26F76
:10642E00000EA715A36F000E9C6F000E9D6F000E41
:10643E009E6F000E9F6F000EA011A46F000EA11193
:10644E00A56F800EA211A66F3F0EA311A76FA3BF5B
:10645E0040EF32F0A3510BE1720EA05DC40EA159B4
:10646E001C0EA259D8B03EEF32F040EF32F042EFA0
:10647E0032F06CEF32F0A3BF54EF32F0A3510BE1C8
:10648E00D70EA05DB30EA1595D0EA259D8B052EF32
:10649E0032F054EF32F05EEF32F0010E9C6F000ED0
:1064AE009D6F000E9E6F000E9F6F6CEF32F0010E0F
:1064BE008027000E812382238323000EA427000E43
:1064CE00A523800EA623FF0EA723A4C170F1A5C19C
:1064DE0071F1A6C172F1A7C173F170C11CF071C147
:1064EE001DF072C11EF073C11FF09CC160F09DC102
:1064FE0061F00001D89060376137D890603761370E
:10650E00480E6025F66E7F0E6121F76E0900F5CFFD
:10651E0020F00900F5CF21F00900F5CF22F00A0096
:10652E00F5CF23F05DEC1AF01CC074F11DC075F1AF
:10653E001EC076F11FC077F1000E3D6E000E3E6E4E
:10654E00800E3F6E3F0E406E70C105F071C106F0B9
:10655E0072C107F073C108F09CC160F09DC161F07B
:10656E000001D89060376137D89060376137480E98
:10657E006025F66E7F0E6121F76E0900F5CF01F0F2
:10658E000900F5CF02F00900F5CF03F00A00F5CFB0
:10659E0004F003EC2AF001C041F002C042F003C047
:1065AE0043F004C044F03BEC24F03DC078F13EC013
:1065BE0079F13FC07AF140C07BF174C124F075C10E
:1065CE0025F076C126F077C127F078C128F079C181
:1065DE0029F07AC12AF07BC12BF0F0EC27F024C011
:1065EE0058F125C059F126C05AF127C05BF158C1A8
:1065FE006CF159C16DF15AC16EF15BC16FF16CC195
:10660E0090F16DC191F16EC192F16FC193F1000ED7
:10661E00010190156C6FF00E91156D6FFF0E9215B6
:10662E006E6FFF0E93156F6FA4C160F0A5C161F080
:10663E00A6C162F0A7C163F0000163356333623314
:10664E0061336033000E6015646FF00E6115656F77
:10665E00FF0E6215666FFF0E6315676F000E6411F5
:10666E000101906F000E000165110101916F000E86
:10667E00000166110101926F200E000167110101E8
:10668E00936F9CC160F09DC161F09EC162F09FC18D
:10669E0063F0150ED89000016037613762376337AB
:1066AE00E82E51EF33F00101905100016025646F27
:1066BE000101915100016121656F010192510001AB
:1066CE006221666F0101935100016321676F000E15
:1066DE0064250101686F000E000165210101696FDB
:1066EE00400E0001662101016A6F000E0001672154
:1066FE0001016B6F9CC160F09DC161F00001D890EB
:10670E0060376137D89060376137480E6025F66E76
:10671E007F0E6121F76E0900F5CF20F00900F5CF4D
:10672E0021F00900F5CF22F00A00F5CF23F068C161
:10673E001CF069C11DF06AC11EF06BC11FF05DEC4B
:10674E001AF01CC094F11DC095F11EC096F11FC029
:10675E0097F170C11CF071C11DF072C11EF073C1B2
:10676E001FF094C120F095C121F096C122F097C17F
:10677E0023F05DEC1AF01CC02CF11DC02DF11EC0D3
:10678E002EF11FC02FF168C128F069C129F06AC12E
:10679E002AF06BC12BF06CC124F06DC125F06EC1D7
:1067AE0026F06FC127F0F0EC27F024C020F025C0B2
:1067BE0021F026C022F027C023F074C11CF075C151
:1067CE001DF076C11EF077C11FF05DEC1AF01CC0F3
:1067DE0094F11DC095F11EC096F11FC097F12CC10A
:1067EE0028F02DC129F02EC12AF02FC12BF06CC13B
:1067FE0024F06DC125F06EC126F06FC127F0F0ECCC
:10680E0027F024C020F025C021F026C022F027C09A
:10681E0023F094C11CF095C11DF096C11EF097C1D6
:10682E001FF05DEC1AF01CC050F11DC051F11EC0DE
:10683E0052F11FC053F150C124F051C125F052C185
:10684E0026F053C127F078C128F079C129F07AC11A
:10685E002AF07BC12BF0F0EC27F024C024F125C0E8
:10686E0025F126C026F127C027F158C124F059C1C1
:10687E0025F05AC126F05BC127F058C128F059C146
:10688E0029F05AC12AF05BC12BF0F0EC27F024C09E
:10689E0088F125C089F126C08AF127C08BF1550EEB
:1068AE00056E320E066E6C0E076E3E0E086E420EB2
:1068BE00286EF10E296E530E2A6E3E0E2B6E88C177
:1068CE0024F089C125F08AC126F08BC127F0F0ECA7
:1068DE0027F024C001F025C002F026C003F027C027
:1068EE0004F003EC2AF001C040F102C041F103C0F4
:1068FE0042F104C043F1050E056EA30E066E8B0E1B
:10690E00076E3E0E086E88C128F089C129F08AC133
:10691E002AF08BC12BF040C124F041C125F042C1B9
:10692E0026F043C127F0F0EC27F024C001F025C07B
:10693E0002F026C003F027C004F003EC2AF001C0D9
:10694E0050F102C051F103C052F104C053F1AB0E2D
:10695E00056EAA0E066EAA0E076E3E0E086E88C152
:10696E0028F089C129F08AC12AF08BC12BF050C1C1
:10697E0024F051C125F052C126F053C127F0F0EC9E
:10698E0027F024C001F025C002F026C003F027C076
:10699E0004F003EC2AF001C044F102C045F103C03B
:1069AE0046F104C047F1B70E056E6D0E066EDB0E96
:1069BE00076E3E0E086E88C128F089C129F08AC183
:1069CE002AF08BC12BF044C124F045C125F046C1FD
:1069DE0026F047C127F0F0EC27F024C001F025C0C7
:1069EE0002F026C003F027C004F003EC2AF001C029
:1069FE0030F102C031F103C032F104C033F19A0E0E
:106A0E00056E990E066E190E076E3F0E086E88C142
:106A1E0028F089C129F08AC12AF08BC12BF030C130
:106A2E0024F031C125F032C126F033C127F0F0EC4D
:106A3E0027F024C001F025C002F026C003F027C0C5
:106A4E0004F003EC2AF001C000F102C001F103C012
:106A5E0002F104C003F188C128F089C129F08AC16E
:106A6E002AF08BC12BF088C124F089C125F08AC190
:106A7E0026F08BC127F0F0EC27F024C004F125C0DE
:106A8E0005F126C006F127C007F100C124F001C1AF
:106A9E0025F002C126F003C127F004C128F005C17C
:106AAE0029F006C12AF007C12BF0F0EC27F024C024
:106ABE0048F125C049F126C04AF127C04BF124C147
:106ACE0028F025C129F026C12AF027C12BF058C184
:106ADE0005F059C106F05AC107F05BC108F06CC150
:106AEE0001F06DC102F06EC103F06FC104F003EC52
:106AFE002AF001C024F002C025F003C026F004C025
:106B0E0027F0F0EC27F024C054F125C055F126C033
:106B1E0056F127C057F148C101F049C102F04AC1F0
:106B2E0003F04BC104F054C105F055C106F056C137
:106B3E0007F057C108F003EC2AF001C048F102C07B
:106B4E0049F103C04AF104C04BF16CC124F06DC190
:106B5E0025F06EC126F06FC127F06CC128F06DC113
:106B6E0029F06EC12AF06FC12BF0F0EC27F024C093
:106B7E0088F125C089F126C08AF127C08BF1000E5D
:106B8E00056E000E066E400E076E400E086E88C132
:106B9E0001F089C102F08AC103F08BC104F003EC4D
:106BAE002AF001C054F102C055F103C056F104C0E1
:106BBE0057F154C101F055C102F056C103F057C14F
:106BCE0004F048C105F049C106F04AC107F04BC1B7
:106BDE0008F003EC2AF001C068F102C069F103C0AD
:106BEE006AF104C06BF168C190F169C191F16AC19B
:106BFE0092F16BC193F1000E01019015686FF00ECA
:106C0E009115696FFF0E92156A6FFF0E93156B6FDC
:106C1E00000E056E000E066E400E076EC00E086E5C
:106C2E0068C101F069C102F06AC103F06BC104F0E2
:106C3E0003EC2AF001C03CF102C03DF103C03EF16D
:106C4E0004C03FF188C120F089C121F08AC122F031
:106C5E008BC123F03CC11CF03DC11DF03EC11EF0A6
:106C6E003FC11FF05DEC1AF01CC034F11DC035F1B0
:106C7E001EC036F11FC037F148C11CF049C11DF0CE
:106C8E004AC11EF04BC11FF034C120F035C121F0B6
:106C9E0036C122F037C123F05DEC1AF01CC02CF186
:106CAE001DC02DF11EC02EF11FC02FF16CC124F09E
:106CBE006DC125F06EC126F06FC127F068C128F0B6
:106CCE0069C129F06AC12AF06BC12BF0F0EC27F0F4
:106CDE0024C074F125C075F126C076F127C077F176
:106CEE0024C128F025C129F026C12AF027C12BF096
:106CFE0068C124F069C125F06AC126F06BC127F086
:106D0E00F0EC27F024C001F025C002F026C003F0FD
:106D1E0027C004F058C128F059C129F05AC12AF0F1
:106D2E005BC12BF02CC124F02DC125F02EC126F015
:106D3E002FC127F0F0EC27F024C005F025C006F097
:106D4E0026C007F027C008F003EC2AF001C078F146
:106D5E0002C079F103C07AF104C07BF174C101F075
:106D6E0075C102F076C103F077C104F078C105F069
:106D7E0079C106F07AC107F07BC108F003EC2AF066
:106D8E0001C098F102C099F103C09AF104C09BF1C1
:106D9E0098C190F199C191F19AC192F19BC193F171
:106DAE00000E01019015986FF00E9115996FFF0E60
:106DBE0092159A6FFF0E93159B6F74C120F075C1DB
:106DCE0021F076C122F077C123F098C11CF099C151
:106DDE001DF09AC11EF09BC11FF05DEC1AF01CC095
:106DEE0094F11DC095F11EC096F11FC097F178C1A8
:106DFE001CF079C11DF07AC11EF07BC11FF094C149
:106E0E0020F095C121F096C122F097C123F05DECE0
:106E1E001AF01CC064F11DC065F11EC066F11FC0E2
:106E2E0067F198C124F099C125F09AC126F09BC153
:106E3E0027F0000E286E400E296E760E2A6E3F0E3B
:106E4E002B6EF0EC27F024C014F125C015F126C0EE
:106E5E0016F127C017F14F0E286E380E296E760EDA
:106E6E002A6E3F0E2B6E64C124F065C125F066C1FB
:106E7E0026F067C127F0F0EC27F024C005F025C0FE
:106E8E0006F026C007F027C008F0C60E286E230EA7
:106E9E00296EF60E2A6EB80E2B6E98C124F099C18B
:106EAE0025F09AC126F09BC127F0F0EC27F024C004
:106EBE0001F025C002F026C003F027C004F003EC59
:106ECE002AF001C054F102C055F103C056F104C0BE
:106EDE0057F154C101F055C102F056C103F057C12C
:106EEE0004F09CC160F09DC161F00001D890603744
:106EFE006137D89060376137380E6025F66E7F0E99
:106F0E006121F76E0900F5CF05F00900F5CF06F007
:106F1E000900F5CF07F00A00F5CF08F003EC2AF0D0
:106F2E0001C018F102C019F103C01AF104C01BF11F
:106F3E0080C10EF081C10FF082C110F083C111F03B
:106F4E00010E69EC21F00EC0A8F10FC0A9F110C01E
:106F5E00AAF111C0ABF118C105F019C106F01AC1A2
:106F6E0007F01BC108F014C101F015C102F016C1E3
:106F7E0003F017C104F003EC2AF001C054F102C073
:106F8E0055F103C056F104C057F19CC160F09DC18C
:106F9E0061F00001D89060376137D8906037613763
:106FAE00400E6025F66E7F0E6121F76E0900F5CF5B
:106FBE0005F00900F5CF06F00900F5CF07F00A003D
:106FCE00F5CF08F054C101F055C102F056C103F0DF
:106FDE0057C104F003EC2AF001C008F102C009F118
:106FEE0003C00AF104C00BF108C101F009C102F09F
:106FFE000AC103F00BC104F0A8C105F0A9C106F047
:10700E00AAC107F0ABC108F003EC2AF001C084F16D
:10701E0002C085F103C086F104C087F184C190F1EE
:10702E0085C191F186C192F187C193F1000E0101E4
:10703E009015846FF00E9115856FFF0E9215866F69
:10704E00FF0E9315876FA8C120F0A9C121F0AAC128
:10705E0022F0ABC123F084C11CF085C11DF086C1A6
:10706E001EF087C11FF05DEC1AF01CC094F11DC01C
:10707E0095F11EC096F11FC097F19CC160F09DC1A5
:10708E0061F00001D89060376137D8906037613772
:10709E00400E6025F66E7F0E6121F76E0900F5CF6A
:1070AE0020F00900F5CF21F00900F5CF22F00A00FB
:1070BE00F5CF23F094C11CF095C11DF096C11EF0C2
:1070CE0097C11FF05DEC1AF01CC034F11DC035F1F4
:1070DE001EC036F11FC037F114C120F015C121F0CA
:1070EE0016C122F017C123F034C11CF035C11DF0BA
:1070FE0036C11EF037C11FF05DEC1AF01CC00CF14A
:10710E001DC00DF11EC00EF11FC00FF118C11CF0F5
:10711E0019C11DF01AC11EF01BC11FF00CC120F0C9
:10712E000DC121F00EC122F00FC123F05DEC1AF05B
:10713E001CC010F11DC011F11EC012F11FC013F1C1
:10714E005AC090F15BC091F15CC092F15DC093F1B9
:10715E00000E01019015206FF00E9115216FFF0E9C
:10716E009215226FFF0E9315236F84C128F085C1EF
:10717E0029F086C12AF087C12BF020C120F021C151
:10718E0021F022C122F023C123F05AC01CF05BC0B3
:10719E001DF05CC01EF05DC01FF05DEC1AF01CC04F
:1071AE0024F01DC025F01EC026F01FC027F0F0EC05
:1071BE0027F024C03CF125C03DF126C03EF127C08A
:1071CE003FF13CC101F03DC102F03EC103F03FC1B1
:1071DE0004F010C128F011C129F012C12AF013C118
:1071EE002BF05AC024F05BC025F05CC026F05DC0C9
:1071FE0027F0F0EC27F024C005F025C006F026C0DD
:10720E0007F027C008F003EC2AF001C064F102C0B9
:10721E0065F103C066F104C067F120C124F021C1FD
:10722E0025F022C126F023C127F084C128F085C1A4
:10723E0029F086C12AF087C12BF0F0EC27F024C08C
:10724E0098F125C099F126C09AF127C09BF198C1FB
:10725E0001F099C102F09AC103F09BC104F064C120
:10726E0005F065C106F066C107F067C108F003ECD2
:10727E002AF001C0ACF102C0ADF103C0AEF104C002
:10728E00AFF1ACC1A0F1ADC1A1F1AEC1A2F1AFC1E0
:10729E00A3F10101A3BF60EF39F0A005000EA159C3
:1072AE00000EA259430EA359D8A060EF39F062EF39
:1072BE0039F064EF39F0F0EF2FF0430EA319A0115F
:1072CE00A111A211D8A46EEF39F070EF39F0AFEF23
:1072DE0039F098C120F099C121F09AC122F09BC1DA
:1072EE0023F0ACC11CF0ADC11DF0AEC11EF0AFC19C
:1072FE001FF05DEC1AF01CC024F01DC025F01EC05E
:10730E0026F01FC027F03C0E056EAA0E066E380E34
:10731E00076E330E086E64C101F065C102F066C1DE
:10732E0003F067C104F003EC2AF001C028F002C09C
:10733E0029F003C02AF004C02BF0FBEC1DF0D8B0EE
:10734E00ABEF39F0ADEF39F021EF3AF0F0EF2FF06F
:10735E00FF0EA0150001606FFF0E0101A1150001C7
:10736E00616FFF0E0101A2150001626F7F0E010118
:10737E00A3150001636F63BFD1EF39F06005000EF6
:10738E006159160E6259430E6359D8A0D1EF39F0E8
:10739E00D3EF39F0DDEF39F0000E566E000E576E5A
:1073AE00000E586E000E596EADEF3EF0160E010136
:1073BE00A21909E1C30EA319A011A111D8A4EAEFD5
:1073CE0039F0ECEF39F021EF3AF098C120F099C185
:1073DE0021F09AC122F09BC123F0ACC11CF0ADC1CB
:1073EE001DF0AEC11EF0AFC11FF05DEC1AF01CC057
:1073FE0024F01DC025F01EC026F01FC027F064C16A
:10740E0028F065C129F066C12AF067C12BF0FBECAC
:10741E001DF0D8A015EF3AF017EF3AF021EF3AF041
:10742E00000E566E000E576E000E586E000E596E00
:10743E00ADEF3EF0FF0E0101A0151C6FFF0EA11562
:10744E001D6FFF0EA2151E6F7F0EA3151F6F170E59
:10745E000001606F1CC161F01DC162F01EC163F0BE
:10746E001FC164F060673EEF3AF046EF3AF06435C4
:10747E006433633362336133602F39EF3AF0810E38
:10748E000001612501019C6FFF0E000162210101C7
:10749E009D6FFF0E0001632101019E6FFF0E000123
:1074AE00642101019F6F000E806F000E816F000E30
:1074BE00826F000E836F1FBF71EF3AF01C05000E36
:1074CE001D59000E1E593F0E1F59D8A071EF3AF0EC
:1074DE0073EF3AF06FEF3BF09CC160F0010E0001CC
:1074EE006027000E616F000E626F800E636F000EDC
:1074FE00646F606785EF3AF08DEF3AF06435643370
:10750E00633362336133602F80EF3AF00101A05193
:10751E00000161250101806FA1510001622101016D
:10752E00816FA251000163210101826FA3510001FD
:10753E0064210101836F810E0001606FFF0E616F88
:10754E00FF0E626FFF0E636F170E646F80C165F0E2
:10755E0081C166F082C167F083C168F06467BAEFDB
:10756E003AF0C2EF3AF06835683367336633653305
:10757E00642FB5EF3AF000016551602501019C6F53
:10758E00000E0001612101019D6F000E00016221BC
:10759E0001019E6F000E0001632101019F6F9CC1CE
:1075AE0060F0FF0E0001616FFF0E626F7F0E636F62
:1075BE00000E646F6067E6EF3AF0EEEF3AF0643576
:1075CE006433633362336133602FE1EF3AF00001CD
:1075DE00611D656F621D666F631D676F641D686F49
:1075EE0001018051000165150101A86F8151000153
:1075FE0066150101A96F8251000167150101AA6F7D
:10760E008351000168150101AB6F9C5117080001F1
:10761E00606FFF0E010180150001616FFF0E010109
:10762E0081150001626F7F0E010182150001636FEB
:10763E00000E010183150001646F000E6111656F6C
:10764E00000E6211666F800E6311676F000E64117B
:10765E00686F606735EF3BF03DEF3BF068356833A0
:10766E00673366336533602F30EF3BF065C080F1D2
:10767E0066C081F167C082F168C083F10101A3BFCA
:10768E004DEF3BF04BEF3BF055EF3BF0831F821F6E
:10769E00811F806D000E81238223832398C11CF0ED
:1076AE0099C11DF09AC11EF09BC11FF0A8C120F018
:1076BE00A9C121F0AAC122F0ABC123F05DEC1AF0F2
:1076CE001CC098F11DC099F11EC09AF11FC09BF10C
:1076DE0098C101F099C102F09AC103F09BC104F068
:1076EE0064C105F065C106F066C107F067C108F018
:1076FE0003EC2AF001C0A8F102C0A9F103C0AAF15F
:10770E0004C0ABF1A8C190F1A9C191F1AAC192F147
:10771E00ABC193F1000E01019015A86F800E91156B
:10772E00A96FFF0E9215AA6FFF0E9315AB6FA8C12E
:10773E0024F0A9C125F0AAC126F0ABC127F0000E96
:10774E00286E720E296E310E2A6E3F0E2B6EF0ECE5
:10775E0027F024C074F125C075F126C076F127C03C
:10776E0077F198C120F099C121F09AC122F09BC106
:10777E0023F0A8C11CF0A9C11DF0AAC11EF0ABC117
:10778E001FF05DEC1AF01CC094F11DC095F11EC0E7
:10779E0096F11FC097F1180E286E720E296E310EDB
:1077AE002A6E3F0E2B6E94C120F095C121F096C12A
:1077BE0022F097C123F064C11CF065C11DF066C1B3
:1077CE001EF067C11FF05DEC1AF01CC024F01DC046
:1077DE0025F01EC026F01FC027F0F0EC27F024C0C5
:1077EE0028F125C029F126C02AF127C02BF128C186
:1077FE0001F029C102F02AC103F02BC104F08C0E56
:10780E00286EBE0E296EBF0E2A6E350E2B6EA8C1C7
:10781E0024F0A9C125F0AAC126F0ABC127F0F0ECE7
:10782E0027F024C005F025C006F026C007F027C0BB
:10783E0008F003EC2AF001C078F102C079F103C020
:10784E007AF104C07BF174C101F075C102F076C10A
:10785E0003F077C104F078C105F079C106F07AC162
:10786E0007F07BC108F003EC2AF001C0ACF102C0B6
:10787E00ADF103C0AEF104C0AFF174C120F075C11B
:10788E0021F076C122F077C123F0ACC11CF0ADC15E
:10789E001DF0AEC11EF0AFC11FF05DEC1AF01CC0A2
:1078AE0094F11DC095F11EC096F11FC097F178C1DD
:1078BE001CF079C11DF07AC11EF07BC11FF094C17E
:1078CE0020F095C121F096C122F097C123F05DEC16
:1078DE001AF01CC038F11DC039F11EC03AF11FC09C
:1078EE003BF1ACC124F0ADC125F0AEC126F0AFC165
:1078FE0027F0ACC128F0ADC129F0AEC12AF0AFC15E
:10790E002BF0F0EC27F024C0A8F125C0A9F126C079
:10791E00AAF127C0ABF10E0E056EEA0E066EDD0E55
:10792E00076EB50E086E4C0E286EBB0E296E310E0C
:10793E002A6E330E2B6EA8C124F0A9C125F0AAC160
:10794E0026F0ABC127F0F0EC27F024C001F025C0E3
:10795E0002F026C003F027C004F003EC2AF001C0A9
:10796E0040F102C041F103C042F104C043F1550E93
:10797E00056EB30E066E8A0E076E380E086EA8C11F
:10798E0028F0A9C129F0AAC12AF0ABC12BF040C141
:10799E0024F041C125F042C126F043C127F0F0EC9E
:1079AE0027F024C001F025C002F026C003F027C046
:1079BE0004F003EC2AF001C050F102C051F103C0F3
:1079CE0052F104C053F1610E056E0B0E066E360EAB
:1079DE00076EBB0E086EA8C128F0A9C129F0AAC176
:1079EE002AF0ABC12BF050C124F051C125F052C189
:1079FE0026F053C127F0F0EC27F024C001F025C08B
:107A0E0002F026C003F027C004F003EC2AF001C0F8
:107A1E0044F102C045F103C046F104C047F1AB0E7C
:107A2E00056EAA0E066E2A0E076E3E0E086EA8C1D1
:107A3E0028F0A9C129F0AAC12AF0ABC12BF044C18C
:107A4E0024F045C125F046C126F047C127F0F0ECE1
:107A5E0027F024C001F025C002F026C003F027C095
:107A6E0004F003EC2AF001C030F102C031F103C082
:107A7E0032F104C033F1ACC11CF0ADC11DF0AEC18A
:107A8E001EF0AFC11FF0A8C128F0A9C129F0AAC1EC
:107A9E002AF0ABC12BF030C124F031C125F032C138
:107AAE0026F033C127F0F0EC27F024C020F025C0DB
:107ABE0021F026C022F027C023F05DEC1AF01CC086
:107ACE0084F11DC085F11EC086F11FC087F1000E26
:107ADE00056E000E066E000E076EC00E086E84C197
:107AEE0001F085C102F086C103F087C104F003ECFA
:107AFE002AF001C041F002C042F003C043F004C0BE
:107B0E0044F084C128F085C129F086C12AF087C1CE
:107B1E002BF0ACC124F0ADC125F0AEC126F0AFC143
:107B2E0027F0F0EC27F024C03DF025C03EF026C033
:107B3E003FF027C040F03BEC24F03DC03CF13EC08E
:107B4E003DF13FC03EF140C03FF138C105F039C1B3
:107B5E0006F03AC107F03BC108F038C128F039C130
:107B6E0029F03AC12AF03BC12BF0ACC124F0ADC1D3
:107B7E0025F0AEC126F0AFC127F0F0EC27F024C0FF
:107B8E0001F025C002F026C003F027C004F003EC7C
:107B9E002AF001C028F102C029F103C02AF104C065
:107BAE002BF13CC11CF03DC11DF03EC11EF03FC18A
:107BBE001FF028C120F029C121F02AC122F02BC1CB
:107BCE0023F05DEC1AF01CC048F11DC049F11EC037
:107BDE004AF11FC04BF1ACC120F0ADC121F0AEC1D6
:107BEE0022F0AFC123F048C11CF049C11DF04AC1BB
:107BFE001EF04BC11FF05DEC1AF01CC094F11DC0BD
:107C0E0095F11EC096F11FC097F1000E1C6E000E6E
:107C1E001D6E800E1E6E3F0E1F6E94C120F095C11C
:107C2E0021F096C122F097C123F05DEC1AF01CC032
:107C3E00ACF11DC0ADF11EC0AEF11FC0AFF1ACC1B5
:107C4E00A0F1ADC1A1F1AEC1A2F1AFC1A3F180C14E
:107C5E0060F081C161F082C162F083C163F0170EE2
:107C6E00D89000016037613762376337E82E37EFFF
:107C7E003EF060510101A027000161510101A123D5
:107C8E00000162510101A223000163510101A323EE
:107C9E00170E0001606FA0C161F0A1C162F0A2C118
:107CAE0063F0A3C164F060675FEF3EF067EF3EF0F4
:107CBE0064356433633362336133602F5AEF3EF0C1
:107CCE00000164BF77EF3EF064516311621106E16B
:107CDE006105D8B075EF3EF077EF3EF08FEF3EF0D6
:107CEE00ACC13DF0ADC13EF0AEC13FF0AFC140F012
:107CFE0080C141F081C142F022EC23F03DC0ACF1D5
:107D0E003EC0ADF13FC0AEF140C0AFF197EF3EF0D7
:107D1E00A0C1ACF1A1C1ADF1A2C1AEF1A3C1AFF151
:107D2E000101AC51AD11AE11AF11D8B4A1EF3EF0BF
:107D3E00A3EF3EF08DEF2FF05C51AC1B5D51AD1BF0
:107D4E005E51AE1B5F51AF1B8DEF2FF01200000086
:107D5E000000000000005F00000007000700147F15
:107D6E00147F14242A7F2A1223130864623649557D
:107D7E0022500005030000001C2241000041221C7D
:107D8E0000082A1C2A0808083E0808005030000087
:107D9E000808080808006060000020100804023E71
:107DAE005149453E00427F400042615149462141C2
:107DBE00454B311814127F1027454545393C4A4929
:107DCE0049300171090503364949493606494929A1
:107DDE001E00363600000056360000000814224100
:107DEE00141414141441221408000201510906320D
:107DFE004979413E7E1111117E7F494949363E41F6
:107E0E004141227F4141221C7F494949417F090955
:107E1E0009013E4149497A7F0808087F00417F41A8
:107E2E00002040413F017F081422417F40404040E6
:107E3E007F020C027F7F0408107F3E4141413E7F4E
:107E4E00090909063E4151215E7F09192946464915
:107E5E0049493101017F01013F4040403F1F204011
:107E6E00201F3F4038403F63140814630708700812
:107E7E00076151494543007F41410002040810202B
:107E8E000041417F00040201020440404040400096
:107E9E000102040020545454787F48444438384436
:107EAE00444420384444487F3854545418087E09BA
:107EBE0001020C5252523E7F0804047800447D4069
:107ECE00002040443D007F1028440000417F4000C8
:107EDE007C041804787C0804047838444444387CC4
:107EEE0014141408081414187C7C0804040848544C
:107EFE00545420043F4440203C4040207C1C2040F1
:107F0E00201C3C4030403C44281028440C5050501B
:107F1E003C4464544C44000836410000007F00008D
:107F2E00004136080008082A1C0800000000DCCFBB
:107F3E00D1350000000000C0153F0000803F00005A
:107F4E00C03F70A5EC363BAAB83F4F38763F3CAAEF
:107F5E0038338CBEBF350072313F1872313F4CBB87
:107F6E0031330EEADDB555B38A38610B36BBABAA99
:107F7E002A3E42F1533E55326C3E05A38B3EABAAD0
:107F8E00AA3EB76DDB3E9A99193F0000804B00AABE
:107F9E00B83FC623F6B80040763F2A20494E5645D4
:107FAE00524E414445524F202A00202020202020AE
:107FBE0020004D414C4F202020004255454E4F2071
:107FCE0020004E4F524D414C200050454C494752D7
:107FDE004F00416972653A0054656D703A00436115
:107FEE006C3A0052303A0070706D004300007FEF23
:027FFE0019F078
:020000040030CA
:08000000000B181EFF8181FFB7
:00000001FF
