:04000000FEEF3FF0E0
:1032F600C580C5B081EF19F083EF19F07CEF19F0A6
:103306001200C584C5B48AEF19F08CEF19F085EF69
:1033160019F0120093829380280EC66EC56A130EAA
:10332600C86E800EC76E9E96120000EE9FF0150EB8
:10333600EE6AE806FDE1000EF86E000116EF1DF0DC
:10334600016E9E9601C0C9FF9EA6ACEF19F0AEEFC6
:1033560019F0A7EF19F09E96C5501200026E7BEC8D
:1033660019F0780EA3EC19F0400EA3EC19F00250F8
:10337600A3EC19F084EC19F01200026E7BEC19F044
:10338600780EA3EC19F0000EA3EC19F00250A3EC92
:1033960019F084EC19F01200046E0450B00FC0EC62
:1033A60019F003500F0BC0EC19F003380F0B100F78
:1033B600C0EC19F012006D6A080E6F6E92800E0E48
:1033C600C16EBE0EC06E010EC26E340E016EF20EDE
:1033D600E82EFED7012EFCD71200100EE82EFED7DF
:1033E60000D0C282C2B2FAEF19F0FCEF19F0F5EF85
:1033F60019F0C450036EC350016E03C002F01200F0
:103406000150021003100410D8B40CEF1AF00EEF9E
:103416001AF016EF1AF0000E011A000E021A000E2C
:10342600031A800E041A01C001F002C002F003C0A4
:1034360003F004C004F01200066A000E036E065084
:10344600CFEC19F0056A000EB1EC19F0052A7F0ED3
:10345600056430EF1AF032EF1AF026EF1AF0062A5A
:10346600070E066439EF1AF03BEF1AF020EF1AF058
:10347600120092820D0EC16EBE0EC06E050EC26E99
:10348600020E026E040E016EBA0EE82EFED7012E53
:10349600FCD7022EFAD700D01F0E026E710E016EF7
:1034A6001E0EE82EFED7012EFCD7022EFAD700D02C
:1034B6001200000E201A000E211A000E221A800E8B
:1034C600231A1CC001F01DC002F01EC003F01FC06D
:1034D60004F020C005F021C006F022C007F023C08A
:1034E60008F002EC2AF001C01CF002C01DF003C077
:1034F6001EF004C01FF0120003500410D8B486EF6B
:103506001AF088EF1AF0ACEF1AF0010E056E90EF84
:103516001AF0D89003360436052A04AE95EF1AF051
:1035260097EF1AF08CEF1AF00350015C0450025822
:10353600D8A0A0EF1AF0A2EF1AF0A6EF1AF00350E7
:10354600015E0450025AD89004320332052E97EFDA
:103556001AF001C001F002C002F012000C6E09C0A0
:1035660003F00C50CFEC19F0CDEF1AF00AC0F6FFBD
:103576000BC0F7FFF86A070EF76403D00800F55092
:1035860005D0F6CFE9FFF7CFEAFFEF501FEC1BF0AF
:103596000A4A0B2A0AC0F6FF0BC0F7FFF86A070EA5
:1035A600F76403D00800F55005D0F6CFE9FFF7CF52
:1035B600EAFFEF500009D8A4E3EF1AF0E5EF1AF09E
:1035C600B9EF1AF012000B6A000E0A6E08500910C5
:1035D600D8B4F0EF1AF0F2EF1AF01AEF1BF0010E62
:1035E6000C6EFAEF1AF0D890083609360C2A09AE96
:1035F600FFEF1AF001EF1BF0F6EF1AF0D8900A363B
:103606000B360850065C09500758D8A00DEF1BF082
:103616000FEF1BF014EF1BF00850065E0950075A17
:103626000A80D890093208320C2E01EF1BF00AC02E
:1036360006F00BC007F01200076E1F0E076426EF98
:103646001BF028EF1BF030EF1BF07E0E07642EEF09
:103656001BF030EF1BF032EF1BF0200E076E086AEE
:103666000750050D5D0EF324036E7D0EF420046EE7
:1036760008500326000E0422600E0324056EFF0E7A
:103686000420066E05C0F6FF06C0F7FF0800F550D9
:10369600B1EC19F0082A040E086454EF1BF056EF3B
:1036A6001BF033EF1BF0000EB1EC19F01200000E08
:1036B600096E000E0A6E000E0B6E000E0C6E0550A3
:1036C600061007100810D8B46BEF1BF06DEF1BF057
:1036D600A3EF1BF0010E0D6E77EF1BF0D8900536A9
:1036E6000636073608360D2A08AE7CEF1BF07EEF4D
:1036F6001BF071EF1BF0D89009360A360B360C36E4
:103706000550015C065002580750035808500458EB
:10371600D8A090EF1BF092EF1BF09BEF1BF005502B
:10372600015E0650025A0750035A0850045A09808F
:10373600D89008320732063205320D2E7EEF1BF086
:1037460009C001F00AC002F00BC003F00CC004F07F
:103756001200066A02BEB4EF1BF0B2EF1BF0BAEF1E
:103766001BF0016C021ED8B0022A010E066E04BEC2
:10377600C1EF1BF0BFEF1BF0C5EF1BF0036C041E7F
:10378600D8B0042A03500410D8B4CCEF1BF0CEEF07
:103796001BF0F2EF1BF0010E056ED6EF1BF0D89072
:1037A60003360436052A04AEDBEF1BF0DDEF1BF013
:1037B600D2EF1BF00350015C04500258D8A0E6EF8C
:1037C6001BF0E8EF1BF0ECEF1BF00350015E04501A
:1037D600025AD89004320332052EDDEF1BF0065054
:1037E600D8B4F8EF1BF0FAEF1BF0FEEF1BF0016CFC
:1037F600021ED8B0022A01C001F002C002F0120077
:10380600000E226E000E236E000E246E000E256E34
:10381600050EC26E100EE82EFED700D0266AC282B2
:10382600C2B218EF1CF01AEF1CF013EF1CF0C450D4
:10383600216EC350206E2050222621502322000ED6
:103846002422000E25220D0E206EFC0EE82EFED739
:10385600202EFCD7262A090E266434EF1CF036EFFC
:103866001CF012EF1CF00A0E056E000E066E000E1E
:10387600076E000E086E22C001F023C002F024C0BD
:1038860003F025C004F05AEC1BF001C00EF002C094
:103896000FF003C010F004C011F0000E68EC21F028
:1038A6000EC01CF00FC01DF010C01EF011C01FF09E
:1038B6001200030E086E080E076E770EE82EFED76E
:1038C600072EFCD7082EFAD70000AE0EC0EC19F072
:1038D600D50EC0EC19F0800EC0EC19F0A80EC0ECA5
:1038E60019F03F0EC0EC19F0D30EC0EC19F0000E23
:1038F600C0EC19F0400EC0EC19F08D0EC0EC19F0BA
:10390600140EC0EC19F0200EC0EC19F0000EC0EC3D
:1039160019F0A10EC0EC19F0C80EC0EC19F0DA0EC1
:10392600C0EC19F0120EC0EC19F0810EC0EC19F0C3
:10393600FF0EC0EC19F0D90EC0EC19F0F10EC0EC78
:1039460019F0DB0EC0EC19F0400EC0EC19F0A40E15
:10395600C0EC19F0A60EC0EC19F0AF0EC0EC19F0D1
:103966001FEC1AF01200066A04BEBEEF1CF0BCEF94
:103976001CF0C4EF1CF0036C041ED8B0042A010E20
:10398600066E02BECBEF1CF0C9EF1CF0D1EF1CF0A7
:10399600016C021ED8B0022A010E061A086A000E31
:1039A600076E03500410D8B4DBEF1CF0DDEF1CF0FB
:1039B60005EF1DF0010E056EE5EF1CF0D8900336FD
:1039C6000436052A04AEEAEF1CF0ECEF1CF0E1EF3A
:1039D6001CF0D890073608360350015C0450025894
:1039E600D8A0F8EF1CF0FAEF1CF0FFEF1CF0035024
:1039F600015E0450025A0780D89004320332052E25
:103A0600ECEF1CF00650D8B40BEF1DF00DEF1DF0D7
:103A160011EF1DF0076C081ED8B0082A07C001F088
:103A260008C002F01200720ED36ED3A41DEF1DF073
:103A36001FEF1DF018EF1DF0030E00017E6F080E3C
:103A46007D6F770EE82EFED77D2FFCD77E2FFAD717
:103A5600070EB46EDEEC19F03CEC1AF08DEC19F0A2
:103A66005CEC1CF00A0E096EA80E0A6E7F0E0B6E39
:103A7600000EB1EC1AF00A0E096EE60E0A6E7F0E03
:103A86000B6E020EB1EC1AF00A0E096EE00E0A6E0B
:103A96007F0E0B6E040EB1EC1AF00A0E096EEC0ED8
:103AA6000A6E7F0E0B6E060EB1EC1AF006EC20F0D5
:103AB6005AC09BF05BC09CF05CC09DF05DC09EF060
:103AC6009BC047F09CC048F09DC049F09EC04AF09C
:103AD600890E4B6E630E4C6E99EC20F00A0E096E41
:103AE600F10E0A6E7F0E0B6E040EB1EC1AF01E0E6E
:103AF600096E890E0A6E0B6A040EB1EC1AF082EF9B
:103B06001DF0FEEF3FF04A6A49504A24D96EDA6A40
:103B1600200EDF6E4A2A070E4A6494EF1DF096EFD8
:103B26001DF087EF1DF04950D96EDA6A47C006F0DE
:103B360048C007F0030E096EE80E086EE6EC1AF0B0
:103B46000650300FDF6E4950D96EDA6A010ED9265B
:103B5600030E046EE80E036E47C001F048C002F083
:103B66007FEC1AF001C006F002C007F0096A640E85
:103B7600086EE6EC1AF00650300FDF6E4950D96E2B
:103B8600DA6A020ED926046A640E036E47C001F093
:103B960048C002F07FEC1AF001C006F002C007F040
:103BA600096A0A0E086EE6EC1AF00650300FDF6E50
:103BB6004950D96EDA6A030ED92647C001F048C0CB
:103BC60002F0046A0A0E036E7FEC1AF00150300F01
:103BD600DF6E4950D96EDA6A040ED926200EDF6EE2
:103BE6004950D96EDA6A050ED926DF6A1200000E30
:103BF60024142C6E000E25142D6E800E26142E6EA7
:103C06007F0E27142F6E2C502D102E102F10D8A497
:103C16000FEF1EF011EF1EF019EF1EF0000E246ECE
:103C2600000E256E000E266E000E276E000E28145E
:103C36002C6E000E29142D6E800E2A142E6E7F0E09
:103C46002B142F6E2C502D102E102F10D8A42EEFC3
:103C56001EF030EF1EF038EF1EF0000E286E000E3C
:103C6600296E000E2A6E000E2B6E27AE3DEF1EF05B
:103C76003FEF1EF048EF1EF0246C251ED8B0252A13
:103C8600261ED8B0262A800E27562BAE4DEF1EF0E4
:103C96004FEF1EF058EF1EF0286C291ED8B0292AC7
:103CA6002A1ED8B02A2A800E2B56000E241A000E81
:103CB600251A000E261A800E271A000E281A000E44
:103CC600291A000E2A1A800E2B1A2850245C295015
:103CD60025582A5026582B502758D8B075EF1EF075
:103CE60077EF1EF07AEF1EF0D8907BEF1EF0D880AB
:103CF600120056C024F057C025F058C026F059C00F
:103D060027F0000E286E400E296E9C0E2A6E400E7D
:103D16002B6EEFEC27F024C064F025C065F026C0BA
:103D260066F027C067F0000E246E000E256E000EAA
:103D3600266E000E276E64C028F065C029F066C0A6
:103D46002AF067C02BF0FAEC1DF0D8A0ADEF1EF0FC
:103D5600AFEF1EF0B8EF1EF06F0E0001646F120E8B
:103D6600656F830E666F3A0E676F000E286E000E43
:103D7600296E800E2A6E3F0E2B6E64C020F065C041
:103D860021F066C022F067C023F0000E1C6E400EC4
:103D96001D6E9C0E1E6E450E1F6E5CEC1AF01CC04E
:103DA60024F01DC025F01EC026F01FC027F0EFEC42
:103DB60027F024C03DF025C03EF026C03FF027C0C6
:103DC60040F064C041F065C042F066C043F067C091
:103DD60044F03AEC24F03DC060F03EC061F03FC0D4
:103DE60062F040C063F060C056F061C057F062C038
:103DF60058F063C059F012003F344034466E4650C6
:103E0600D8A408EF1FF00AEF1FF014EF1FF0000E02
:103E16003D6E000E3E6E000E3F6E000E406E81EF50
:103E26001FF03DC041F03EC042F03FC043F040C0ED
:103E360044F0200E24EF1FF0D89044324332423231
:103E46004132E82E1FEF1FF04150456E3F8EFF0EA8
:103E56003D16FF0E3E16FF0E3F16000E4016960E3E
:103E6600465E46BE3BEF1FF039EF1FF051EF1FF0E5
:103E76004650800A970FD8B043EF1FF045EF1FF06A
:103E860047EF1FF00AEF1FF0D89040323F323E3224
:103E96003D32463E47EF1FF069EF1FF01F0E4664A6
:103EA60057EF1FF059EF1FF061EF1FF00AEF1FF0F9
:103EB600D8903D363E363F36403646064650D8A464
:103EC60067EF1FF069EF1FF05BEF1FF04550D8B4A6
:103ED6006FEF1FF071EF1FF079EF1FF0401E3F1ECE
:103EE6003E1E3D6C000E3E223F2240223DC03DF06C
:103EF6003EC03EF03FC03FF040C040F01200000E12
:103F060000016A6F000E6B6F000E6C6F000E6D6F16
:103F16006E6BF0EC19F0015000016A2702506B231A
:103F2600000E6C23000E6D23060E5A6E300EE82E20
:103F3600FED75A2EFCD700D000016E2B070E6E65F9
:103F4600A7EF1FF0A9EF1FF08CEF1FF06AC05AF021
:103F56006BC05BF06CC05CF06DC05DF0040EB9EF39
:103F66001FF0D8905D325C325B325A32E82EB4EFE5
:103F76001FF05AC068F05BC069F068C00EF069C0F7
:103F86000FF0106A116A000E68EC21F00EC024F0E2
:103F96000FC025F010C026F011C027F0E60E286EDF
:103FA6003F0E296E9C0E2A6E400E2B6EEFEC27F00C
:103FB60024C060F025C061F026C062F027C063F01F
:103FC60060C03DF061C03EF062C03FF063C040F0AB
:103FD600000E416E000E426E200E436E410E446E80
:103FE6003AEC24F03DC064F03EC065F03FC066F098
:103FF60040C067F064C056F065C057F066C058F020
:1040060067C059F01200000E0001746F000E756F44
:10401600000E766F000E776F786B03EC1CF01CC0F9
:1040260068F01DC069F01EC06AF01FC06BF068C062
:1040360056F069C057F06AC058F06BC059F07CEC76
:104046001EF056C070F057C071F058C072F059C0DB
:1040560073F074C001F075C002F076C003F077C04B
:1040660004F070C005F071C006F072C007F073C0AE
:1040760008F002EC2AF001C074F002C075F003C02B
:1040860076F004C077F0020E5F6E040E5E6EBA0E16
:10409600E82EFED75E2EFCD75F2EFAD700D00001A1
:1040A600782B310E78655AEF20F05CEF20F010EF98
:1040B60020F074C03DF075C03EF076C03FF077C08A
:1040C60040F0000E416E000E426E480E436E420EE8
:1040D600446E3AEC24F03DC070F03EC071F03FC033
:1040E60072F040C073F070C03DF071C03EF072C017
:1040F6003FF073C040F0660E416E660E426E660E6D
:10410600436E400E446E3AEC24F03DC06CF03EC067
:104116006DF03FC06EF040C06FF06CC05AF06DC0DD
:104126005BF06EC05CF06FC05DF012004F6A4B50E2
:104136004F24D96EDA6A200EDF6E4F2A090E4F64BD
:10414600A7EF20F0A9EF20F09AEF20F04ABEB0EFDB
:1041560020F0AEEF20F0B8EF20F0000E476E000E14
:10416600486E000E496E000E4A6E4C500E6E0F6A77
:10417600106A116A000E68EC21F00EC024F00FC020
:1041860025F010C026F011C027F047C028F048C01F
:1041960029F049C02AF04AC02BF0FAEC1DF0D8B03D
:1041A600D7EF20F0D9EF20F0E9EF20F04C500E6E5B
:1041B6000F6A106A116A000E68EC21F00EC047F013
:1041C6000FC048F010C049F011C04AF047C03DF09A
:1041D60048C03EF049C03FF04AC040F0FFEC1EF038
:1041E6003D504E6E000E286E000E296E200E2A6E71
:1041F600410E2B6E4E500E6E0F6A106A116A000E3B
:1042060068EC21F00EC020F00FC021F010C022F0A3
:1042160011C023F047C01CF048C01DF049C01EF075
:104226004AC01FF05CEC1AF01CC024F01DC025F03B
:104236001EC026F01FC027F0EFEC27F024C03DF08B
:1042460025C03EF026C03FF027C040F0FFEC1EF030
:104256003D504D6E4B50D96EDA6A4EC001F0026A7F
:10426600046A0A0E036EB6EC1CF00150300FDF6EC6
:104276004B50D96EDA6A010ED9264EC001F0026A99
:10428600046A0A0E036EACEC1BF00150300FDF6EB1
:104296004B50D96EDA6A020ED9262E0EDF6E4B50BF
:1042A600D96EDA6A030ED9264D50300FDF6E4B50A9
:1042B600D96EDA6A040ED926200EDF6E4B50D96EFF
:1042C600DA6A050ED926DF6A1200166E1650D8B4C1
:1042D6006FEF21F071EF21F093EF21F011BE78EF2F
:1042E60021F076EF21F093EF21F00EC012F00FC00F
:1042F60013F010C014F011C015F0121E131E141E78
:10430600151E122A000E13221422152212C018F0AE
:1043160013C019F014C01AF015C01BF09BEF21F062
:104326000EC018F00FC019F010C01AF011C01BF023
:104336000E500F1010101110D8A4A4EF21F0A6EF04
:1043460021F0B0EF21F0000E0E6E000E0F6E000E83
:10435600106E000E116E41EF22F0960E176EBAEF38
:1043660021F0172AD8901B321A3219321832000E51
:104376001814126E000E1914136E000E1A14146E11
:10438600FE0E1B14156E1250131014101510D8A41F
:10439600CFEF21F0D1EF21F0B4EF21F0DFEF21F0E4
:1043A600172A010E1826000E19221A221B22D8904F
:1043B6001B321A3219321832000E1814126E000E01
:1043C6001914136E000E1A14146EFF0E1B14156EBC
:1043D6001250131014101510D8A4F4EF21F0F6EFB4
:1043E60021F0D3EF21F0FEEF21F01706D890183612
:1043F60019361A361B361ABE03EF22F005EF22F0E5
:104406000DEF22F0020E17600BEF22F00DEF22F0F7
:10441600F8EF21F017B012EF22F014EF22F015EFAB
:1044260022F01A9ED890173217C012F0136A146A37
:10443600156A12C015F0146A136A126A125018121D
:104446001350191214501A1215501B121650D8B4C4
:104456002FEF22F031EF22F039EF22F011BE38EFC4
:1044660022F036EF22F039EF22F01B8E18C00EF044
:1044760019C00FF01AC010F01BC011F01200000E88
:10448600246E000E256E000E266E000E276E6DC081
:1044960028F06EC029F06FC02AF070C02BF0FAEC3D
:1044A6001DF0D8A059EF22F05BEF22F064EF22F066
:1044B600000E00016D6F000E6E6F200E6F6F410EC5
:1044C600706F69C03DF06AC03EF06BC03FF06CC0D3
:1044D60040F06DC041F06EC042F06FC043F070C056
:1044E60044F03AEC24F03DC075F03EC076F03FC093
:1044F60077F040C078F0000E246E000E256E000E98
:10450600266E000E276E75C028F076C029F077C09B
:104516002AF078C02BF0FAEC1DF0D8A095EF22F027
:1045260097EF22F0A0EF22F06F0E0001756F120ECA
:10453600766F830E776F3A0E786FDE0E5A6E370EF1
:104546005B6E310E5C6EC00E5D6E75C056F076C049
:1045560057F077C058F078C059F05DEC2CF056C093
:1045660071F057C072F058C073F059C074F071C042
:1045760024F072C025F073C026F074C027F0420EF6
:10458600286E340E296EE90E2A6E420E2B6EEFEC63
:1045960027F024C079F025C07AF026C07BF027C02A
:1045A6007CF079C024F07AC025F07BC026F07CC070
:1045B60027F0000E286E000E296E200E2A6E410E80
:1045C6002B6EFAEC1DF0D8B0EBEF22F0EDEF22F0F7
:1045D600F6EF22F0000E0001796F000E7A6F200EC2
:1045E6007B6F410E7C6F000E246E400E256E1C0EF6
:1045F600266E460E276E79C028F07AC029F07BC059
:104606002AF07CC02BF0FAEC1DF0D8B00DEF23F0A9
:104616000FEF23F018EF23F0000E0001796F400E24
:104626007A6F1C0E7B6F460E7C6F79C069F07AC07C
:104636006AF07BC06BF07CC06CF012003DC04BF0A2
:104646003EC04CF03FC04DF040C04EF042BE35EF8C
:1046560023F0425009E1800E415CD8A035EF23F0EB
:1046660037EF23F094EF23F04BC024F04CC025F035
:104676004DC026F04EC027F0000E286E000E296EA3
:10468600000E2A6E7F0E2B6EEFEC27F024C04BF047
:1046960025C04CF026C04DF027C04EF0810E4126B5
:1046A600FF0E422242BE61EF23F0425009E1800E26
:1046B600415CD8A061EF23F063EF23F0FEEF23F017
:1046C6004BC024F04CC025F04DC026F04EC027F05C
:1046D600000E286E000E296E000E2A6E7F0E2B6EBF
:1046E600EFEC27F024C04BF025C04CF026C04DF06F
:1046F60027C04EF0810E4126FF0E422242BE8DEFAC
:1047060023F0425009E1800E415CD8A08DEF23F0E2
:104716008FEF23F0FEEF23F0426A7F0E416EFEEF2D
:1047260023F042AEA0EF23F0820E415CFF0E42580A
:10473600D8B0A0EF23F0A2EF23F0FEEF23F04BC09A
:1047460024F04CC025F04DC026F04EC027F0000ED8
:10475600286E000E296E800E2A6E0C0E2B6EEFEC64
:1047660027F024C04BF025C04CF026C04DF027C0E2
:104776004EF0660E4126000E422242AECCEF23F0EA
:10478600820E415CFF0E4258D8B0CCEF23F0CEEF3C
:1047960023F0FEEF23F04BC024F04CC025F04DC0B3
:1047A60026F04EC027F0000E286E000E296E800EF1
:1047B6002A6E0C0E2B6EEFEC27F024C04BF025C0B2
:1047C6004CF026C04DF027C04EF0660E4126000E76
:1047D600422242AEF8EF23F0820E415CFF0E4258B1
:1047E600D8B0F8EF23F0FAEF23F0FEEF23F0FF0E38
:1047F600426E820E416E7F0E4124436E000E4220B1
:10480600446E456A466A170ED89043364436453696
:104816004636E82E07EF24F043C047F044C048F080
:1048260045C049F046C04AF047C024F048C025F0CC
:1048360049C026F04AC027F04BC028F04CC029F0EA
:104846004DC02AF04EC02BF0EFEC27F024C03DF00F
:1048560025C03EF026C03FF027C040F03DC03DF0E9
:104866003EC03EF03FC03FF040C040F01200405016
:10487600800B4D6E40504024546E3FAE45EF24F001
:1048860047EF24F048EF24F054805450D8B44EEF4C
:1048960024F050EF24F064EF24F05428D8A456EF07
:1048A60024F058EF24F060EF24F0000E3D6E000E69
:1048B6003E6E000E3F6E000E406E3F8E406A6CEFFD
:1048C60024F0000E3D6E000E3E6E000E3F6E000E92
:1048D600406E4450800B4D1A44504424556E43AEEE
:1048E60077EF24F079EF24F07AEF24F055805550D5
:1048F600D8B480EF24F082EF24F096EF24F0552808
:10490600D8A488EF24F08AEF24F092EF24F0000E6A
:10491600416E000E426E000E436E000E446E438ED4
:10492600446A9EEF24F0000E416E000E426E000EA9
:10493600436E000E446E4150421043104410D8A4FA
:10494600A7EF24F0A9EF24F0C1EF24F0000E3D6E8E
:10495600000E3E6E000E3F6E000E406E800E3F1241
:104966007F0E40124D5040123DC03DF03EC03EF01D
:104976003FC03FF040C040F000EF26F05450D8A4AE
:10498600C7EF24F0C9EF24F0D3EF24F0000E3D6EFC
:10499600000E3E6E000E3F6E000E406E00EF26F0DB
:1049A600555054C045F0466A455E000E465A7F0E85
:1049B60045244E6E000E46204F6E3DC049F03EC067
:1049C6004AF03FC04BF040C04CF0000E3D6E000E6A
:1049D6003E6E000E3F6E000E406E000E506E000ED4
:1049E600516E000E526E000E536E556A33EF25F06F
:1049F6005550D8B401EF25F003EF25F01AEF25F056
:104A0600D89049364A364B364C36D8903D363E36E7
:104A16003F36403653AE12EF25F014EF25F015EF72
:104A260025F03D80D8905036513652365336415097
:104A3600495C42504A5843504B5844504C58D8A0B1
:104A460027EF25F029EF25F032EF25F0538C415062
:104A5600495E42504A5A43504B5A44504C5A552A82
:104A6600190E556439EF25F03BEF25F0FBEF24F0E6
:104A760049504A104B104C10D8B444EF25F046EF7D
:104A860025F05EEF25F050805EEF25F0D8903D369C
:104A96003E363F36403653AE53EF25F055EF25F000
:104AA60056EF25F03D80D890503651365236533663
:104AB6004E06D8A04F063FAE63EF25F065EF25F012
:104AC60049EF25F0556A53AE6BEF25F06DEF25F0F3
:104AD60091EF25F0FF0E5014456EFF0E5114466EF1
:104AE600FF0E5214476E7F0E5314486E4550461003
:104AF60047104810D8B482EF25F084EF25F088EFF0
:104B060025F0010E556E91EF25F03DA08DEF25F0B5
:104B16008FEF25F091EF25F084EF25F05550D8B4AE
:104B260097EF25F099EF25F0BDEF25F0010E3D2614
:104B3600000E3E223F22402240A0A4EF25F0A6EF21
:104B460025F0BDEF25F03DC045F03EC046F03FC024
:104B560047F040C048F04834483247324632453282
:104B660045C03DF046C03EF047C03FF048C040F06B
:104B76004E4A4F2A4FBEC8EF25F04F5008E14E2847
:104B8600D8A0C8EF25F0CAEF25F0D5EF25F0000E26
:104B96004F6E4E68000E3D6E000E3E6E000E3F6E6E
:104BA600000E406E4FBEE2EF25F04F5006E14E0478
:104BB600D8B0E0EF25F0E2EF25F0EEEF25F04F6AF2
:104BC600000E4E6E000E3D6E000E3E6E000E3F6EE7
:104BD600000E406E4D6A4EC054F054A0F5EF25F01D
:104BE600F7EF25F0FAEF25F03F8EFBEF25F03F9E1D
:104BF600D8905430406EB5EF24F0120001C022F078
:104C060002C023F003C024F004C025F0000E2214D5
:104C1600056E000E2314066E800E2414076E7F0E9A
:104C26002514086E800E071809E17F0E0818051076
:104C36000610D8A421EF26F023EF26F053EF26F036
:104C4600FF0E2214056EFF0E2314066E7F0E24142B
:104C5600076E000E2514086E055006100710081082
:104C6600D8A438EF26F03AEF26F041EF26F025BE1D
:104C760041EF26F03FEF26F049EF26F0FF0E221215
:104C8600FF0E23127F0E2412000E251222C001F001
:104C960023C002F024C003F025C004F0EEEF27F095
:104CA60025BE62EF26F025502410231006E12204CB
:104CB600D8B060EF26F062EF26F098EF26F0FF0EF0
:104CC6002214056EFF0E2314066EFF0E2414076EC3
:104CD6007F0E2514086E0550061007100810D8A47C
:104CE60077EF26F079EF26F083EF26F0000E016EBF
:104CF600000E026E000E036E000E046EEEEF27F03D
:104D060025BE8AEF26F088EF26F098EF26F0000100
:104D1600A46B210EA36FFF0E226EFF0E236EFF0EF5
:104D2600246E7F0E256E49EF26F0170E056E22C003
:104D360006F023C007F024C008F025C009F0056678
:104D4600A7EF26F0AFEF26F0093409320832073212
:104D56000632052EA2EF26F006C01AF007C01BF099
:104D660008C01CF009C01DF01A501B101C101D10A5
:104D7600D8A4C0EF26F0C2EF26F0F2EF26F0000E20
:104D86000E6E000E0F6E000E106E000E116ED7EF37
:104D960026F0D8902236233624362536010E0E26E6
:104DA600000E0F221022112224AEDCEF26F0DEEFD9
:104DB60026F0CCEF26F0FF0E0E24056EFF0E0F2018
:104DC600066EFF0E1020076EFF0E1120086E0550AE
:104DD6001A5E06501B5A07501C5A08501D5A810E5F
:104DE6001A26FF0E1B22FF0E1C22FF0E1D22FF0E8F
:104DF6002214056EFF0E2314066E7F0E2414076E12
:104E0600000E2514086E000E0510226E000E061008
:104E1600236E800E0710246E000E0810256E1AA051
:104E260017EF27F019EF27F021EF27F0225022265F
:104E36002350232224502422255025221D341D329E
:104E46001C321B321A32225022262350232224508F
:104E5600242225502522000E0A6E000E0B6E000E2F
:104E66000C6E000E0D6E0AC012F00BC013F00CC0D3
:104E760014F00DC015F0000E1E6E000E1F6E000E13
:104E8600206E010E216E90EF27F00A501E24166E3A
:104E96000B501F20176E0C502020186E0D5021202D
:104EA600196E1650225C1750235818502458255056
:104EB600800A056E1950800A0558D8A065EF27F0BC
:104EC60067EF27F083EF27F016501E240A6E17505F
:104ED6001F200B6E185020200C6E195021200D6ECD
:104EE6001650225E1750235A1850245A1950255A24
:104EF6001E5012261F501322205014222150152214
:104F060022502226235023222450242225502522B3
:104F1600D890213220321F321E321E501F10201010
:104F26002110D8A499EF27F09BEF27F048EF27F040
:104F36002250231024102510D8B4A4EF27F0A6EF92
:104F460027F0BAEF27F0010E1214056E000E1314A7
:104F5600066E000E1414076E000E1514086E05502A
:104F6600122606501322075014220850152212C08A
:104F760005F013C006F014C007F015C008F0083499
:104F86000832073206320532000E0524226E000E64
:104F96000620236E000E0720246E3F0E0820256E85
:104FA6001AC005F01BC006F01CC007F01DC008F0B3
:104FB600170ED8900536063607360836E82EDCEF8B
:104FC60027F0055022260650232207502422085097
:104FD600252249EF26F012002750800B306E27500D
:104FE6002724366E26AEFAEF27F0FCEF27F0FDEF0A
:104FF60027F036803650D8B403EF28F005EF28F0B6
:1050060018EF28F03628D8A40BEF28F00DEF28F07B
:1050160015EF28F0000E246E000E256E000E266E8B
:10502600000E276E268E20EF28F0000E246E000E4E
:10503600256E000E266E000E276E2B50800B301A42
:105046002B502B24356E2AAE2BEF28F02DEF28F0AF
:105056002EEF28F035803550D8B434EF28F036EFEF
:1050660028F049EF28F03528D8A43CEF28F03EEF89
:1050760028F046EF28F0000E286E000E296E000E6E
:105086002A6E000E2B6E2A8E51EF28F0000E286E27
:10509600000E296E000E2A6E000E2B6E3550D8B407
:1050A60057EF28F059EF28F061EF28F03650D8A4D2
:1050B6005FEF28F061EF28F06BEF28F0000E246E0A
:1050C600000E256E000E266E000E276E01EF2AF0EA
:1050D6002A502402F3CF3BF0F4CF3CF03B50316E24
:1050E600326A336A346A3C50376E386A396A3A6AC9
:1050F60029502502F3CF3BF0F4CF3CF03B5031264C
:10510600000E3222332234223C503726000E38223B
:1051160039223A2228502602F3CF3BF0F4CF3CF056
:105126003B503126000E3222332234223C503726A1
:10513600000E382239223A2233C034F032C033F01E
:1051460031C032F0316A28502502F3CF3BF0F4CF5C
:105156003CF03B5031263C503222000E3322000EEA
:10516600342229502402F3CF3BF0F4CF3CF03B50DD
:1051760031263C503222000E3322000E342233C038
:1051860034F032C033F031C032F0316A2850240294
:10519600F3CF3BF0F4CF3CF03B5031263C5032226B
:1051A600000E3322000E34222A502502F3CF3BF0A4
:1051B600F4CF3CF03B5037263C503822000E3922C3
:1051C600000E3A2229502602F3CF3BF0F4CF3CF0F2
:1051D6003B5037263C503822000E3922000E3A2228
:1051E6002A502602F3CF3BF0F4CF3CF03B502C6E16
:1051F6003C502D6E2E6A2F6A2EC02FF02DC02EF039
:105206002CC02DF02C6A2C5037262D5038222E50CB
:1052160039222F503A2231C02CF032C02DF033C043
:105226002EF034C02FF0190E1EEF29F0D8902F3231
:105236002E322D322C32E82E19EF29F02C5037263B
:105246002D5038222E5039222F503A2233C034F0B6
:1052560032C033F031C032F0316A355036C02CF0EE
:105266002D6A2C26000E2D22820E2C243B6EFF0E5C
:105276002D203C6E54EF29F0D89037363836393623
:105286003A3634AE49EF29F04BEF29F04CEF29F0CE
:105296003780D89031363236333634363B06D8A08E
:1052A6003C0639AE59EF29F05BEF29F03FEF29F0C4
:1052B600356A34AE61EF29F063EF29F087EF29F004
:1052C600FF0E31142C6EFF0E32142D6EFF0E3314AA
:1052D6002E6E7F0E34142F6E2C502D102E102F1084
:1052E600D8B478EF29F07AEF29F07EEF29F0010E95
:1052F600356E87EF29F037A083EF29F085EF29F087
:1053060087EF29F07AEF29F03550D8B48DEF29F0E0
:105316008FEF29F0B3EF29F0010E3726000E382261
:1053260039223A223AA09AEF29F09CEF29F0B3EFFE
:1053360029F037C02CF038C02DF039C02EF03AC015
:105346002FF02F342F322E322D322C322CC037F044
:105356002DC038F02EC039F02FC03AF03B4A3C2A17
:105366003CBEBEEF29F03C5008E13B28D8A0BEEF7A
:1053760029F0C0EF29F0CAEF29F0000E376E000EB3
:10538600386E800E396E7F0E3A6EF7EF29F03CBE0E
:10539600D7EF29F03C5006E13B04D8B0D5EF29F011
:1053A600D7EF29F0E2EF29F0000E376E000E386EC7
:1053B600000E396E000E3A6E306AF7EF29F03BC0E8
:1053C60036F0FF0E3716FF0E38167F0E3916000E12
:1053D6003A1636A0F1EF29F0F3EF29F0F4EF29F0B1
:1053E600398ED89036303A6E30503A1237C024F0A3
:1053F60038C025F039C026F03AC027F01200045014
:10540600800B0D6E045004240F6E03AE0DEF2AF0D0
:105416000FEF2AF010EF2AF00F800F50D8B416EFD6
:105426002AF018EF2AF02CEF2AF00F28D8A41EEF46
:105436002AF020EF2AF028EF2AF0000E016E000E67
:10544600026E000E036E000E046E038E046A34EFC5
:105456002AF0000E016E000E026E000E036E000EA4
:10546600046E0850800B0E6E0D500E18D8B43EEF29
:105476002AF040EF2AF041EF2AF00D8C085008245C
:105486000E6E07AE49EF2AF04BEF2AF04CEF2AF0EA
:105496000E800E50D8B452EF2AF054EF2AF068EF7F
:1054A6002AF00E28D8A45AEF2AF05CEF2AF064EF0F
:1054B6002AF0000E056E000E066E000E076E000E38
:1054C600086E078E086A70EF2AF0000E056E000E51
:1054D600066E000E076E000E086E0F500E5CD8B0FA
:1054E60077EF2AF079EF2AF0A0EF2AF00DAC7EEFE5
:1054F6002AF080EF2AF082EF2AF0800E0D1A0FC0F4
:1055060010F00EC00FF010C00EF001C010F005C074
:1055160001F010C005F002C010F006C002F010C085
:1055260006F003C010F007C003F010C007F004C077
:1055360010F008C004F010C008F0106A0F500EC03A
:1055460009F00A6A095E000E0A5A0ABEB4EF2AF08A
:105556000A5009E11A0E095CD8A0B4EF2AF0B6EF9A
:105566002AF0EDEF2AF00150021003100410D8A41F
:10557600BFEF2AF0C2EF2AF0010EC3EF2AF0000EA9
:10558600106E000E016E000E026E000E036E000E0F
:10559600046E0EC00FF0F6EF2AF010A0D5EF2AF039
:1055A600D7EF2AF0DDEF2AF0D89010300109106EFF
:1055B600DFEF2AF0D890103201A0E4EF2AF0E6EFF0
:1055C6002AF0E7EF2AF0108E043404320332023256
:1055D60001320F2A0E500F5CD8A0F4EF2AF0F6EF36
:1055E6002AF0D0EF2AF00DBCFBEF2AF0FDEF2AF0EF
:1055F6003DEF2BF00F50D8A403EF2BF005EF2BF067
:105606000FEF2BF0000E016E000E026E000E036E01
:10561600000E046E5CEF2CF00550012606500222A7
:10562600075003220850042204A01CEF2BF01EEFA3
:105636002BF0CAEF2BF010A023EF2BF025EF2BF069
:105646002BEF2BF0D89010300109106E2DEF2BF0B8
:10565600D890103201A032EF2BF034EF2BF035EF5B
:105666002BF0108E043404320332023201320F2A38
:10567600CAEF2BF00550015C06500258075003583C
:105686000450800A096E0850800A0958D8B04EEFB7
:105696002BF050EF2BF07BEF2BF00150055C096EE1
:1056A600025006580A6E035007580B6E04500858ED
:1056B6000C6EFF0E0924016EFF0E0A20026EFF0E0D
:1056C6000B20036EFF0E0C20046E800E0D1A106C5C
:1056D6001050D8A471EF2BF073EF2BF083EF2BF063
:1056E600010E0126000E02220322042283EF2BF074
:1056F6000550015E0650025A0750035A0850045AD4
:105706000150021003100410D8A48CEF2BF08EEF7A
:105716002BF0C3EF2BF01050D8A494EF2BF096EF9C
:105726002BF0C3EF2BF0000E016E000E026E000E82
:10573600036E000E046E5CEF2CF0D8900136023634
:105746000336043610AEAAEF2BF0ACEF2BF0ADEF1C
:105756002BF0018010A0B2EF2BF0B4EF2BF0B8EFD6
:105766002BF0D8801036BAEF2BF0D89010360F50A9
:10577600D8B4C0EF2BF0C2EF2BF0C3EF2BF00F061F
:1057860003AEC8EF2BF0CAEF2BF0A0EF2BF00E6A9A
:1057960010AED0EF2BF0D2EF2BF0EAEF2BF010C0CB
:1057A60009F07F0E0916D8B4DBEF2BF0DDEF2BF0F6
:1057B600E1EF2BF0010E0E6EEAEF2BF001A0E6EF03
:1057C6002BF0E8EF2BF0EAEF2BF0DDEF2BF00E508D
:1057D600D8B4F0EF2BF0F2EF2BF01DEF2CF0010E0A
:1057E6000126000E02220322042204A0FDEF2BF064
:1057F600FFEF2BF01DEF2CF001C009F002C00AF0FC
:1058060003C00BF004C00CF00C340C320B320A321D
:10581600093209C001F00AC002F00BC003F00CC047
:1058260004F00F28D8B41AEF2CF01CEF2CF01DEF63
:105836002CF00F2A0F28D8B423EF2CF025EF2CF0EC
:105846002DEF2CF00F50D8A42BEF2CF02DEF2CF0D1
:105856003EEF2CF0000E016E000E026E000E036E7F
:10586600000E046E0F50D8A43BEF2CF03DEF2CF049
:105876003EEF2CF00D6A0FA043EF2CF045EF2CF015
:1058860048EF2CF0038E49EF2CF0039ED8900F3092
:10589600046E0DAE51EF2CF053EF2CF054EF2CF0BC
:1058A600048E01C001F002C002F003C003F004C080
:1058B60004F0120056C068F157C069F158C06AF189
:1058C60059C06BF15AC088F15BC089F15CC08AF19E
:1058D6005DC08BF1FF0E01016815AC6FFF0E6915F7
:1058E600AD6FFF0E6A15AE6F7F0E6B15AF6FFF0EB5
:1058F60088159C6FFF0E89159D6FFF0E8A159E6F8A
:105906007F0E8B159F6F9C519D119E119F11D8A4E0
:105916008FEF2CF091EF2CF09BEF2CF0000E566ED3
:10592600000E576E800E586E3F0E596EADEF3EF06C
:10593600800E6A1909E13F0E6B1968116911D8A426
:10594600A7EF2CF0A9EF2CF0B3EF2CF0000E566E5B
:10595600000E576E800E586E3F0E596EADEF3EF03C
:10596600AFBFC4EF2CF0AC05000EAD59800EAE599A
:105976007F0EAF59D8B0C2EF2CF0C4EF2CF0D5EFA4
:105986002CF09FBFD3EF2CF09C05000E9D59800E86
:105996009E597F0E9F59D8A0D3EF2CF0D5EF2CF04F
:1059A600F1EF2CF056C001F057C002F058C003F0DA
:1059B60059C004F05AC005F05BC006F05CC007F0A1
:1059C6005DC008F002EC2AF001C056F002C057F0A4
:1059D60003C058F004C059F0ADEF3EF0000E546F0E
:1059E600000E556F000E566F000E576F6BBF00EF1F
:1059F6002DF0FEEF2CF0CCEF2DF09FBF0CEF2DF02D
:105A0600800E9E5D4B0E9F59D8A00CEF2DF00EEF29
:105A16002DF018EF2DF0020E546F000E556F000E8C
:105A2600566F000E576FCCEF2DF09FBF24EF2DF071
:105A3600800E9E5D3F0E9F59D8A024EF2DF026EFD5
:105A46002DF0CCEF2DF0170E0001606F9CC161F0B8
:105A56009DC162F09EC163F09FC164F0606736EF3E
:105A66002DF03EEF2DF064356433633362336133DA
:105A7600602F31EF2DF0810E000161250101A46F29
:105A8600FF0E000162210101A56FFF0E00016321D7
:105A96000101A66FFF0E000164210101A76FA45149
:105AA60017080001606F9CC161F09DC162F09EC144
:105AB60063F09FC164F0606763EF2DF06BEF2DF02C
:105AC60064356433633362336133602F5EEF2DF0E8
:105AD60061C0A8F162C0A9F163C0AAF164C0ABF1CC
:105AE6000101A45117080001606FA8C161F0A9C1A6
:105AF60062F0AAC163F0ABC164F0602B88EF2DF0B1
:105B0600D8906137623763376437602F83EF2DF0A3
:105B160001019C510001611913E101019D51000130
:105B260062190EE101019E510001631909E10101AB
:105B36009F5100016419D8A4A3EF2DF0A5EF2DF015
:105B4600CCEF2DF0010E0101A8150001606F000ECB
:105B56000101A9150001616F000E0101AA150001DE
:105B6600626F000E0101AB150001636F6051020800
:105B76000101546F000E000161550101556F000EC1
:105B8600000162550101566F000E000163550101C7
:105B9600576F800E01019E1909E17F0E9F199C1116
:105BA6009D11D8A4D9EF2DF0DBEF2DF044EF2EF0A8
:105BB600800EAE1909E13F0EAF19AC11AD11D8A494
:105BC600E7EF2DF0E9EF2DF0F3EF2DF0000E566E16
:105BD600000E576E800E586E3F0E596EADEF3EF0BA
:105BE600AFBF02EF2EF0AC05000EAD59800EAE59D8
:105BF6003F0EAF59D8A002EF2EF004EF2EF01FEFA4
:105C06002EF08BBF0BEF2EF009EF2EF015EF2EF0D6
:105C1600000E566E000E576E000E586E000E596E30
:105C2600ADEF3EF05AC056F05BC057F05CC058F07E
:105C36005DC059F0ADEF3EF08BBF26EF2EF024EF9E
:105C46002EF03AEF2EF05AC001F05BC002F05CC0B5
:105C560003F05DC004F003EC1AF001C056F002C078
:105C660057F003C058F004C059F0ADEF3EF0000EF7
:105C7600566E000E576E000E586E000E596EADEF42
:105C86003EF0800E9E1909E13F0E9F199C119D1151
:105C9600D8A450EF2EF052EF2EF07FEF2EF08BBFF0
:105CA60059EF2EF057EF2EF075EF2EF0000E3D6EE9
:105CB600000E3E6E800E3F6E3F0E406E56C041F0A7
:105CC60057C042F058C043F059C044F03AEC24F0B3
:105CD6003DC056F03EC057F03FC058F040C059F0A6
:105CE600ADEF3EF056C056F057C057F058C058F0CA
:105CF60059C059F0ADEF3EF0400E8B19881189114D
:105D06008A11D8A489EF2EF08BEF2EF0A7EF2EF094
:105D160056C024F057C025F058C026F059C027F0C9
:105D260056C028F057C029F058C02AF059C02BF0A9
:105D3600EFEC27F024C056F025C057F026C058F0E7
:105D460027C059F0ADEF3EF03F0E8B19881189112F
:105D56008A11D8A4B1EF2EF0B3EF2EF0CEEF2EF0CD
:105D66006BBFB8EF2EF0BAEF2EF0CEEF2EF056C086
:105D760001F057C002F058C003F059C004F001EC1E
:105D860026F001C056F002C057F003C058F004C018
:105D960059F0ADEF3EF0ACC178F1ADC179F1AEC1CD
:105DA6007AF1AFC17BF1800EAE190BE17F0EAF1910
:105DB600AC11AD11D8B4E2EF2EF0E4EF2EF0FDEF0A
:105DC6002EF0AC51AD11AE11AF11D8B4EDEF2EF0EF
:105DD600EFEF2EF0FDEF2EF0800EAE1909E13F0E2B
:105DE600AF19AC11AD11D8A4FBEF2EF0FDEF2EF0DC
:105DF60097EF2FF078C1B4F179C1B5F17AC1B6F158
:105E06007BC1B7F18BBF0CEF2FF00AEF2FF026EF17
:105E16002FF0000E3D6E000E3E6E800E3F6E3F0E62
:105E2600406EB4C141F0B5C142F0B6C143F0B7C14E
:105E360044F03AEC24F03DC0B4F13EC0B5F13FC0A9
:105E4600B6F140C0B7F101016BBF2EEF2FF02CEF7A
:105E56002FF08DEF2FF0000EAC250001606F000EC5
:105E66000101AD210001616F800E0101AE2100012B
:105E7600626FC00E0101AF210001636F0101545131
:105E860000016011646F0101555100016111656FD8
:105E96000101565100016211666F0101575100015F
:105EA6006311676F6451651166116711D8A45EEFBF
:105EB6002FF060EF2FF06FEF2FF00001A46B210E93
:105EC600A36FFF0E0101B46FFF0EB56FFF0EB66F25
:105ED6007F0EB76F8DEF2FF0010154055511561146
:105EE6005711D8A479EF2FF07BEF2FF08DEF2FF01D
:105EF600B4C101F0B5C102F0B6C103F0B7C104F0F8
:105F060003EC1AF001C0B4F102C0B5F103C0B6F15A
:105F160004C0B7F1B4C156F0B5C157F0B6C158F0D8
:105F2600B7C159F0ADEF3EF0000E646F000E656F1D
:105F3600000E666F000E676F6BBFA6EF2FF0A4EF23
:105F46002FF0C6EF2FF05451551156115711D8A402
:105F5600AFEF2FF0B1EF2FF0B3EF2FF060EF2FF090
:105F66005405551156115711D8A4BCEF2FF0BEEFAA
:105F76002FF0C6EF2FF0000E646F000E656F000E57
:105F8600666F800E676F9FBFD5EF2FF09C05000EE2
:105F96009D59000E9E594D0E9F59D8A0D5EF2FF052
:105FA600D7EF2FF099EF31F0AFBFE9EF2FF0F80EF2
:105FB600AC5DFF0EAD597F0EAE593F0EAF59D8B04E
:105FC600E7EF2FF0E9EF2FF009EF30F08BBFF0EF9E
:105FD6002FF0EEEF2FF0FFEF2FF0000E010164110E
:105FE600B46F000E6511B56F800E6611B66F7F0E29
:105FF6006711B76F8DEF2FF0000E566E000E576EBD
:10600600000E586E000E596EADEF3EF0AFBF19EFA1
:1060160030F0080EAC5D000EAD59800EAE593F0E45
:10602600AF59D8A019EF30F01BEF30F036EF30F053
:106036008BBF28EF30F08B518A11891108E1880552
:10604600D8A028EF30F02AEF30F02CEF30F0F0EF48
:106056002FF0000E566E000E576E000E586E000E94
:10606600596EADEF3EF078C101F079C102F07AC108
:1060760003F07BC104F0000E056E000E066E800E66
:10608600076EBF0E086E02EC2AF001C0B0F102C026
:10609600B1F103C0B2F104C0B3F1000E286E000ED8
:1060A600296E800E2A6E3E0E2B6EB0C124F0B1C151
:1060B60025F0B2C126F0B3C127F0EFEC27F024C0DB
:1060C60020F025C021F026C022F027C023F0AB0E19
:1060D6001C6EAA0E1D6EAA0E1E6E3E0E1F6E5CEC88
:1060E6001AF01CC048F11DC049F11EC04AF11FC07C
:1060F6004BF1B0C128F0B1C129F0B2C12AF0B3C149
:106106002BF0B0C124F0B1C125F0B2C126F0B3C165
:1061160027F0EFEC27F024C058F125C059F126C02E
:106126005AF127C05BF1B0C128F0B1C129F0B2C164
:106136002AF0B3C12BF048C124F049C125F04AC169
:1061460026F04BC127F0EFEC27F024C020F025C045
:1061560021F026C022F027C023F0000E1C6E000E90
:106166001D6E000E1E6E3F0E1F6E5CEC1AF01CC0FC
:106176004CF11DC04DF11EC04EF11FC04FF158C16C
:1061860024F059C125F05AC126F05BC127F04CC155
:1061960028F04DC129F04EC12AF04FC12BF0EFEC8B
:1061A60027F024C044F125C045F126C046F127C09A
:1061B60047F1B0C124F0B1C125F0B2C126F0B3C198
:1061C60027F0000E286EAA0E296EB80E2A6E3F0E14
:1061D6002B6EEFEC27F024C07CF125C07DF126C0A4
:1061E6007EF127C07FF1700E286EA50E296EEC0E8B
:1061F6002A6E360E2B6EB0C124F0B1C125F0B2C1A5
:1062060026F0B3C127F0EFEC27F024C01CF025C020
:106216001DF026C01EF027C01FF03B0E286EAA0EEA
:10622600296EB80E2A6E3F0E2B6E44C124F045C16E
:1062360025F046C126F047C127F0EFEC27F024C031
:1062460020F025C021F026C022F027C023F05CEC08
:106256001AF01CC080F11DC081F11EC082F11FC062
:1062660083F17CC101F07DC102F07EC103F07FC1E4
:1062760004F080C105F081C106F082C107F083C138
:1062860008F002EC2AF001C08CF102C08DF103C0C7
:106296008EF104C08FF18CC194F18DC195F18EC140
:1062A60096F18FC197F1000E010194158C6FF00ED7
:1062B60095158D6FFF0E96158E6FFF0E97158F6FC6
:1062C6007CC120F07DC121F07EC122F07FC123F088
:1062D6008CC11CF08DC11DF08EC11EF08FC11FF048
:1062E6005CEC1AF01CC098F11DC099F11EC09AF121
:1062F6001FC09BF180C11CF081C11DF082C11EF040
:1063060083C11FF098C120F099C121F09AC122F0F3
:106316009BC123F05CEC1AF01CC01CF11DC01DF1E2
:106326001EC01EF11FC01FF1A7EF38F0000E846FCC
:10633600000E856F000E866F000E876FAFBFAFEF42
:1063460031F0AF5107E1800EAE5DD8B0ADEF31F060
:10635600AFEF31F0DAEF31F078C124F079C125F0F2
:106366007AC126F07BC127F0000E286E000E296E3A
:10637600800E2A6E4B0E2B6EEFEC27F024C078F1C0
:1063860025C079F126C07AF127C07BF1E80E01011C
:106396008427FF0E8523FF0E8623FF0E872378C1F1
:1063A600ACF179C1ADF17AC1AEF17BC1AFF1170E97
:1063B6000001606FACC161F0ADC162F0AEC163F0C7
:1063C600AFC164F06067EAEF31F0F2EF31F06435A7
:1063D6006433633362336133602FE5EF31F0810E4E
:1063E60000016125656FFF0E6221666FFF0E632156
:1063F600676FFF0E6421686F6551010184270001F4
:1064060066510101852300016751010186230001C0
:10641600685101018723FF0EAC15A86FFF0EAD155D
:10642600A96F7F0EAE15AA6F000EAF15AB6F000EEB
:10643600A46F000EA56F000EA66F000EA76F000ECC
:10644600A811AC6F000EA911AD6F800EAA11AE6F28
:106456003F0EAB11AF6FABBF40EF32F0AB510BE16C
:10646600720EA85DC40EA9591C0EAA59D8B03EEFEB
:1064760032F040EF32F042EF32F06CEF32F0ABBF69
:1064860054EF32F0AB510BE1D70EA85DB30EA9590C
:106496005D0EAA59D8B052EF32F054EF32F05EEFEB
:1064A60032F0010EA46F000EA56F000EA66F000E4F
:1064B600A76F6CEF32F0010E8427000E852386232A
:1064C6008723000EAC27000EAD23800EAE23FF0EF1
:1064D600AF23ACC178F1ADC179F1AEC17AF1AFC1EC
:1064E6007BF178C11CF079C11DF07AC11EF07BC129
:1064F6001FF0A4C160F0A5C161F00001D89060371B
:106506006137D89060376137480E6025F66E7F0E8A
:106516006121F76E0900F5CF20F00900F5CF21F0D3
:106526000900F5CF22F00A00F5CF23F05CEC1AF053
:106536001CC07CF11DC07DF11EC07EF11FC07FF125
:10654600000E3D6E000E3E6E800E3F6E3F0E406E9C
:1065560078C105F079C106F07AC107F07BC108F071
:10656600A4C160F0A5C161F00001D8906037613721
:10657600D89060376137480E6025F66E7F0E612130
:10658600F76E0900F5CF01F00900F5CF02F009001A
:10659600F5CF03F00A00F5CF04F002EC2AF001C0B3
:1065A60041F002C042F003C043F004C044F03AECAC
:1065B60024F03DC080F13EC081F13FC082F140C071
:1065C60083F17CC124F07DC125F07EC126F07FC118
:1065D60027F080C128F081C129F082C12AF083C149
:1065E6002BF0EFEC27F024C060F125C061F126C046
:1065F60062F127C063F160C174F161C175F162C1D6
:1066060076F163C177F174C194F175C195F176C1E4
:1066160096F177C197F1000E01019415746FF00E93
:106626009515756FFF0E9615766FFF0E9715776F9A
:10663600ACC160F0ADC161F0AEC162F0AFC163F054
:10664600000163356333623361336033000E6015D6
:10665600646FF00E6115656FFF0E6215666FFF0EB3
:106666006315676F000E64110101946F000E00013F
:1066760065110101956F000E000166110101966F0B
:10668600200E000167110101976FA4C160F0A5C13A
:1066960061F0A6C162F0A7C163F0150ED8900001A3
:1066A6006037613762376337E82E51EF33F0010107
:1066B600945100016025646F01019551000161212B
:1066C600656F0101965100016221666F01019751C4
:1066D60000016321676F000E64250101706F000ED3
:1066E600000165210101716F400E00016621010163
:1066F600726F000E000167210101736FA4C160F083
:10670600A5C161F00001D89060376137D890603735
:106716006137480E6025F66E7F0E6121F76E09001F
:10672600F5CF20F00900F5CF21F00900F5CF22F0D2
:106736000A00F5CF23F070C11CF071C11DF072C1C3
:106746001EF073C11FF05CEC1AF01CC098F11DC05E
:1067560099F11EC09AF11FC09BF178C11CF079C156
:106766001DF07AC11EF07BC11FF098C120F099C1BF
:1067760021F09AC122F09BC123F05CEC1AF01CC0F8
:1067860034F11DC035F11EC036F11FC037F170C19E
:1067960028F071C129F072C12AF073C12BF074C1BF
:1067A60024F075C125F076C126F077C127F0EFEC0D
:1067B60027F024C020F025C021F026C022F027C0F3
:1067C60023F07CC11CF07DC11DF07EC11EF07FC18F
:1067D6001FF05CEC1AF01CC098F11DC099F11EC0A8
:1067E6009AF11FC09BF134C128F035C129F036C19A
:1067F6002AF037C12BF074C124F075C125F076C19B
:1068060026F077C127F0EFEC27F024C020F025C052
:1068160021F026C022F027C023F098C11CF099C1B0
:106826001DF09AC11EF09BC11FF05CEC1AF01CC053
:1068360058F11DC059F11EC05AF11FC05BF158C175
:1068460024F059C125F05AC126F05BC127F080C15A
:1068560028F081C129F082C12AF083C12BF0EFEC28
:1068660027F024C030F125C031F126C032F127C00F
:1068760033F160C124F061C125F062C126F063C125
:1068860027F060C128F061C129F062C12AF063C116
:106896002BF0EFEC27F024C090F125C091F126C033
:1068A60092F127C093F1550E056E320E066E6C0EF0
:1068B600076E3E0E086E420E286EF10E296E530EBE
:1068C6002A6E3E0E2B6E90C124F091C125F092C126
:1068D60026F093C127F0EFEC27F024C001F025C085
:1068E60002F026C003F027C004F002EC2AF001C033
:1068F60048F102C049F103C04AF104C04BF1050E4C
:10690600056EA30E066E8B0E076E3E0E086E90C1C8
:1069160028F091C129F092C12AF093C12BF048C109
:1069260024F049C125F04AC126F04BC127F0EFEC0F
:1069360027F024C001F025C002F026C003F027C0CE
:1069460004F002EC2AF001C058F102C059F103C06C
:106956005AF104C05BF1AB0E056EAA0E066EAA0EC6
:10696600076E3E0E086E90C128F091C129F092C1C3
:106976002AF093C12BF058C124F059C125F05AC111
:1069860026F05BC127F0EFEC27F024C001F025C00C
:1069960002F026C003F027C004F002EC2AF001C082
:1069A6004CF102C04DF103C04EF104C04FF1B70ED9
:1069B600056E6D0E066EDB0E076E3E0E086E90C1FE
:1069C60028F091C129F092C12AF093C12BF04CC155
:1069D60024F04DC125F04EC126F04FC127F0EFEC53
:1069E60027F024C001F025C002F026C003F027C01E
:1069F60004F002EC2AF001C038F102C039F103C0FC
:106A06003AF104C03BF19A0E056E990E066E190E08
:106A1600076E3F0E086E90C128F091C129F092C111
:106A26002AF093C12BF038C124F039C125F03AC1C0
:106A360026F03BC127F0EFEC27F024C001F025C07B
:106A460002F026C003F027C004F002EC2AF001C0D1
:106A560008F102C009F103C00AF104C00BF190C1AC
:106A660028F091C129F092C12AF093C12BF090C170
:106A760024F091C125F092C126F093C127F0EFECE6
:106A860027F024C00CF125C00DF126C00EF127C059
:106A96000FF108C124F009C125F00AC126F00BC187
:106AA60027F00CC128F00DC129F00EC12AF00FC144
:106AB6002BF0EFEC27F024C050F125C051F126C091
:106AC60052F127C053F130C128F031C129F032C14B
:106AD6002AF033C12BF060C105F061C106F062C136
:106AE60007F063C108F074C101F075C102F076C108
:106AF60003F077C104F002EC2AF001C024F002C0D2
:106B060025F003C026F004C027F0EFEC27F024C0E0
:106B16005CF125C05DF126C05EF127C05FF150C172
:106B260001F051C102F052C103F053C104F05CC13F
:106B360005F05DC106F05EC107F05FC108F002EC2A
:106B46002AF001C050F102C051F103C052F104C055
:106B560053F174C124F075C125F076C126F077C1D2
:106B660027F074C128F075C129F076C12AF077C1E3
:106B76002BF0EFEC27F024C090F125C091F126C050
:106B860092F127C093F1000E056E000E066E400EC0
:106B9600076E400E086E90C101F091C102F092C1DD
:106BA60003F093C104F002EC2AF001C05CF102C0CC
:106BB6005DF103C05EF104C05FF15CC101F05DC12F
:106BC60002F05EC103F05FC104F050C105F051C18F
:106BD60006F052C107F053C108F002EC2AF001C0DA
:106BE60070F102C071F103C072F104C073F170C19B
:106BF60094F171C195F172C196F173C197F1000ECE
:106C060001019415706FF00E9515716FFF0E9615B4
:106C1600726FFF0E9715736F000E056E000E066EEF
:106C2600400E076EC00E086E70C101F071C102F011
:106C360072C103F073C104F002EC2AF001C040F106
:106C460002C041F103C042F104C043F190C120F0FB
:106C560091C121F092C122F093C123F040C11CF0F2
:106C660041C11DF042C11EF043C11FF05CEC1AF099
:106C76001CC03CF11DC03DF11EC03EF11FC03FF1DE
:106C860050C11CF051C11DF052C11EF053C11FF07E
:106C96003CC120F03DC121F03EC122F03FC123F0AE
:106CA6005CEC1AF01CC034F11DC035F11EC036F183
:106CB6001FC037F174C124F075C125F076C126F0E6
:106CC60077C127F070C128F071C129F072C12AF08E
:106CD60073C12BF0EFEC27F024C07CF125C07DF1C9
:106CE60026C07EF127C07FF130C128F031C129F0DE
:106CF60032C12AF033C12BF070C124F071C125F0E6
:106D060072C126F073C127F0EFEC27F024C001F022
:106D160025C002F026C003F027C004F060C128F0A9
:106D260061C129F062C12AF063C12BF034C124F09D
:106D360035C125F036C126F037C127F0EFEC27F034
:106D460024C005F025C006F026C007F027C008F0CD
:106D560002EC2AF001C080F102C081F103C082F189
:106D660004C083F17CC101F07DC102F07EC103F055
:106D76007FC104F080C105F081C106F082C107F031
:106D860083C108F002EC2AF001C0A0F102C0A1F113
:106D960003C0A2F104C0A3F1A0C194F1A1C195F171
:106DA600A2C196F1A3C197F1000E01019415A06F3F
:106DB600F00E9515A16FFF0E9615A26FFF0E971593
:106DC600A36F7CC120F07DC121F07EC122F07FC17E
:106DD60023F0A0C11CF0A1C11DF0A2C11EF0A3C1E9
:106DE6001FF05CEC1AF01CC098F11DC099F11EC092
:106DF6009AF11FC09BF180C11CF081C11DF082C1B8
:106E06001EF083C11FF098C120F099C121F09AC1EC
:106E160022F09BC123F05CEC1AF01CC06CF11DC083
:106E26006DF11EC06EF11FC06FF1A0C124F0A1C1AB
:106E360025F0A2C126F0A3C127F0000E286E400E51
:106E4600296E760E2A6E3F0E2B6EEFEC27F024C0CD
:106E560020F125C021F126C022F127C023F14F0ED3
:106E6600286E380E296E760E2A6E3F0E2B6E6CC17A
:106E760024F06DC125F06EC126F06FC127F0EFEC4E
:106E860027F024C005F025C006F026C007F027C06D
:106E960008F0C60E286E230E296EF60E2A6EB80E60
:106EA6002B6EA0C124F0A1C125F0A2C126F0A3C17A
:106EB60027F0EFEC27F024C001F025C002F026C031
:106EC60003F027C004F002EC2AF001C05CF102C016
:106ED6005DF103C05EF104C05FF15CC101F05DC10C
:106EE60002F05EC103F05FC104F0A4C160F0A5C169
:106EF60061F00001D89060376137D890603761370C
:106F0600380E6025F66E7F0E6121F76E0900F5CF0B
:106F160005F00900F5CF06F00900F5CF07F00A00E5
:106F2600F5CF08F002EC2AF001C024F102C025F1E9
:106F360003C026F104C027F184C10EF085C10FF00D
:106F460086C110F087C111F0010E68EC21F00EC069
:106F5600B0F10FC0B1F110C0B2F111C0B3F124C14C
:106F660005F025C106F026C107F027C108F020C1AB
:106F760001F021C102F022C103F023C104F002ECAA
:106F86002AF001C05CF102C05DF103C05EF104C0ED
:106F96005FF1A4C160F0A5C161F00001D89060372F
:106FA6006137D89060376137400E6025F66E7F0EE8
:106FB6006121F76E0900F5CF05F00900F5CF06F05F
:106FC6000900F5CF07F00A00F5CF08F05CC101F023
:106FD6005DC102F05EC103F05FC104F002EC2AF06D
:106FE60001C010F102C011F103C012F104C013F187
:106FF60010C101F011C102F012C103F013C104F077
:10700600B0C105F0B1C106F0B2C107F0B3C108F0D6
:1070160002EC2AF001C08CF102C08DF103C08EF1A2
:1070260004C08FF18CC194F18DC195F18EC196F19A
:107036008FC197F1000E010194158C6FF00E951516
:107046008D6FFF0E96158E6FFF0E97158F6FB0C161
:1070560020F0B1C121F0B2C122F0B3C123F08CC13E
:107066001CF08DC11DF08EC11EF08FC11FF05CECAF
:107076001AF01CC098F11DC099F11EC09AF11FC0EC
:107086009BF1A4C160F0A5C161F00001D890603702
:107096006137D89060376137400E6025F66E7F0EF7
:1070A6006121F76E0900F5CF20F00900F5CF21F038
:1070B6000900F5CF22F00A00F5CF23F098C11CF0A5
:1070C60099C11DF09AC11EF09BC11FF05CEC1AF02D
:1070D6001CC03CF11DC03DF11EC03EF11FC03FF17A
:1070E60020C120F021C121F022C122F023C123F0CA
:1070F6003CC11CF03DC11DF03EC11EF03FC11FF05A
:107106005CEC1AF01CC014F11DC015F11EC016F17E
:107116001FC017F124C11CF025C11DF026C11EF0A9
:1071260027C11FF014C120F015C121F016C122F0AD
:1071360017C123F05CEC1AF01CC01CF11DC01DF138
:107146001EC01EF11FC01FF15AC094F15BC095F11D
:107156005CC096F15DC097F1000E010194152C6F8D
:10716600F00E95152D6FFF0E96152E6FFF0E9715C7
:107176002F6F8CC128F08DC129F08EC12AF08FC1E6
:107186002BF02CC120F02DC121F02EC122F02FC1F1
:1071960023F05AC01CF05BC01DF05CC01EF05DC041
:1071A6001FF05CEC1AF01CC024F01DC025F01EC0B8
:1071B60026F01FC027F0EFEC27F024C040F125C0D1
:1071C60041F126C042F127C043F140C101F041C15F
:1071D60002F042C103F043C104F01CC128F01DC1F6
:1071E60029F01EC12AF01FC12BF05AC024F05BC043
:1071F60025F05CC026F05DC027F0EFEC27F024C038
:1072060005F025C006F026C007F027C008F002ECFE
:107216002AF001C06CF102C06DF103C06EF104C02A
:107226006FF12CC124F02DC125F02EC126F02FC1FF
:1072360027F08CC128F08DC129F08EC12AF08FC1AC
:107246002BF0EFEC27F024C0A0F125C0A1F126C059
:10725600A2F127C0A3F1A0C101F0A1C102F0A2C111
:1072660003F0A3C104F06CC105F06DC106F06EC158
:1072760007F06FC108F002EC2AF001C0B4F102C0B9
:10728600B5F103C0B6F104C0B7F1B4C1A8F1B5C1F8
:10729600A9F1B6C1AAF1B7C1ABF10101ABBF60EF6D
:1072A60039F0A805000EA959000EAA59430EAB598C
:1072B600D8A060EF39F062EF39F064EF39F0F0EF03
:1072C6002FF0430EAB19A811A911AA11D8A46EEF7D
:1072D60039F070EF39F0AFEF39F0A0C120F0A1C15D
:1072E60021F0A2C122F0A3C123F0B4C11CF0B5C1A4
:1072F6001DF0B6C11EF0B7C11FF05CEC1AF01CC041
:1073060024F01DC025F01EC026F01FC027F03C0E3D
:10731600056EAA0E066E380E076E330E086E6CC129
:1073260001F06DC102F06EC103F06FC104F002EC12
:107336002AF001C028F002C029F003C02AF004C0D8
:107346002BF0FAEC1DF0D8B0ABEF39F0ADEF39F019
:1073560021EF3AF0F0EF2FF0FF0EA8150001606F55
:10736600FF0E0101A9150001616FFF0E0101AA15AB
:107376000001626F7F0E0101AB150001636F63BFF1
:10738600D1EF39F06005000E6159160E6259430EB1
:107396006359D8A0D1EF39F0D3EF39F0DDEF39F0EA
:1073A600000E566E000E576E000E586E000E596E89
:1073B600ADEF3EF0160E0101AA1909E1C30EAB1995
:1073C600A811A911D8A4EAEF39F0ECEF39F021EFB2
:1073D6003AF0A0C120F0A1C121F0A2C122F0A3C1C0
:1073E60023F0B4C11CF0B5C11DF0B6C11EF0B7C183
:1073F6001FF05CEC1AF01CC024F01DC025F01EC066
:1074060026F01FC027F06CC128F06DC129F06EC1AF
:107416002AF06FC12BF0FAEC1DF0D8A015EF3AF068
:1074260017EF3AF021EF3AF0000E566E000E576E47
:10743600000E586E000E596EADEF3EF0FF0E0101C4
:10744600A815286FFF0EA915296FFF0EAA152A6F1A
:107456007F0EAB152B6F170E0001606F28C161F010
:1074660029C162F02AC163F02BC164F060673EEF68
:107476003AF046EF3AF0643564336333623361338E
:10748600602F39EF3AF0810E000161250101A46FEA
:10749600FF0E000162210101A56FFF0E00016321AD
:1074A6000101A66FFF0E000164210101A76F000E06
:1074B600846F000E856F000E866F000E876F2BBFE0
:1074C60071EF3AF02805000E2959000E2A593F0E91
:1074D6002B59D8A071EF3AF073EF3AF06FEF3BF00B
:1074E600A4C160F0010E00016027000E616F000E5E
:1074F600626F800E636F000E646F606785EF3AF00F
:107506008DEF3AF064356433633362336133602F51
:1075160080EF3AF00101A851000161250101846F55
:10752600A951000162210101856FAA510001632161
:107536000101866FAB51000164210101876F810E45
:107546000001606FFF0E616FFF0E626FFF0E636FCB
:10755600170E646F84C165F085C166F086C167F059
:1075660087C168F06467BAEF3AF0C2EF3AF068355F
:107576006833673366336533642FB5EF3AF000013D
:10758600655160250101A46F000E00016121010112
:10759600A56F000E000162210101A66F000E000119
:1075A60063210101A76FA4C160F0FF0E0001616FA6
:1075B600FF0E626F7F0E636F000E646F6067E6EF0B
:1075C6003AF0EEEF3AF06435643363336233613395
:1075D600602FE1EF3AF00001611D656F621D666F75
:1075E600631D676F641D686F010184510001651595
:1075F6000101B06F8551000166150101B16F865119
:10760600000167150101B26F87510001681501017C
:10761600B36FA45117080001606FFF0E01018415B6
:107626000001616FFF0E010185150001626F7F0E7B
:10763600010186150001636F000E01018715000127
:10764600646F000E6111656F000E6211666F800E29
:107656006311676F000E6411686F606735EF3BF06A
:107666003DEF3BF068356833673366336533602F2B
:1076760030EF3BF065C084F166C085F167C086F1E6
:1076860068C087F10101ABBF4DEF3BF04BEF3BF01C
:1076960055EF3BF0871F861F851F846D000E8523DF
:1076A60086238723A0C11CF0A1C11DF0A2C11EF034
:1076B600A3C11FF0B0C120F0B1C121F0B2C122F0C8
:1076C600B3C123F05CEC1AF01CC0A0F11DC0A1F1FF
:1076D6001EC0A2F11FC0A3F1A0C101F0A1C102F01A
:1076E600A2C103F0A3C104F06CC105F06DC106F0A0
:1076F6006EC107F06FC108F002EC2AF001C0B0F1CC
:1077060002C0B1F103C0B2F104C0B3F1B0C194F14B
:10771600B1C195F1B2C196F1B3C197F1000E010165
:107726009415B06F800E9515B16FFF0E9615B26F5A
:10773600FF0E9715B36FB0C124F0B1C125F0B2C1E9
:1077460026F0B3C127F0000E286E720E296E310E98
:107756002A6E3F0E2B6EEFEC27F024C07CF125C07D
:107766007DF126C07EF127C07FF1A0C120F0A1C126
:1077760021F0A2C122F0A3C123F0B0C11CF0B1C117
:107786001DF0B2C11EF0B3C11FF05CEC1AF01CC0B4
:1077960098F11DC099F11EC09AF11FC09BF1180EF9
:1077A600286E720E296E310E2A6E3F0E2B6E98C110
:1077B60020F099C121F09AC122F09BC123F06CC13F
:1077C6001CF06DC11DF06EC11EF06FC11FF05CECA8
:1077D6001AF01CC024F01DC025F01EC026F01FC0E4
:1077E60027F0EFEC27F024C018F125C019F126C0C8
:1077F6001AF127C01BF118C101F019C102F01AC114
:1078060003F01BC104F08C0E286EBE0E296EBF0E4F
:107816002A6E350E2B6EB0C124F0B1C125F0B2C16F
:1078260026F0B3C127F0EFEC27F024C005F025C001
:1078360006F026C007F027C008F002EC2AF001C0C7
:1078460080F102C081F103C082F104C083F17CC1E2
:1078560001F07DC102F07EC103F07FC104F080C15A
:1078660005F081C106F082C107F083C108F002EC81
:107876002AF001C0B4F102C0B5F103C0B6F104C0EC
:10788600B7F17CC120F07DC121F07EC122F07FC11D
:1078960023F0B4C11CF0B5C11DF0B6C11EF0B7C1CE
:1078A6001FF05CEC1AF01CC098F11DC099F11EC0C7
:1078B6009AF11FC09BF180C11CF081C11DF082C1ED
:1078C6001EF083C11FF098C120F099C121F09AC122
:1078D60022F09BC123F05CEC1AF01CC044F11DC0E1
:1078E60045F11EC046F11FC047F1B4C124F0B5C131
:1078F60025F0B6C126F0B7C127F0B4C128F0B5C14E
:1079060029F0B6C12AF0B7C12BF0EFEC27F024C05E
:10791600B0F125C0B1F126C0B2F127C0B3F10E0E09
:10792600056EEA0E066EDD0E076EB50E086E4C0E7F
:10793600286EBB0E296E310E2A6E330E2B6EB0C129
:1079460024F0B1C125F0B2C126F0B3C127F0EFECA7
:1079560027F024C001F025C002F026C003F027C09E
:1079660004F002EC2AF001C048F102C049F103C05C
:107976004AF104C04BF1550E056EB30E066E8A0E23
:10798600076E380E086EB0C128F0B1C129F0B2C139
:107996002AF0B3C12BF048C124F049C125F04AC1F1
:1079A60026F04BC127F0EFEC27F024C001F025C0EC
:1079B60002F026C003F027C004F002EC2AF001C052
:1079C60058F102C059F103C05AF104C05BF1610ECF
:1079D600056E0B0E066E360E076EBB0E086EB0C138
:1079E60028F0B1C129F0B2C12AF0B3C12BF058C1B9
:1079F60024F059C125F05AC126F05BC127F0EFECFF
:107A060027F024C001F025C002F026C003F027C0ED
:107A160004F002EC2AF001C04CF102C04DF103C0A3
:107A26004EF104C04FF1AB0E056EAA0E066E2A0E7D
:107A3600076E3E0E086EB0C128F0B1C129F0B2C182
:107A46002AF0B3C12BF04CC124F04DC125F04EC134
:107A560026F04FC127F0EFEC27F024C001F025C037
:107A660002F026C003F027C004F002EC2AF001C0A1
:107A760038F102C039F103C03AF104C03BF1B4C198
:107A86001CF0B5C11DF0B6C11EF0B7C11FF0B0C1E4
:107A960028F0B1C129F0B2C12AF0B3C12BF038C128
:107AA60024F039C125F03AC126F03BC127F0EFECAE
:107AB60027F024C020F025C021F026C022F027C0E0
:107AC60023F05CEC1AF01CC08CF11DC08DF11EC0B9
:107AD6008EF11FC08FF1000E056E000E066E000EB1
:107AE600076EC00E086E8CC101F08DC102F08EC10A
:107AF60003F08FC104F002EC2AF001C041F002C08D
:107B060042F003C043F004C044F08CC128F08DC19C
:107B160029F08EC12AF08FC12BF0B4C124F0B5C173
:107B260025F0B6C126F0B7C127F0EFEC27F024C048
:107B36003DF025C03EF026C03FF027C040F03AECAD
:107B460024F03DC000F13EC001F13FC002F140C04B
:107B560003F144C105F045C106F046C107F047C12F
:107B660008F044C128F045C129F046C12AF047C1B2
:107B76002BF0B4C124F0B5C125F0B6C126F0B7C1CB
:107B860027F0EFEC27F024C001F025C002F026C054
:107B960003F027C004F002EC2AF001C004F102C091
:107BA60005F103C006F104C007F100C11CF001C1D4
:107BB6001DF002C11EF003C11FF004C120F005C173
:107BC60021F006C122F007C123F05CEC1AF01CC0BC
:107BD60050F11DC051F11EC052F11FC053F1B4C186
:107BE60020F0B5C121F0B6C122F0B7C123F050C1D3
:107BF6001CF051C11DF052C11EF053C11FF05CECC8
:107C06001AF01CC098F11DC099F11EC09AF11FC050
:107C16009BF1000E1C6E000E1D6E800E1E6E3F0E3A
:107C26001F6E98C120F099C121F09AC122F09BC124
:107C360023F05CEC1AF01CC0B4F11DC0B5F11EC0F7
:107C4600B6F11FC0B7F1B4C1A8F1B5C1A9F1B6C16B
:107C5600AAF1B7C1ABF184C160F085C161F086C1FC
:107C660062F087C163F0170ED89000016037613764
:107C760062376337E82E37EF3EF060510101A827DF
:107C8600000161510101A923000162510101AA23EA
:107C9600000163510101AB23170E0001606FA8C1FB
:107CA60061F0A9C162F0AAC163F0ABC164F060677C
:107CB6005FEF3EF067EF3EF0643564336333623363
:107CC6006133602F5AEF3EF0000164BF77EF3EF05C
:107CD60064516311621106E16105D8B075EF3EF09B
:107CE60077EF3EF08FEF3EF0B4C13DF0B5C13EF008
:107CF600B6C13FF0B7C140F084C141F085C142F042
:107D060021EC23F03DC0B4F13EC0B5F13FC0B6F161
:107D160040C0B7F197EF3EF0A8C1B4F1A9C1B5F1E3
:107D2600AAC1B6F1ABC1B7F10101B451B511B61193
:107D3600B711D8B4A1EF3EF0A3EF3EF08DEF2FF0D0
:107D46006451B41B6551B51B6651B61B6751B71B11
:107D56008DEF2FF0120000000000000000005F0011
:107D6600000007000700147F147F14242A7F2A12BC
:107D760023130864623649552250000503000000AB
:107D86001C2241000041221C00082A1C2A0808085F
:107D96003E08080050300000080808080800606027
:107DA600000020100804023E5149453E00427F4033
:107DB6000042615149462141454B311814127F104A
:107DC60027454545393C4A4949300171090503367D
:107DD60049494936064949291E00363600000056EB
:107DE60036000000081422411414141414412214FD
:107DF60008000201510906324979413E7E111111EE
:107E06007E7F494949363E414141227F4141221CFC
:107E16007F494949417F090909013E4149497A7F1C
:107E26000808087F00417F41002040413F017F084C
:107E36001422417F404040407F020C027F7F0408AD
:107E4600107F3E4141413E7F090909063E415121CD
:107E56005E7F09192946464949493101017F0101D9
:107E66003F4040403F1F2040201F3F4038403F6377
:107E76001408146307087008076151494543007FD9
:107E860041410002040810200041417F0004020124
:107E96000204404040404000010204002054545473
:107EA600787F484444383844444420384444487F22
:107EB6003854545418087E0901020C5252523E7F1F
:107EC6000804047800447D40002040443D007F10B3
:107ED60028440000417F40007C041804787C080494
:107EE600047838444444387C1414140808141418CC
:107EF6007C7C080404084854545420043F44402021
:107F06003C4040207C1C2040201C3C4030403C44EF
:107F1600281028440C5050503C4464544C440008EB
:107F260036410000007F0000004136080008082A9C
:107F36001C0800000000DCCFD1350000000000C0A6
:107F4600153F0000803F0000C03F70A5EC363BAAFD
:107F5600B83F4F38763F3CAA38338CBEBF350072E7
:107F6600313F1872313F4CBB31330EEADDB555B3A4
:107F76008A38610B36BBABAA2A3E42F1533E5532D4
:107F86006C3E05A38B3EABAAAA3EB76DDB3E9A9923
:107F9600193F0000804B00AAB83FC623F6B8004040
:107FA600763F2A20494E5645524E414445524F206F
:107FB6002A0020202020202020004D414C4F202048
:107FC60020004255454E4F2020004E4F524D414C09
:107FD600200050454C4947524F00416972653A00AE
:107FE60054656D703A0043616C3A0052303A007045
:0A7FF600706D0043000098EF19F0D1
:020000040030CA
:08000000000B181EFF8181FFB7
:00000001FF
