:04000000FEEF3FF0E0
:10652600000EF86E00015CEF36F0C580C5B09EEF38
:1065360032F0A0EF32F099EF32F01200C584C5B404
:10654600A7EF32F0A9EF32F0A2EF32F012009382F9
:106556009380280EC66EC56A130EC86E800EC76E6F
:106566009E961200016E9E9601C0C9FF9EA6BEEFC2
:1065760032F0C0EF32F0B9EF32F09E96C5501200FD
:10658600026E98EC32F0780EB5EC32F0400EB5ECB7
:1065960032F00250B5EC32F0A1EC32F01200026E8D
:1065A60098EC32F0780EB5EC32F0000EB5EC32F025
:1065B6000250B5EC32F0A1EC32F01200046E045039
:1065C600B00FD2EC32F003500F0BD2EC32F003389E
:1065D6000F0B100FD2EC32F012006D6A080E6F6EC0
:1065E60092800E0EC16EBE0EC06E010EC26E340ECD
:1065F600016EF20EE82EFED7012EFCD71200100E09
:10660600E82EFED700D0C282C2B20CEF33F00EEFF6
:1066160033F007EF33F0C450036EC350016E03C06E
:1066260002F01200066A000E036E0650E1EC32F02C
:10663600056A000EC3EC32F0052A7F0E056426EFCC
:1066460033F028EF33F01CEF33F0062A070E06640A
:106656002FEF33F031EF33F016EF33F01200000E68
:10666600151A000E161A000E171A800E181A11C0E7
:1066760001F012C002F013C003F014C004F015C0FC
:1066860005F016C006F017C007F018C008F093EC26
:106696003CF001C011F002C012F003C013F004C0B8
:1066A60014F012000C6E09C003F00C50E1EC32F04D
:1066B60071EF33F00AC0F6FF0BC0F7FFF86A070E5A
:1066C600F76403D00800F55005D0F6CFD9FFF7CF11
:1066D600DAFFDF508AEC33F00A4A0B2A0AC0F6FFCB
:1066E6000BC0F7FFF86A070EF76403D00800F550F1
:1066F60005D0F6CFD9FFF7CFDAFFDF500009D8A4CF
:1067060087EF33F089EF33F05DEF33F01200076E59
:106716001F0E076491EF33F093EF33F09BEF33F0E6
:106726007E0E076499EF33F09BEF33F09DEF33F065
:10673600200E076E086A0750050DDD0EF324036E62
:106746007D0EF420046E08500326000E0422600E0F
:106756000324056EFF0E0420066E05C0F6FF06C074
:10676600F7FF0800F550C3EC32F0082A040E08645F
:10677600BFEF33F0C1EF33F09EEF33F0000EC3EC02
:1067860032F01200066A02BECDEF33F0CBEF33F0E3
:10679600D3EF33F0016C021ED8B0022A010E066E4A
:1067A60004BEDAEF33F0D8EF33F0DEEF33F0036CEC
:1067B600041ED8B0042A03500410D8B4E5EF33F011
:1067C600E7EF33F00BEF34F0010E056EEFEF33F029
:1067D600D89003360436052A04AEF4EF33F0F6EF0C
:1067E60033F0EBEF33F00350015C04500258D8A0AD
:1067F600FFEF33F001EF34F005EF34F00350015EA4
:106806000450025AD89004320332052EF6EF33F0C4
:106816000650D8B411EF34F013EF34F017EF34F01C
:10682600016C021ED8B0022A01C001F002C002F0BB
:106836001200030E086E080E076E770EE82EFED7BE
:10684600072EFCD7082EFAD70000AE0ED2EC32F097
:10685600D50ED2EC32F0800ED2EC32F0A80ED2EC8D
:1068660032F03F0ED2EC32F0D30ED2EC32F0000E04
:10687600D2EC32F0400ED2EC32F08D0ED2EC32F089
:10688600140ED2EC32F0200ED2EC32F0000ED2EC26
:1068960032F0A10ED2EC32F0C80ED2EC32F0DA0EA3
:1068A600D2EC32F0120ED2EC32F0810ED2EC32F093
:1068B600FF0ED2EC32F0D90ED2EC32F0F10ED2EC61
:1068C60032F0DB0ED2EC32F0400ED2EC32F0A40EF7
:1068D600D2EC32F0A60ED2EC32F0AF0ED2EC32F0A1
:1068E60015EC33F01200066A04BE7EEF34F07CEF3E
:1068F60034F084EF34F0036C041ED8B0042A010E81
:10690600066E02BE8BEF34F089EF34F091EF34F06F
:10691600016C021ED8B0022A010E061A086A000E81
:10692600076E03500410D8B49BEF34F09DEF34F09B
:10693600C5EF34F0010E056EA5EF34F0D89003369E
:106946000436052A04AEAAEF34F0ACEF34F0A1EF1A
:1069560034F0D890073608360350015C04500258CC
:10696600D8A0B8EF34F0BAEF34F0BFEF34F00350EC
:10697600015E0450025A0780D89004320332052E75
:10698600ACEF34F00650D8B4CBEF34F0CDEF34F0A2
:10699600D1EF34F0076C081ED8B0082A07C001F002
:1069A60008C002F01200000E446E000E456E000E86
:1069B600466E000E476E486A02EC33F001504426DC
:1069C60002504522000E4622000E4722060E366E63
:1069D600300EE82EFED7362EFCD700D0482A070EFA
:1069E6004864F8EF34F0FAEF34F0DFEF34F044C0E7
:1069F60036F045C037F046C038F047C039F0040ECF
:106A06000AEF35F0D8903932383237323632E82E3E
:106A160005EF35F036C042F037C043F042C001F012
:106A260043C002F0036A046A000EDFEC37F001C0CF
:106A360019F002C01AF003C01BF004C01CF0E60EE9
:106A46001D6E3F0E1E6E9C0E1F6E400E206E80EC5D
:106A56003AF019C03AF01AC03BF01BC03CF01CC01B
:106A66003DF03AC001F03BC002F03CC003F03DC02F
:106A760004F0000E056E000E066E200E076E410E27
:106A8600086EB9EC38F001C03EF002C03FF003C01A
:106A960040F004C041F03EC032F03FC033F040C089
:106AA60034F041C035F01200000E0114096E000EDC
:106AB60002140A6E800E03140B6E7F0E04140C6E05
:106AC60009500A100B100C10D8A46CEF35F06EEFBD
:106AD60035F076EF35F0000E016E000E026E000EF8
:106AE600036E000E046E000E0514096E000E0614E9
:106AF6000A6E800E07140B6E7F0E08140C6E09507A
:106B06000A100B100C10D8A48BEF35F08DEF35F072
:106B160095EF35F0000E056E000E066E000E076E40
:106B2600000E086E04AE9AEF35F09CEF35F0A5EF37
:106B360035F0016C021ED8B0022A031ED8B0032A13
:106B4600800E045608AEAAEF35F0ACEF35F0B5EF7F
:106B560035F0056C061ED8B0062A071ED8B0072ADF
:106B6600800E0856000E011A000E021A000E031AB5
:106B7600800E041A000E051A000E061A000E071AD9
:106B8600800E081A0550015C06500258075003583B
:106B960008500458D8B0D2EF35F0D4EF35F0D7EF1F
:106BA60035F0D890D8EF35F0D8801200343435342B
:106BB6003B6E3B50D8A4E2EF35F0E4EF35F0EEEF54
:106BC60035F0000E326E000E336E000E346E000E7F
:106BD600356E5BEF36F032C036F033C037F034C076
:106BE60038F035C039F0200EFEEF35F0D890393246
:106BF600383237323632E82EF9EF35F036503A6E03
:106C0600348EFF0E3216FF0E3316FF0E3416000EAC
:106C16003516960E3B5E3BBE15EF36F013EF36F09B
:106C26002BEF36F03B50800A970FD8B01DEF36F0A9
:106C36001FEF36F021EF36F0E4EF35F0D89035321D
:106C46003432333232323B3E21EF36F043EF36F008
:106C56001F0E3B6431EF36F033EF36F03BEF36F084
:106C6600E4EF35F0D89032363336343635363B06D7
:106C76003B50D8A441EF36F043EF36F035EF36F00F
:106C86003A50D8B449EF36F04BEF36F053EF36F0C2
:106C9600351E341E331E326C000E3322342235224A
:106CA60032C032F033C033F034C034F035C035F082
:106CB6001200720ED36ED3A463EF36F065EF36F092
:106CC6005EEF36F0070EB46EF0EC32F0AAEC32F05E
:106CD6001CEC34F00F0E096EB80E0A6E7F0E0B6EAA
:106CE600000E55EC33F00A0E096EF40E0A6E7F0E96
:106CF6000B6E020E55EC33F00A0E096EEC0E0A6EA0
:106D06007F0E0B6E060E55EC33F0D6EC34F032C027
:106D160057F033C058F034C059F035C05AF057C058
:106D26003CF058C03DF059C03EF05AC03FF04B0E03
:106D3600406E12EC37F02E0E096EC80E0A6E7F0EEC
:106D46000B6E020E55EC33F02E0E096E4B0E0A6ECC
:106D56000B6A020E55EC33F057C001F058C002F032
:106D660059C003F05AC004F0000E056E000E066E00
:106D7600700E076E410E086E57EC35F0D8B0C6EFB0
:106D860036F0C8EF36F0CEEF36F0D10E556E7F0EE8
:106D9600566EF1EF36F0000E016E000E026EF00E2A
:106DA600036E410E046E57C005F058C006F059C078
:106DB60007F05AC008F057EC35F0D8B0E5EF36F0DA
:106DC600E7EF36F0EDEF36F0E30E556E7F0E566EBA
:106DD600F1EF36F0DA0E556E7F0E566E340E096EF2
:106DE600C80E0A6E7F0E0B6E060E55EC33F0340E8F
:106DF600096E55C00AF056C00BF0060E55EC33F07E
:106E0600060E4A6E130E496EAE0EE82EFED7492EBA
:106E1600FCD74A2EFAD788EF36F0FEEF3FF0436AEA
:106E260040504324D96EDA6A200EDF6E432A090EDB
:106E3600436420EF37F022EF37F013EF37F03FBE11
:106E460029EF37F027EF37F031EF37F0000E3C6EC1
:106E5600000E3D6E000E3E6E000E3F6E000E016E81
:106E6600000E026E5C0E036E420E046E3CC005F010
:106E76003DC006F03EC007F03FC008F057EC35F0C5
:106E8600D8B048EF37F04AEF37F052EF37F0000E40
:106E96003C6E000E3D6E5C0E3E6E420E3F6E3CC07A
:106EA60032F03DC033F03EC034F03FC035F0D9EC8F
:106EB60035F03250426E000E1D6E000E1E6E200E14
:106EC6001F6E410E206E4250016E026A036A046A0A
:106ED600000EDFEC37F001C015F002C016F003C05B
:106EE60017F004C018F03CC011F03DC012F03EC0CF
:106EF60013F03FC014F032EC33F011C019F012C099
:106F06001AF013C01BF014C01CF080EC3AF019C044
:106F160032F01AC033F01BC034F01CC035F0D9EC87
:106F260035F03250416E4050D96EDA6A42C001F0F7
:106F3600026A046A0A0E036E76EC34F00150300FD2
:106F4600DF6E4050D96EDA6A010ED92642C001F0D2
:106F5600026A046A0A0E036EC5EC33F00150300F64
:106F6600DF6E4050D96EDA6A020ED9262E0EDF6E1B
:106F76004050D96EDA6A030ED9264150300FDF6EC3
:106F86004050D96EDA6A040ED926200EDF6E4050C4
:106F9600D96EDA6A050ED926430EDF6E4050D96ED9
:106FA600DA6A060ED926200EDF6E4050D96EDA6AEE
:106FB600070ED926DF6A1200096E0950D8B4E6EF2B
:106FC60037F0E8EF37F00AEF38F004BEEFEF37F0AE
:106FD600EDEF37F00AEF38F001C005F002C006F019
:106FE60003C007F004C008F0051E061E071E081E93
:106FF600052A000E06220722082205C00BF006C04D
:107006000CF007C00DF008C00EF012EF38F001C00A
:107016000BF002C00CF003C00DF004C00EF00150DE
:10702600021003100410D8A41BEF38F01DEF38F03F
:1070360027EF38F0000E016E000E026E000E036E92
:10704600000E046EB8EF38F0960E0A6E31EF38F087
:107056000A2AD8900E320D320C320B32000E0B1467
:10706600056E000E0C14066E000E0D14076EFE0E55
:107076000E14086E0550061007100810D8A446EF27
:1070860038F048EF38F02BEF38F056EF38F00A2A90
:10709600010E0B26000E0C220D220E22D8900E3267
:1070A6000D320C320B32000E0B14056E000E0C1452
:1070B600066E000E0D14076EFF0E0E14086E0550B8
:1070C600061007100810D8A46BEF38F06DEF38F0F3
:1070D6004AEF38F075EF38F00A06D8900B360C36C2
:1070E6000D360E360DBE7AEF38F07CEF38F084EFB1
:1070F60038F0020E0A6082EF38F084EF38F06FEF56
:1071060038F00AB089EF38F08BEF38F08CEF38F0B2
:107116000D9ED8900A320AC005F0066A076A086A08
:1071260005C008F0076A066A056A05500B12065084
:107136000C1207500D1208500E120950D8B4A6EFC3
:1071460038F0A8EF38F0B0EF38F004BEAFEF38F003
:10715600ADEF38F0B0EF38F00E8E0BC001F00CC07A
:1071660002F00DC003F00EC004F012000450800BB4
:10717600116E04500424186E03AEC4EF38F0C6EF47
:1071860038F0C7EF38F018801850D8B4CDEF38F083
:10719600CFEF38F0E3EF38F01828D8A4D5EF38F061
:1071A600D7EF38F0DFEF38F0000E016E000E026EFA
:1071B600000E036E000E046E038E046AEBEF38F0C9
:1071C600000E016E000E026E000E036E000E046EBF
:1071D6000850800B111A08500824196E07AEF6EFF6
:1071E60038F0F8EF38F0F9EF38F019801950D8B4C4
:1071F600FFEF38F001EF39F015EF39F01928D8A470
:1072060007EF39F009EF39F011EF39F0000E056E8E
:10721600000E066E000E076E000E086E078E086AD8
:107226001DEF39F0000E056E000E066E000E076E9D
:10723600000E086E0550061007100810D8A426EF99
:1072460039F028EF39F040EF39F0000E016E000EEC
:10725600026E000E036E000E046E800E03127F0E89
:1072660004121150041201C001F002C002F003C062
:1072760003F004C004F07FEF3AF01850D8A446EFAC
:1072860039F048EF39F052EF39F0000E016E000E7A
:10729600026E000E036E000E046E7FEF3AF0195078
:1072A60018C009F00A6A095E000E0A5A7F0E092400
:1072B600126E000E0A20136E01C00DF002C00EF011
:1072C60003C00FF004C010F0000E016E000E026E37
:1072D600000E036E000E046E000E146E000E156E88
:1072E600000E166E000E176E196AB2EF39F01950BD
:1072F600D8B480EF39F082EF39F099EF39F0D890B1
:107306000D360E360F361036D89001360236033655
:10731600043617AE91EF39F093EF39F094EF39F068
:107326000180D890143615361636173605500D5C82
:1073360006500E5807500F5808501058D8A0A6EF00
:1073460039F0A8EF39F0B1EF39F0178C05500D5E22
:1073560006500E5A07500F5A0850105A192A190E7D
:107366001964B8EF39F0BAEF39F07AEF39F00D5009
:107376000E100F101010D8B4C3EF39F0C5EF39F066
:10738600DDEF39F01480DDEF39F0D89001360236A2
:107396000336043617AED2EF39F0D4EF39F0D5EF15
:1073A60039F00180D890143615361636173612067F
:1073B600D8A0130603AEE2EF39F0E4EF39F0C8EFD8
:1073C60039F0196A17AEEAEF39F0ECEF39F010EF41
:1073D6003AF0FF0E1414096EFF0E15140A6EFF0E16
:1073E60016140B6E7F0E17140C6E09500A100B1034
:1073F6000C10D8B401EF3AF003EF3AF007EF3AF089
:10740600010E196E10EF3AF001A00CEF3AF00EEFF4
:107416003AF010EF3AF003EF3AF01950D8B416EFFD
:107426003AF018EF3AF03CEF3AF0010E0126000E62
:1074360002220322042204A023EF3AF025EF3AF0B9
:107446003CEF3AF001C009F002C00AF003C00BF0AD
:1074560004C00CF00C340C320B320A32093209C06B
:1074660001F00AC002F00BC003F00CC004F0124A8F
:10747600132A13BE47EF3AF0135008E11228D8A09A
:1074860047EF3AF049EF3AF054EF3AF0000E136E38
:107496001268000E016E000E026E000E036E000EE4
:1074A600046E13BE61EF3AF0135006E11204D8B031
:1074B6005FEF3AF061EF3AF06DEF3AF0136A000EC3
:1074C600126E000E016E000E026E000E036E000EAE
:1074D600046E116A12C018F018A074EF3AF076EF35
:1074E6003AF079EF3AF0038E7AEF3AF0039ED890AD
:1074F6001830046E34EF39F012001C50800B256EE4
:107506001C501C242B6E1BAE8BEF3AF08DEF3AF01D
:107516008EEF3AF02B802B50D8B494EF3AF096EFDA
:107526003AF0A9EF3AF02B28D8A49CEF3AF09EEF58
:107536003AF0A6EF3AF0000E196E000E1A6E000E23
:107546001B6E000E1C6E1B8EB1EF3AF0000E196E0C
:10755600000E1A6E000E1B6E000E1C6E2050800B65
:10756600251A205020242A6E1FAEBCEF3AF0BEEF3B
:107576003AF0BFEF3AF02A802A50D8B4C5EF3AF075
:10758600C7EF3AF0DAEF3AF02A28D8A4CDEF3AF06E
:10759600CFEF3AF0D7EF3AF0000E1D6E000E1E6EDA
:1075A600000E1F6E000E206E1F8EE2EF3AF0000EE8
:1075B6001D6E000E1E6E000E1F6E000E206E2A50EF
:1075C600D8B4E8EF3AF0EAEF3AF0F2EF3AF02B509F
:1075D600D8A4F0EF3AF0F2EF3AF0FCEF3AF0000EF2
:1075E600196E000E1A6E000E1B6E000E1C6E92EFC8
:1075F6003CF01F501902F3CF30F0F4CF31F0305089
:10760600266E276A286A296A31502C6E2D6A2E6AE0
:107616002F6A1E501A02F3CF30F0F4CF31F03050FB
:107626002626000E27222822292231502C26000E3B
:107636002D222E222F221D501B02F3CF30F0F4CF25
:1076460031F030502626000E2722282229223150DA
:107656002C26000E2D222E222F2228C029F027C0EC
:1076660028F026C027F0266A1D501A02F3CF30F004
:10767600F4CF31F03050262631502722000E282232
:10768600000E29221E501902F3CF30F0F4CF31F04C
:107696003050262631502722000E2822000E29229D
:1076A60028C029F027C028F026C027F0266A1D50DA
:1076B6001902F3CF30F0F4CF31F030502626315096
:1076C6002722000E2822000E29221F501A02F3CF6D
:1076D60030F0F4CF31F030502C2631502D22000EF0
:1076E6002E22000E2F221E501B02F3CF30F0F4CFB5
:1076F60031F030502C2631502D22000E2E22000E55
:107706002F221F501B02F3CF30F0F4CF31F0305050
:10771600216E3150226E236A246A23C024F022C0CF
:1077260023F021C022F0216A21502C2622502D223E
:1077360023502E2224502F2226C021F027C022F0CB
:1077460028C023F029C024F0190EAFEF3BF0D890E3
:107756002432233222322132E82EAAEF3BF0215086
:107766002C2622502D2223502E2224502F2228C090
:1077760029F027C028F026C027F0266A2A502BC0F9
:1077860021F0226A2126000E2222820E2124306E4A
:10779600FF0E2220316EE5EF3BF0D8902C362D36C9
:1077A6002E362F3629AEDAEF3BF0DCEF3BF0DDEF7D
:1077B6003BF02C80D89026362736283629363006D8
:1077C600D8A031062EAEEAEF3BF0ECEF3BF0D0EF5F
:1077D6003BF02A6A29AEF2EF3BF0F4EF3BF018EFEC
:1077E6003CF0FF0E2614216EFF0E2714226EFF0EAC
:1077F6002814236E7F0E2914246E21502210231084
:107806002410D8B409EF3CF00BEF3CF00FEF3CF03E
:10781600010E2A6E18EF3CF02CA014EF3CF016EF88
:107826003CF018EF3CF00BEF3CF02A50D8B41EEFBA
:107836003CF020EF3CF044EF3CF0010E2C26000E0D
:107846002D222E222F222FA02BEF3CF02DEF3CF0E5
:1078560044EF3CF02CC021F02DC022F02EC023F0C6
:107866002FC024F02434243223322232213221C084
:107876002CF022C02DF023C02EF024C02FF0304A69
:10788600312A31BE4FEF3CF0315008E13028D8A004
:107896004FEF3CF051EF3CF05BEF3CF0000E2C6EEE
:1078A600000E2D6E800E2E6E7F0E2F6E88EF3CF032
:1078B60031BE68EF3CF0315006E13004D8B066EFD7
:1078C6003CF068EF3CF073EF3CF0000E2C6E000EBF
:1078D6002D6E000E2E6E000E2F6E256A88EF3CF080
:1078E60030C02BF0FF0E2C16FF0E2D167F0E2E1617
:1078F600000E2F162BA082EF3CF084EF3CF085EFB4
:107906003CF02E8ED8902B302F6E25502F122CC087
:1079160019F02DC01AF02EC01BF02FC01CF012005B
:107926000450800B0D6E045004240F6E03AE9EEFC0
:107936003CF0A0EF3CF0A1EF3CF00F800F50D8B424
:10794600A7EF3CF0A9EF3CF0BDEF3CF00F28D8A420
:10795600AFEF3CF0B1EF3CF0B9EF3CF0000E016E3A
:10796600000E026E000E036E000E046E038E046A95
:10797600C5EF3CF0000E016E000E026E000E036EA7
:10798600000E046E0850800B0E6E0D500E18D8B403
:10799600CFEF3CF0D1EF3CF0D2EF3CF00D8C08502D
:1079A60008240E6E07AEDAEF3CF0DCEF3CF0DDEFBC
:1079B6003CF00E800E50D8B4E3EF3CF0E5EF3CF01F
:1079C600F9EF3CF00E28D8A4EBEF3CF0EDEF3CF0DD
:1079D600F5EF3CF0000E056E000E066E000E076E0B
:1079E600000E086E078E086A01EF3DF0000E056E68
:1079F600000E066E000E076E000E086E0F500E5C2F
:107A0600D8B008EF3DF00AEF3DF031EF3DF00DAC98
:107A16000FEF3DF011EF3DF013EF3DF0800E0D1A24
:107A26000FC010F00EC00FF010C00EF001C010F025
:107A360005C001F010C005F002C010F006C002F04B
:107A460010C006F003C010F007C003F010C007F026
:107A560004C010F008C004F010C008F0106A0F50FF
:107A66000EC009F00A6A095E000E0A5A0ABE45EF00
:107A76003DF00A5009E11A0E095CD8A045EF3DF029
:107A860047EF3DF07EEF3DF0015002100310041069
:107A9600D8A450EF3DF053EF3DF0010E54EF3DF00A
:107AA600000E106E000E016E000E026E000E036ECA
:107AB600000E046E0EC00FF087EF3DF010A066EFCB
:107AC6003DF068EF3DF06EEF3DF0D89010300109C3
:107AD600106E70EF3DF0D890103201A075EF3DF0BA
:107AE60077EF3DF078EF3DF0108E04340432033228
:107AF600023201320F2A0E500F5CD8A085EF3DF0FE
:107B060087EF3DF061EF3DF00DBC8CEF3DF08EEF61
:107B16003DF0CEEF3DF00F50D8A494EF3DF096EF38
:107B26003DF0A0EF3DF0000E016E000E026E000E5D
:107B3600036E000E046EEDEF3EF005500126065072
:107B46000222075003220850042204A0ADEF3DF0A4
:107B5600AFEF3DF05BEF3EF010A0B4EF3DF0B6EFB7
:107B66003DF0BCEF3DF0D89010300109106EBEEF2D
:107B76003DF0D890103201A0C3EF3DF0C5EF3DF0C7
:107B8600C6EF3DF0108E0434043203320232013265
:107B96000F2A5BEF3EF00550015C06500258075075
:107BA60003580450800A096E0850800A0958D8B054
:107BB600DFEF3DF0E1EF3DF00CEF3EF00150055CEC
:107BC600096E025006580A6E035007580B6E045091
:107BD60008580C6EFF0E0924016EFF0E0A20026E75
:107BE600FF0E0B20036EFF0E0C20046E800E0D1A86
:107BF600106C1050D8A402EF3EF004EF3EF014EFE4
:107C06003EF0010E0126000E02220322042214EF8A
:107C16003EF00550015E0650025A0750035A0850BE
:107C2600045A0150021003100410D8A41DEF3EF0B0
:107C36001FEF3EF054EF3EF01050D8A425EF3EF073
:107C460027EF3EF054EF3EF0000E016E000E026E7E
:107C5600000E036E000E046EEDEF3EF0D890013676
:107C660002360336043610AE3BEF3EF03DEF3EF0F3
:107C76003EEF3EF0018010A043EF3EF045EF3EF0B0
:107C860049EF3EF0D88010364BEF3EF0D8901036D4
:107C96000F50D8B451EF3EF053EF3EF054EF3EF0A4
:107CA6000F0603AE59EF3EF05BEF3EF031EF3EF0CC
:107CB6000E6A10AE61EF3EF063EF3EF07BEF3EF0F2
:107CC60010C009F07F0E0916D8B46CEF3EF06EEFC7
:107CD6003EF072EF3EF0010E0E6E7BEF3EF001A01D
:107CE60077EF3EF079EF3EF07BEF3EF06EEF3EF041
:107CF6000E50D8B481EF3EF083EF3EF0AEEF3EF08B
:107D0600010E0126000E02220322042204A08EEF99
:107D16003EF090EF3EF0AEEF3EF001C009F002C03B
:107D26000AF003C00BF004C00CF00C340C320B321A
:107D36000A32093209C001F00AC002F00BC003F092
:107D46000CC004F00F28D8B4ABEF3EF0ADEF3EF018
:107D5600AEEF3EF00F2A0F28D8B4B4EF3EF0B6EFE0
:107D66003EF0BEEF3EF00F50D8A4BCEF3EF0BEEFA3
:107D76003EF0CFEF3EF0000E016E000E026E000EDA
:107D8600036E000E046E0F50D8A4CCEF3EF0CEEF7B
:107D96003EF0CFEF3EF00D6A0FA0D4EF3EF0D6EFE7
:107DA6003EF0D9EF3EF0038EDAEF3EF0039ED89018
:107DB6000F30046E0DAEE2EF3EF0E4EF3EF0E5EF7D
:107DC6003EF0048E01C001F002C002F003C003F0D1
:107DD60004C004F0120000000000000000005F0074
:107DE600000007000700147F147F14242A7F2A123C
:107DF600231308646236495522500005030000002B
:107E06001C2241000041221C00082A1C2A080808DE
:107E16003E080800503000000808080808006060A6
:107E2600000020100804023E5149453E00427F40B2
:107E36000042615149462141454B311814127F10C9
:107E460027454545393C4A494930017109050336FC
:107E560049494936064949291E003636000000566A
:107E6600360000000814224114141414144122147C
:107E760008000201510906324979413E7E1111116D
:107E86007E7F494949363E414141227F4141221C7C
:107E96007F494949417F090909013E4149497A7F9C
:107EA6000808087F00417F41002040413F017F08CC
:107EB6001422417F404040407F020C027F7F04082D
:107EC600107F3E4141413E7F090909063E4151214D
:107ED6005E7F09192946464949493101017F010159
:107EE6003F4040403F1F2040201F3F4038403F63F7
:107EF6001408146307087008076151494543007F59
:107F060041410002040810200041417F00040201A3
:107F160002044040404040000102040020545454F2
:107F2600787F484444383844444420384444487FA1
:107F36003854545418087E0901020C5252523E7F9E
:107F46000804047800447D40002040443D007F1032
:107F560028440000417F40007C041804787C080413
:107F6600047838444444387C14141408081414184B
:107F76007C7C080404084854545420043F444020A0
:107F86003C4040207C1C2040201C3C4030403C446F
:107F9600281028440C5050503C4464544C4400086B
:107FA60036410000007F0000004136080008082A1C
:107FB6001C082A20494E5645524E414445524F20F0
:107FC6002A00202020202020202000202046524960
:107FD6004F202000204E4F524D414C200020204380
:107FE600414C4F52200045737461646F3A005465EA
:057FF6006D703A00006F
:047FFC0093EF32F0DD
:020000040030CA
:08000000000B181EFF8181FFB7
:00000001FF
