:04000000FEEF3FF0E0
:107B3A00000EF86E000138EF3EF0C580C5B0A8EF20
:107B4A003DF0AAEF3DF0A3EF3DF01200C584C5B4A5
:107B5A00B1EF3DF0B3EF3DF0ACEF3DF01200938290
:107B6A009380280EC66EC56A130EC86E800EC76E45
:107B7A009E961200016E9E9601C0C9FF9EA6C8EF8E
:107B8A003DF0CAEF3DF0C3EF3DF09E96C55012009E
:107B9A00026EA2EC3DF0780EBFEC3DF0400EBFEC59
:107BAA003DF00250BFEC3DF0ABEC3DF01200026E2E
:107BBA00A2EC3DF0780EBFEC3DF0000EBFEC3DF0BC
:107BCA000250BFEC3DF0ABEC3DF01200046E0450E5
:107BDA00B00FDCEC3DF003500F0BDCEC3DF003384A
:107BEA000F0B100FDCEC3DF01200066A000E036E5C
:107BFA000650EBEC3DF0056A000ECDEC3DF0052A8F
:107C0A007F0E05640BEF3EF00DEF3EF001EF3EF004
:107C1A00062A070E066414EF3EF016EF3EF0FBEF5D
:107C2A003DF012000C6E09C003F00C50EBEC3DF075
:107C3A0029EF3EF00AC0F6FF0BC0F7FF0800F55027
:107C4A0068EC3EF00A4A0B2A0AC0F6FF0BC0F7FF9F
:107C5A000800F5500009D8A435EF3EF037EF3EF0A2
:107C6A001FEF3EF01200720ED36ED3A43FEF3EF028
:107C7A0041EF3EF03AEF3EF00F0EC16E070EB46EC2
:107C8A00B4EC3DF0A3EC3EF00A0E096EE30E0A6E68
:107C9A007F0E0B6E000E17EC3EF00A0E096EEF0E09
:107CAA000A6E7F0E0B6E020E17EC3EF00A0E096E7C
:107CBA00D60E0A6E7F0E0B6E040E17EC3EF064EFC2
:107CCA003EF0FEEF3FF0076E1F0E07646FEF3EF0C7
:107CDA0071EF3EF079EF3EF07E0E076477EF3EF0EB
:107CEA0079EF3EF07BEF3EF0200E076E086A0750F0
:107CFA00050DFB0EF324036E7D0EF420046E08506E
:107D0A000326000E0422600E0324056EFF0E0420D3
:107D1A00066E05C0F6FF06C0F7FF0800F550CDEC69
:107D2A003DF0082A040E08649DEF3EF09FEF3EF0F6
:107D3A007CEF3EF0000ECDEC3DF01200030E086E13
:107D4A00080E076E770EE82EFED7072EFCD7082EF0
:107D5A00FAD70000AE0EDCEC3DF0D50EDCEC3DF0BF
:107D6A00800EDCEC3DF0A80EDCEC3DF03F0EDCECC6
:107D7A003DF0D30EDCEC3DF0000EDCEC3DF0400EA5
:107D8A00DCEC3DF08D0EDCEC3DF0140EDCEC3DF04D
:107D9A00200EDCEC3DF0000EDCEC3DF0A10EDCEC3C
:107DAA003DF0C80EDCEC3DF0DA0EDCEC3DF0120ED4
:107DBA00DCEC3DF0810EDCEC3DF0FF0EDCEC3DF03E
:107DCA00D90EDCEC3DF0F10EDCEC3DF0DB0EDCEC28
:107DDA003DF0400EDCEC3DF0A40EDCEC3DF0A60ECE
:107DEA00DCEC3DF0AF0EDCEC3DF0FAEC3DF01200BD
:107DFA0000000000000000005F000000070007000C
:107E0A00147F147F14242A7F2A12231308646236EB
:107E1A00495522500005030000001C224100004180
:107E2A00221C00082A1C2A0808083E0808005030AC
:107E3A000000080808080800606000002010080414
:107E4A00023E5149453E00427F4000426151494647
:107E5A002141454B311814127F1027454545393CBD
:107E6A004A494930017109050336494949360649E3
:107E7A0049291E0036360000005636000000081454
:107E8A002241141414141441221408000201510945
:107E9A0006324979413E7E1111117E7F49494936A0
:107EAA003E414141227F4141221C7F494949417F4C
:107EBA00090909013E4149497A7F0808087F0041BA
:107ECA007F41002040413F017F081422417F40400A
:107EDA0040407F020C027F7F0408107F3E414141EF
:107EEA003E7F090909063E4151215E7F091929464B
:107EFA00464949493101017F01013F4040403F1F46
:107F0A002040201F3F4038403F631408146307088D
:107F1A007008076151494543007F41410002040846
:107F2A0010200041417F0004020102044040404009
:107F3A0040000102040020545454787F48444438D5
:107F4A003844444420384444487F38545454180828
:107F5A007E0901020C5252523E7F08040478004402
:107F6A007D40002040443D007F1028440000417FAE
:107F7A0040007C041804787C08040478384444449B
:107F8A00387C14141408081414187C7C0804040897
:107F9A004854545420043F4440203C4040207C1C18
:107FAA002040201C3C4030403C44281028440C50BF
:107FBA0050503C4464544C44000836410000007F51
:107FCA000000004136080008082A1C0853696E2080
:107FDA006372697374616C2100486F6C61204D751E
:107FEA006E646F21005049433138463435353000CC
:017FFA000086
:047FFC009DEF3DF0C8
:020000040030CA
:08000000000B181EFF8181FFB7
:00000001FF
