:04000000FEEF3FF0E0
:10232E00C580C5B09DEF11F09FEF11F098EF11F041
:10233E001200C584C5B4A6EF11F0A8EF11F0A1EFFD
:10234E0011F0120093829380280EC66EC56A130E8A
:10235E00C86E800EC76E9E96120000EED6F01B0E53
:10236E00EE6AE806FDE1000EF86E000163EF20F064
:10237E00016E9E9601C0C9FF9EA6C8EF11F0CAEF6E
:10238E0011F0C3EF11F09E96C5501200026E97EC3D
:10239E0011F0780EBFEC11F0400EBFEC11F00250B0
:1023AE00BFEC11F0A0EC11F01200026E97EC11F0E0
:1023BE00780EBFEC11F0000EBFEC11F00250BFEC26
:1023CE0011F0A0EC11F01200046E0450B00FDCEC12
:1023DE0011F003500F0BDCEC11F003380F0B100F44
:1023EE00DCEC11F012006D6A080E6F6E92800E0E0C
:1023FE00C16EBE0EC06E010EC26E340E016EF20EB6
:10240E00E82EFED7012EFCD71200036E97EC11F0CA
:10241E00460EBFEC11F00350BFEC11F0A0EC11F022
:10242E000D0E026EFC0EE82EFED7022EFCD7120009
:10243E00100EE82EFED700D0C282C2B229EF12F0E3
:10244E002BEF12F024EF12F0C450036EC350016E46
:10245E0003C002F012000A6E0A5010EC13F0086E60
:10246E000A2810EC13F0096E085009C006F0076A2E
:10247E0006C007F0066A0610046E0750056E1200BD
:10248E000A6E0A5010EC13F0086E0A2810EC13F0C6
:10249E00096E085009C006F0076A06C007F0066A02
:1024AE000610046E0750056E1200046E97EC11F0C4
:1024BE00EC0EBFEC11F00450BFEC11F00250BFEC6B
:1024CE0011F0A0EC11F00D0E036EFC0EE82EFED7EF
:1024DE00032EFCD712000150021003100410D8B4C2
:1024EE007BEF12F07DEF12F085EF12F0000E011A65
:1024FE00000E021A000E031A800E041A01C001F01B
:10250E0002C002F003C003F004C004F01200066A19
:10251E00000E036E0650EBEC11F0056A000ECDECCA
:10252E0011F0052A7F0E05649FEF12F0A1EF12F055
:10253E0095EF12F0062A070E0664A8EF12F0AAEF26
:10254E0012F08FEF12F0120092820D0EC16EBE0EBF
:10255E00C06E050EC26E020E026E040E016EBA0E33
:10256E00E82EFED7012EFCD7022EFAD700D01F0E72
:10257E00026E710E016E1E0EE82EFED7012EFCD7D6
:10258E00022EFAD700D01200020E056E040E046E53
:10259E00BA0EE82EFED7042EFCD7052EFAD700D0A1
:1025AE00010E0CEC12F0070E0CEC12F0100E0CECEF
:1025BE0012F0030E056E080E046E770EE82EFED78F
:1025CE00042EFCD7052EFAD700001200000E201A9A
:1025DE00000E211A000E221A800E231A1CC001F0C2
:1025EE001DC002F01EC003F01FC004F020C005F095
:1025FE0021C006F022C007F023C008F07AEC27F0C5
:10260E0001C01CF002C01DF003C01EF004C01FF07C
:10261E001200026E97EC11F0EC0EBFEC11F00250AE
:10262E00BFEC11F0A0EC11F0210EE82EFED7000049
:10263E0097EC11F0ED0EBFEC11F0C586C7A02AEF96
:10264E0013F02CEF13F025EF13F0C9CF03F0C58A6A
:10265E00C588C5B835EF13F037EF13F030EF13F030
:10266E00A0EC11F00350120003500410D8B442EF46
:10267E0013F044EF13F068EF13F0010E056E4CEFFC
:10268E0013F0D89003360436052A04AE51EF13F03A
:10269E0053EF13F048EF13F00350015C045002584F
:1026AE00D8A05CEF13F05EEF13F062EF13F003505F
:1026BE00015E0450025AD89004320332052E53EFB5
:1026CE0013F001C001F002C002F01200000E096EFC
:1026DE00000E0A6E000E0B6E000E0C6E01A07AEF4D
:1026EE0013F07CEF13F084EF13F00550092606501B
:1026FE000A2207500B2208500C22D89005360636B7
:10270E0007360836D89004320332023201320150B5
:10271E00021003100410D8A497EF13F099EF13F0E2
:10272E0075EF13F009C001F00AC002F00BC003F000
:10273E000CC004F012000C6E09C003F00C50EBEC50
:10274E0011F0BEEF13F00AC0F6FF0BC0F7FFF86AE8
:10275E00070EF76403D00800F55005D0F6CFD9FF69
:10276E00F7CFDAFFDF5048EC14F00A4A0B2A0AC002
:10277E00F6FF0BC0F7FFF86A070EF76403D00800E8
:10278E00F55005D0F6CFD9FFF7CFDAFFDF500009AD
:10279E00D8A4D4EF13F0D6EF13F0AAEF13F0120073
:1027AE0097EC11F0470EBFEC11F0C586C7A0E2EF13
:1027BE0013F0E4EF13F0DDEF13F0C9CF08F0C59A74
:1027CE00C588C5B8EDEF13F0EFEF13F0E8EF13F097
:1027DE00C586C7A0F5EF13F0F7EF13F0F0EF13F087
:1027EE00C9CF09F0C58AC588C5B800EF14F002EF4D
:1027FE0014F0FBEF13F0A0EC11F00850046E09502A
:10280E00066E04C007F006C002F007C003F0120007
:10281E000B6A000E0A6E08500910D8B419EF14F0A6
:10282E001BEF14F043EF14F0010E0C6E23EF14F0B7
:10283E00D890083609360C2A09AE28EF14F02AEF84
:10284E0014F01FEF14F0D8900A360B360850065CC1
:10285E0009500758D8A036EF14F038EF14F03DEFBA
:10286E0014F00850065E0950075A0A80D8900932B3
:10287E0008320C2E2AEF14F00AC006F00BC007F037
:10288E001200076E1F0E07644FEF14F051EF14F095
:10289E0059EF14F07E0E076457EF14F059EF14F051
:1028AE005BEF14F0200E076E086A0750050D810EBF
:1028BE00F324036E7D0EF420046E08500326000EE2
:1028CE000422600E0324056EFF0E0420066E05C062
:1028DE00F6FF06C0F7FF0800F550CDEC11F0082A00
:1028EE00040E08647DEF14F07FEF14F05CEF14F02B
:1028FE00000ECDEC11F01200020E126E040E116ECF
:10290E00BA0EE82EFED7112EFCD7122EFAD700D013
:10291E00D00E10EC13F0136E600E1318D8B49AEF9D
:10292E0014F09CEF14F09FEF14F0000ECEEF14F0A5
:10293E00B60E026EE00E5CEC12F0020E126E040E7B
:10294E00116EBA0EE82EFED7112EFCD7122EFAD724
:10295E0000D08BEC16F0010E026EF20E5CEC12F053
:10296E00230E026EF40E5CEC12F0A00E026EF50E4B
:10297E005CEC12F0030E126E080E116E770EE82E3E
:10298E00FED7112EFCD7122EFAD70000010E120020
:10299E00000E096E000E0A6E000E0B6E000E0C6E0F
:1029AE000550061007100810D8B4E0EF14F0E2EF4F
:1029BE0014F018EF15F0010E0D6EECEF14F0D89028
:1029CE0005360636073608360D2A08AEF1EF14F036
:1029DE00F3EF14F0E6EF14F0D89009360A360B3602
:1029EE000C360550015C065002580750035808502B
:1029FE000458D8A005EF15F007EF15F010EF15F0FD
:102A0E000550015E0650025A0750035A0850045AE8
:102A1E000980D89008320732063205320D2EF3EFB8
:102A2E0014F009C001F00AC002F00BC003F00CC094
:102A3E0004F01200066A02BE29EF15F027EF15F01A
:102A4E002FEF15F0016C021ED8B0022A010E066E91
:102A5E0004BE36EF15F034EF15F03AEF15F0036CB7
:102A6E00041ED8B0042A03500410D8B441EF15F058
:102A7E0043EF15F067EF15F0010E056E4BEF15F0F5
:102A8E00D89003360436052A04AE50EF15F052EFF7
:102A9E0015F047EF15F00350015C04500258D8A012
:102AAE005BEF15F05DEF15F061EF15F00350015E71
:102ABE000450025AD89004320332052E52EF15F00C
:102ACE000650D8B46DEF15F06FEF15F073EF15F0EB
:102ADE00016C021ED8B0022A01C001F002C002F041
:102AEE001200000E226E000E236E000E246E000EDB
:102AFE00256E050EC26E100EE82EFED700D0266A89
:102B0E00C282C2B28DEF15F08FEF15F088EF15F07F
:102B1E00C450216EC350206E2050222621502322F5
:102B2E00000E2422000E25220D0E206EFC0EE82E25
:102B3E00FED7202EFCD7262A090E2664A9EF15F003
:102B4E00ABEF15F087EF15F00A0E056E000E066E50
:102B5E00000E076E000E086E22C001F023C002F0B8
:102B6E0024C003F025C004F0CFEC14F001C00EF029
:102B7E0002C00FF003C010F004C011F0000E55ECAF
:102B8E001CF00EC01CF00FC01DF010C01EF011C0C6
:102B9E001FF01200030E086E080E076E770EE82E59
:102BAE00FED7072EFCD7082EFAD70000AE0EDCECAF
:102BBE0011F0D50EDCEC11F0800EDCEC11F0A80E4D
:102BCE00DCEC11F03F0EDCEC11F0D30EDCEC11F06E
:102BDE00000EDCEC11F0400EDCEC11F08D0EDCEC96
:102BEE0011F0140EDCEC11F0200EDCEC11F0000EE6
:102BFE00DCEC11F0A10EDCEC11F0C80EDCEC11F0E7
:102C0E00DA0EDCEC11F0120EDCEC11F0810EDCECC5
:102C1E0011F0FF0EDCEC11F0D90EDCEC11F0F10E20
:102C2E00DCEC11F0DB0EDCEC11F0400EDCEC11F004
:102C3E00A40EDCEC11F0A60EDCEC11F0AF0EDCEC09
:102C4E0011F08EEC12F01200066A04BE33EF16F08D
:102C5E0031EF16F039EF16F0036C041ED8B0042ACB
:102C6E00010E066E02BE40EF16F03EEF16F046EF76
:102C7E0016F0016C021ED8B0022A010E061A086A5E
:102C8E00000E076E03500410D8B450EF16F052EF3A
:102C9E0016F07AEF16F0010E056E5AEF16F0D89078
:102CAE0003360436052A04AE5FEF16F061EF16F018
:102CBE0056EF16F0D890073608360350015C0450D4
:102CCE000258D8A06DEF16F06FEF16F074EF16F0F5
:102CDE000350015E0450025A0780D890043203322A
:102CEE00052E61EF16F00650D8B480EF16F082EF85
:102CFE0016F086EF16F0076C081ED8B0082A07C02B
:102D0E0001F008C002F01200880E47EC12F004C069
:102D1E00E6F005C0E7F08A0E32EC12F004C0E4F0E3
:102D2E0005C0E5F08C0E32EC12F004C0E2F005C0E6
:102D3E00E3F0A10E10EC13F00001F06FE10E32EC97
:102D4E0012F004C0E0F005C0E1F0E30E10EC13F059
:102D5E000001EF6FE40E10EC13F00E6EE50E10ECAA
:102D6E0013F0106EE60E10EC13F00F6E0E500B6E8D
:102D7E000C6A0B3A0C3AF00E0C160B500F0B0C1291
:102D8E00F00E0B1610C00DF00F0E0D160D500B1091
:102D9E000001DE6F0C50DF6F0F500B6E0C6A0B3A9A
:102DAE000C3AF00E0C160B500F0B0C12F00E0B16FD
:102DBE0010C00DF00D3A0F0E0D160D500B10DC6FEE
:102DCE000C50DD6FE70E10EC13F00001EE6F1200E9
:102DDE004A6A49504A24D96EDA6A200EDF6E4A2AB0
:102DEE00070E4A64FDEF16F0FFEF16F0F0EF16F047
:102DFE004950D96EDA6A47C006F048C007F0030E94
:102E0E00096EE80E086E0FEC14F00650300FDF6EF0
:102E1E004950D96EDA6A010ED926030E046EE80EF9
:102E2E00036E47C001F048C002F03BEC13F001C046
:102E3E0006F002C007F0096A640E086E0FEC14F07B
:102E4E000650300FDF6E4950D96EDA6A020ED9265F
:102E5E00046A640E036E47C001F048C002F03BECFA
:102E6E0013F001C006F002C007F0096A0A0E086EE0
:102E7E000FEC14F00650300FDF6E4950D96EDA6A3F
:102E8E00030ED92647C001F048C002F0046A0A0EAC
:102E9E00036E3BEC13F00150300FDF6E4950D96ECC
:102EAE00DA6A040ED926200EDF6E4950D96EDA6A20
:102EBE00050ED926DF6A1200000E24142C6E000EA9
:102ECE0025142D6E800E26142E6E7F0E27142F6E57
:102EDE002C502D102E102F10D8A478EF17F07AEF5B
:102EEE0017F082EF17F0000E246E000E256E000E06
:102EFE00266E000E276E000E28142C6E000E29145E
:102F0E002D6E800E2A142E6E7F0E2B142F6E2C50CB
:102F1E002D102E102F10D8A497EF17F099EF17F051
:102F2E00A1EF17F0000E286E000E296E000E2A6E0D
:102F3E00000E2B6E27AEA6EF17F0A8EF17F0B1EF2D
:102F4E0017F0246C251ED8B0252A261ED8B0262AA6
:102F5E00800E27562BAEB6EF17F0B8EF17F0C1EF75
:102F6E0017F0286C291ED8B0292A2A1ED8B02A2A72
:102F7E00800E2B56000E241A000E251A000E261A4D
:102F8E00800E271A000E281A000E291A000E2A1A71
:102F9E00800E2B1A2850245C295025582A5026586A
:102FAE002B502758D8B0DEEF17F0E0EF17F0E3EF15
:102FBE0017F0D890E4EF17F0D880120056C024F026
:102FCE0057C025F058C026F059C027F0000E286EC5
:102FDE00400E296E9C0E2A6E400E2B6E67EC25F06D
:102FEE0024C064F025C065F026C066F027C067F0E7
:102FFE00000E246E000E256E000E266E000E276E3D
:10300E0064C028F065C029F066C02AF067C02BF0B6
:10301E0063EC17F0D8A016EF18F018EF18F021EFA8
:10302E0018F06F0E0001646F120E656F830E666FDF
:10303E003A0E676F000E286E000E296E800E2A6EF5
:10304E003F0E2B6E64C020F065C021F066C022F0EA
:10305E0067C023F0000E1C6E400E1D6E9C0E1E6E81
:10306E00450E1F6EEDEC12F01CC024F01DC025F0B5
:10307E001EC026F01FC027F067EC25F024C03DF0DF
:10308E0025C03EF026C03FF027C040F064C041F09E
:10309E0065C042F066C043F067C044F0B2EC21F068
:1030AE003DC060F03EC061F03FC062F040C063F0D2
:1030BE0060C056F061C057F062C058F063C059F05E
:1030CE0012003F344034466E4650D8A471EF18F0CB
:1030DE0073EF18F07DEF18F0000E3D6E000E3E6E91
:1030EE00000E3F6E000E406EEAEF18F03DC041F04C
:1030FE003EC042F03FC043F040C044F0200E8DEF82
:10310E0018F0D8904432433242324132E82E88EFE2
:10311E0018F04150456E3F8EFF0E3D16FF0E3E16C7
:10312E00FF0E3F16000E4016960E465E46BEA4EFEC
:10313E0018F0A2EF18F0BAEF18F04650800A970F69
:10314E00D8B0ACEF18F0AEEF18F0B0EF18F073EF98
:10315E0018F0D89040323F323E323D32463EB0EF0C
:10316E0018F0D2EF18F01F0E4664C0EF18F0C2EF41
:10317E0018F0CAEF18F073EF18F0D8903D363E36BF
:10318E003F36403646064650D8A4D0EF18F0D2EF60
:10319E0018F0C4EF18F04550D8B4D8EF18F0DAEFA5
:1031AE0018F0E2EF18F0401E3F1E3E1E3D6C000E62
:1031BE003E223F2240223DC03DF03EC03EF03FC089
:1031CE003FF040C040F01200000E00016A6F000E8A
:1031DE006B6F000E6C6F000E6D6F6E6B1FEC12F04E
:1031EE00015000016A2702506B23000E6C23000E63
:1031FE006D23060E5A6E300EE82EFED75A2EFCD7D1
:10320E0000D000016E2B070E6E6510EF19F012EF55
:10321E0019F0F5EF18F06AC05AF06BC05BF06CC095
:10322E005CF06DC05DF0040E22EF19F0D8905D32A7
:10323E005C325B325A32E82E1DEF19F05AC068F03C
:10324E005BC069F068C00EF069C00FF0106A116AB9
:10325E00000E55EC1CF00EC024F00FC025F010C06F
:10326E0026F011C027F0E60E286E3F0E296E9C0E3A
:10327E002A6E400E2B6E67EC25F024C060F025C040
:10328E0061F026C062F027C063F060C03DF061C0FF
:10329E003EF062C03FF063C040F0000E416E000E83
:1032AE00426E200E436E410E446EB2EC21F03DC0D4
:1032BE0064F03EC065F03FC066F040C067F064C089
:1032CE0056F065C057F066C058F067C059F012004E
:1032DE000001616B000E606F626BD7EC13F0025051
:1032EE000001602703506123030E5B6E080E5A6EB9
:1032FE00770EE82EFED75A2EFCD75B2EFAD700009B
:10330E000001622B030E62658FEF19F091EF19F039
:10331E0074EF19F060C05AF061C05BF0D8905B3268
:10332E005A32D8905B325A325AC00EF05BC00FF050
:10333E00106A116A000E55EC1CF00EC03DF00FC065
:10334E003EF010C03FF011C040F09A0E416E990E43
:10335E00426E990E436E3F0E446EB2EC21F03DC0AC
:10336E0063F03EC064F03FC065F040C066F00001FF
:10337E0066BFC6EF19F0C4EF19F0CEEF19F0000ECC
:10338E00636F000E646F000E656F000E666F000EA9
:10339E00246EFF0E256E7F0E266E470E276E63C0BF
:1033AE0028F064C029F065C02AF066C02BF063ECEB
:1033BE0017F0D8B0E5EF19F0E7EF19F0F0EF19F0CC
:1033CE00000E0001636FFF0E646F7F0E656F470E78
:1033DE00666F63C056F064C057F065C058F066C0A3
:1033EE0059F012004E6A4B504E24D96EDA6A200EF6
:1033FE00DF6E4E2A090E4E6407EF1AF009EF1AF02F
:10340E00FAEF19F04ABE10EF1AF00EEF1AF018EF9D
:10341E001AF0000E476E000E486E000E496E000E3A
:10342E004A6E000E246E000E256EC80E266E420EDB
:10343E00276E47C028F048C029F049C02AF04AC07C
:10344E002BF063EC17F0D8B02FEF1AF031EF1AF023
:10345E0039EF1AF0000E476E000E486EC80E496E18
:10346E00420E4A6E47C03DF048C03EF049C03FF0A4
:10347E004AC040F068EC18F03D504D6E000E286EBC
:10348E00000E296E200E2A6E410E2B6E4D500E6EC2
:10349E000F6A106A116A000E55EC1CF00EC020F077
:1034AE000FC021F010C022F011C023F047C01CF055
:1034BE0048C01DF049C01EF04AC01FF0EDEC12F0DE
:1034CE001CC024F01DC025F01EC026F01FC027F022
:1034DE0067EC25F024C03DF025C03EF026C03FF03D
:1034EE0027C040F068EC18F03D504C6E4B50D96E32
:1034FE00DA6A4DC001F0026A046A0A0E036E2BEC02
:10350E0016F00150300FDF6E4B50D96EDA6A010E95
:10351E00D9264DC001F0026A046A0A0E036E21EC30
:10352E0015F00150300FDF6E4B50D96EDA6A020E75
:10353E00D9262E0EDF6E4B50D96EDA6A030ED926BF
:10354E004C50300FDF6E4B50D96EDA6A040ED9260E
:10355E00250EDF6E4B50D96EDA6A050ED926200E77
:10356E00DF6E4B50D96EDA6A060ED926DF6A12006C
:10357E004C6A4B504C24D96EDA6A200EDF6E4C2A00
:10358E00090E4C64CDEF1AF0CFEF1AF0C0EF1AF01F
:10359E004ABED6EF1AF0D4EF1AF0DEEF1AF0000E94
:1035AE00476E000E486E000E496E000E4A6E000EFB
:1035BE00246E3C0E256E1C0E266E460E276E47C0E0
:1035CE0028F048C029F049C02AF04AC02BF063EC1D
:1035DE0017F0D8B0F5EF1AF0F7EF1AF0FFEF1AF078
:1035EE00000E476E3C0E486E1C0E496E460E4A6E1D
:1035FE0047C03DF048C03EF049C03FF04AC040F0E1
:10360E0068EC18F03DC04DF03EC04EF04B50D96EF8
:10361E00DA6A4DC006F04EC007F0030E096EE80ED2
:10362E00086E0FEC14F00650300FDF6E4B50D96E53
:10363E00DA6A010ED926030E046EE80E036E4DC033
:10364E0001F04EC002F03BEC13F001C006F002C0D8
:10365E0007F0096A640E086E0FEC14F00650300F76
:10366E00DF6E4B50D96EDA6A020ED926046A640EEA
:10367E00036E4DC001F04EC002F03BEC13F001C0E2
:10368E0006F002C007F0096A0A0E086E0FEC14F07D
:10369E000650300FDF6E4B50D96EDA6A030ED92604
:1036AE004DC001F04EC002F0046A0A0E036E3BECF0
:1036BE0013F00150300FDF6E4B50D96EDA6A040EE4
:1036CE00D926200EDF6E4B50D96EDA6A050ED9263A
:1036DE006C0EDF6E4B50D96EDA6A060ED926780E56
:1036EE00DF6E4B50D96EDA6A070ED926200EDF6ECA
:1036FE004B50D96EDA6A080ED926DF6A12004F6A6D
:10370E004B504F24D96EDA6A200EDF6E4F2A090E07
:10371E004F6494EF1BF096EF1BF087EF1BF04ABE41
:10372E009DEF1BF09BEF1BF0A5EF1BF0000E476EFD
:10373E00000E486E000E496E000E4A6E4C500E6E14
:10374E000F6A106A116A000E55EC1CF00EC024F0C0
:10375E000FC025F010C026F011C027F047C028F08A
:10376E0048C029F049C02AF04AC02BF063EC17F08C
:10377E00D8B0C4EF1BF0C6EF1BF0D6EF1BF04C50C9
:10378E000E6E0F6A106A116A000E55EC1CF00EC018
:10379E0047F00FC048F010C049F011C04AF047C0C2
:1037AE003DF048C03EF049C03FF04AC040F068ECE2
:1037BE0018F03D504E6E000E286E000E296E200E33
:1037CE002A6E410E2B6E4E500E6E0F6A106A116AE3
:1037DE00000E55EC1CF00EC020F00FC021F010C0F2
:1037EE0022F011C023F047C01CF048C01DF049C0A4
:1037FE001EF04AC01FF0EDEC12F01CC024F01DC0EC
:10380E0025F01EC026F01FC027F067EC25F024C05F
:10381E003DF025C03EF026C03FF027C040F068ECDA
:10382E0018F03D504D6E4B50D96EDA6A4EC001F015
:10383E00026A046A0A0E036E2BEC16F00150300F6A
:10384E00DF6E4B50D96EDA6A010ED9264EC001F0EA
:10385E00026A046A0A0E036E21EC15F00150300F55
:10386E00DF6E4B50D96EDA6A020ED9262E0EDF6E3F
:10387E004B50D96EDA6A030ED9264D50300FDF6EDB
:10388E004B50D96EDA6A040ED926200EDF6E4B50DD
:10389E00D96EDA6A050ED926DF6A1200166E165038
:1038AE00D8B45CEF1CF05EEF1CF080EF1CF011BE84
:1038BE0065EF1CF063EF1CF080EF1CF00EC012F0F1
:1038CE000FC013F010C014F011C015F0121E131E0D
:1038DE00141E151E122A000E13221422152212C0B7
:1038EE0018F013C019F014C01AF015C01BF088EFB1
:1038FE001CF00EC018F00FC019F010C01AF011C055
:10390E001BF00E500F1010101110D8A491EF1CF0D8
:10391E0093EF1CF09DEF1CF0000E0E6E000E0F6E5E
:10392E00000E106E000E116E2EEF1DF0960E176E1D
:10393E00A7EF1CF0172AD8901B321A321932183200
:10394E00000E1814126E000E1914136E000E1A14B7
:10395E00146EFE0E1B14156E12501310141015104B
:10396E00D8A4BCEF1CF0BEEF1CF0A1EF1CF0CCEF06
:10397E001CF0172A010E1826000E19221A221B22DD
:10398E00D8901B321A3219321832000E1814126ED9
:10399E00000E1914136E000E1A14146EFF0E1B1463
:1039AE00156E1250131014101510D8A4E1EF1CF060
:1039BE00E3EF1CF0C0EF1CF0EBEF1CF01706D890F5
:1039CE00183619361A361B361ABEF0EF1CF0F2EF07
:1039DE001CF0FAEF1CF0020E1760F8EF1CF0FAEF75
:1039EE001CF0E5EF1CF017B0FFEF1CF001EF1DF01F
:1039FE0002EF1DF01A9ED890173217C012F0136AFC
:103A0E00146A156A12C015F0146A136A126A1250FB
:103A1E0018121350191214501A1215501B12165058
:103A2E00D8B41CEF1DF01EEF1DF026EF1DF011BED9
:103A3E0025EF1DF023EF1DF026EF1DF01B8E18C095
:103A4E000EF019C00FF01AC010F01BC011F01200CA
:103A5E00000E246E000E256E000E266E000E276ED2
:103A6E006DC028F06EC029F06FC02AF070C02BF028
:103A7E0063EC17F0D8A046EF1DF048EF1DF051EFA4
:103A8E001DF0000E00016D6F000E6E6F200E6F6F39
:103A9E00410E706F69C03DF06AC03EF06BC03FF0E2
:103AAE006CC040F06DC041F06EC042F06FC043F08C
:103ABE0070C044F0B2EC21F03DC075F03EC076F01F
:103ACE003FC077F040C078F0000E246E000E256ED9
:103ADE00000E266E000E276E75C028F076C029F0F7
:103AEE0077C02AF078C02BF063EC17F0D8A082EFE5
:103AFE001DF084EF1DF08DEF1DF06F0E0001756F40
:103B0E00120E766F830E776F3A0E786FDE0E5A6E48
:103B1E00370E5B6E310E5C6EC00E5D6E75C056F06C
:103B2E0076C057F077C058F078C059F06FEC2CF093
:103B3E0056C071F057C072F058C073F059C074F08F
:103B4E0071C024F072C025F073C026F074C027F047
:103B5E00420E286E340E296EE90E2A6E420E2B6E20
:103B6E0067EC25F024C079F025C07AF026C07BF0F2
:103B7E0027C07CF079C024F07AC025F07BC026F0F7
:103B8E007CC027F0000E286E000E296E200E2A6EC5
:103B9E00410E2B6E63EC17F0D8B0D8EF1DF0DAEFB4
:103BAE001DF0E3EF1DF0000E0001796F000E7A6F2D
:103BBE00200E7B6F410E7C6F000E246E400E256E24
:103BCE001C0E266E460E276E79C028F07AC029F09C
:103BDE007BC02AF07CC02BF063EC17F0D8B0FAEF64
:103BEE001DF0FCEF1DF005EF1EF0000E0001796FC9
:103BFE00400E7A6F1C0E7B6F460E7C6F79C069F09B
:103C0E007AC06AF07BC06BF07CC06CF012003DC0D5
:103C1E004BF03EC04CF03FC04DF040C04EF042BEA7
:103C2E0022EF1EF0425009E1800E415CD8A022EF37
:103C3E001EF024EF1EF081EF1EF04BC024F04CC09E
:103C4E0025F04DC026F04EC027F0000E286E000E57
:103C5E00296E000E2A6E7F0E2B6E67EC25F024C0A7
:103C6E004BF025C04CF026C04DF027C04EF0810E13
:103C7E004126FF0E422242BE4EEF1EF0425009E197
:103C8E00800E415CD8A04EEF1EF050EF1EF0EBEF11
:103C9E001EF04BC024F04CC025F04DC026F04EC097
:103CAE0027F0000E286E000E296E000E2A6E7F0E73
:103CBE002B6E67EC25F024C04BF025C04CF026C0CF
:103CCE004DF027C04EF0810E4126FF0E422242BE1D
:103CDE007AEF1EF0425009E1800E415CD8A07AEFD7
:103CEE001EF07CEF1EF0EBEF1EF0426A7F0E416E6F
:103CFE00EBEF1EF042AE8DEF1EF0820E415CFF0E1A
:103D0E004258D8B08DEF1EF08FEF1EF0EBEF1EF085
:103D1E004BC024F04CC025F04DC026F04EC027F00D
:103D2E00000E286E000E296E800E2A6E0C0E2B6E63
:103D3E0067EC25F024C04BF025C04CF026C04DF0AA
:103D4E0027C04EF0660E4126000E422242AEB9EF5B
:103D5E001EF0820E415CFF0E4258D8B0B9EF1EF035
:103D6E00BBEF1EF0EBEF1EF04BC024F04CC025F065
:103D7E004DC026F04EC027F0000E286E000E296EA4
:103D8E00800E2A6E0C0E2B6E67EC25F024C04BF0C5
:103D9E0025C04CF026C04DF027C04EF0660E4126D1
:103DAE00000E422242AEE5EF1EF0820E415CFF0E87
:103DBE004258D8B0E5EF1EF0E7EF1EF0EBEF1EF025
:103DCE00FF0E426E820E416E7F0E4124436E000E38
:103DDE004220446E456A466A170ED89043364436E2
:103DEE0045364636E82EF4EF1EF043C047F044C089
:103DFE0048F045C049F046C04AF047C024F048C0DC
:103E0E0025F049C026F04AC027F04BC028F04CC020
:103E1E0029F04DC02AF04EC02BF067EC25F024C0DF
:103E2E003DF025C03EF026C03FF027C040F03DC01B
:103E3E003DF03EC03EF03FC03FF040C040F01200AB
:103E4E00FA0E10EC13F02C6EFB0E10EC13F02D6E20
:103E5E00FC0E10EC13F02E6E2DC00DF00E6A0F6AD4
:103E6E00106A040ED8900D360E360F361036E82E28
:103E7E0039EF1FF02CC011F0126A136A146A0C0E7F
:103E8E00D8901136123613361436E82E47EF1FF03F
:103E9E000D501110156E0E501210166E0F5013108D
:103EAE00176E10501410186E2EC019F0193A0F0E0E
:103EBE001916195015102F6E1650306E1750316E90
:103ECE001850326E0B0E0D6E0001E6510E6EE7515C
:103EDE000F6E106A116AD8900E34126E0F34136E74
:103EEE001034146E1134156E030E166E2FC017F0AB
:103EFE0030C018F031C019F032C01AF016668AEFD1
:103F0E001FF092EF1FF01A341A321932183217328C
:103F1E00162E85EF1FF01250175C016E13501858B5
:103F2E00026E14501958036E15501A58046EE4C0E0
:103F3E0005F0E5C006F0000E06BEFF0E076E086E19
:103F4E006DEC13F00D66AEEF1FF0B6EF1FF00434FC
:103F5E0004320332023201320D2EA9EF1FF001C0DE
:103F6E0020F002C021F003C022F004C023F00C0E9A
:103F7E000D6E0001E6510E6EE7510F6E106A116A5A
:103F8E00040E126E2FC013F030C014F031C015F0B5
:103F9E0032C016F01266D6EF1FF0DEEF1FF01634A9
:103FAE001632153214321332122ED1EF1FF00E507C
:103FBE00135C016E0F501458026E10501558036E9C
:103FCE0011501658046E0001E651176EE751186E27
:103FDE00196A1A6A040E1B6E2FC01CF030C01DF039
:103FEE0031C01EF032C01FF01B6600EF20F008EF4C
:103FFE0020F01F341F321E321D321C321B2EFBEFDF
:10400E001FF017501C5C056E18501D58066E195087
:10401E001E58076E1A501F58086E6DEC13F00D6681
:10402E001BEF20F023EF20F004340432033202326F
:10403E0001320D2E16EF20F001C028F002C029F03B
:10404E0003C02AF004C02BF00E0E0D6E28C001F036
:10405E0029C002F02AC003F02BC004F0E2C005F024
:10406E00E3C006F0000E06BEFF0E076E086E6DEC86
:10407E0013F00D6645EF20F04DEF20F004340432BE
:10408E000332023201320D2E40EF20F001C024F037
:10409E0002C025F003C026F004C027F024502024CF
:1040AE000001D66F25502120D76F26502220D86FC1
:1040BE0027502320D96F1200720ED36ED3A46AEF4D
:1040CE0020F06CEF20F065EF20F0030E5F6E080E0F
:1040DE005E6E770EE82EFED75E2EFCD75F2EFAD7D9
:1040EE000000070EB46EFAEC11F0ABEC12F083EC9C
:1040FE0014F00001D56FCBEC12F0A9EC11F0D1EC5D
:10410E0015F00A0E096EDE0E0A6E7F0E0B6E000E95
:10411E00A2EC13F00A0E096EEA0E0A6E7F0E0B6EFB
:10412E00020EA2EC13F00A0E096EF00E0A6E7F0E4E
:10413E000B6E040EA2EC13F00A0E096EE40E0A6E5C
:10414E007F0E0B6E060EA2EC13F00001D551D8B403
:10415E00B3EF20F0B5EF20F0DEEF20F0D5EC29F034
:10416E0056C0CDF057C0CEF058C0CFF059C0D0F0E9
:10417E00CDC047F0CEC048F0CFC049F0D0C04AF015
:10418E00A10E4B6EF9EC19F02E0E096ECC0E0A6EC6
:10419E007F0E0B6E000EA2EC13F02E0E096EA10E0A
:1041AE000A6E0B6A000EA2EC13F0E7EF20F02E0E53
:1041BE00096ED50E0A6E7F0E0B6E000EA2EC13F07A
:1041CE0078EC15F01CC0C1F01DC0C2F01EC0C3F0CB
:1041DE001FC0C4F0C1C056F0C2C057F0C3C058F0E3
:1041EE00C4C059F0E5EC17F056C0C5F057C0C6F084
:1041FE0058C0C7F059C0C8F0C5C069F0C6C06AF053
:10420E00C7C06BF0C8C06CF0000E00016D6F000EE1
:10421E006E6F200E6F6F410E706F2FEC1DF069C028
:10422E00C9F06AC0CAF06BC0CBF06CC0CCF0C9C08C
:10423E003DF0CAC03EF0CBC03FF0CCC040F068ECC1
:10424E0018F03DC047F03EC048F0B50E496EEFEC99
:10425E0016F02E0E096ECC0E0A6E7F0E0B6E020E2F
:10426E00A2EC13F02E0E096EB50E0A6E0B6A020E3C
:10427E00A2EC13F0520E096EF60E0A6E7F0E0B6E46
:10428E00020EA2EC13F0EBEC18F056C0BDF057C0C6
:10429E00BEF058C0BFF059C0C0F0BDC047F0BEC0A0
:1042AE0048F0BFC049F0C0C04AF0970E4B6E370EB3
:1042BE004C6E86EC1BF02E0E096ECC0E0A6E7F0E27
:1042CE000B6E040EA2EC13F02E0E096E970E0A6EF4
:1042DE000B6A040EA2EC13F0520E096EF90E0A6E62
:1042EE007F0E0B6E040EA2EC13F06FEC19F056C09D
:1042FE00D1F057C0D2F058C0D3F059C0D4F0D1C0CD
:10430E0047F0D2C048F0D3C049F0D4C04AF0AB0E4B
:10431E004B6EBFEC1AF02E0E096ECC0E0A6E7F0E8F
:10432E000B6E060EA2EC13F02E0E096EAB0E0A6E7D
:10433E000B6A060EA2EC13F00B0E5F6E260E5E6E6F
:10434E005E0EE82EFED75E2EFCD75F2EFAD7ACEFB0
:10435E0020F0FEEF3FF04050800B4D6E4050402459
:10436E00546E3FAEBDEF21F0BFEF21F0C0EF21F054
:10437E0054805450D8B4C6EF21F0C8EF21F0DCEFD2
:10438E0021F05428D8A4CEEF21F0D0EF21F0D8EFB1
:10439E0021F0000E3D6E000E3E6E000E3F6E000EC2
:1043AE00406E3F8E406AE4EF21F0000E3D6E000E2F
:1043BE003E6E000E3F6E000E406E4450800B4D1A46
:1043CE0044504424556E43AEEFEF21F0F1EF21F04F
:1043DE00F2EF21F055805550D8B4F8EF21F0FAEFF6
:1043EE0021F00EEF22F05528D8A400EF22F002EFB4
:1043FE0022F00AEF22F0000E416E000E426E000E09
:10440E00436E000E446E438E446A16EF22F0000E89
:10441E00416E000E426E000E436E000E446E415011
:10442E00421043104410D8A41FEF22F021EF22F0C7
:10443E0039EF22F0000E3D6E000E3E6E000E3F6E06
:10444E00000E406E800E3F127F0E40124D504012F5
:10445E003DC03DF03EC03EF03FC03FF040C040F09A
:10446E0078EF23F05450D8A43FEF22F041EF22F022
:10447E004BEF22F0000E3D6E000E3E6E000E3F6EB4
:10448E00000E406E78EF23F0555054C045F0466A4A
:10449E00455E000E465A7F0E45244E6E000E462097
:1044AE004F6E3DC049F03EC04AF03FC04BF040C099
:1044BE004CF0000E3D6E000E3E6E000E3F6E000E76
:1044CE00406E000E506E000E516E000E526E000EBB
:1044DE00536E556AABEF22F05550D8B479EF22F0F7
:1044EE007BEF22F092EF22F0D89049364A364B36C7
:1044FE004C36D8903D363E363F36403653AE8AEF78
:10450E0022F08CEF22F08DEF22F03D80D8905036C5
:10451E005136523653364150495C42504A584350F8
:10452E004B5844504C58D8A09FEF22F0A1EF22F0E8
:10453E00AAEF22F0538C4150495E42504A5A4350E2
:10454E004B5A44504C5A552A190E5564B1EF22F06D
:10455E00B3EF22F073EF22F049504A104B104C107B
:10456E00D8B4BCEF22F0BEEF22F0D6EF22F050808E
:10457E00D6EF22F0D8903D363E363F36403653AE1B
:10458E00CBEF22F0CDEF22F0CEEF22F03D80D8908F
:10459E0050365136523653364E06D8A04F063FAEE1
:1045AE00DBEF22F0DDEF22F0C1EF22F0556A53AEC1
:1045BE00E3EF22F0E5EF22F009EF23F0FF0E5014A7
:1045CE00456EFF0E5114466EFF0E5214476E7F0E4F
:1045DE005314486E4550461047104810D8B4FAEFA1
:1045EE0022F0FCEF22F000EF23F0010E556E09EFE2
:1045FE0023F03DA005EF23F007EF23F009EF23F0A2
:10460E00FCEF22F05550D8B40FEF23F011EF23F04A
:10461E0035EF23F0010E3D26000E3E223F224022B2
:10462E0040A01CEF23F01EEF23F035EF23F03DC02A
:10463E0045F03EC046F03FC047F040C048F0483419
:10464E00483247324632453245C03DF046C03EF014
:10465E0047C03FF048C040F04E4A4F2A4FBE40EF91
:10466E0023F04F5008E14E28D8A040EF23F042EF40
:10467E0023F04DEF23F0000E4F6E4E68000E3D6E90
:10468E00000E3E6E000E3F6E000E406E4FBE5AEF95
:10469E0023F04F5006E14E04D8B058EF23F05AEFF6
:1046AE0023F066EF23F04F6A000E4E6E000E3D6E45
:1046BE00000E3E6E000E3F6E000E406E4D6A4EC0F6
:1046CE0054F054A06DEF23F06FEF23F072EF23F050
:1046DE003F8E73EF23F03F9ED8905430406E2DEFF7
:1046EE0022F0120001C022F002C023F003C024F019
:1046FE0004C025F0000E2214056E000E2314066E63
:10470E00800E2414076E7F0E2514086E800E071877
:10471E0009E17F0E081805100610D8A499EF23F0B2
:10472E009BEF23F0CBEF23F0FF0E2214056EFF0E4E
:10473E002314066E7F0E2414076E000E2514086EC9
:10474E000550061007100810D8A4B0EF23F0B2EFF2
:10475E0023F0B9EF23F025BEB9EF23F0B7EF23F026
:10476E00C1EF23F0FF0E2212FF0E23127F0E241232
:10477E00000E251222C001F023C002F024C003F067
:10478E0025C004F066EF25F025BEDAEF23F02550A4
:10479E002410231006E12204D8B0D8EF23F0DAEF6C
:1047AE0023F010EF24F0FF0E2214056EFF0E2314DB
:1047BE00066EFF0E2414076E7F0E2514086E05502C
:1047CE00061007100810D8A4EFEF23F0F1EF23F036
:1047DE00FBEF23F0000E016E000E026E000E036E54
:1047EE00000E046E66EF25F025BE02EF24F000EFFA
:1047FE0024F010EF24F00001DB6B210EDA6FFF0EB8
:10480E00226EFF0E236EFF0E246E7F0E256EC1EFFD
:10481E0023F0170E056E22C006F023C007F024C049
:10482E0008F025C009F005661FEF24F027EF24F0ED
:10483E0009340932083207320632052E1AEF24F0F7
:10484E0006C01AF007C01BF008C01CF009C01DF00E
:10485E001A501B101C101D10D8A438EF24F03AEF7C
:10486E0024F06AEF24F0000E0E6E000E0F6E000E96
:10487E00106E000E116E4FEF24F0D89022362336B4
:10488E0024362536010E0E26000E0F22102211227E
:10489E0024AE54EF24F056EF24F044EF24F0FF0E34
:1048AE000E24056EFF0E0F20066EFF0E1020076EF3
:1048BE00FF0E1120086E05501A5E06501B5A075047
:1048CE001C5A08501D5A810E1A26FF0E1B22FF0E6F
:1048DE001C22FF0E1D22FF0E2214056EFF0E231446
:1048EE00066E7F0E2414076E000E2514086E000E41
:1048FE000510226E000E0610236E800E0710246E19
:10490E00000E0810256E1AA08FEF24F091EF24F000
:10491E0099EF24F0225022262350232224502422C1
:10492E00255025221D341D321C321B321A322250C4
:10493E002226235023222450242225502522000EE5
:10494E000A6E000E0B6E000E0C6E000E0D6E0AC07F
:10495E0012F00BC013F00CC014F00DC015F0000EC9
:10496E001E6E000E1F6E000E206E010E216E08EFE1
:10497E0025F00A501E24166E0B501F20176E0C5079
:10498E002020186E0D502120196E1650225C1750E3
:10499E002358185024582550800A056E1950800A45
:1049AE000558D8A0DDEF24F0DFEF24F0FBEF24F064
:1049BE0016501E240A6E17501F200B6E1850202002
:1049CE000C6E195021200D6E1650225E1750235A70
:1049DE001850245A1950255A1E5012261F501322B1
:1049EE0020501422215015222250222623502322F9
:1049FE002450242225502522D890213220321F32D5
:104A0E001E321E501F1020102110D8A411EF25F0B9
:104A1E0013EF25F0C0EF24F02250231024102510A0
:104A2E00D8B41CEF25F01EEF25F032EF25F0010E65
:104A3E001214056E000E1314066E000E1414076E7B
:104A4E00000E1514086E055012260650132207503C
:104A5E0014220850152212C005F013C006F014C01F
:104A6E0007F015C008F00834083207320632053256
:104A7E00000E0524226E000E0620236E000E072067
:104A8E00246E3F0E0820256E1AC005F01BC006F0DE
:104A9E001CC007F01DC008F0170ED890053606365C
:104AAE0007360836E82E54EF25F00550222606501C
:104ABE0023220750242208502522C1EF23F0120092
:104ACE002750800B306E27502724366E26AE72EF9D
:104ADE0025F074EF25F075EF25F036803650D8B4FA
:104AEE007BEF25F07DEF25F090EF25F03628D8A44A
:104AFE0083EF25F085EF25F08DEF25F0000E246E67
:104B0E00000E256E000E266E000E276E268E98EF76
:104B1E0025F0000E246E000E256E000E266E000E81
:104B2E00276E2B50800B301A2B502B24356E2AAE4D
:104B3E00A3EF25F0A5EF25F0A6EF25F03580355033
:104B4E00D8B4ACEF25F0AEEF25F0C1EF25F0352847
:104B5E00D8A4B4EF25F0B6EF25F0BEEF25F0000E89
:104B6E00286E000E296E000E2A6E000E2B6E2A8EF7
:104B7E00C9EF25F0000E286E000E296E000E2A6E6B
:104B8E00000E2B6E3550D8B4CFEF25F0D1EF25F0B7
:104B9E00D9EF25F03650D8A4D7EF25F0D9EF25F070
:104BAE00E3EF25F0000E246E000E256E000E266E2D
:104BBE00000E276E79EF27F02A502402F3CF3BF038
:104BCE00F4CF3CF03B50316E326A336A346A3C505B
:104BDE00376E386A396A3A6A29502502F3CF3BF0AC
:104BEE00F4CF3CF03B503126000E322233223422D9
:104BFE003C503726000E382239223A2228502602FF
:104C0E00F3CF3BF0F4CF3CF03B503126000E322276
:104C1E00332234223C503726000E382239223A22D3
:104C2E0033C034F032C033F031C032F0316A285024
:104C3E002502F3CF3BF0F4CF3CF03B5031263C50F5
:104C4E003222000E3322000E342229502402F3CFDA
:104C5E003BF0F4CF3CF03B5031263C503222000E5C
:104C6E003322000E342233C034F032C033F031C060
:104C7E0032F0316A28502402F3CF3BF0F4CF3CF0EF
:104C8E003B5031263C503222000E3322000E34228D
:104C9E002A502502F3CF3BF0F4CF3CF03B503726A1
:104CAE003C503822000E3922000E3A22295026029C
:104CBE00F3CF3BF0F4CF3CF03B5037263C5038223C
:104CCE00000E3922000E3A222A502602F3CF3BF074
:104CDE00F4CF3CF03B502C6E3C502D6E2E6A2F6A5A
:104CEE002EC02FF02DC02EF02CC02DF02C6A2C5083
:104CFE0037262D5038222E5039222F503A2231C0CD
:104D0E002CF032C02DF033C02EF034C02FF0190E1F
:104D1E0096EF26F0D8902F322E322D322C32E82EEE
:104D2E0091EF26F02C5037262D5038222E50392256
:104D3E002F503A2233C034F032C033F031C032F04B
:104D4E00316A355036C02CF02D6A2C26000E2D22DD
:104D5E00820E2C243B6EFF0E2D203C6ECCEF26F0E7
:104D6E00D8903736383639363A3634AEC1EF26F06B
:104D7E00C3EF26F0C4EF26F03780D89031363236A6
:104D8E00333634363B06D8A03C0639AED1EF26F08A
:104D9E00D3EF26F0B7EF26F0356A34AED9EF26F012
:104DAE00DBEF26F0FFEF26F0FF0E31142C6EFF0E18
:104DBE0032142D6EFF0E33142E6E7F0E34142F6EA2
:104DCE002C502D102E102F10D8B4F0EF26F0F2EF3D
:104DDE0026F0F6EF26F0010E356EFFEF26F037A027
:104DEE00FBEF26F0FDEF26F0FFEF26F0F2EF26F0B8
:104DFE003550D8B405EF27F007EF27F02BEF27F04B
:104E0E00010E3726000E382239223A223AA012EF2E
:104E1E0027F014EF27F02BEF27F037C02CF038C017
:104E2E002DF039C02EF03AC02FF02F342F322E3203
:104E3E002D322C322CC037F02DC038F02EC039F068
:104E4E002FC03AF03B4A3C2A3CBE36EF27F03C508E
:104E5E0008E13B28D8A036EF27F038EF27F042EFD5
:104E6E0027F0000E376E000E386E800E396E7F0EF4
:104E7E003A6E6FEF27F03CBE4FEF27F03C5006E145
:104E8E003B04D8B04DEF27F04FEF27F05AEF27F045
:104E9E00000E376E000E386E000E396E000E3A6E32
:104EAE00306A6FEF27F03BC036F0FF0E3716FF0E5D
:104EBE0038167F0E3916000E3A1636A069EF27F017
:104ECE006BEF27F06CEF27F0398ED89036303A6EB4
:104EDE0030503A1237C024F038C025F039C026F0D1
:104EEE003AC027F012000450800B0D6E04500424BB
:104EFE000F6E03AE85EF27F087EF27F088EF27F0D0
:104F0E000F800F50D8B48EEF27F090EF27F0A4EF5C
:104F1E0027F00F28D8A496EF27F098EF27F0A0EFF0
:104F2E0027F0000E016E000E026E000E036E000ED4
:104F3E00046E038E046AACEF27F0000E016E000EB5
:104F4E00026E000E036E000E046E0850800B0E6E85
:104F5E000D500E18D8B4B6EF27F0B8EF27F0B9EF12
:104F6E0027F00D8C085008240E6E07AEC1EF27F007
:104F7E00C3EF27F0C4EF27F00E800E50D8B4CAEF5F
:104F8E0027F0CCEF27F0E0EF27F00E28D8A4D2EFD1
:104F9E0027F0D4EF27F0DCEF27F0000E056E000EA1
:104FAE00066E000E076E000E086E078E086AE8EF9A
:104FBE0027F0000E056E000E066E000E076E000E38
:104FCE00086E0F500E5CD8B0EFEF27F0F1EF27F020
:104FDE0018EF28F00DACF6EF27F0F8EF27F0FAEF08
:104FEE0027F0800E0D1A0FC010F00EC00FF010C07B
:104FFE000EF001C010F005C001F010C005F002C0A7
:10500E0010F006C002F010C006F003C010F007C08A
:10501E0003F010C007F004C010F008C004F010C078
:10502E0008F0106A0F500EC009F00A6A095E000EF1
:10503E000A5A0ABE2CEF28F00A5009E11A0E095C32
:10504E00D8A02CEF28F02EEF28F065EF28F00150B5
:10505E00021003100410D8A437EF28F03AEF28F00E
:10506E00010E3BEF28F0000E106E000E016E000ECA
:10507E00026E000E036E000E046E0EC00FF06EEF89
:10508E0028F010A04DEF28F04FEF28F055EF28F044
:10509E00D89010300109106E57EF28F0D8901032CA
:1050AE0001A05CEF28F05EEF28F05FEF28F0108E85
:1050BE00043404320332023201320F2A0E500F5CD6
:1050CE00D8A06CEF28F06EEF28F048EF28F00DBC5A
:1050DE0073EF28F075EF28F0B5EF28F00F50D8A435
:1050EE007BEF28F07DEF28F087EF28F0000E016EA1
:1050FE00000E026E000E036E000E046ED4EF29F049
:10510E0005500126065002220750032208500422A1
:10511E0004A094EF28F096EF28F042EF29F010A0AB
:10512E009BEF28F09DEF28F0A3EF28F0D8901030D9
:10513E000109106EA5EF28F0D890103201A0AAEF49
:10514E0028F0ACEF28F0ADEF28F0108E04340432C6
:10515E000332023201320F2A42EF29F00550015C70
:10516E0006500258075003580450800A096E085022
:10517E00800A0958D8B0C6EF28F0C8EF28F0F3EF30
:10518E0028F00150055C096E025006580A6E035055
:10519E0007580B6E045008580C6EFF0E0924016E52
:1051AE00FF0E0A20026EFF0E0B20036EFF0E0C2068
:1051BE00046E800E0D1A106C1050D8A4E9EF28F072
:1051CE00EBEF28F0FBEF28F0010E0126000E022275
:1051DE0003220422FBEF28F00550015E0650025A0E
:1051EE000750035A0850045A0150021003100410BD
:1051FE00D8A404EF29F006EF29F03BEF29F0105068
:10520E00D8A40CEF29F00EEF29F03BEF29F0000E99
:10521E00016E000E026E000E036E000E046ED4EFD1
:10522E0029F0D890013602360336043610AE22EF3E
:10523E0029F024EF29F025EF29F0018010A02AEFA4
:10524E0029F02CEF29F030EF29F0D880103632EF0C
:10525E0029F0D89010360F50D8B438EF29F03AEF25
:10526E0029F03BEF29F00F0603AE40EF29F042EF95
:10527E0029F018EF29F00E6A10AE48EF29F04AEF28
:10528E0029F062EF29F010C009F07F0E0916D8B48C
:10529E0053EF29F055EF29F059EF29F0010E0E6E5C
:1052AE0062EF29F001A05EEF29F060EF29F062EFC6
:1052BE0029F055EF29F00E50D8B468EF29F06AEFB7
:1052CE0029F095EF29F0010E0126000E022203228D
:1052DE00042204A075EF29F077EF29F095EF29F05D
:1052EE0001C009F002C00AF003C00BF004C00CF0BC
:1052FE000C340C320B320A32093209C001F00AC0EA
:10530E0002F00BC003F00CC004F00F28D8B492EFDB
:10531E0029F094EF29F095EF29F00F2A0F28D8B431
:10532E009BEF29F09DEF29F0A5EF29F00F50D8A49F
:10533E00A3EF29F0A5EF29F0B6EF29F0000E016ECC
:10534E00000E026E000E036E000E046E0F50D8A4F7
:10535E00B3EF29F0B5EF29F0B6EF29F00D6A0FA0E3
:10536E00BBEF29F0BDEF29F0C0EF29F0038EC1EF9E
:10537E0029F0039ED8900F30046E0DAEC9EF29F0C0
:10538E00CBEF29F0CCEF29F0048E01C001F002C062
:10539E0002F003C003F004C004F0120027EC1FF06B
:1053AE00FD0E10EC13F00001896FFE0E10EC13F0E1
:1053BE0000018A6F8A5189C060F0616B626B636B0A
:1053CE0062C063F061C062F060C061F0606B60113A
:1053DE00756F6151766F6251776F6351786F000E02
:1053EE00D625936FD40ED721946FFE0ED821956FCC
:1053FE00FF0ED921966F0B0E606FEF51016E026A90
:10540E00036A046A93C005F094C006F095C007F0D5
:10541E0096C008F06DEC13F00001606719EF2AF0EA
:10542E0021EF2AF004340432033202320132602FAB
:10543E0013EF2AF0000E012400018B6F800E022064
:10544E008C6F000E03208D6F000E04208E6F0A0EDF
:10545E00606FEE51016E000E01BEFF0E026E036E06
:10546E00046E93C005F094C006F095C007F096C088
:10547E0008F06DEC13F00001606748EF2AF050EF72
:10548E002AF004340432033202320132602F42EF2A
:10549E002AF001C079F002C07AF003C07BF004C09C
:1054AE007CF00A0E0001606F8BC001F08CC002F020
:1054BE008DC003F08EC004F079C005F07AC006F0FE
:1054CE007BC007F07CC008F06DEC13F00001606744
:1054DE0073EF2AF07BEF2AF00434043203320232E7
:1054EE000132602F6DEF2AF0000E012400017D6F56
:1054FE00000E02207E6F200E03207F6F000E042010
:10550E00806F0F0E606FDCC001F0DDC002F0000E88
:10551E0002BEFF0E036E046E93C005F094C006F03B
:10552E0095C007F096C008F06DEC13F00001DE5147
:10553E00616FDF51626F636B646B140ED8906137CD
:10554E00623763376437E82EA5EF2AF075C065F031
:10555E0076C066F077C067F078C068F00E0ED8900F
:10556E006537663767376837E82EB6EF2AF0615130
:10557E00655D696F625166596A6F635167596B6FEA
:10558E00645168596C6F0150695D6D6F02506A59B4
:10559E006E6F03506B596F6F04506C59706F000E25
:1055AE006D25716F400E6E21726F000E6F21736F3D
:1055BE00000E7021746F6067E7EF2AF0EFEF2AF0AC
:1055CE0074357433733372337133602FE2EF2AF014
:1055DE0071C081F072C082F073C083F074C084F029
:1055EE000E0E0001606F7DC001F07EC002F07FC024
:1055FE0003F080C004F0E0C005F0E1C006F0000E3C
:10560E0006BEFF0E076E086E6DEC13F0000E012441
:10561E000001616F200E0220626F000E0320636F87
:10562E00000E0420646F60671FEF2BF027EF2BF046
:10563E0064356433633362336133602F1AEF2BF0BA
:10564E0061C085F062C086F063C087F064C088F0E8
:10565E0081C001F082C002F083C003F084C004F068
:10566E0085C005F086C006F087C007F088C008F038
:10567E006DEC13F001C093F002C094F003C095F0EE
:10568E0004C096F0070E0001606F0F0E616F93C09D
:10569E0062F094C063F095C064F096C065F06167E7
:1056AE005BEF2BF063EF2BF06535653364336333BB
:1056BE006233612F56EF2BF062C001F063C002F02F
:1056CE0064C003F065C004F00F0E0001666F93C056
:1056DE0067F094C068F095C069F096C06AF066678E
:1056EE007BEF2BF083EF2BF06A356A336933683327
:1056FE006733662F76EF2BF067C005F068C006F0B3
:10570E0069C007F06AC008F06DEC13F00001606725
:10571E0093EF2BF09BEF2BF0043404320332023262
:10572E000132602F8DEF2BF001C08BF002C08CF098
:10573E0003C08DF004C08EF0040E0001606F8BC0AC
:10574E0001F08CC002F08DC003F08EC004F0F05159
:10575E00056E066A076A086A6DEC13F00001606751
:10576E00BBEF2BF0C3EF2BF00434043203320232C2
:10577E000132602FB5EF2BF001500001935D936F56
:10578E0002509459946F03509559956F0450965941
:10579E00966F96BFD7EF2BF0D5EF2BF0DFEF2BF0F8
:1057AE00000E936F000E946F000E956F000E966FA5
:1057BE0096BFEEEF2BF09305000E9459000E9559FF
:1057CE00190E9659D8A0EEEF2BF0F0EF2BF0F8EF64
:1057DE002BF0000E936F000E946F000E956F190E46
:1057EE00966F0C0E606F93C061F094C062F095C01E
:1057FE0063F096C064F0606707EF2CF00FEF2CF0AB
:10580E0064356433633362336133602F02EF2CF0FF
:10581E0061C00EF062C00FF063C010F064C011F0F2
:10582E00010E55EC1CF00EC03DF00FC03EF010C046
:10583E003FF011C040F0000E416E000E426E800E21
:10584E00436E440E446EB2EC21F03DC08FF03EC06C
:10585E0090F03FC091F040C092F0000192BF3CEF3B
:10586E002CF03AEF2CF044EF2CF0000E8F6F000E60
:10587E00906F000E916F000E926F000E246E000E50
:10588E00256EC80E266E420E276E8FC028F090C071
:10589E0029F091C02AF092C02BF063EC17F0D8B02B
:1058AE005BEF2CF05DEF2CF066EF2CF0000E00019C
:1058BE008F6F000E906FC80E916F420E926F8FC059
:1058CE0056F090C057F091C058F092C059F01200A7
:1058DE0056C068F157C069F158C06AF159C06BF1F2
:1058EE005AC088F15BC089F15CC08AF15DC08BF152
:1058FE00FF0E01016815AC6FFF0E6915AD6FFF0E3F
:10590E006A15AE6F7F0E6B15AF6FFF0E88159C6F0D
:10591E00FF0E89159D6FFF0E8A159E6F7F0E8B15DC
:10592E009F6F9C519D119E119F11D8A4A1EF2CF039
:10593E00A3EF2CF0ADEF2CF0000E566E000E576E4E
:10594E00800E586E3F0E596EBFEF3EF0800E6A19F4
:10595E0009E13F0E6B1968116911D8A4B9EF2CF04B
:10596E00BBEF2CF0C5EF2CF0000E566E000E576EEE
:10597E00800E586E3F0E596EBFEF3EF0AFBFD6EFA2
:10598E002CF0AC05000EAD59800EAE597F0EAF59FE
:10599E00D8B0D4EF2CF0D6EF2CF0E7EF2CF09FBF61
:1059AE00E5EF2CF09C05000E9D59800E9E597F0E42
:1059BE009F59D8A0E5EF2CF0E7EF2CF003EF2DF078
:1059CE0056C001F057C002F058C003F059C004F0A1
:1059DE005AC005F05BC006F05CC007F05DC008F071
:1059EE007AEC27F001C056F002C057F003C058F011
:1059FE0004C059F0BFEF3EF0000E546F000E556F0D
:105A0E00000E566F000E576F6BBF12EF2DF010EF9A
:105A1E002DF0DEEF2DF09FBF1EEF2DF0800E9E5D60
:105A2E004B0E9F59D8A01EEF2DF020EF2DF02AEF30
:105A3E002DF0020E546F000E556F000E566F000EB5
:105A4E00576FDEEF2DF09FBF36EF2DF0800E9E5D6F
:105A5E003F0E9F59D8A036EF2DF038EF2DF0DEEF28
:105A6E002DF0170E0001606F9CC161F09DC162F0B8
:105A7E009EC163F09FC164F0606748EF2DF050EF58
:105A8E002DF064356433633362336133602F43EF3B
:105A9E002DF0810E000161250101A46FFF0E0001A2
:105AAE0062210101A56FFF0E000163210101A66FA6
:105ABE00FF0E000164210101A76FA4511708000118
:105ACE00606F9CC161F09DC162F09EC163F09FC189
:105ADE0064F0606775EF2DF07DEF2DF06435643363
:105AEE00633362336133602F70EF2DF061C0A8F124
:105AFE0062C0A9F163C0AAF164C0ABF10101A45167
:105B0E0017080001606FA8C161F0A9C162F0AAC1B7
:105B1E0063F0ABC164F0602B9AEF2DF0D890613733
:105B2E00623763376437602F95EF2DF001019C517A
:105B3E000001611913E101019D51000162190EE18D
:105B4E0001019E510001631909E101019F510001FC
:105B5E006419D8A4B5EF2DF0B7EF2DF0DEEF2DF0D0
:105B6E00010E0101A8150001606F000E0101A915BB
:105B7E000001616F000E0101AA150001626F000E97
:105B8E000101AB150001636F605102080101546FF2
:105B9E00000E000161550101556F000E00016255A6
:105BAE000101566F000E000163550101576F800E03
:105BBE0001019E1909E17F0E9F199C119D11D8A418
:105BCE00EBEF2DF0EDEF2DF056EF2EF0800EAE191F
:105BDE0009E13F0EAF19AC11AD11D8A4F9EF2DF0BC
:105BEE00FBEF2DF005EF2EF0000E566E000E576EE9
:105BFE00800E586E3F0E596EBFEF3EF0AFBF14EFE2
:105C0E002EF0AC05000EAD59800EAE593F0EAF59B9
:105C1E00D8A014EF2EF016EF2EF031EF2EF08BBF32
:105C2E001DEF2EF01BEF2EF027EF2EF0000E566E0E
:105C3E00000E576E000E586E000E596EBFEF3EF0FE
:105C4E005AC056F05BC057F05CC058F05DC059F0BA
:105C5E00BFEF3EF08BBF38EF2EF036EF2EF04CEF4D
:105C6E002EF05AC001F05BC002F05CC003F05DC0C4
:105C7E0004F072EC12F001C056F002C057F003C0EF
:105C8E0058F004C059F0BFEF3EF0000E566E000EF5
:105C9E00576E000E586E000E596EBFEF3EF0800E1E
:105CAE009E1909E13F0E9F199C119D11D8A462EF18
:105CBE002EF064EF2EF091EF2EF08BBF6BEF2EF0E7
:105CCE0069EF2EF087EF2EF0000E3D6E000E3E6E49
:105CDE00800E3F6E3F0E406E56C041F057C042F0F0
:105CEE0058C043F059C044F0B2EC21F03DC056F01C
:105CFE003EC057F03FC058F040C059F0BFEF3EF0E5
:105D0E0056C056F057C057F058C058F059C059F009
:105D1E00BFEF3EF0400E8B19881189118A11D8A45D
:105D2E009BEF2EF09DEF2EF0B9EF2EF056C024F023
:105D3E0057C025F058C026F059C027F056C028F09D
:105D4E0057C029F058C02AF059C02BF067EC25F047
:105D5E0024C056F025C057F026C058F027C059F081
:105D6E00BFEF3EF03F0E8B19881189118A11D8A40E
:105D7E00C3EF2EF0C5EF2EF0E0EF2EF06BBFCAEFA3
:105D8E002EF0CCEF2EF0E0EF2EF056C001F057C003
:105D9E0002F058C003F059C004F079EC23F001C0B2
:105DAE0056F002C057F003C058F004C059F0BFEFD0
:105DBE003EF0ACC178F1ADC179F1AEC17AF1AFC1AF
:105DCE007BF1800EAE190BE17F0EAF19AC11AD1148
:105DDE00D8B4F4EF2EF0F6EF2EF00FEF2FF0AC510B
:105DEE00AD11AE11AF11D8B4FFEF2EF001EF2FF0C1
:105DFE000FEF2FF0800EAE1909E13F0EAF19AC1167
:105E0E00AD11D8A40DEF2FF00FEF2FF0A9EF2FF05B
:105E1E0078C1B4F179C1B5F17AC1B6F17BC1B7F1F0
:105E2E008BBF1EEF2FF01CEF2FF038EF2FF0000E70
:105E3E003D6E000E3E6E800E3F6E3F0E406EB4C144
:105E4E0041F0B5C142F0B6C143F0B7C144F0B2EC77
:105E5E0021F03DC0B4F13EC0B5F13FC0B6F140C037
:105E6E00B7F101016BBF40EF2FF03EEF2FF09FEF28
:105E7E002FF0000EAC250001606F000E0101AD2168
:105E8E000001616F800E0101AE210001626FC00E34
:105E9E000101AF210001636F010154510001601136
:105EAE00646F0101555100016111656F0101565179
:105EBE0000016211666F0101575100016311676F96
:105ECE006451651166116711D8A470EF2FF072EF4F
:105EDE002FF081EF2FF00001DB6B210EDA6FFF0E3A
:105EEE000101B46FFF0EB56FFF0EB66F7F0EB76F69
:105EFE009FEF2FF001015405551156115711D8A4DB
:105F0E008BEF2FF08DEF2FF09FEF2FF0B4C101F03C
:105F1E00B5C102F0B6C103F0B7C104F072EC12F0D5
:105F2E0001C0B4F102C0B5F103C0B6F104C0B7F1BF
:105F3E00B4C156F0B5C157F0B6C158F0B7C159F05B
:105F4E00BFEF3EF0000E646F000E656F000E666FC1
:105F5E00000E676F6BBFB8EF2FF0B6EF2FF0D8EFD4
:105F6E002FF05451551156115711D8A4C1EF2FF0DF
:105F7E00C3EF2FF0C5EF2FF072EF2FF05405551130
:105F8E0056115711D8A4CEEF2FF0D0EF2FF0D8EF37
:105F9E002FF0000E646F000E656F000E666F800EA0
:105FAE00676F9FBFE7EF2FF09C05000E9D59000E07
:105FBE009E594D0E9F59D8A0E7EF2FF0E9EF2FF025
:105FCE00ABEF31F0AFBFFBEF2FF0F80EAC5DFF0E75
:105FDE00AD597F0EAE593F0EAF59D8B0F9EF2FF035
:105FEE00FBEF2FF01BEF30F08BBF02EF30F000EF26
:105FFE0030F011EF30F0000E01016411B46F000E9D
:10600E006511B56F800E6611B66F7F0E6711B76F93
:10601E009FEF2FF0000E566E000E576E000E586E4C
:10602E00000E596EBFEF3EF0AFBF2BEF30F0080EF3
:10603E00AC5D000EAD59800EAE593F0EAF59D8A0D3
:10604E002BEF30F02DEF30F048EF30F08BBF3AEF02
:10605E0030F08B518A11891108E18805D8A03AEFEA
:10606E0030F03CEF30F03EEF30F002EF30F0000E4B
:10607E00566E000E576E000E586E000E596EBFEF24
:10608E003EF078C101F079C102F07AC103F07BC114
:10609E0004F0000E056E000E066E800E076EBF0E2B
:1060AE00086E7AEC27F001C0B0F102C0B1F103C066
:1060BE00B2F104C0B3F1000E286E000E296E800EF0
:1060CE002A6E3E0E2B6EB0C124F0B1C125F0B2C1C6
:1060DE0026F0B3C127F067EC25F024C020F025C0D0
:1060EE0021F026C022F027C023F0AB0E1C6EAA0EA4
:1060FE001D6EAA0E1E6E3E0E1F6EEDEC12F01CC033
:10610E0048F11DC049F11EC04AF11FC04BF1B0C18C
:10611E0028F0B1C129F0B2C12AF0B3C12BF0B0C141
:10612E0024F0B1C125F0B2C126F0B3C127F067EC5F
:10613E0025F024C058F125C059F126C05AF127C0C8
:10614E005BF1B0C128F0B1C129F0B2C12AF0B3C1E0
:10615E002BF048C124F049C125F04AC126F04BC1AD
:10616E0027F067EC25F024C020F025C021F026C0D2
:10617E0022F027C023F0000E1C6E000E1D6E000EC6
:10618E001E6E3F0E1F6EEDEC12F01CC04CF11DC0CA
:10619E004DF11EC04EF11FC04FF158C124F059C130
:1061AE0025F05AC126F05BC127F04CC128F04DC135
:1061BE0029F04EC12AF04FC12BF067EC25F024C018
:1061CE0044F125C045F126C046F127C047F1B0C1C4
:1061DE0024F0B1C125F0B2C126F0B3C127F0000EF4
:1061EE00286EAA0E296EB80E2A6E3F0E2B6E67EC25
:1061FE0025F024C07CF125C07DF126C07EF127C09C
:10620E007FF1700E286EA50E296EEC0E2A6E360EDC
:10621E002B6EB0C124F0B1C125F0B2C126F0B3C1CE
:10622E0027F067EC25F024C01CF025C01DF026C019
:10623E001EF027C01FF03B0E286EAA0E296EB80E58
:10624E002A6E3F0E2B6E44C124F045C125F046C187
:10625E0026F047C127F067EC25F024C020F025C0BA
:10626E0021F026C022F027C023F0EDEC12F01CC066
:10627E0080F11DC081F11EC082F11FC083F17CC16F
:10628E0001F07DC102F07EC103F07FC104F080C138
:10629E0005F081C106F082C107F083C108F07AECE7
:1062AE0027F001C08CF102C08DF103C08EF104C045
:1062BE008FF18CC194F18DC195F18EC196F18FC184
:1062CE0097F1000E010194158C6FF00E95158D6FE0
:1062DE00FF0E96158E6FFF0E97158F6F7CC120F0F7
:1062EE007DC121F07EC122F07FC123F08CC11CF054
:1062FE008DC11DF08EC11EF08FC11FF0EDEC12F09E
:10630E001CC098F11DC099F11EC09AF11FC09BF1DF
:10631E0080C11CF081C11DF082C11EF083C11FF02F
:10632E0098C120F099C121F09AC122F09BC123F0AF
:10633E00EDEC12F01CC018F11DC019F11EC01AF1BF
:10634E001FC01BF1B9EF38F0000E846F000E856F81
:10635E00000E866F000E876FAFBFC1EF31F0AF51E9
:10636E0007E1800EAE5DD8B0BFEF31F0C1EF31F076
:10637E00ECEF31F078C124F079C125F07AC126F026
:10638E007BC127F0000E286E000E296E800E2A6E3D
:10639E004B0E2B6E67EC25F024C078F125C079F1F9
:1063AE0026C07AF127C07BF1E80E01018427FF0E8B
:1063BE008523FF0E8623FF0E872378C1ACF179C1AA
:1063CE00ADF17AC1AEF17BC1AFF1170E0001606F76
:1063DE00ACC161F0ADC162F0AEC163F0AFC164F0AB
:1063EE006067FCEF31F004EF32F0643564336333F1
:1063FE0062336133602FF7EF31F0810E00016125BA
:10640E00656FFF0E6221666FFF0E6321676FFF0ED1
:10641E006421686F655101018427000166510101F5
:10642E008523000167510101862300016851010196
:10643E008723FF0EAC15A86FFF0EAD15A96F7F0E4B
:10644E00AE15AA6F000EAF15AB6F000EA46F000E47
:10645E00A56F000EA66F000EA76F000EA811AC6FF1
:10646E00000EA911AD6F800EAA11AE6F3F0EAB11CB
:10647E00AF6FABBF52EF32F0AB510BE1720EA85DB6
:10648E00C40EA9591C0EAA59D8B050EF32F052EFD3
:10649E0032F054EF32F07EEF32F0ABBF66EF32F0F7
:1064AE00AB510BE1D70EA85DB30EA9595D0EAA59DB
:1064BE00D8B064EF32F066EF32F070EF32F0010ECA
:1064CE00A46F000EA56F000EA66F000EA76F7EEFD5
:1064DE0032F0010E8427000E852386238723000EBB
:1064EE00AC27000EAD23800EAE23FF0EAF23ACC142
:1064FE0078F1ADC179F1AEC17AF1AFC17BF178C15E
:10650E001CF079C11DF07AC11EF07BC11FF0A4C131
:10651E0060F0A5C161F00001D89060376137D89066
:10652E00603761376C0E6025F66E7F0E6121F76E57
:10653E000900F5CF20F00900F5CF21F00900F5CFC5
:10654E0022F00A00F5CF23F0EDEC12F01CC07CF126
:10655E001DC07DF11EC07EF11FC07FF1000E3D6E8D
:10656E00000E3E6E800E3F6E3F0E406E78C105F0FF
:10657E0079C106F07AC107F07BC108F0A4C160F0C2
:10658E00A5C161F00001D89060376137D8906037AF
:10659E0061376C0E6025F66E7F0E6121F76E090075
:1065AE00F5CF01F00900F5CF02F00900F5CF03F0A9
:1065BE000A00F5CF04F07AEC27F001C041F002C0DA
:1065CE0042F003C043F004C044F0B2EC21F03DC0F1
:1065DE0080F13EC081F13FC082F140C083F17CC1A9
:1065EE0024F07DC125F07EC126F07FC127F080C149
:1065FE0028F081C129F082C12AF083C12BF067EC0B
:10660E0025F024C060F125C061F126C062F127C0DB
:10661E0063F160C174F161C175F162C176F163C15C
:10662E0077F174C194F175C195F176C196F177C188
:10663E0097F1000E01019415746FF00E9515756F9C
:10664E00FF0E9615766FFF0E9715776FACC160F043
:10665E00ADC161F0AEC162F0AFC163F00001633550
:10666E006333623361336033000E6015646FF00E76
:10667E006115656FFF0E6215666FFF0E6315676F0E
:10668E00000E64110101946F000E000165110101ED
:10669E00956F000E000166110101966F200E00012C
:1066AE0067110101976FA4C160F0A5C161F0A6C189
:1066BE0062F0A7C163F0150ED89000016037613704
:1066CE0062376337E82E63EF33F001019451000116
:1066DE006025646F0101955100016121656F010113
:1066EE00965100016221666F0101975100016321ED
:1066FE00676F000E64250101706F000E00016521A9
:10670E000101716F400E000166210101726F000ED2
:10671E00000167210101736FA4C160F0A5C161F092
:10672E000001D89060376137D890603761376C0EB2
:10673E006025F66E7F0E6121F76E0900F5CF20F011
:10674E000900F5CF21F00900F5CF22F00A00F5CFB0
:10675E0023F070C11CF071C11DF072C11EF073C127
:10676E001FF0EDEC12F01CC098F11DC099F11EC087
:10677E009AF11FC09BF178C11CF079C11DF07AC14E
:10678E001EF07BC11FF098C120F099C121F09AC173
:10679E0022F09BC123F0EDEC12F01CC034F11DC0B1
:1067AE0035F11EC036F11FC037F170C128F071C12E
:1067BE0029F072C12AF073C12BF074C124F075C197
:1067CE0025F076C126F077C127F067EC25F024C0BE
:1067DE0020F025C021F026C022F027C023F07CC176
:1067EE001CF07DC11DF07EC11EF07FC11FF0EDECCF
:1067FE0012F01CC098F11DC099F11EC09AF11FC075
:10680E009BF134C128F035C129F036C12AF037C1C9
:10681E002BF074C124F075C125F076C126F077C136
:10682E0027F067EC25F024C020F025C021F026C00B
:10683E0022F027C023F098C11CF099C11DF09AC117
:10684E001EF09BC11FF0EDEC12F01CC058F11DC0E4
:10685E0059F11EC05AF11FC05BF158C124F059C145
:10686E0025F05AC126F05BC127F080C128F081C106
:10687E0029F082C12AF083C12BF067EC25F024C0E9
:10688E0030F125C031F126C032F127C033F160C19D
:10689E0024F061C125F062C126F063C127F060C10A
:1068AE0028F061C129F062C12AF063C12BF067ECB8
:1068BE0025F024C090F125C091F126C092F127C099
:1068CE0093F1550E056E320E066E6C0E076E3E0E71
:1068DE00086E420E286EF10E296E530E2A6E3E0E73
:1068EE002B6E90C124F091C125F092C126F093C178
:1068FE0027F067EC25F024C001F025C002F026C079
:10690E0003F027C004F07AEC27F001C048F102C072
:10691E0049F103C04AF104C04BF1050E056EA30EFA
:10692E00066E8B0E076E3E0E086E90C128F091C15A
:10693E0029F092C12AF093C12BF048C124F049C12D
:10694E0025F04AC126F04BC127F067EC25F024C094
:10695E0001F025C002F026C003F027C004F07AEC47
:10696E0027F001C058F102C059F103C05AF104C01A
:10697E005BF1AB0E056EAA0E066EAA0E076E3E0EEC
:10698E00086E90C128F091C129F092C12AF093C1EE
:10699E002BF058C124F059C125F05AC126F05BC125
:1069AE0027F067EC25F024C001F025C002F026C0C8
:1069BE0003F027C004F07AEC27F001C04CF102C0BE
:1069CE004DF103C04EF104C04FF1B70E056E6D0EC2
:1069DE00066EDB0E076E3E0E086E90C128F091C15A
:1069EE0029F092C12AF093C12BF04CC124F04DC175
:1069FE0025F04EC126F04FC127F067EC25F024C0DC
:106A0E0001F025C002F026C003F027C004F07AEC96
:106A1E0027F001C038F102C039F103C03AF104C0C9
:106A2E003BF19A0E056E990E066E190E076E3F0E0D
:106A3E00086E90C128F091C129F092C12AF093C13D
:106A4E002BF038C124F039C125F03AC126F03BC1F4
:106A5E0027F067EC25F024C001F025C002F026C017
:106A6E0003F027C004F07AEC27F001C008F102C051
:106A7E0009F103C00AF104C00BF190C128F091C1D5
:106A8E0029F092C12AF093C12BF090C124F091C14C
:106A9E0025F092C126F093C127F067EC25F024C0B3
:106AAE000CF125C00DF126C00EF127C00FF108C163
:106ABE0024F009C125F00AC126F00BC127F00CC144
:106ACE0028F00DC129F00EC12AF00FC12BF067EC92
:106ADE0025F024C050F125C051F126C052F127C037
:106AEE0053F130C128F031C129F032C12AF033C13F
:106AFE002BF060C105F061C106F062C107F063C101
:106B0E0008F074C101F075C102F076C103F077C1CF
:106B1E0004F07AEC27F001C024F002C025F003C087
:106B2E0026F004C027F067EC25F024C05CF125C0E8
:106B3E005DF126C05EF127C05FF150C101F051C179
:106B4E0002F052C103F053C104F05CC105F05DC107
:106B5E0006F05EC107F05FC108F07AEC27F001C0C5
:106B6E0050F102C051F103C052F104C053F174C18F
:106B7E0024F075C125F076C126F077C127F074C1D7
:106B8E0028F075C129F076C12AF077C12BF067EC99
:106B9E0025F024C090F125C091F126C092F127C0B6
:106BAE0093F1000E056E000E066E400E076E400E3F
:106BBE00086E90C101F091C102F092C103F093C131
:106BCE0004F07AEC27F001C05CF102C05DF103C065
:106BDE005EF104C05FF15CC101F05DC102F05EC107
:106BEE0003F05FC104F050C105F051C106F052C16F
:106BFE0007F053C108F07AEC27F001C070F102C023
:106C0E0071F103C072F104C073F170C194F171C1DE
:106C1E0095F172C196F173C197F1000E01019415B1
:106C2E00706FF00E9515716FFF0E9615726FFF0E49
:106C3E009715736F000E056E000E066E400E076EF2
:106C4E00C00E086E70C101F071C102F072C103F086
:106C5E0073C104F07AEC27F001C040F102C041F19B
:106C6E0003C042F104C043F190C120F091C121F064
:106C7E0092C122F093C123F040C11CF041C11DF01E
:106C8E0042C11EF043C11FF0EDEC12F01CC03CF1EE
:106C9E001DC03DF11EC03EF11FC03FF150C11CF0A2
:106CAE0051C11DF052C11EF053C11FF03CC120F066
:106CBE003DC121F03EC122F03FC123F0EDEC12F0B8
:106CCE001CC034F11DC035F11EC036F11FC037F1A6
:106CDE0074C124F075C125F076C126F077C127F076
:106CEE0070C128F071C129F072C12AF073C12BF066
:106CFE0067EC25F024C07CF125C07DF126C07EF125
:106D0E0027C07FF130C128F031C129F032C12AF0FD
:106D1E0033C12BF070C124F071C125F072C126F081
:106D2E0073C127F067EC25F024C001F025C002F0F6
:106D3E0026C003F027C004F060C128F061C129F01D
:106D4E0062C12AF063C12BF034C124F035C125F0A5
:106D5E0036C126F037C127F067EC25F024C005F0C8
:106D6E0025C006F026C007F027C008F07AEC27F001
:106D7E0001C080F102C081F103C082F104C083F131
:106D8E007CC101F07DC102F07EC103F07FC104F031
:106D9E0080C105F081C106F082C107F083C108F001
:106DAE007AEC27F001C0A0F102C0A1F103C0A2F15C
:106DBE0004C0A3F1A0C194F1A1C195F1A2C196F1B5
:106DCE00A3C197F1000E01019415A06FF00E951559
:106DDE00A16FFF0E9615A26FFF0E9715A36F7CC1C4
:106DEE0020F07DC121F07EC122F07FC123F0A0C131
:106DFE001CF0A1C11DF0A2C11EF0A3C11FF0EDEC4D
:106E0E0012F01CC098F11DC099F11EC09AF11FC05E
:106E1E009BF180C11CF081C11DF082C11EF083C1A7
:106E2E001FF098C120F099C121F09AC122F09BC1A8
:106E3E0023F0EDEC12F01CC06CF11DC06DF11EC004
:106E4E006EF11FC06FF1A0C124F0A1C125F0A2C147
:106E5E0026F0A3C127F0000E286E400E296E760E86
:106E6E002A6E3F0E2B6E67EC25F024C020F125C054
:106E7E0021F126C022F127C023F14F0E286E380EC5
:106E8E00296E760E2A6E3F0E2B6E6CC124F06DC1EC
:106E9E0025F06EC126F06FC127F067EC25F024C0F7
:106EAE0005F025C006F026C007F027C008F0C60E74
:106EBE00286E230E296EF60E2A6EB80E2B6EA0C10A
:106ECE0024F0A1C125F0A2C126F0A3C127F067ECE2
:106EDE0025F024C001F025C002F026C003F027C023
:106EEE0004F07AEC27F001C05CF102C05DF103C042
:106EFE005EF104C05FF15CC101F05DC102F05EC1E4
:106F0E0003F05FC104F0A4C160F0A5C161F00001FF
:106F1E00D89060376137D890603761375C0E602546
:106F2E00F66E7F0E6121F76E0900F5CF05F00900B0
:106F3E00F5CF06F00900F5CF07F00A00F5CF08F0FF
:106F4E007AEC27F001C024F102C025F103C026F12E
:106F5E0004C027F184C10EF085C10FF086C110F078
:106F6E0087C111F0010E55EC1CF00EC0B0F10FC030
:106F7E00B1F110C0B2F111C0B3F124C105F025C1B9
:106F8E0006F026C107F027C108F020C101F021C18B
:106F9E0002F022C103F023C104F07AEC27F001C005
:106FAE005CF102C05DF103C05EF104C05FF1A4C1EB
:106FBE0060F0A5C161F00001D89060376137D890BC
:106FCE0060376137640E6025F66E7F0E6121F76EB5
:106FDE000900F5CF05F00900F5CF06F00900F5CF51
:106FEE0007F00A00F5CF08F05CC101F05DC102F0B8
:106FFE005EC103F05FC104F07AEC27F001C010F11E
:10700E0002C011F103C012F104C013F110C101F05E
:10701E0011C102F012C103F013C104F0B0C105F0AA
:10702E00B1C106F0B2C107F0B3C108F07AEC27F097
:10703E0001C08CF102C08DF103C08EF104C08FF13E
:10704E008CC194F18DC195F18EC196F18FC197F1DE
:10705E00000E010194158C6FF00E95158D6FFF0EBD
:10706E0096158E6FFF0E97158F6FB0C120F0B1C1C0
:10707E0021F0B2C122F0B3C123F08CC11CF08DC13E
:10708E001DF08EC11EF08FC11FF0EDEC12F01CC072
:10709E0098F11DC099F11EC09AF11FC09BF1A4C1B9
:1070AE0060F0A5C161F00001D89060376137D890CB
:1070BE0060376137640E6025F66E7F0E6121F76EC4
:1070CE000900F5CF20F00900F5CF21F00900F5CF2A
:1070DE0022F00A00F5CF23F098C11CF099C11DF0E3
:1070EE009AC11EF09BC11FF0EDEC12F01CC03CF1DA
:1070FE001DC03DF11EC03EF11FC03FF120C120F06A
:10710E0021C121F022C122F023C123F03CC11CF089
:10711E003DC11DF03EC11EF03FC11FF0EDEC12F05F
:10712E001CC014F11DC015F11EC016F11FC017F1C1
:10713E0024C11CF025C11DF026C11EF027C11FF071
:10714E0014C120F015C121F016C122F017C123F091
:10715E00EDEC12F01CC018F11DC019F11EC01AF191
:10716E001FC01BF15AC094F15BC095F15CC096F143
:10717E005DC097F1000E010194152C6FF00E951560
:10718E002D6FFF0E96152E6FFF0E97152F6F8CC15C
:10719E0028F08DC129F08EC12AF08FC12BF02CC1A1
:1071AE0020F02DC121F02EC122F02FC123F05AC0A4
:1071BE001CF05BC01DF05CC01EF05DC01FF0EDEC5E
:1071CE0012F01CC024F01DC025F01EC026F01FC0FA
:1071DE0027F067EC25F024C000F125C001F126C090
:1071EE0002F127C003F100C101F001C102F002C19A
:1071FE0003F003C104F018C128F019C129F01AC117
:10720E002AF01BC12BF05AC024F05BC025F05CC0E5
:10721E0026F05DC027F067EC25F024C005F025C0F0
:10722E0006F026C007F027C008F07AEC27F001C060
:10723E006CF102C06DF103C06EF104C06FF12CC190
:10724E0024F02DC125F02EC126F02FC127F08CC1C0
:10725E0028F08DC129F08EC12AF08FC12BF067EC7A
:10726E0025F024C0A0F125C0A1F126C0A2F127C0AF
:10727E00A3F1A0C101F0A1C102F0A2C103F0A3C10C
:10728E0004F06CC105F06DC106F06EC107F06FC160
:10729E0008F07AEC27F001C0B4F102C0B5F103C0DA
:1072AE00B6F104C0B7F1B4C1A8F1B5C1A9F1B6C128
:1072BE00AAF1B7C1ABF10101ABBF72EF39F0A8056E
:1072CE00000EA959000EAA59430EAB59D8A072EF61
:1072DE0039F074EF39F076EF39F002EF30F0430EFB
:1072EE00AB19A811A911AA11D8A480EF39F082EF19
:1072FE0039F0C1EF39F0A0C120F0A1C121F0A2C137
:10730E0022F0A3C123F0B4C11CF0B5C11DF0B6C16B
:10731E001EF0B7C11FF0EDEC12F01CC024F01DC022
:10732E0025F01EC026F01FC027F03C0E056EAA0EDB
:10733E00066E380E076E330E086E6CC101F06DC10D
:10734E0002F06EC103F06FC104F07AEC27F001C0B9
:10735E0028F002C029F003C02AF004C02BF063EC21
:10736E0017F0D8B0BDEF39F0BFEF39F033EF3AF088
:10737E0002EF30F0FF0EA8150001606FFF0E010145
:10738E00A9150001616FFF0E0101AA150001626FC0
:10739E007F0E0101AB150001636F63BFE3EF39F0A0
:1073AE006005000E6159160E6259430E6359D8A03E
:1073BE00E3EF39F0E5EF39F0EFEF39F0000E566EEE
:1073CE00000E576E000E586E000E596EBFEF3EF057
:1073DE00160E0101AA1909E1C30EAB19A811A911C4
:1073EE00D8A4FCEF39F0FEEF39F033EF3AF0A0C13C
:1073FE0020F0A1C121F0A2C122F0A3C123F0B4C19B
:10740E001CF0B5C11DF0B6C11EF0B7C11FF0EDECFA
:10741E0012F01CC024F01DC025F01EC026F01FC0A7
:10742E0027F06CC128F06DC129F06EC12AF06FC132
:10743E002BF063EC17F0D8A027EF3AF029EF3AF0D3
:10744E0033EF3AF0000E566E000E576E000E586E69
:10745E00000E596EBFEF3EF0FF0E0101A815286F0A
:10746E00FF0EA915296FFF0EAA152A6F7F0EAB15F9
:10747E002B6F170E0001606F28C161F029C162F0F9
:10748E002AC163F02BC164F0606750EF3AF058EFF9
:10749E003AF064356433633362336133602F4BEFFC
:1074AE003AF0810E000161250101A46FFF0E00016B
:1074BE0062210101A56FFF0E000163210101A66F7C
:1074CE00FF0E000164210101A76F000E846F000EF4
:1074DE00856F000E866F000E876F2BBF83EF3AF01D
:1074EE002805000E2959000E2A593F0E2B59D8A0F7
:1074FE0083EF3AF085EF3AF081EF3BF0A4C160F0F4
:10750E00010E00016027000E616F000E626F800E8B
:10751E00636F000E646F606797EF3AF09FEF3AF07B
:10752E0064356433633362336133602F92EF3AF024
:10753E000101A851000161250101846FA9510001CB
:10754E0062210101856FAA51000163210101866F3D
:10755E00AB51000164210101876F810E0001606F44
:10756E00FF0E616FFF0E626FFF0E636F170E646F7B
:10757E0084C165F085C166F086C167F087C168F089
:10758E006467CCEF3AF0D4EF3AF06835683367337E
:10759E0066336533642FC7EF3AF0000165516025FD
:1075AE000101A46F000E000161210101A56F000E03
:1075BE00000162210101A66F000E0001632101018D
:1075CE00A76FA4C160F0FF0E0001616FFF0E626F26
:1075DE007F0E636F000E646F6067F8EF3AF000EF96
:1075EE003BF064356433633362336133602FF3EF02
:1075FE003AF00001611D656F621D666F631D676F56
:10760E00641D686F01018451000165150101B06FA1
:10761E008551000166150101B16F86510001671594
:10762E000101B26F8751000168150101B36FA451BA
:10763E0017080001606FFF0E010184150001616FD4
:10764E00FF0E010185150001626F7F0E0101861587
:10765E000001636F000E010187150001646F000EBB
:10766E006111656F000E6211666F800E6311676F98
:10767E00000E6411686F606747EF3BF04FEF3BF011
:10768E0068356833673366336533602F42EF3BF0FE
:10769E0065C084F166C085F167C086F168C087F168
:1076AE000101ABBF5FEF3BF05DEF3BF067EF3BF0EF
:1076BE00871F861F851F846D000E852386238723D3
:1076CE00A0C11CF0A1C11DF0A2C11EF0A3C11FF0EC
:1076DE00B0C120F0B1C121F0B2C122F0B3C123F08C
:1076EE00EDEC12F01CC0A0F11DC0A1F11EC0A2F164
:1076FE001FC0A3F1A0C101F0A1C102F0A2C103F00D
:10770E00A3C104F06CC105F06DC106F06EC107F0A7
:10771E006FC108F07AEC27F001C0B0F102C0B1F1F0
:10772E0003C0B2F104C0B3F1B0C194F1B1C195F18F
:10773E00B2C196F1B3C197F1000E01019415B06F6D
:10774E00800E9515B16FFF0E9615B26FFF0E971541
:10775E00B36FB0C124F0B1C125F0B2C126F0B3C1F0
:10776E0027F0000E286E720E296E310E2A6E3F0E15
:10777E002B6E67EC25F024C07CF125C07DF126C070
:10778E007EF127C07FF1A0C120F0A1C121F0A2C1DE
:10779E0022F0A3C123F0B0C11CF0B1C11DF0B2C1E3
:1077AE001EF0B3C11FF0EDEC12F01CC098F11DC01D
:1077BE0099F11EC09AF11FC09BF1180E286E720E21
:1077CE00296E310E2A6E3F0E2B6E98C120F099C194
:1077DE0021F09AC122F09BC123F06CC11CF06DC147
:1077EE001DF06EC11EF06FC11FF0EDEC12F01CC04B
:1077FE0024F01DC025F01EC026F01FC027F067EC38
:10780E0025F024C004F125C005F126C006F127C0DD
:10781E0007F104C101F005C102F006C103F007C172
:10782E0004F08C0E286EBE0E296EBF0E2A6E350E1B
:10783E002B6EB0C124F0B1C125F0B2C126F0B3C198
:10784E0027F067EC25F024C005F025C006F026C011
:10785E0007F027C008F07AEC27F001C080F102C0D3
:10786E0081F103C082F104C083F17CC101F07DC1BE
:10787E0002F07EC103F07FC104F080C105F081C12A
:10788E0006F082C107F083C108F07AEC27F001C040
:10789E00B4F102C0B5F103C0B6F104C0B7F17CC1BA
:1078AE0020F07DC121F07EC122F07FC123F0B4C152
:1078BE001CF0B5C11DF0B6C11EF0B7C11FF0EDEC46
:1078CE0012F01CC098F11DC099F11EC09AF11FC094
:1078DE009BF180C11CF081C11DF082C11EF083C1DD
:1078EE001FF098C120F099C121F09AC122F09BC1DE
:1078FE0023F0EDEC12F01CC044F11DC045F11EC08A
:10790E0046F11FC047F1B4C124F0B5C125F0B6C190
:10791E0026F0B7C127F0B4C128F0B5C129F0B6C121
:10792E002AF0B7C12BF067EC25F024C0B0F125C0CA
:10793E00B1F126C0B2F127C0B3F10E0E056EEA0EFC
:10794E00066EDD0E076EB50E086E4C0E286EBB0E63
:10795E00296E310E2A6E330E2B6EB0C124F0B1C1DA
:10796E0025F0B2C126F0B3C127F067EC25F024C094
:10797E0001F025C002F026C003F027C004F07AEC17
:10798E0027F001C048F102C049F103C04AF104C01A
:10799E004BF1550E056EB30E066E8A0E076E380E3F
:1079AE00086EB0C128F0B1C129F0B2C12AF0B3C13E
:1079BE002BF048C124F049C125F04AC126F04BC135
:1079CE0027F067EC25F024C001F025C002F026C098
:1079DE0003F027C004F07AEC27F001C058F102C082
:1079EE0059F103C05AF104C05BF1610E056E0B0E26
:1079FE00066E360E076EBB0E086EB0C128F0B1C112
:107A0E0029F0B2C12AF0B3C12BF058C124F059C1EC
:107A1E0025F05AC126F05BC127F067EC25F024C093
:107A2E0001F025C002F026C003F027C004F07AEC66
:107A3E0027F001C04CF102C04DF103C04EF104C05D
:107A4E004FF1AB0E056EAA0E066E2A0E076E3E0E97
:107A5E00086EB0C128F0B1C129F0B2C12AF0B3C18D
:107A6E002BF04CC124F04DC125F04EC126F04FC174
:107A7E0027F067EC25F024C001F025C002F026C0E7
:107A8E0003F027C004F07AEC27F001C038F102C0F1
:107A9E0039F103C03AF104C03BF1B4C11CF0B5C1D9
:107AAE001DF0B6C11EF0B7C11FF0B0C128F0B1C1B4
:107ABE0029F0B2C12AF0B3C12BF038C124F039C17C
:107ACE0025F03AC126F03BC127F067EC25F024C023
:107ADE0020F025C021F026C022F027C023F0EDECC7
:107AEE0012F01CC08CF11DC08DF11EC08EF11FC096
:107AFE008FF1000E056E000E066E000E076EC00EA4
:107B0E00086E8CC101F08DC102F08EC103F08FC1E1
:107B1E0004F07AEC27F001C041F002C042F003C03D
:107B2E0043F004C044F08CC128F08DC129F08EC101
:107B3E002AF08FC12BF0B4C124F0B5C125F0B6C127
:107B4E0026F0B7C127F067EC25F024C03DF025C024
:107B5E003EF026C03FF027C040F0B2EC21F03DC011
:107B6E0040F13EC041F13FC042F140C043F144C13B
:107B7E0005F045C106F046C107F047C108F044C103
:107B8E0028F045C129F046C12AF047C12BF0B4C1F7
:107B9E0024F0B5C125F0B6C126F0B7C127F067ECC9
:107BAE0025F024C001F025C002F026C003F027C046
:107BBE0004F07AEC27F001C01CF102C01DF103C0E5
:107BCE001EF104C01FF140C11CF041C11DF042C1A5
:107BDE001EF043C11FF01CC120F01DC121F01EC1BB
:107BEE0022F01FC123F0EDEC12F01CC050F11DC0AD
:107BFE0051F11EC052F11FC053F1B4C120F0B5C1F6
:107C0E0021F0B6C122F0B7C123F050C11CF051C112
:107C1E001DF052C11EF053C11FF0EDEC12F01CC04E
:107C2E0098F11DC099F11EC09AF11FC09BF1000E74
:107C3E001C6E000E1D6E800E1E6E3F0E1F6E98C1C6
:107C4E0020F099C121F09AC122F09BC123F0EDECF6
:107C5E0012F01CC0B4F11DC0B5F11EC0B6F11FC0AC
:107C6E00B7F1B4C1A8F1B5C1A9F1B6C1AAF1B7C1B6
:107C7E00ABF184C160F085C161F086C162F087C14D
:107C8E0063F0170ED89000016037613762376337A3
:107C9E00E82E49EF3EF060510101A8270001615125
:107CAE000101A923000162510101AA2300016351C0
:107CBE000101AB23170E0001606FA8C161F0A9C1CD
:107CCE0062F0AAC163F0ABC164F0606771EF3EF081
:107CDE0079EF3EF064356433633362336133602F82
:107CEE006CEF3EF0000164BF89EF3EF0645163110A
:107CFE00621106E16105D8B087EF3EF089EF3EF0E4
:107D0E00A1EF3EF0B4C13DF0B5C13EF0B6C13FF0BB
:107D1E00B7C140F084C141F085C142F00EEC1EF0B7
:107D2E003DC0B4F13EC0B5F13FC0B6F140C0B7F1B1
:107D3E00A9EF3EF0A8C1B4F1A9C1B5F1AAC1B6F13F
:107D4E00ABC1B7F10101B451B511B611B711D8B429
:107D5E00B3EF3EF0B5EF3EF09FEF2FF06451B41B42
:107D6E006551B51B6651B61B6751B71B9FEF2FF0C0
:107D7E00120000000000000000005F00000007007D
:107D8E000700147F147F14242A7F2A1223130864F9
:107D9E006236495522500005030000001C224100A6
:107DAE000041221C00082A1C2A0808083E08080068
:107DBE00503000000808080808006060000020101D
:107DCE000804023E5149453E00427F400042615147
:107DDE0049462141454B311814127F102745454520
:107DEE00393C4A494930017109050336494949363A
:107DFE00064949291E00363600000056360000009E
