:04000000FEEF3FF0E0
:100800000000000000003E5149453E00427F40008C
:1008100042615149462141454B311814127F10273E
:10082000454545393C4A4949300171090503364976
:10083000494936064949291E7E1111117E7F4949D1
:1008400049363E414141227F4141221C7F4949496D
:10085000417F090909013E4149497A7F0808087F1B
:1008600000417F41002040413F017F081422417F29
:10087000404040407F020C027F7F0408107F3E41D1
:1008800041413E7F090909063E4151215E7F091918
:100890002946464949493101017F01013F40404015
:1008A0003F1F2040201F3F4038403F63140814631F
:1008B0000708700807615149454300005F000000C8
:1008C000060909060000080000494E494349414E07
:1008D000444F0048202564252500542025642043EA
:1008E0000041202564004C20256400001250800B3C
:1008F0001B6E12501224216E11AE81EF04F083EFB3
:1009000004F084EF04F021802150D8B48AEF04F081
:100910008CEF04F09FEF04F02128D8A492EF04F0AC
:1009200094EF04F09CEF04F0000E0F6E000E106EBA
:10093000000E116E000E126E118EA7EF04F0000E65
:100940000F6E000E106E000E116E000E126E16501D
:10095000800B1B1A16501624206E15AEB2EF04F051
:10096000B4EF04F0B5EF04F020802050D8B4BBEF12
:1009700004F0BDEF04F0D0EF04F02028D8A4C3EFBA
:1009800004F0C5EF04F0CDEF04F0000E136E000E7E
:10099000146E000E156E000E166E158ED8EF04F054
:1009A000000E136E000E146E000E156E000E166E05
:1009B0002050D8B4DEEF04F0E0EF04F0E8EF04F0EC
:1009C0002150D8A4E6EF04F0E8EF04F0F2EF04F0D1
:1009D000000E0F6E000E106E000E116E000E126EE5
:1009E00088EF06F015500F02F3CF26F0F4CF27F072
:1009F00026501C6E1D6A1E6A1F6A2750226E236ACB
:100A0000246A256A14501002F3CF26F0F4CF27F0A1
:100A100026501C26000E1D221E221F222750222691
:100A2000000E23222422252213501102F3CF26F098
:100A3000F4CF27F026501C26000E1D221E221F2256
:100A400027502226000E2322242225221EC01FF01A
:100A50001DC01EF01CC01DF01C6A13501002F3CF05
:100A600026F0F4CF27F026501C2627501D22000E1A
:100A70001E22000E1F2214500F02F3CF26F0F4CFD7
:100A800027F026501C2627501D22000E1E22000E85
:100A90001F221EC01FF01DC01EF01CC01DF01C6ACE
:100AA00013500F02F3CF26F0F4CF27F026501C2668
:100AB00027501D22000E1E22000E1F22155010026C
:100AC000F3CF26F0F4CF27F02650222627502322FA
:100AD000000E2422000E252214501102F3CF26F01E
:100AE000F4CF27F02650222627502322000E24225E
:100AF000000E252215501102F3CF26F0F4CF27F077
:100B00002650176E2750186E196A1A6A19C01AF003
:100B100018C019F017C018F0176A1750222618507D
:100B20002322195024221A5025221CC017F01DC060
:100B300018F01EC019F01FC01AF0190EA5EF05F02D
:100B4000D8901A32193218321732E82EA0EF05F079
:100B50001750222618502322195024221A502522D9
:100B60001EC01FF01DC01EF01CC01DF01C6A2050CE
:100B700021C017F0186A1726000E1822820E1724BB
:100B8000266EFF0E1820276EDBEF05F0D890223678
:100B90002336243625361FAED0EF05F0D2EF05F010
:100BA000D3EF05F02280D8901C361D361E361F3636
:100BB0002606D8A0270624AEE0EF05F0E2EF05F008
:100BC000C6EF05F0206A1FAEE8EF05F0EAEF05F08A
:100BD0000EEF06F0FF0E1C14176EFF0E1D14186E9C
:100BE000FF0E1E14196E7F0E1F141A6E1750181068
:100BF00019101A10D8B4FFEF05F001EF06F005EF59
:100C000006F0010E206E0EEF06F022A00AEF06F0AD
:100C10000CEF06F00EEF06F001EF06F02050D8B40E
:100C200014EF06F016EF06F03AEF06F0010E22265A
:100C3000000E23222422252225A021EF06F023EFF7
:100C400006F03AEF06F022C017F023C018F024C0D7
:100C500019F025C01AF01A341A3219321832173224
:100C600017C022F018C023F019C024F01AC025F0D4
:100C7000264A272A27BE45EF06F0275008E12628F6
:100C8000D8A045EF06F047EF06F051EF06F0000E52
:100C9000226E000E236E800E246E7F0E256E7EEF78
:100CA00006F027BE5EEF06F0275006E12604D8B016
:100CB0005CEF06F05EEF06F069EF06F0000E226EC4
:100CC000000E236E000E246E000E256E1B6A7EEF52
:100CD00006F026C021F0FF0E2216FF0E23167F0E0F
:100CE0002416000E251621A078EF06F07AEF06F004
:100CF0007BEF06F0248ED8902130256E1B502512F4
:100D000022C00FF023C010F024C011F025C012F053
:100D100012002B50800B386E2B502B243F6E2AAEC6
:100D200094EF06F096EF06F097EF06F03F803F5005
:100D3000D8B49DEF06F09FEF06F0B3EF06F03F2822
:100D4000D8A4A5EF06F0A7EF06F0AFEF06F0000E6F
:100D5000286E000E296E000E2A6E000E2B6E2A8E53
:100D60002B6ABBEF06F0000E286E000E296E000EF7
:100D70002A6E000E2B6E2F50800B381A2F502F2406
:100D8000406E2EAEC6EF06F0C8EF06F0C9EF06F0D3
:100D900040804050D8B4CFEF06F0D1EF06F0E5EF39
:100DA00006F04028D8A4D7EF06F0D9EF06F0E1EF1F
:100DB00006F0000E2C6E000E2D6E000E2E6E000E34
:100DC0002F6E2E8E2F6AEDEF06F0000E2C6E000EA9
:100DD0002D6E000E2E6E000E2F6E2C502D102E102C
:100DE0002F10D8A4F6EF06F0F8EF06F010EF07F09A
:100DF000000E286E000E296E000E2A6E000E2B6E5D
:100E0000800E2A127F0E2B1238502B1228C028F089
:100E100029C029F02AC02AF02BC02BF04FEF08F090
:100E20003F50D8A416EF07F018EF07F022EF07F0B5
:100E3000000E286E000E296E000E2A6E000E2B6E1C
:100E40004FEF08F040503FC030F0316A305E000E86
:100E5000315A7F0E3024396E000E31203A6E28C090
:100E600034F029C035F02AC036F02BC037F0000E20
:100E7000286E000E296E000E2A6E000E2B6E000EDC
:100E80003B6E000E3C6E000E3D6E000E3E6E406AE4
:100E900082EF07F04050D8B450EF07F052EF07F060
:100EA00069EF07F0D8903436353636363736D89075
:100EB000283629362A362B363EAE61EF07F063EF2F
:100EC00007F064EF07F02880D8903B363C363D367B
:100ED0003E362C50345C2D5035582E5036582F50FD
:100EE0003758D8A076EF07F078EF07F081EF07F0DA
:100EF0003E8C2C50345E2D50355A2E50365A2F5081
:100F0000375A402A190E406488EF07F08AEF07F03D
:100F10004AEF07F03450351036103710D8B493EF3D
:100F200007F095EF07F0ADEF07F03B80ADEF07F06E
:100F3000D890283629362A362B363EAEA2EF07F057
:100F4000A4EF07F0A5EF07F02880D8903B363C3699
:100F50003D363E363906D8A03A062AAEB2EF07F043
:100F6000B4EF07F098EF07F0406A3EAEBAEF07F033
:100F7000BCEF07F0E0EF07F0FF0E3B14306EFF0E02
:100F80003C14316EFF0E3D14326E7F0E3E14336EF4
:100F90003050311032103310D8B4D1EF07F0D3EF06
:100FA00007F0D7EF07F0010E406EE0EF07F028A042
:100FB000DCEF07F0DEEF07F0E0EF07F0D3EF07F02C
:100FC0004050D8B4E6EF07F0E8EF07F00CEF08F078
:100FD000010E2826000E29222A222B222BA0F3EF15
:100FE00007F0F5EF07F00CEF08F028C030F029C04B
:100FF00031F02AC032F02BC033F033343332323286
:101000003132303230C028F031C029F032C02AF0FD
:1010100033C02BF0394A3A2A3ABE17EF08F03A505B
:1010200008E13928D8A017EF08F019EF08F024EFED
:1010300008F0000E3A6E3968000E286E000E296E18
:10104000000E2A6E000E2B6E3ABE31EF08F03A50B9
:1010500006E13904D8B02FEF08F031EF08F03DEF8A
:1010600008F03A6A000E396E000E286E000E296EE6
:10107000000E2A6E000E2B6E386A39C03FF03FA07A
:1010800044EF08F046EF08F049EF08F02A8E4AEFE7
:1010900008F02A9ED8903F302B6E04EF07F0120024
:1010A000F7EC12F0060E4C6E130E4B6EAE0EE82EE1
:1010B000FED74B2EFCD74C2EFAD706EC13F0E2EC01
:1010C00012F0FFEC12F066EC0DF034EC11F0EAECEB
:1010D00011F06FEC12F0000E056E000E93EC12F0A2
:1010E000C90E096E0950D8A4080E0A6E05EC11F05D
:1010F0000B0E4C6E260E4B6E5E0EE82EFED74B2E60
:10110000FCD74C2EFAD734EC11F04EEC10F041C065
:101110008EF042C08FF043C090F044C091F0EDECEF
:1011200012F005C09AF006C09BF00BEC10F041C025
:1011300092F042C093F043C094F044C095F074EC38
:101140000FF041C096F042C097F043C098F044C001
:1011500099F08EC00DF08FC00EF090C00FF091C0CE
:1011600010F0D6EC0EF096C00DF097C00EF098C0BF
:101170000FF099C010F025EC0FF09AC001F09BC061
:1011800002F0CCEC10F09AC016F09BC017F092C0A1
:1011900018F093C019F094C01AF095C01BF0B5EC8C
:1011A00012F0000E86EC11F0000E056E000E93ECAE
:1011B00012F0800E1A6EDA0E1B6E8EC001F08FC018
:1011C00002F090C003F091C004F061EC0CF001C09B
:1011D0001CF002C01DF041EC12F0800E096E0A6A8C
:1011E00005EC11F0020E86EC11F0020E056E000EF9
:1011F00093EC12F0800E1A6ED30E1B6E92C001F0AB
:1012000093C002F094C003F095C004F061EC0CF0C0
:1012100001C01CF002C01DF041EC12F0800E096EFE
:101220000A6A05EC11F0040E86EC11F0040E056E4E
:10123000000E93EC12F0800E1A6EE10E1B6E9AC037
:101240001CF09BC01DF041EC12F0800E096E0A6A82
:1012500005EC11F0060E86EC11F0060E056E000E80
:1012600093EC12F0800E1A6EE60E1B6E96C001F023
:1012700097C002F098C003F099C004F061EC0CF044
:1012800001C01CF002C01DF041EC12F0800E096E8E
:101290000A6A05EC11F00B0E4C6E260E4B6E5E0EBC
:1012A000E82EFED74B2EFCD74C2EFAD785EF08F050
:1012B000FEEF3FF00C50D96EDA6ADFCFF6FF080E72
:1012C000F76E0800F550250AD8A469EF09F06BEF16
:1012D00009F03FEF0AF00C50D96EDA6ADF2A4E6A45
:1012E000000E4D6E4DC059F04F6850680C50D96ECD
:1012F000DA6ADF50106E10C0F6FF080EF76E0800B5
:10130000F550640AD8B487EF09F089EF09F097EF38
:1013100009F010C0F6FF080EF76E0800F550690AD4
:10132000D8A495EF09F097EF09F01BEF0AF00D50E4
:10133000D96EDA6A020EDF26DF5CD96EDA6ADECF9A
:1013400011F0DECF12F00C50D96EDA6A1028DF6E81
:10135000200E156E12BEAFEF09F0B2EF09F0010ECC
:10136000B3EF09F0000E0F6E15061550600FD96E21
:10137000DA6A11C001F012C002F0046A0A0E036EAC
:101380002AEC0EF001C007F002C008F027EC12F0C2
:101390000750300FDF6E11C001F012C002F0046A76
:1013A0000A0E036ECAEC0DF001C011F002C012F07B
:1013B00011501210D8B4DFEF09F0E1EF09F0E9EFB6
:1013C00009F01550D8A4E7EF09F0E9EF09F0B4EF00
:1013D00009F01550D8B4EFEF09F0F1EF09F010EF74
:1013E0000AF00F50D8B4F7EF09F0F9EF09F010EF59
:1013F0000AF015061550600FD96EDA6A2D0EDF6EF1
:1014000010EF0AF01550600FD96EDA6ADF500E6ED9
:101410000E50016E026A0BC003F081EC0EF0152A2B
:10142000200E1518D8A417EF0AF019EF0AF002EFF2
:101430000AF050EF0AF00C50D96EDA6ADFCFF6FFEF
:10144000080EF76E0800F550250AD8A42AEF0AF016
:101450002CEF0AF039EF0AF00C50D96EDA6ADF2A65
:10146000026A250E016E0BC003F081EC0EF050EF06
:101470000AF00C50D96EDA6ADF2A50EF0AF00C50ED
:10148000D96EDA6ADFCFF6FF080EF76E0800F55066
:10149000016E026A0BC003F081EC0EF039EF0AF026
:1014A0001200096E0950D8B458EF0AF05AEF0AF04A
:1014B0007CEF0AF004BE61EF0AF05FEF0AF07CEF08
:1014C0000AF001C005F002C006F003C007F004C036
:1014D00008F0051E061E071E081E052A000E06221D
:1014E0000722082205C00BF006C00CF007C00DF063
:1014F00008C00EF084EF0AF001C00BF002C00CF03F
:1015000003C00DF004C00EF00150021003100410CF
:10151000D8A48DEF0AF08FEF0AF099EF0AF0000ED1
:10152000016E000E026E000E036E000E046E2AEFB6
:101530000BF0960E0A6EA3EF0AF00A2AD8900E322C
:101540000D320C320B32000E0B14056E000E0C1413
:10155000066E000E0D14076EFE0E0E14086E05507A
:10156000061007100810D8A4B8EF0AF0BAEF0AF076
:101570009DEF0AF0C8EF0AF00A2A010E0B26000EB2
:101580000C220D220E22D8900E320D320C320B326C
:10159000000E0B14056E000E0C14066E000E0D14DA
:1015A000076EFF0E0E14086E055006100710081087
:1015B000D8A4DDEF0AF0DFEF0AF0BCEF0AF0E7EFA6
:1015C0000AF00A06D8900B360C360D360E360DBED4
:1015D000ECEF0AF0EEEF0AF0F6EF0AF0020E0A6006
:1015E000F4EF0AF0F6EF0AF0E1EF0AF00AB0FBEFD1
:1015F0000AF0FDEF0AF0FEEF0AF00D9ED8900A32D5
:101600000AC005F0066A076A086A05C008F0076A9A
:10161000066A056A05500B1206500C1207500D128F
:1016200008500E120950D8B418EF0BF01AEF0BF057
:1016300022EF0BF004BE21EF0BF01FEF0BF022EFB7
:101640000BF00E8E0BC001F00CC002F00DC003F0C9
:101650000EC004F012000EBE37EF0BF0BD0E0D5C95
:10166000020E0E58D8A037EF0BF039EF0BF03EEF1B
:101670000BF0030E156E14687EEF0BF00FC001F037
:1016800010C002F011C003F012C004F0000E056E8D
:10169000000E066E200E076E420E086EE4EC0CF093
:1016A000D8B055EF0BF057EF0BF05CEF0BF0156A6D
:1016B000C80E146E7EEF0BF0000E016E000E026E6F
:1016C000340E036E420E046E0FC005F010C006F01B
:1016D00011C007F012C008F0E4EC0CF0D8B073EFC2
:1016E0000BF075EF0BF07BEF0BF0030E156E840E15
:1016F000146E7EEF0BF0156A000E146E1450515CE0
:101700005250800A136E1550800A1358D8B08BEFD0
:101710000BF08DEF0BF0A6EF0BF0320E5126000E02
:1017200052225150145C1550800A136E5250800A98
:101730001358D8B09EEF0BF0A0EF0BF0CAEF0BF0F0
:1017400014C051F015C052F0CAEF0BF05150145CA8
:101750001550800A136E5250800A1358D8B0B3EF58
:101760000BF0B5EF0BF0CAEF0BF0CE0E5126FF0ECB
:1017700052221450515C5250800A136E1550800A48
:101780001358D8B0C6EF0BF0C8EF0BF0CAEF0BF050
:10179000A0EF0BF051C001F052C002F060EC11F06C
:1017A0001200086E066A000E056E200E0818D8A4F6
:1017B000DCEF0BF0DEEF0BF0E3EF0BF0066A000E50
:1017C000056E3BEF0CF02F0E0864E9EF0BF0EBEF2A
:1017D0000BF0FBEF0BF03A0E0860F1EF0BF0F3EFBC
:1017E0000BF0FBEF0BF0D10E0824056E066AFF0E1E
:1017F00006223BEF0CF0400E086401EF0CF003EF03
:101800000CF013EF0CF05B0E086009EF0CF00BEF1F
:101810000CF013EF0CF0CA0E0824056E066AFF0EDA
:1018200006223BEF0CF03A0E0818D8A41AEF0CF081
:101830001CEF0CF021EF0CF0066A250E056E3BEF55
:101840000CF0250E0818D8A428EF0CF02AEF0CF0A5
:101850002FEF0CF0066A260E056E3BEF0CF02E0EF5
:101860000818D8A436EF0CF038EF0CF03BEF0CF072
:10187000066A270E056E59EC12F0780E90EC10F007
:10188000400E90EC10F0076A0550050DF350010F63
:101890000724046E04C0F6FF080EF76E0800F5502A
:1018A00090EC10F0072A040E076459EF0CF05BEF80
:1018B0000CF044EF0CF0000E90EC10F0A4EC12F0E1
:1018C0001200033404340A6E0A50D8A46AEF0CF0F4
:1018D0006CEF0CF076EF0CF0000E016E000E026E55
:1018E000000E036E000E046EE3EF0CF001C005F075
:1018F00002C006F003C007F004C008F0200E86EF17
:101900000CF0D8900832073206320532E82E81EF0B
:101910000CF00550096E038EFF0E0116FF0E021625
:10192000FF0E0316000E0416960E0A5E0ABE9DEF09
:101930000CF09BEF0CF0B3EF0CF00A50800A970FFD
:10194000D8B0A5EF0CF0A7EF0CF0A9EF0CF06CEFFE
:101950000CF0D89004320332023201320A3EA9EF71
:101960000CF0CBEF0CF01F0E0A64B9EF0CF0BBEFDC
:101970000CF0C3EF0CF06CEF0CF0D890013602368F
:10198000033604360A060A50D8A4C9EF0CF0CBEF90
:101990000CF0BDEF0CF00950D8B4D1EF0CF0D3EF40
:1019A0000CF0DBEF0CF0041E031E021E016C000E97
:1019B00002220322042201C001F002C002F003C08F
:1019C00003F004C004F01200000E0114096E000EB2
:1019D00002140A6E800E03140B6E7F0E04140C6E3C
:1019E00009500A100B100C10D8A4F9EF0CF0FBEF03
:1019F0000CF003EF0DF0000E016E000E026E000EF3
:101A0000036E000E046E000E0514096E000E06141F
:101A10000A6E800E07140B6E7F0E08140C6E0950B0
:101A20000A100B100C10D8A418EF0DF01AEF0DF0DF
:101A300022EF0DF0000E056E000E066E000E076E12
:101A4000000E086E04AE27EF0DF029EF0DF032EF17
:101A50000DF0016C021ED8B0022A031ED8B0032A72
:101A6000800E045608AE37EF0DF039EF0DF042EF5F
:101A70000DF0056C061ED8B0062A071ED8B0072A3E
:101A8000800E0856000E011A000E021A000E031AEC
:101A9000800E041A000E051A000E061A000E071A10
:101AA000800E081A0550015C065002580750035872
:101AB00008500458D8B05FEF0DF061EF0DF064EFFF
:101AC0000DF0D89065EF0DF0D8801200030E066E71
:101AD000080E056E770EE82EFED7052EFCD7062ED3
:101AE000FAD70000AE0EC4EC12F0D50EC4EC12F022
:101AF000F00EC4EC12F0A80EC4EC12F03F0EC4ECD1
:101B000012F0D30EC4EC12F0000EC4EC12F0400E32
:101B1000C4EC12F08D0EC4EC12F0140EC4EC12F0F2
:101B2000200EC4EC12F0020EC4EC12F0A10EC4ECB4
:101B300012F0C80EC4EC12F0DA0EC4EC12F0120E61
:101B4000C4EC12F0810EC4EC12F0FF0EC4EC12F0E3
:101B5000D90EC4EC12F0F10EC4EC12F0DB0EC4ECA2
:101B600012F0400EC4EC12F0A40EC4EC12F0A60E5B
:101B7000C4EC12F0AF0EC4EC12F0020E066E040EAE
:101B8000056EBA0EE82EFED7052EFCD7062EFAD724
:101B900000D01200066A04BED2EF0DF0D0EF0DF0B7
:101BA000D8EF0DF0036C041ED8B0042A010E066EA7
:101BB00002BEDFEF0DF0DDEF0DF0E5EF0DF0016C93
:101BC000021ED8B0022A010E061A086A000E076E1D
:101BD00003500410D8B4EFEF0DF0F1EF0DF019EF52
:101BE0000EF0010E056EF9EF0DF0D89003360436B5
:101BF000052A04AEFEEF0DF000EF0EF0F5EF0DF04C
:101C0000D890073608360350015C04500258D8A01B
:101C10000CEF0EF00EEF0EF013EF0EF00350015E1E
:101C20000450025A0780D89004320332052E00EF88
:101C30000EF00650D8B41FEF0EF021EF0EF025EF96
:101C40000EF0076C081ED8B0082A07C001F008C0C3
:101C500002F01200066A02BE32EF0EF030EF0EF014
:101C600038EF0EF0016C021ED8B0022A010E066E8B
:101C700004BE3FEF0EF03DEF0EF043EF0EF0036CAD
:101C8000041ED8B0042A03500410D8B44AEF0EF052
:101C90004CEF0EF070EF0EF0010E056E54EF0EF0EB
:101CA000D89003360436052A04AE59EF0EF05BEFE8
:101CB0000EF050EF0EF00350015C04500258D8A013
:101CC00064EF0EF066EF0EF06AEF0EF00350015E67
:101CD0000450025AD89004320332052E5BEF0EF006
:101CE0000650D8B476EF0EF078EF0EF07CEF0EF0E1
:101CF000016C021ED8B0022A01C001F002C002F03D
:101D000012000350D8B487EF0EF089EF0EF091EF78
:101D10000EF00350D8A48FEF0EF091EF0EF096EF77
:101D20000EF001500CEC13F0D5EF0EF00350D96E0D
:101D3000DA6A090ED926DE50DE10D8B4A2EF0EF012
:101D4000A4EF0EF0BDEF0EF00350D96EDA6A090E63
:101D5000D9260350E16EE26A020EE126DE50E65C0F
:101D6000E650800A086EDE50800A0858D8B0BBEFF3
:101D70000EF0BDEF0EF0D5EF0EF00350D96EDA6A1B
:101D8000020ED926DF50046E0350D96EDA6ADF5096
:101D90000424D96EDA6A01C0DFFF0350D96EDA6A13
:101DA000020ED926DE2A000EDD22120055505610F2
:101DB000D8A4DDEF0EF0DFEF0EF0FEEF0EF00DC059
:101DC00001F00EC002F00FC003F010C004F0000ECE
:101DD000056E000E066EC00E076E410E086EE4EC36
:101DE0000CF0D8B0F6EF0EF0F8EF0EF0FEEF0EF0BC
:101DF0008C80566A010E556E24EF0FF05550561028
:101E0000D8B405EF0FF007EF0FF024EF0FF0000E3E
:101E1000016E000E026EF00E036E410E046E0DC0D8
:101E200005F00EC006F00FC007F010C008F0E4EC9B
:101E30000CF0D8B01EEF0FF020EF0FF024EF0FF0F2
:101E40008C90566A000E556E120053505410D8A450
:101E50002CEF0FF02EEF0FF04DEF0FF00DC001F053
:101E60000EC002F00FC003F010C004F0000E056EAB
:101E7000000E066EE10E076E430E086EE4EC0CF0E9
:101E8000D8B045EF0FF047EF0FF04DEF0FF08C8417
:101E9000546A010E536E73EF0FF053505410D8B4C0
:101EA00054EF0FF056EF0FF073EF0FF0000E016ECE
:101EB000800E026E090E036E440E046E0DC005F016
:101EC0000EC006F00FC007F010C008F0E4EC0CF0F4
:101ED000D8B06DEF0FF06FEF0FF073EF0FF08C9441
:101EE000546A000E536E120059EC12F0460E90EC3C
:101EF00010F0100E90EC10F0A4EC12F0020E466EF2
:101F0000D40E456E850EE82EFED7452EFCD7462E04
:101F1000FAD7000059EC12F0470E90EC10F0010EC9
:101F2000C3EC0FF0496E000EC3EC0FF04A6EA4EC48
:101F300012F04950456E4A50476E45C048F047C0C0
:101F400001F048C002F0036A046A000E51EC0AF086
:101F500001C028F002C029F003C02AF004C02BF011
:101F60009A0E2C6E990E2D6E990E2E6E3F0E2F6EC0
:101F700089EC06F028C041F029C042F02AC043F0A5
:101F80002BC044F01200026E036A9382046AD89058
:101F90000336030EE82EFED700008A80030EE82EDB
:101FA000FED7000081A2D7EF0FF0D9EF0FF0DAEFE4
:101FB0000FF003808A90030EE82EFED70000042A5B
:101FC000070E0464E6EF0FF0E8EF0FF0C7EF0FF035
:101FD00093920250D8B4EFEF0FF0F3EF0FF0016AD5
:101FE000012AF4EF0FF0016A01468A500118FD0B37
:101FF00001188A6E030EE82EFED700008A80030EB9
:10200000E82EFED700008A908A82030EE82EFED7C3
:10201000000003501200010E046EF20ED3EC12F019
:10202000250E046EF40ED3EC12F0820E456EDE0E19
:10203000E82EFED7452EFCD7FD0ECAEC11F0496EF6
:10204000FE0ECAEC11F04A6E4950456E4A50476E7A
:1020500045C048F047C001F048C002F0036A046A76
:10206000000E51EC0AF001C028F002C029F003C0B4
:102070002AF004C02BF00A0E2C6ED70E2D6E230E04
:102080002E6E440E2F6E89EC06F028C041F029C058
:1020900042F02AC043F02BC044F01200026A000E46
:1020A000016EA9EC11F001C045F002C046F0380EF7
:1020B000136E670E146E9C0E156E400E166E45C0A4
:1020C00001F046C002F0000E02BEFF0E036E046E69
:1020D000010E51EC0AF001C00FF002C010F003C075
:1020E00011F004C012F076EC04F00FC028F010C01C
:1020F00029F011C02AF012C02BF0000E2C6E000E39
:102100002D6E200E2E6E410E2F6E89EC06F028C02B
:1021100041F029C042F02AC043F02BC044F0120025
:10212000026E036A02BE97EF10F09BEF10F0016A97
:10213000012A9CEF10F0016A01468A500118FD0B3C
:1021400001188A6ED8900236030EE82EFED70000E2
:102150008A80030EE82EFED700008A90030EE82E38
:10216000FED70000032A070E0364B9EF10F0BBEF9F
:1021700010F092EF10F09382030EE82EFED70000CD
:102180008A80030EE82EFED700008A909392030EF9
:10219000E82EFED70000120002BED8EF10F0BD0EF0
:1021A000015C020E0258D8A0D8EF10F0DAEF10F060
:1021B00000EF11F0574A582A58BEE8EF10F0585077
:1021C00009E1040E575CD8A0E8EF10F0EAEF10F038
:1021D00004EF11F0036A8C86C80E00D0E82EFDD7FC
:1021E0008C96C80E00D0E82EFDD7032AC70E0364D4
:1021F000FCEF10F0FEEF10F0EBEF10F004EF11F039
:10220000586A000E576E8C9612001BEF11F009C031
:10221000F6FF0AC0F7FFF86A070EF76403D008005C
:10222000F55005D0F6CFE1FFF7CFE2FFE750D1EC54
:102230000BF0094A0A2A09C0F6FF0AC0F7FFF86A3C
:10224000070EF76403D00800F55005D0F6CFE1FF84
:10225000F7CFE2FFE7500009D8A431EF11F033EFD8
:1022600011F007EF11F01200066A0650B00FC4EC2F
:1022700012F0000EC4EC12F0100EC4EC12F059EC87
:1022800012F0780E90EC10F0400E90EC10F0056A11
:10229000000E90EC10F0052A7F0E056452EF11F04D
:1022A00054EF11F048EF11F0A4EC12F0062A070EDB
:1022B00006645DEF11F05FEF11F035EF11F01200E1
:1022C00002BE6AEF11F0040E025CD8A06AEF11F0B2
:1022D0006CEF11F06FEF11F0030E026E016801C098
:1022E00003F002C004F00434043203320434043234
:1022F00003320350BE6E01C003F0030E0316033A0F
:10230000BD500318CF0B0318BD6E1200056E0550AB
:10231000B00FC4EC12F0020EC4EC12F0100EC4ECBC
:1023200012F059EC12F0780E90EC10F0400E90EC98
:1023300010F0066A000E90EC10F0062A7F0E06647C
:10234000A4EF11F0A6EF11F09AEF11F0A4EC12F047
:10235000120001C003F003460346C2500318C30B2A
:102360000318C26E0D0EE82EFED70000C282C2B264
:10237000BCEF11F0BEEF11F0B7EF11F0C350C4CFB6
:1023800003F0046A03C004F0036A0310016E0450F2
:10239000026E1200056E59EC12F0EC0E90EC10F08B
:1023A000055090EC10F0A4EC12F0210EE82EFED7B0
:1023B000000059EC12F0ED0E90EC10F0000EC3ECA2
:1023C0000FF0066EA4EC12F0210EE82EFED70000EE
:1023D00006501200020E076E040E066EBA0EE82EAC
:1023E000FED7062EFCD7072EFAD700D0010E046EBA
:1023F000F20ED3EC12F0A00E046EF50ED3EC12F038
:102400001A0E066EF80EE82EFED7062EFCD700D068
:10241000120017C019F015EF12F016C00BF0190ECC
:102420000C6E18C00DF05AEC09F019C0F6FF080E3A
:10243000F76E0800F5500009D8A421EF12F023EF41
:1024400012F00DEF12F0176A000E166E120008BEA1
:102450002CEF12F02EEF12F034EF12F007C007F05D
:1024600008C008F040EF12F007C009F008C00AF0F9
:10247000091E0A1E094A0A2A09C007F00AC008F004
:1024800012001C0E1E6E1AC01FF0226A000E216E72
:10249000296A000E286E1F0E166E1BC017F01E0E46
:1024A000186E09EC12F01A502124D96EDA6ADF6A2C
:1024B000120093928A82030EE82EFED700008A80D3
:1024C000030EE82EFED700008A92030EE82EFED7F8
:1024D00000008A90030EE82EFED70000120059EC8F
:1024E00012F0460E90EC10F0010E90EC10F0A4ECFF
:1024F00012F01A0E046EF80EE82EFED7042EFCD74A
:1025000000D0120000EE60F0200EEE6AE806FDE159
:1025100000EE4DF00D0EEE6AE806FDE1000EF86EDD
:10252000000150EF08F0066E020E06260550B00FAF
:10253000C4EC12F006500F0BC4EC12F006380F0B6F
:102540001009C4EC12F0120093928A92030EE82E46
:10255000FED700008A80030EE82EFED700008A8294
:10256000030EE82EFED70000120016C00DF017C0B3
:102570000EF018C00FF019C010F01AC011F01BC0F7
:1025800012F02BEC0BF01200046E59EC12F0780EE6
:1025900090EC10F0000E90EC10F0045090EC10F065
:1025A000A4EC12F01200056E59EC12F0EC0E90EC57
:1025B00010F0055090EC10F0045090EC10F0A4ECEA
:1025C00012F012000D0EC16EAA0EC06E010EC26E88
:1025D000210EE82EFED700001200026A020E016EE4
:1025E000A9EC11F001C005F002C006F01200720E55
:1025F000D36E9268936A956A946A8C6A1200949476
:10260000CB680C0EBD6E040ECA6E120093909392AE
:0A2610008A808A82F19E12001200F7
:047FFC0082EF12F00E
:020000040030CA
:0800000000081F1EFF8181FFB3
:00000001FF
